{
  "_format": "hh-sol-artifact-1",
  "contractName": "AccessToken",
  "sourceName": "contracts/AccessToken.sol",
  "abi": [
    {
      "inputs": [
        {
          "internalType": "string",
          "name": "baseURI_",
          "type": "string"
        },
        {
          "internalType": "string",
          "name": "_name",
          "type": "string"
        },
        {
          "internalType": "string",
          "name": "_symbol",
          "type": "string"
        }
      ],
      "stateMutability": "nonpayable",
      "type": "constructor"
    },
    {
      "anonymous": false,
      "inputs": [
        {
          "indexed": true,
          "internalType": "address",
          "name": "owner",
          "type": "address"
        },
        {
          "indexed": true,
          "internalType": "address",
          "name": "approved",
          "type": "address"
        },
        {
          "indexed": true,
          "internalType": "uint256",
          "name": "tokenId",
          "type": "uint256"
        }
      ],
      "name": "Approval",
      "type": "event"
    },
    {
      "anonymous": false,
      "inputs": [
        {
          "indexed": true,
          "internalType": "address",
          "name": "owner",
          "type": "address"
        },
        {
          "indexed": true,
          "internalType": "address",
          "name": "operator",
          "type": "address"
        },
        {
          "indexed": false,
          "internalType": "bool",
          "name": "approved",
          "type": "bool"
        }
      ],
      "name": "ApprovalForAll",
      "type": "event"
    },
    {
      "anonymous": false,
      "inputs": [
        {
          "indexed": false,
          "internalType": "uint256",
          "name": "quantity",
          "type": "uint256"
        },
        {
          "indexed": false,
          "internalType": "uint256",
          "name": "price",
          "type": "uint256"
        },
        {
          "indexed": false,
          "internalType": "address",
          "name": "fundingRecipient",
          "type": "address"
        },
        {
          "indexed": true,
          "internalType": "uint256",
          "name": "MembershipId",
          "type": "uint256"
        }
      ],
      "name": "MembershipCreated",
      "type": "event"
    },
    {
      "anonymous": false,
      "inputs": [
        {
          "indexed": true,
          "internalType": "uint256",
          "name": "MembershipId",
          "type": "uint256"
        },
        {
          "indexed": true,
          "internalType": "uint256",
          "name": "tokenId",
          "type": "uint256"
        },
        {
          "indexed": false,
          "internalType": "uint256",
          "name": "numSold",
          "type": "uint256"
        },
        {
          "indexed": true,
          "internalType": "address",
          "name": "buyer",
          "type": "address"
        }
      ],
      "name": "MembershipPurchased",
      "type": "event"
    },
    {
      "anonymous": false,
      "inputs": [
        {
          "indexed": true,
          "internalType": "address",
          "name": "from",
          "type": "address"
        },
        {
          "indexed": true,
          "internalType": "address",
          "name": "to",
          "type": "address"
        },
        {
          "indexed": true,
          "internalType": "uint256",
          "name": "tokenId",
          "type": "uint256"
        }
      ],
      "name": "Transfer",
      "type": "event"
    },
    {
      "inputs": [
        {
          "internalType": "address",
          "name": "to",
          "type": "address"
        },
        {
          "internalType": "uint256",
          "name": "tokenId",
          "type": "uint256"
        }
      ],
      "name": "approve",
      "outputs": [],
      "stateMutability": "nonpayable",
      "type": "function"
    },
    {
      "inputs": [
        {
          "internalType": "address",
          "name": "owner",
          "type": "address"
        }
      ],
      "name": "balanceOf",
      "outputs": [
        {
          "internalType": "uint256",
          "name": "",
          "type": "uint256"
        }
      ],
      "stateMutability": "view",
      "type": "function"
    },
    {
      "inputs": [
        {
          "internalType": "address",
          "name": "user",
          "type": "address"
        }
      ],
      "name": "balanceOfToken",
      "outputs": [
        {
          "internalType": "uint256",
          "name": "",
          "type": "uint256"
        }
      ],
      "stateMutability": "view",
      "type": "function"
    },
    {
      "inputs": [
        {
          "internalType": "uint256",
          "name": "membershipId",
          "type": "uint256"
        }
      ],
      "name": "buyMembership",
      "outputs": [],
      "stateMutability": "payable",
      "type": "function"
    },
    {
      "inputs": [],
      "name": "contractURI",
      "outputs": [
        {
          "internalType": "string",
          "name": "",
          "type": "string"
        }
      ],
      "stateMutability": "view",
      "type": "function"
    },
    {
      "inputs": [
        {
          "internalType": "uint256",
          "name": "coverId",
          "type": "uint256"
        },
        {
          "internalType": "uint256",
          "name": "quantity",
          "type": "uint256"
        },
        {
          "internalType": "uint256",
          "name": "price",
          "type": "uint256"
        },
        {
          "internalType": "address payable",
          "name": "fundingRecipient",
          "type": "address"
        }
      ],
      "name": "createMemberships",
      "outputs": [],
      "stateMutability": "nonpayable",
      "type": "function"
    },
    {
      "inputs": [
        {
          "internalType": "address",
          "name": "user",
          "type": "address"
        }
      ],
      "name": "currentHoldings",
      "outputs": [
        {
          "components": [
            {
              "internalType": "uint256",
              "name": "coverId",
              "type": "uint256"
            },
            {
              "internalType": "uint256",
              "name": "quantity",
              "type": "uint256"
            },
            {
              "internalType": "uint256",
              "name": "price",
              "type": "uint256"
            },
            {
              "internalType": "uint256",
              "name": "numSold",
              "type": "uint256"
            },
            {
              "internalType": "address payable",
              "name": "fundingRecipient",
              "type": "address"
            }
          ],
          "internalType": "struct AccessToken.Membership[]",
          "name": "",
          "type": "tuple[]"
        }
      ],
      "stateMutability": "view",
      "type": "function"
    },
    {
      "inputs": [
        {
          "internalType": "uint256",
          "name": "tokenId",
          "type": "uint256"
        }
      ],
      "name": "getApproved",
      "outputs": [
        {
          "internalType": "address",
          "name": "",
          "type": "address"
        }
      ],
      "stateMutability": "view",
      "type": "function"
    },
    {
      "inputs": [
        {
          "internalType": "uint256",
          "name": "id",
          "type": "uint256"
        }
      ],
      "name": "getMembership",
      "outputs": [
        {
          "components": [
            {
              "internalType": "uint256",
              "name": "coverId",
              "type": "uint256"
            },
            {
              "internalType": "uint256",
              "name": "quantity",
              "type": "uint256"
            },
            {
              "internalType": "uint256",
              "name": "price",
              "type": "uint256"
            },
            {
              "internalType": "uint256",
              "name": "numSold",
              "type": "uint256"
            },
            {
              "internalType": "address payable",
              "name": "fundingRecipient",
              "type": "address"
            }
          ],
          "internalType": "struct AccessToken.Membership",
          "name": "",
          "type": "tuple"
        }
      ],
      "stateMutability": "view",
      "type": "function"
    },
    {
      "inputs": [
        {
          "internalType": "address",
          "name": "owner",
          "type": "address"
        },
        {
          "internalType": "address",
          "name": "operator",
          "type": "address"
        }
      ],
      "name": "isApprovedForAll",
      "outputs": [
        {
          "internalType": "bool",
          "name": "",
          "type": "bool"
        }
      ],
      "stateMutability": "view",
      "type": "function"
    },
    {
      "inputs": [
        {
          "internalType": "uint256",
          "name": "",
          "type": "uint256"
        }
      ],
      "name": "memberships",
      "outputs": [
        {
          "internalType": "uint256",
          "name": "coverId",
          "type": "uint256"
        },
        {
          "internalType": "uint256",
          "name": "quantity",
          "type": "uint256"
        },
        {
          "internalType": "uint256",
          "name": "price",
          "type": "uint256"
        },
        {
          "internalType": "uint256",
          "name": "numSold",
          "type": "uint256"
        },
        {
          "internalType": "address payable",
          "name": "fundingRecipient",
          "type": "address"
        }
      ],
      "stateMutability": "view",
      "type": "function"
    },
    {
      "inputs": [],
      "name": "name",
      "outputs": [
        {
          "internalType": "string",
          "name": "",
          "type": "string"
        }
      ],
      "stateMutability": "view",
      "type": "function"
    },
    {
      "inputs": [
        {
          "internalType": "uint256",
          "name": "tokenId",
          "type": "uint256"
        }
      ],
      "name": "ownerOf",
      "outputs": [
        {
          "internalType": "address",
          "name": "",
          "type": "address"
        }
      ],
      "stateMutability": "view",
      "type": "function"
    },
    {
      "inputs": [
        {
          "internalType": "address",
          "name": "from",
          "type": "address"
        },
        {
          "internalType": "address",
          "name": "to",
          "type": "address"
        },
        {
          "internalType": "uint256",
          "name": "tokenId",
          "type": "uint256"
        }
      ],
      "name": "safeTransferFrom",
      "outputs": [],
      "stateMutability": "nonpayable",
      "type": "function"
    },
    {
      "inputs": [
        {
          "internalType": "address",
          "name": "from",
          "type": "address"
        },
        {
          "internalType": "address",
          "name": "to",
          "type": "address"
        },
        {
          "internalType": "uint256",
          "name": "tokenId",
          "type": "uint256"
        },
        {
          "internalType": "bytes",
          "name": "_data",
          "type": "bytes"
        }
      ],
      "name": "safeTransferFrom",
      "outputs": [],
      "stateMutability": "nonpayable",
      "type": "function"
    },
    {
      "inputs": [
        {
          "internalType": "address",
          "name": "operator",
          "type": "address"
        },
        {
          "internalType": "bool",
          "name": "approved",
          "type": "bool"
        }
      ],
      "name": "setApprovalForAll",
      "outputs": [],
      "stateMutability": "nonpayable",
      "type": "function"
    },
    {
      "inputs": [
        {
          "internalType": "bytes4",
          "name": "interfaceId",
          "type": "bytes4"
        }
      ],
      "name": "supportsInterface",
      "outputs": [
        {
          "internalType": "bool",
          "name": "",
          "type": "bool"
        }
      ],
      "stateMutability": "view",
      "type": "function"
    },
    {
      "inputs": [],
      "name": "symbol",
      "outputs": [
        {
          "internalType": "string",
          "name": "",
          "type": "string"
        }
      ],
      "stateMutability": "view",
      "type": "function"
    },
    {
      "inputs": [
        {
          "internalType": "uint256",
          "name": "",
          "type": "uint256"
        }
      ],
      "name": "tokenToMembership",
      "outputs": [
        {
          "internalType": "uint256",
          "name": "",
          "type": "uint256"
        }
      ],
      "stateMutability": "view",
      "type": "function"
    },
    {
      "inputs": [
        {
          "internalType": "uint256",
          "name": "tokenId",
          "type": "uint256"
        }
      ],
      "name": "tokenURI",
      "outputs": [
        {
          "internalType": "string",
          "name": "",
          "type": "string"
        }
      ],
      "stateMutability": "view",
      "type": "function"
    },
    {
      "inputs": [
        {
          "internalType": "uint256",
          "name": "id",
          "type": "uint256"
        }
      ],
      "name": "totalSupply",
      "outputs": [
        {
          "internalType": "uint256",
          "name": "",
          "type": "uint256"
        }
      ],
      "stateMutability": "view",
      "type": "function"
    },
    {
      "inputs": [
        {
          "internalType": "address",
          "name": "from",
          "type": "address"
        },
        {
          "internalType": "address",
          "name": "to",
          "type": "address"
        },
        {
          "internalType": "uint256",
          "name": "tokenId",
          "type": "uint256"
        }
      ],
      "name": "transferFrom",
      "outputs": [],
      "stateMutability": "nonpayable",
      "type": "function"
    },
    {
      "inputs": [
        {
          "internalType": "uint256",
          "name": "membershipId",
          "type": "uint256"
        }
      ],
      "name": "withdrawFunds",
      "outputs": [],
      "stateMutability": "nonpayable",
      "type": "function"
    },
    {
      "inputs": [
        {
          "internalType": "uint256",
          "name": "",
          "type": "uint256"
        }
      ],
      "name": "withdrawnForMembership",
      "outputs": [
        {
          "internalType": "uint256",
          "name": "",
          "type": "uint256"
        }
      ],
      "stateMutability": "view",
      "type": "function"
    }
  ],
  "bytecode": "0x60806040526001600c553480156200001657600080fd5b5060405162003f7738038062003f7783398181016040528101906200003c9190620001b6565b818181600090805190602001906200005692919062000094565b5080600190805190602001906200006f92919062000094565b50505082600690805190602001906200008a92919062000094565b50505050620003c7565b828054620000a290620002ec565b90600052602060002090601f016020900481019282620000c6576000855562000112565b82601f10620000e157805160ff191683800117855562000112565b8280016001018555821562000112579182015b8281111562000111578251825591602001919060010190620000f4565b5b50905062000121919062000125565b5090565b5b808211156200014057600081600090555060010162000126565b5090565b60006200015b620001558462000280565b62000257565b9050828152602081018484840111156200017457600080fd5b62000181848285620002b6565b509392505050565b600082601f8301126200019b57600080fd5b8151620001ad84826020860162000144565b91505092915050565b600080600060608486031215620001cc57600080fd5b600084015167ffffffffffffffff811115620001e757600080fd5b620001f58682870162000189565b935050602084015167ffffffffffffffff8111156200021357600080fd5b620002218682870162000189565b925050604084015167ffffffffffffffff8111156200023f57600080fd5b6200024d8682870162000189565b9150509250925092565b60006200026362000276565b905062000271828262000322565b919050565b6000604051905090565b600067ffffffffffffffff8211156200029e576200029d62000387565b5b620002a982620003b6565b9050602081019050919050565b60005b83811015620002d6578082015181840152602081019050620002b9565b83811115620002e6576000848401525b50505050565b600060028204905060018216806200030557607f821691505b602082108114156200031c576200031b62000358565b5b50919050565b6200032d82620003b6565b810181811067ffffffffffffffff821117156200034f576200034e62000387565b5b80604052505050565b7f4e487b7100000000000000000000000000000000000000000000000000000000600052602260045260246000fd5b7f4e487b7100000000000000000000000000000000000000000000000000000000600052604160045260246000fd5b6000601f19601f8301169050919050565b613ba080620003d76000396000f3fe60806040526004361061014b5760003560e01c806370a08231116100b6578063b99152d01161006f578063b99152d0146104cd578063bd85b0391461050a578063c87b56dd14610547578063e8a3d48514610584578063e985e9c5146105af578063f27c4b7f146105ec5761014b565b806370a08231146103ba5780637561565d146103f757806395d89b4114610434578063a22cb4651461045f578063a432312814610488578063b88d4fde146104a45761014b565b806323b872dd1161010857806323b872dd14610270578063321621d71461029957806338fbf2c6146102da57806342842e0e14610317578063491d1269146103405780636352211e1461037d5761014b565b806301ffc9a71461015057806306fdde031461018d578063077b92ff146101b8578063081812fc146101e1578063095ea7b31461021e578063155dd5ee14610247575b600080fd5b34801561015c57600080fd5b50610177600480360381019061017291906125f0565b610629565b6040516101849190612d9d565b60405180910390f35b34801561019957600080fd5b506101a261070b565b6040516101af9190612db8565b60405180910390f35b3480156101c457600080fd5b506101df60048036038101906101da919061266b565b61079d565b005b3480156101ed57600080fd5b5061020860048036038101906102039190612642565b6108be565b6040516102159190612d14565b60405180910390f35b34801561022a57600080fd5b50610245600480360381019061024091906125b4565b610943565b005b34801561025357600080fd5b5061026e60048036038101906102699190612642565b610a5b565b005b34801561027c57600080fd5b50610297600480360381019061029291906124ae565b610b23565b005b3480156102a557600080fd5b506102c060048036038101906102bb9190612642565b610b83565b6040516102d19594939291906130a7565b60405180910390f35b3480156102e657600080fd5b5061030160048036038101906102fc9190612642565b610bd9565b60405161030e919061303a565b60405180910390f35b34801561032357600080fd5b5061033e600480360381019061033991906124ae565b610cd4565b005b34801561034c57600080fd5b5061036760048036038101906103629190612449565b610cf4565b6040516103749190612d7b565b60405180910390f35b34801561038957600080fd5b506103a4600480360381019061039f9190612642565b610f56565b6040516103b19190612d14565b60405180910390f35b3480156103c657600080fd5b506103e160048036038101906103dc9190612449565b611008565b6040516103ee9190613055565b60405180910390f35b34801561040357600080fd5b5061041e60048036038101906104199190612642565b6110c0565b60405161042b9190613055565b60405180910390f35b34801561044057600080fd5b506104496110d8565b6040516104569190612db8565b60405180910390f35b34801561046b57600080fd5b5061048660048036038101906104819190612578565b61116a565b005b6104a2600480360381019061049d9190612642565b611180565b005b3480156104b057600080fd5b506104cb60048036038101906104c691906124fd565b6113ba565b005b3480156104d957600080fd5b506104f460048036038101906104ef9190612449565b61141c565b6040516105019190613055565b60405180910390f35b34801561051657600080fd5b50610531600480360381019061052c9190612642565b61149f565b60405161053e9190613055565b60405180910390f35b34801561055357600080fd5b5061056e60048036038101906105699190612642565b6114bf565b60405161057b9190612db8565b60405180910390f35b34801561059057600080fd5b50610599611566565b6040516105a69190612db8565b60405180910390f35b3480156105bb57600080fd5b506105d660048036038101906105d19190612472565b61158e565b6040516105e39190612d9d565b60405180910390f35b3480156105f857600080fd5b50610613600480360381019061060e9190612642565b611622565b6040516106209190613055565b60405180910390f35b60007f80ac58cd000000000000000000000000000000000000000000000000000000007bffffffffffffffffffffffffffffffffffffffffffffffffffffffff1916827bffffffffffffffffffffffffffffffffffffffffffffffffffffffff191614806106f457507f5b5e139f000000000000000000000000000000000000000000000000000000007bffffffffffffffffffffffffffffffffffffffffffffffffffffffff1916827bffffffffffffffffffffffffffffffffffffffffffffffffffffffff1916145b8061070457506107038261163a565b5b9050919050565b60606000805461071a906133ff565b80601f0160208091040260200160405190810160405280929190818152602001828054610746906133ff565b80156107935780601f1061076857610100808354040283529160200191610793565b820191906000526020600020905b81548152906001019060200180831161077657829003601f168201915b5050505050905090565b6040518060a00160405280858152602001848152602001838152602001600081526020018273ffffffffffffffffffffffffffffffffffffffff1681525060076000600c5481526020019081526020016000206000820151816000015560208201518160010155604082015181600201556060820151816003015560808201518160040160006101000a81548173ffffffffffffffffffffffffffffffffffffffff021916908373ffffffffffffffffffffffffffffffffffffffff160217905550905050600c547f569ed9b46fb6769b3d28035ad5159a443d743d3e6d1b12cc75d3d2666164097a84848460405161089893929190613070565b60405180910390a2600c60008154809291906108b390613462565b919050555050505050565b60006108c9826116a4565b610908576040517f08c379a00000000000000000000000000000000000000000000000000000000081526004016108ff90612f7a565b60405180910390fd5b6004600083815260200190815260200160002060009054906101000a900473ffffffffffffffffffffffffffffffffffffffff169050919050565b600061094e82610f56565b90508073ffffffffffffffffffffffffffffffffffffffff168373ffffffffffffffffffffffffffffffffffffffff1614156109bf576040517f08c379a00000000000000000000000000000000000000000000000000000000081526004016109b690612fba565b60405180910390fd5b8073ffffffffffffffffffffffffffffffffffffffff166109de611710565b73ffffffffffffffffffffffffffffffffffffffff161480610a0d5750610a0c81610a07611710565b61158e565b5b610a4c576040517f08c379a0000000000000000000000000000000000000000000000000000000008152600401610a4390612eda565b60405180910390fd5b610a568383611718565b505050565b6000600a60008381526020019081526020016000205460076000848152602001908152602001600020600301546007600085815260200190815260200160002060020154610aa99190613273565b610ab391906132cd565b905080600a60008481526020019081526020016000206000828254610ad891906131ec565b92505081905550610b1f6007600084815260200190815260200160002060040160009054906101000a900473ffffffffffffffffffffffffffffffffffffffff16826117d1565b5050565b610b34610b2e611710565b826118c5565b610b73576040517f08c379a0000000000000000000000000000000000000000000000000000000008152600401610b6a90612fda565b60405180910390fd5b610b7e8383836119a3565b505050565b60076020528060005260406000206000915090508060000154908060010154908060020154908060030154908060040160009054906101000a900473ffffffffffffffffffffffffffffffffffffffff16905085565b610be161231e565b610be961231e565b6000600190505b600c54811015610cca578360076000838152602001908152602001600020600001541415610cb757600760008281526020019081526020016000206040518060a0016040529081600082015481526020016001820154815260200160028201548152602001600382015481526020016004820160009054906101000a900473ffffffffffffffffffffffffffffffffffffffff1673ffffffffffffffffffffffffffffffffffffffff1673ffffffffffffffffffffffffffffffffffffffff168152505091505b8080610cc290613462565b915050610bf0565b5080915050919050565b610cef838383604051806020016040528060008152506113ba565b505050565b6060600080600090505b600b54811015610d715780600960008673ffffffffffffffffffffffffffffffffffffffff1673ffffffffffffffffffffffffffffffffffffffff168152602001908152602001600020541415610d5e578180610d5a90613462565b9250505b8080610d6990613462565b915050610cfe565b5060008167ffffffffffffffff811115610db4577f4e487b7100000000000000000000000000000000000000000000000000000000600052604160045260246000fd5b604051908082528060200260200182016040528015610ded57816020015b610dda61231e565b815260200190600190039081610dd25790505b50905060005b600b54811015610f4b5780600960008773ffffffffffffffffffffffffffffffffffffffff1673ffffffffffffffffffffffffffffffffffffffff168152602001908152602001600020541415610f385760076000600860008481526020019081526020016000205481526020019081526020016000206040518060a0016040529081600082015481526020016001820154815260200160028201548152602001600382015481526020016004820160009054906101000a900473ffffffffffffffffffffffffffffffffffffffff1673ffffffffffffffffffffffffffffffffffffffff1673ffffffffffffffffffffffffffffffffffffffff1681525050828281518110610f2c577f4e487b7100000000000000000000000000000000000000000000000000000000600052603260045260246000fd5b60200260200101819052505b8080610f4390613462565b915050610df3565b508092505050919050565b6000806002600084815260200190815260200160002060009054906101000a900473ffffffffffffffffffffffffffffffffffffffff169050600073ffffffffffffffffffffffffffffffffffffffff168173ffffffffffffffffffffffffffffffffffffffff161415610fff576040517f08c379a0000000000000000000000000000000000000000000000000000000008152600401610ff690612f1a565b60405180910390fd5b80915050919050565b60008073ffffffffffffffffffffffffffffffffffffffff168273ffffffffffffffffffffffffffffffffffffffff161415611079576040517f08c379a000000000000000000000000000000000000000000000000000000000815260040161107090612efa565b60405180910390fd5b600360008373ffffffffffffffffffffffffffffffffffffffff1673ffffffffffffffffffffffffffffffffffffffff168152602001908152602001600020549050919050565b600a6020528060005260406000206000915090505481565b6060600180546110e7906133ff565b80601f0160208091040260200160405190810160405280929190818152602001828054611113906133ff565b80156111605780601f1061113557610100808354040283529160200191611160565b820191906000526020600020905b81548152906001019060200180831161114357829003601f168201915b5050505050905090565b61117c611175611710565b8383611c0a565b5050565b60006007600083815260200190815260200160002060010154116111d9576040517f08c379a00000000000000000000000000000000000000000000000000000000081526004016111d090612eba565b60405180910390fd5b6007600082815260200190815260200160002060010154600760008381526020019081526020016000206003015410611247576040517f08c379a000000000000000000000000000000000000000000000000000000000815260040161123e9061301a565b60405180910390fd5b6007600082815260200190815260200160002060020154341461129f576040517f08c379a000000000000000000000000000000000000000000000000000000000815260040161129690612f9a565b60405180910390fd5b6007600082815260200190815260200160002060030160008154809291906112c690613462565b91905055506112d733600b54611d77565b8060086000600b54815260200190815260200160002081905550600b54600960003373ffffffffffffffffffffffffffffffffffffffff1673ffffffffffffffffffffffffffffffffffffffff168152602001908152602001600020819055503373ffffffffffffffffffffffffffffffffffffffff16600b54827fdb2f75556f53ba14a6f9db51ed35b1da194da4a0d6f78e22c993c7357000a63d60076000868152602001908152602001600020600301546040516113979190613055565b60405180910390a4600b60008154809291906113b290613462565b919050555050565b6113cb6113c5611710565b836118c5565b61140a576040517f08c379a000000000000000000000000000000000000000000000000000000000815260040161140190612fda565b60405180910390fd5b61141684848484611f51565b50505050565b60008060005b600b548110156114955780600960008673ffffffffffffffffffffffffffffffffffffffff1673ffffffffffffffffffffffffffffffffffffffff16815260200190815260200160002054141561148257818061147e90613462565b9250505b808061148d90613462565b915050611422565b5080915050919050565b600060076000838152602001908152602001600020600101549050919050565b60606000600860008481526020019081526020016000205411611517576040517f08c379a000000000000000000000000000000000000000000000000000000000815260040161150e90612f5a565b60405180910390fd5b60066115356008600085815260200190815260200160002054611fad565b61153e84611fad565b60405160200161155093929190612ca1565b6040516020818303038152906040529050919050565b6060600660405160200161157a9190612cdd565b604051602081830303815290604052905090565b6000600560008473ffffffffffffffffffffffffffffffffffffffff1673ffffffffffffffffffffffffffffffffffffffff16815260200190815260200160002060008373ffffffffffffffffffffffffffffffffffffffff1673ffffffffffffffffffffffffffffffffffffffff16815260200190815260200160002060009054906101000a900460ff16905092915050565b60086020528060005260406000206000915090505481565b60007f01ffc9a7000000000000000000000000000000000000000000000000000000007bffffffffffffffffffffffffffffffffffffffffffffffffffffffff1916827bffffffffffffffffffffffffffffffffffffffffffffffffffffffff1916149050919050565b60008073ffffffffffffffffffffffffffffffffffffffff166002600084815260200190815260200160002060009054906101000a900473ffffffffffffffffffffffffffffffffffffffff1673ffffffffffffffffffffffffffffffffffffffff1614159050919050565b600033905090565b816004600083815260200190815260200160002060006101000a81548173ffffffffffffffffffffffffffffffffffffffff021916908373ffffffffffffffffffffffffffffffffffffffff160217905550808273ffffffffffffffffffffffffffffffffffffffff1661178b83610f56565b73ffffffffffffffffffffffffffffffffffffffff167f8c5be1e5ebec7d5bd14f71427d1e84f3dd0314c0f7b2291e5b200ac8c7c3b92560405160405180910390a45050565b80471015611814576040517f08c379a000000000000000000000000000000000000000000000000000000000815260040161180b90612e1a565b60405180910390fd5b60008273ffffffffffffffffffffffffffffffffffffffff168260405161183a90612cff565b60006040518083038185875af1925050503d8060008114611877576040519150601f19603f3d011682016040523d82523d6000602084013e61187c565b606091505b50509050806118c0576040517f08c379a00000000000000000000000000000000000000000000000000000000081526004016118b790612ffa565b60405180910390fd5b505050565b60006118d0826116a4565b61190f576040517f08c379a000000000000000000000000000000000000000000000000000000000815260040161190690612e9a565b60405180910390fd5b600061191a83610f56565b90508073ffffffffffffffffffffffffffffffffffffffff168473ffffffffffffffffffffffffffffffffffffffff16148061195c575061195b818561158e565b5b8061199a57508373ffffffffffffffffffffffffffffffffffffffff16611982846108be565b73ffffffffffffffffffffffffffffffffffffffff16145b91505092915050565b8273ffffffffffffffffffffffffffffffffffffffff166119c382610f56565b73ffffffffffffffffffffffffffffffffffffffff1614611a19576040517f08c379a0000000000000000000000000000000000000000000000000000000008152600401611a1090612dfa565b60405180910390fd5b600073ffffffffffffffffffffffffffffffffffffffff168273ffffffffffffffffffffffffffffffffffffffff161415611a89576040517f08c379a0000000000000000000000000000000000000000000000000000000008152600401611a8090612e5a565b60405180910390fd5b611a9483838361215a565b611a9f600082611718565b6001600360008573ffffffffffffffffffffffffffffffffffffffff1673ffffffffffffffffffffffffffffffffffffffff1681526020019081526020016000206000828254611aef91906132cd565b925050819055506001600360008473ffffffffffffffffffffffffffffffffffffffff1673ffffffffffffffffffffffffffffffffffffffff1681526020019081526020016000206000828254611b4691906131ec565b92505081905550816002600083815260200190815260200160002060006101000a81548173ffffffffffffffffffffffffffffffffffffffff021916908373ffffffffffffffffffffffffffffffffffffffff160217905550808273ffffffffffffffffffffffffffffffffffffffff168473ffffffffffffffffffffffffffffffffffffffff167fddf252ad1be2c89b69c2b068fc378daa952ba7f163c4a11628f55a4df523b3ef60405160405180910390a4611c0583838361215f565b505050565b8173ffffffffffffffffffffffffffffffffffffffff168373ffffffffffffffffffffffffffffffffffffffff161415611c79576040517f08c379a0000000000000000000000000000000000000000000000000000000008152600401611c7090612e7a565b60405180910390fd5b80600560008573ffffffffffffffffffffffffffffffffffffffff1673ffffffffffffffffffffffffffffffffffffffff16815260200190815260200160002060008473ffffffffffffffffffffffffffffffffffffffff1673ffffffffffffffffffffffffffffffffffffffff16815260200190815260200160002060006101000a81548160ff0219169083151502179055508173ffffffffffffffffffffffffffffffffffffffff168373ffffffffffffffffffffffffffffffffffffffff167f17307eab39ab6107e8899845ad3d59bd9653f200f220920489ca2b5937696c3183604051611d6a9190612d9d565b60405180910390a3505050565b600073ffffffffffffffffffffffffffffffffffffffff168273ffffffffffffffffffffffffffffffffffffffff161415611de7576040517f08c379a0000000000000000000000000000000000000000000000000000000008152600401611dde90612f3a565b60405180910390fd5b611df0816116a4565b15611e30576040517f08c379a0000000000000000000000000000000000000000000000000000000008152600401611e2790612e3a565b60405180910390fd5b611e3c6000838361215a565b6001600360008473ffffffffffffffffffffffffffffffffffffffff1673ffffffffffffffffffffffffffffffffffffffff1681526020019081526020016000206000828254611e8c91906131ec565b92505081905550816002600083815260200190815260200160002060006101000a81548173ffffffffffffffffffffffffffffffffffffffff021916908373ffffffffffffffffffffffffffffffffffffffff160217905550808273ffffffffffffffffffffffffffffffffffffffff16600073ffffffffffffffffffffffffffffffffffffffff167fddf252ad1be2c89b69c2b068fc378daa952ba7f163c4a11628f55a4df523b3ef60405160405180910390a4611f4d6000838361215f565b5050565b611f5c8484846119a3565b611f6884848484612164565b611fa7576040517f08c379a0000000000000000000000000000000000000000000000000000000008152600401611f9e90612dda565b60405180910390fd5b50505050565b60606000821415611ff5576040518060400160405280600181526020017f30000000000000000000000000000000000000000000000000000000000000008152509050612155565b600082905060005b6000821461202757808061201090613462565b915050600a826120209190613242565b9150611ffd565b60008167ffffffffffffffff811115612069577f4e487b7100000000000000000000000000000000000000000000000000000000600052604160045260246000fd5b6040519080825280601f01601f19166020018201604052801561209b5781602001600182028036833780820191505090505b5090505b6000851461214e576001826120b491906132cd565b9150600a856120c391906134ab565b60306120cf91906131ec565b60f81b81838151811061210b577f4e487b7100000000000000000000000000000000000000000000000000000000600052603260045260246000fd5b60200101907effffffffffffffffffffffffffffffffffffffffffffffffffffffffffffff1916908160001a905350600a856121479190613242565b945061209f565b8093505050505b919050565b505050565b505050565b60006121858473ffffffffffffffffffffffffffffffffffffffff166122fb565b156122ee578373ffffffffffffffffffffffffffffffffffffffff1663150b7a026121ae611710565b8786866040518563ffffffff1660e01b81526004016121d09493929190612d2f565b602060405180830381600087803b1580156121ea57600080fd5b505af192505050801561221b57506040513d601f19601f820116820180604052508101906122189190612619565b60015b61229e573d806000811461224b576040519150601f19603f3d011682016040523d82523d6000602084013e612250565b606091505b50600081511415612296576040517f08c379a000000000000000000000000000000000000000000000000000000000815260040161228d90612dda565b60405180910390fd5b805181602001fd5b63150b7a0260e01b7bffffffffffffffffffffffffffffffffffffffffffffffffffffffff1916817bffffffffffffffffffffffffffffffffffffffffffffffffffffffff1916149150506122f3565b600190505b949350505050565b6000808273ffffffffffffffffffffffffffffffffffffffff163b119050919050565b6040518060a0016040528060008152602001600081526020016000815260200160008152602001600073ffffffffffffffffffffffffffffffffffffffff1681525090565b60006123766123718461311f565b6130fa565b90508281526020810184848401111561238e57600080fd5b6123998482856133bd565b509392505050565b6000813590506123b081613af7565b92915050565b6000813590506123c581613b0e565b92915050565b6000813590506123da81613b25565b92915050565b6000813590506123ef81613b3c565b92915050565b60008151905061240481613b3c565b92915050565b600082601f83011261241b57600080fd5b813561242b848260208601612363565b91505092915050565b60008135905061244381613b53565b92915050565b60006020828403121561245b57600080fd5b6000612469848285016123a1565b91505092915050565b6000806040838503121561248557600080fd5b6000612493858286016123a1565b92505060206124a4858286016123a1565b9150509250929050565b6000806000606084860312156124c357600080fd5b60006124d1868287016123a1565b93505060206124e2868287016123a1565b92505060406124f386828701612434565b9150509250925092565b6000806000806080858703121561251357600080fd5b6000612521878288016123a1565b9450506020612532878288016123a1565b935050604061254387828801612434565b925050606085013567ffffffffffffffff81111561256057600080fd5b61256c8782880161240a565b91505092959194509250565b6000806040838503121561258b57600080fd5b6000612599858286016123a1565b92505060206125aa858286016123cb565b9150509250929050565b600080604083850312156125c757600080fd5b60006125d5858286016123a1565b92505060206125e685828601612434565b9150509250929050565b60006020828403121561260257600080fd5b6000612610848285016123e0565b91505092915050565b60006020828403121561262b57600080fd5b6000612639848285016123f5565b91505092915050565b60006020828403121561265457600080fd5b600061266284828501612434565b91505092915050565b6000806000806080858703121561268157600080fd5b600061268f87828801612434565b94505060206126a087828801612434565b93505060406126b187828801612434565b92505060606126c2878288016123b6565b91505092959194509250565b60006126da8383612bb3565b60a08301905092915050565b6126ef81613387565b82525050565b6126fe81613313565b82525050565b61270d81613313565b82525050565b61271c81613301565b82525050565b600061272d82613175565b61273781856131a3565b935061274283613150565b8060005b8381101561277357815161275a88826126ce565b975061276583613196565b925050600181019050612746565b5085935050505092915050565b61278981613325565b82525050565b600061279a82613180565b6127a481856131b4565b93506127b48185602086016133cc565b6127bd81613598565b840191505092915050565b60006127d38261318b565b6127dd81856131d0565b93506127ed8185602086016133cc565b6127f681613598565b840191505092915050565b600061280c8261318b565b61281681856131e1565b93506128268185602086016133cc565b80840191505092915050565b6000815461283f816133ff565b61284981866131e1565b945060018216600081146128645760018114612875576128a8565b60ff198316865281860193506128a8565b61287e85613160565b60005b838110156128a057815481890152600182019150602081019050612881565b838801955050505b50505092915050565b60006128be6032836131d0565b91506128c9826135a9565b604082019050919050565b60006128e16025836131d0565b91506128ec826135f8565b604082019050919050565b6000612904601d836131d0565b915061290f82613647565b602082019050919050565b6000612927601c836131d0565b915061293282613670565b602082019050919050565b600061294a6024836131d0565b915061295582613699565b604082019050919050565b600061296d6019836131d0565b9150612978826136e8565b602082019050919050565b6000612990602c836131d0565b915061299b82613711565b604082019050919050565b60006129b36019836131d0565b91506129be82613760565b602082019050919050565b60006129d66038836131d0565b91506129e182613789565b604082019050919050565b60006129f9602a836131d0565b9150612a04826137d8565b604082019050919050565b6000612a1c6029836131d0565b9150612a2782613827565b604082019050919050565b6000612a3f6008836131e1565b9150612a4a82613876565b600882019050919050565b6000612a626020836131d0565b9150612a6d8261389f565b602082019050919050565b6000612a85601b836131d0565b9150612a90826138c8565b602082019050919050565b6000612aa8602c836131d0565b9150612ab3826138f1565b604082019050919050565b6000612acb602c836131d0565b9150612ad682613940565b604082019050919050565b6000612aee6021836131d0565b9150612af98261398f565b604082019050919050565b6000612b116000836131c5565b9150612b1c826139de565b600082019050919050565b6000612b346031836131d0565b9150612b3f826139e1565b604082019050919050565b6000612b576031836131d0565b9150612b6282613a30565b604082019050919050565b6000612b7a6024836131d0565b9150612b8582613a7f565b604082019050919050565b6000612b9d6001836131e1565b9150612ba882613ace565b600182019050919050565b60a082016000820151612bc96000850182612c83565b506020820151612bdc6020850182612c83565b506040820151612bef6040850182612c83565b506060820151612c026060850182612c83565b506080820151612c1560808501826126f5565b50505050565b60a082016000820151612c316000850182612c83565b506020820151612c446020850182612c83565b506040820151612c576040850182612c83565b506060820151612c6a6060850182612c83565b506080820151612c7d60808501826126f5565b50505050565b612c8c8161337d565b82525050565b612c9b8161337d565b82525050565b6000612cad8286612832565b9150612cb98285612801565b9150612cc482612b90565b9150612cd08284612801565b9150819050949350505050565b6000612ce98284612832565b9150612cf482612a32565b915081905092915050565b6000612d0a82612b04565b9150819050919050565b6000602082019050612d296000830184612713565b92915050565b6000608082019050612d446000830187612713565b612d516020830186612713565b612d5e6040830185612c92565b8181036060830152612d70818461278f565b905095945050505050565b60006020820190508181036000830152612d958184612722565b905092915050565b6000602082019050612db26000830184612780565b92915050565b60006020820190508181036000830152612dd281846127c8565b905092915050565b60006020820190508181036000830152612df3816128b1565b9050919050565b60006020820190508181036000830152612e13816128d4565b9050919050565b60006020820190508181036000830152612e33816128f7565b9050919050565b60006020820190508181036000830152612e538161291a565b9050919050565b60006020820190508181036000830152612e738161293d565b9050919050565b60006020820190508181036000830152612e9381612960565b9050919050565b60006020820190508181036000830152612eb381612983565b9050919050565b60006020820190508181036000830152612ed3816129a6565b9050919050565b60006020820190508181036000830152612ef3816129c9565b9050919050565b60006020820190508181036000830152612f13816129ec565b9050919050565b60006020820190508181036000830152612f3381612a0f565b9050919050565b60006020820190508181036000830152612f5381612a55565b9050919050565b60006020820190508181036000830152612f7381612a78565b9050919050565b60006020820190508181036000830152612f9381612a9b565b9050919050565b60006020820190508181036000830152612fb381612abe565b9050919050565b60006020820190508181036000830152612fd381612ae1565b9050919050565b60006020820190508181036000830152612ff381612b27565b9050919050565b6000602082019050818103600083015261301381612b4a565b9050919050565b6000602082019050818103600083015261303381612b6d565b9050919050565b600060a08201905061304f6000830184612c1b565b92915050565b600060208201905061306a6000830184612c92565b92915050565b60006060820190506130856000830186612c92565b6130926020830185612c92565b61309f60408301846126e6565b949350505050565b600060a0820190506130bc6000830188612c92565b6130c96020830187612c92565b6130d66040830186612c92565b6130e36060830185612c92565b6130f06080830184612704565b9695505050505050565b6000613104613115565b90506131108282613431565b919050565b6000604051905090565b600067ffffffffffffffff82111561313a57613139613569565b5b61314382613598565b9050602081019050919050565b6000819050602082019050919050565b60008190508160005260206000209050919050565b600081519050919050565b600081519050919050565b600081519050919050565b6000602082019050919050565b600082825260208201905092915050565b600082825260208201905092915050565b600081905092915050565b600082825260208201905092915050565b600081905092915050565b60006131f78261337d565b91506132028361337d565b9250827fffffffffffffffffffffffffffffffffffffffffffffffffffffffffffffffff03821115613237576132366134dc565b5b828201905092915050565b600061324d8261337d565b91506132588361337d565b9250826132685761326761350b565b5b828204905092915050565b600061327e8261337d565b91506132898361337d565b9250817fffffffffffffffffffffffffffffffffffffffffffffffffffffffffffffffff04831182151516156132c2576132c16134dc565b5b828202905092915050565b60006132d88261337d565b91506132e38361337d565b9250828210156132f6576132f56134dc565b5b828203905092915050565b600061330c8261335d565b9050919050565b600061331e8261335d565b9050919050565b60008115159050919050565b60007fffffffff0000000000000000000000000000000000000000000000000000000082169050919050565b600073ffffffffffffffffffffffffffffffffffffffff82169050919050565b6000819050919050565b600061339282613399565b9050919050565b60006133a4826133ab565b9050919050565b60006133b68261335d565b9050919050565b82818337600083830152505050565b60005b838110156133ea5780820151818401526020810190506133cf565b838111156133f9576000848401525b50505050565b6000600282049050600182168061341757607f821691505b6020821081141561342b5761342a61353a565b5b50919050565b61343a82613598565b810181811067ffffffffffffffff8211171561345957613458613569565b5b80604052505050565b600061346d8261337d565b91507fffffffffffffffffffffffffffffffffffffffffffffffffffffffffffffffff8214156134a05761349f6134dc565b5b600182019050919050565b60006134b68261337d565b91506134c18361337d565b9250826134d1576134d061350b565b5b828206905092915050565b7f4e487b7100000000000000000000000000000000000000000000000000000000600052601160045260246000fd5b7f4e487b7100000000000000000000000000000000000000000000000000000000600052601260045260246000fd5b7f4e487b7100000000000000000000000000000000000000000000000000000000600052602260045260246000fd5b7f4e487b7100000000000000000000000000000000000000000000000000000000600052604160045260246000fd5b6000601f19601f8301169050919050565b7f4552433732313a207472616e7366657220746f206e6f6e20455243373231526560008201527f63656976657220696d706c656d656e7465720000000000000000000000000000602082015250565b7f4552433732313a207472616e736665722066726f6d20696e636f72726563742060008201527f6f776e6572000000000000000000000000000000000000000000000000000000602082015250565b7f496e73756666696369656e742062616c616e636520666f722073656e64000000600082015250565b7f4552433732313a20746f6b656e20616c7265616479206d696e74656400000000600082015250565b7f4552433732313a207472616e7366657220746f20746865207a65726f2061646460008201527f7265737300000000000000000000000000000000000000000000000000000000602082015250565b7f4552433732313a20617070726f766520746f2063616c6c657200000000000000600082015250565b7f4552433732313a206f70657261746f7220717565727920666f72206e6f6e657860008201527f697374656e7420746f6b656e0000000000000000000000000000000000000000602082015250565b7f4d656d6265727368697020646f6573206e6f7420657869737400000000000000600082015250565b7f4552433732313a20617070726f76652063616c6c6572206973206e6f74206f7760008201527f6e6572206e6f7220617070726f76656420666f7220616c6c0000000000000000602082015250565b7f4552433732313a2062616c616e636520717565727920666f7220746865207a6560008201527f726f206164647265737300000000000000000000000000000000000000000000602082015250565b7f4552433732313a206f776e657220717565727920666f72206e6f6e657869737460008201527f656e7420746f6b656e0000000000000000000000000000000000000000000000602082015250565b7f6d65746164617461000000000000000000000000000000000000000000000000600082015250565b7f4552433732313a206d696e7420746f20746865207a65726f2061646472657373600082015250565b7f546f6b656e20686173206e6f74206265656e20736f6c64207965740000000000600082015250565b7f4552433732313a20617070726f76656420717565727920666f72206e6f6e657860008201527f697374656e7420746f6b656e0000000000000000000000000000000000000000602082015250565b7f4d7573742073656e6420656e6f75676820746f2070757263686173652074686560008201527f206d656d626572736869702e0000000000000000000000000000000000000000602082015250565b7f4552433732313a20617070726f76616c20746f2063757272656e74206f776e6560008201527f7200000000000000000000000000000000000000000000000000000000000000602082015250565b50565b7f4552433732313a207472616e736665722063616c6c6572206973206e6f74206f60008201527f776e6572206e6f7220617070726f766564000000000000000000000000000000602082015250565b7f556e61626c6520746f2073656e642076616c75653a20726563697069656e742060008201527f6d61792068617665207265766572746564000000000000000000000000000000602082015250565b7f54686973206d656d6265727368697020697320616c726561647920736f6c642060008201527f6f75742e00000000000000000000000000000000000000000000000000000000602082015250565b7f2f00000000000000000000000000000000000000000000000000000000000000600082015250565b613b0081613301565b8114613b0b57600080fd5b50565b613b1781613313565b8114613b2257600080fd5b50565b613b2e81613325565b8114613b3957600080fd5b50565b613b4581613331565b8114613b5057600080fd5b50565b613b5c8161337d565b8114613b6757600080fd5b5056fea26469706673582212202a4b513c96c9dde92b9875327f8ee978d3bd4046c8659d070128426c6b97ee5f64736f6c63430008040033",
  "linkReferences": {},
  "deployedLinkReferences": {}
}