{
  "_format": "hh-sol-artifact-1",
  "contractName": "AccessToken",
  "sourceName": "contracts/AccessToken.sol",
  "abi": [
    {
      "inputs": [
        {
          "internalType": "string",
          "name": "baseURI_",
          "type": "string"
        },
        {
          "internalType": "string",
          "name": "_name",
          "type": "string"
        },
        {
          "internalType": "string",
          "name": "_symbol",
          "type": "string"
        }
      ],
      "stateMutability": "nonpayable",
      "type": "constructor"
    },
    {
      "anonymous": false,
      "inputs": [
        {
          "indexed": true,
          "internalType": "address",
          "name": "owner",
          "type": "address"
        },
        {
          "indexed": true,
          "internalType": "address",
          "name": "approved",
          "type": "address"
        },
        {
          "indexed": true,
          "internalType": "uint256",
          "name": "tokenId",
          "type": "uint256"
        }
      ],
      "name": "Approval",
      "type": "event"
    },
    {
      "anonymous": false,
      "inputs": [
        {
          "indexed": true,
          "internalType": "address",
          "name": "owner",
          "type": "address"
        },
        {
          "indexed": true,
          "internalType": "address",
          "name": "operator",
          "type": "address"
        },
        {
          "indexed": false,
          "internalType": "bool",
          "name": "approved",
          "type": "bool"
        }
      ],
      "name": "ApprovalForAll",
      "type": "event"
    },
    {
      "anonymous": false,
      "inputs": [
        {
          "indexed": false,
          "internalType": "uint256",
          "name": "quantity",
          "type": "uint256"
        },
        {
          "indexed": false,
          "internalType": "uint256",
          "name": "price",
          "type": "uint256"
        },
        {
          "indexed": false,
          "internalType": "address",
          "name": "fundingRecipient",
          "type": "address"
        },
        {
          "indexed": true,
          "internalType": "uint256",
          "name": "MembershipId",
          "type": "uint256"
        }
      ],
      "name": "MembershipCreated",
      "type": "event"
    },
    {
      "anonymous": false,
      "inputs": [
        {
          "indexed": true,
          "internalType": "uint256",
          "name": "MembershipId",
          "type": "uint256"
        },
        {
          "indexed": true,
          "internalType": "uint256",
          "name": "tokenId",
          "type": "uint256"
        },
        {
          "indexed": false,
          "internalType": "uint256",
          "name": "numSold",
          "type": "uint256"
        },
        {
          "indexed": true,
          "internalType": "address",
          "name": "buyer",
          "type": "address"
        }
      ],
      "name": "MembershipPurchased",
      "type": "event"
    },
    {
      "anonymous": false,
      "inputs": [
        {
          "indexed": true,
          "internalType": "address",
          "name": "from",
          "type": "address"
        },
        {
          "indexed": true,
          "internalType": "address",
          "name": "to",
          "type": "address"
        },
        {
          "indexed": true,
          "internalType": "uint256",
          "name": "tokenId",
          "type": "uint256"
        }
      ],
      "name": "Transfer",
      "type": "event"
    },
    {
      "inputs": [
        {
          "internalType": "address",
          "name": "to",
          "type": "address"
        },
        {
          "internalType": "uint256",
          "name": "tokenId",
          "type": "uint256"
        }
      ],
      "name": "approve",
      "outputs": [],
      "stateMutability": "nonpayable",
      "type": "function"
    },
    {
      "inputs": [
        {
          "internalType": "address",
          "name": "owner",
          "type": "address"
        }
      ],
      "name": "balanceOf",
      "outputs": [
        {
          "internalType": "uint256",
          "name": "",
          "type": "uint256"
        }
      ],
      "stateMutability": "view",
      "type": "function"
    },
    {
      "inputs": [
        {
          "internalType": "uint256",
          "name": "membershipId",
          "type": "uint256"
        }
      ],
      "name": "buyMembership",
      "outputs": [],
      "stateMutability": "payable",
      "type": "function"
    },
    {
      "inputs": [],
      "name": "contractURI",
      "outputs": [
        {
          "internalType": "string",
          "name": "",
          "type": "string"
        }
      ],
      "stateMutability": "view",
      "type": "function"
    },
    {
      "inputs": [
        {
          "internalType": "uint256",
          "name": "coverId",
          "type": "uint256"
        },
        {
          "internalType": "uint256",
          "name": "quantity",
          "type": "uint256"
        },
        {
          "internalType": "uint256",
          "name": "price",
          "type": "uint256"
        },
        {
          "internalType": "address payable",
          "name": "fundingRecipient",
          "type": "address"
        }
      ],
      "name": "createMemberships",
      "outputs": [],
      "stateMutability": "nonpayable",
      "type": "function"
    },
    {
      "inputs": [
        {
          "internalType": "uint256",
          "name": "tokenId",
          "type": "uint256"
        }
      ],
      "name": "getApproved",
      "outputs": [
        {
          "internalType": "address",
          "name": "",
          "type": "address"
        }
      ],
      "stateMutability": "view",
      "type": "function"
    },
    {
      "inputs": [
        {
          "internalType": "uint256",
          "name": "_coverId",
          "type": "uint256"
        }
      ],
      "name": "getMembership",
      "outputs": [
        {
          "components": [
            {
              "internalType": "uint256",
              "name": "id",
              "type": "uint256"
            },
            {
              "internalType": "uint256",
              "name": "coverId",
              "type": "uint256"
            },
            {
              "internalType": "uint256",
              "name": "quantity",
              "type": "uint256"
            },
            {
              "internalType": "uint256",
              "name": "price",
              "type": "uint256"
            },
            {
              "internalType": "uint256",
              "name": "numSold",
              "type": "uint256"
            },
            {
              "internalType": "address payable",
              "name": "fundingRecipient",
              "type": "address"
            }
          ],
          "internalType": "struct AccessToken.Membership",
          "name": "",
          "type": "tuple"
        }
      ],
      "stateMutability": "view",
      "type": "function"
    },
    {
      "inputs": [
        {
          "internalType": "address",
          "name": "owner",
          "type": "address"
        },
        {
          "internalType": "address",
          "name": "operator",
          "type": "address"
        }
      ],
      "name": "isApprovedForAll",
      "outputs": [
        {
          "internalType": "bool",
          "name": "",
          "type": "bool"
        }
      ],
      "stateMutability": "view",
      "type": "function"
    },
    {
      "inputs": [
        {
          "internalType": "address",
          "name": "_owner",
          "type": "address"
        },
        {
          "internalType": "uint256",
          "name": "_coverId",
          "type": "uint256"
        }
      ],
      "name": "isOwner",
      "outputs": [
        {
          "internalType": "bool",
          "name": "",
          "type": "bool"
        }
      ],
      "stateMutability": "view",
      "type": "function"
    },
    {
      "inputs": [
        {
          "internalType": "uint256",
          "name": "",
          "type": "uint256"
        }
      ],
      "name": "memberships",
      "outputs": [
        {
          "internalType": "uint256",
          "name": "id",
          "type": "uint256"
        },
        {
          "internalType": "uint256",
          "name": "coverId",
          "type": "uint256"
        },
        {
          "internalType": "uint256",
          "name": "quantity",
          "type": "uint256"
        },
        {
          "internalType": "uint256",
          "name": "price",
          "type": "uint256"
        },
        {
          "internalType": "uint256",
          "name": "numSold",
          "type": "uint256"
        },
        {
          "internalType": "address payable",
          "name": "fundingRecipient",
          "type": "address"
        }
      ],
      "stateMutability": "view",
      "type": "function"
    },
    {
      "inputs": [],
      "name": "name",
      "outputs": [
        {
          "internalType": "string",
          "name": "",
          "type": "string"
        }
      ],
      "stateMutability": "view",
      "type": "function"
    },
    {
      "inputs": [
        {
          "internalType": "uint256",
          "name": "tokenId",
          "type": "uint256"
        }
      ],
      "name": "ownerOf",
      "outputs": [
        {
          "internalType": "address",
          "name": "",
          "type": "address"
        }
      ],
      "stateMutability": "view",
      "type": "function"
    },
    {
      "inputs": [
        {
          "internalType": "address",
          "name": "from",
          "type": "address"
        },
        {
          "internalType": "address",
          "name": "to",
          "type": "address"
        },
        {
          "internalType": "uint256",
          "name": "tokenId",
          "type": "uint256"
        }
      ],
      "name": "safeTransferFrom",
      "outputs": [],
      "stateMutability": "nonpayable",
      "type": "function"
    },
    {
      "inputs": [
        {
          "internalType": "address",
          "name": "from",
          "type": "address"
        },
        {
          "internalType": "address",
          "name": "to",
          "type": "address"
        },
        {
          "internalType": "uint256",
          "name": "tokenId",
          "type": "uint256"
        },
        {
          "internalType": "bytes",
          "name": "_data",
          "type": "bytes"
        }
      ],
      "name": "safeTransferFrom",
      "outputs": [],
      "stateMutability": "nonpayable",
      "type": "function"
    },
    {
      "inputs": [
        {
          "internalType": "address",
          "name": "operator",
          "type": "address"
        },
        {
          "internalType": "bool",
          "name": "approved",
          "type": "bool"
        }
      ],
      "name": "setApprovalForAll",
      "outputs": [],
      "stateMutability": "nonpayable",
      "type": "function"
    },
    {
      "inputs": [
        {
          "internalType": "bytes4",
          "name": "interfaceId",
          "type": "bytes4"
        }
      ],
      "name": "supportsInterface",
      "outputs": [
        {
          "internalType": "bool",
          "name": "",
          "type": "bool"
        }
      ],
      "stateMutability": "view",
      "type": "function"
    },
    {
      "inputs": [],
      "name": "symbol",
      "outputs": [
        {
          "internalType": "string",
          "name": "",
          "type": "string"
        }
      ],
      "stateMutability": "view",
      "type": "function"
    },
    {
      "inputs": [
        {
          "internalType": "uint256",
          "name": "index",
          "type": "uint256"
        }
      ],
      "name": "tokenByIndex",
      "outputs": [
        {
          "internalType": "uint256",
          "name": "",
          "type": "uint256"
        }
      ],
      "stateMutability": "view",
      "type": "function"
    },
    {
      "inputs": [
        {
          "internalType": "address",
          "name": "owner",
          "type": "address"
        },
        {
          "internalType": "uint256",
          "name": "index",
          "type": "uint256"
        }
      ],
      "name": "tokenOfOwnerByIndex",
      "outputs": [
        {
          "internalType": "uint256",
          "name": "",
          "type": "uint256"
        }
      ],
      "stateMutability": "view",
      "type": "function"
    },
    {
      "inputs": [
        {
          "internalType": "uint256",
          "name": "",
          "type": "uint256"
        }
      ],
      "name": "tokenToMembership",
      "outputs": [
        {
          "internalType": "uint256",
          "name": "",
          "type": "uint256"
        }
      ],
      "stateMutability": "view",
      "type": "function"
    },
    {
      "inputs": [
        {
          "internalType": "uint256",
          "name": "tokenId",
          "type": "uint256"
        }
      ],
      "name": "tokenURI",
      "outputs": [
        {
          "internalType": "string",
          "name": "",
          "type": "string"
        }
      ],
      "stateMutability": "view",
      "type": "function"
    },
    {
      "inputs": [],
      "name": "totalSupply",
      "outputs": [
        {
          "internalType": "uint256",
          "name": "",
          "type": "uint256"
        }
      ],
      "stateMutability": "view",
      "type": "function"
    },
    {
      "inputs": [
        {
          "internalType": "uint256",
          "name": "id",
          "type": "uint256"
        }
      ],
      "name": "totalSupply",
      "outputs": [
        {
          "internalType": "uint256",
          "name": "",
          "type": "uint256"
        }
      ],
      "stateMutability": "view",
      "type": "function"
    },
    {
      "inputs": [
        {
          "internalType": "address",
          "name": "from",
          "type": "address"
        },
        {
          "internalType": "address",
          "name": "to",
          "type": "address"
        },
        {
          "internalType": "uint256",
          "name": "tokenId",
          "type": "uint256"
        }
      ],
      "name": "transferFrom",
      "outputs": [],
      "stateMutability": "nonpayable",
      "type": "function"
    },
    {
      "inputs": [
        {
          "internalType": "uint256",
          "name": "membershipId",
          "type": "uint256"
        }
      ],
      "name": "withdrawFunds",
      "outputs": [],
      "stateMutability": "nonpayable",
      "type": "function"
    },
    {
      "inputs": [
        {
          "internalType": "uint256",
          "name": "",
          "type": "uint256"
        }
      ],
      "name": "withdrawnForMembership",
      "outputs": [
        {
          "internalType": "uint256",
          "name": "",
          "type": "uint256"
        }
      ],
      "stateMutability": "view",
      "type": "function"
    }
  ],
  "bytecode": "0x60806040526001600f553480156200001657600080fd5b50604051620044133803806200441383398181016040528101906200003c9190620001b6565b818181600090805190602001906200005692919062000094565b5080600190805190602001906200006f92919062000094565b50505082600a90805190602001906200008a92919062000094565b50505050620003c7565b828054620000a290620002ec565b90600052602060002090601f016020900481019282620000c6576000855562000112565b82601f10620000e157805160ff191683800117855562000112565b8280016001018555821562000112579182015b8281111562000111578251825591602001919060010190620000f4565b5b50905062000121919062000125565b5090565b5b808211156200014057600081600090555060010162000126565b5090565b60006200015b620001558462000280565b62000257565b9050828152602081018484840111156200017457600080fd5b62000181848285620002b6565b509392505050565b600082601f8301126200019b57600080fd5b8151620001ad84826020860162000144565b91505092915050565b600080600060608486031215620001cc57600080fd5b600084015167ffffffffffffffff811115620001e757600080fd5b620001f58682870162000189565b935050602084015167ffffffffffffffff8111156200021357600080fd5b620002218682870162000189565b925050604084015167ffffffffffffffff8111156200023f57600080fd5b6200024d8682870162000189565b9150509250925092565b60006200026362000276565b905062000271828262000322565b919050565b6000604051905090565b600067ffffffffffffffff8211156200029e576200029d62000387565b5b620002a982620003b6565b9050602081019050919050565b60005b83811015620002d6578082015181840152602081019050620002b9565b83811115620002e6576000848401525b50505050565b600060028204905060018216806200030557607f821691505b602082108114156200031c576200031b62000358565b5b50919050565b6200032d82620003b6565b810181811067ffffffffffffffff821117156200034f576200034e62000387565b5b80604052505050565b7f4e487b7100000000000000000000000000000000000000000000000000000000600052602260045260246000fd5b7f4e487b7100000000000000000000000000000000000000000000000000000000600052604160045260246000fd5b6000601f19601f8301169050919050565b61403c80620003d76000396000f3fe6080604052600436106101815760003560e01c80636352211e116100d1578063b88d4fde1161008a578063e327a6af11610064578063e327a6af146105e6578063e8a3d48514610623578063e985e9c51461064e578063f27c4b7f1461068b57610181565b8063b88d4fde14610543578063bd85b0391461056c578063c87b56dd146105a957610181565b80636352211e1461041c57806370a08231146104595780637561565d1461049657806395d89b41146104d3578063a22cb465146104fe578063a43231281461052757610181565b806318160ddd1161013e578063321621d711610118578063321621d71461033757806338fbf2c61461037957806342842e0e146103b65780634f6ccce7146103df57610181565b806318160ddd146102a657806323b872dd146102d15780632f745c59146102fa57610181565b806301ffc9a71461018657806306fdde03146101c3578063077b92ff146101ee578063081812fc14610217578063095ea7b314610254578063155dd5ee1461027d575b600080fd5b34801561019257600080fd5b506101ad60048036038101906101a89190612a80565b6106c8565b6040516101ba9190613186565b60405180910390f35b3480156101cf57600080fd5b506101d8610742565b6040516101e591906131a1565b60405180910390f35b3480156101fa57600080fd5b5061021560048036038101906102109190612afb565b6107d4565b005b34801561022357600080fd5b5061023e60048036038101906102399190612ad2565b610907565b60405161024b919061311f565b60405180910390f35b34801561026057600080fd5b5061027b60048036038101906102769190612a44565b61098c565b005b34801561028957600080fd5b506102a4600480360381019061029f9190612ad2565b610aa4565b005b3480156102b257600080fd5b506102bb610b6c565b6040516102c8919061347e565b60405180910390f35b3480156102dd57600080fd5b506102f860048036038101906102f3919061293e565b610b79565b005b34801561030657600080fd5b50610321600480360381019061031c9190612a44565b610bd9565b60405161032e919061347e565b60405180910390f35b34801561034357600080fd5b5061035e60048036038101906103599190612ad2565b610c7e565b604051610370969594939291906134d0565b60405180910390f35b34801561038557600080fd5b506103a0600480360381019061039b9190612ad2565b610cda565b6040516103ad9190613463565b60405180910390f35b3480156103c257600080fd5b506103dd60048036038101906103d8919061293e565b610ddf565b005b3480156103eb57600080fd5b5061040660048036038101906104019190612ad2565b610dff565b604051610413919061347e565b60405180910390f35b34801561042857600080fd5b50610443600480360381019061043e9190612ad2565b610e96565b604051610450919061311f565b60405180910390f35b34801561046557600080fd5b50610480600480360381019061047b91906128d9565b610f48565b60405161048d919061347e565b60405180910390f35b3480156104a257600080fd5b506104bd60048036038101906104b89190612ad2565b611000565b6040516104ca919061347e565b60405180910390f35b3480156104df57600080fd5b506104e8611018565b6040516104f591906131a1565b60405180910390f35b34801561050a57600080fd5b5061052560048036038101906105209190612a08565b6110aa565b005b610541600480360381019061053c9190612ad2565b6110c0565b005b34801561054f57600080fd5b5061056a6004803603810190610565919061298d565b6112b4565b005b34801561057857600080fd5b50610593600480360381019061058e9190612ad2565b611316565b6040516105a0919061347e565b60405180910390f35b3480156105b557600080fd5b506105d060048036038101906105cb9190612ad2565b611336565b6040516105dd91906131a1565b60405180910390f35b3480156105f257600080fd5b5061060d60048036038101906106089190612a44565b6113dd565b60405161061a9190613186565b60405180910390f35b34801561062f57600080fd5b50610638611481565b60405161064591906131a1565b60405180910390f35b34801561065a57600080fd5b5061067560048036038101906106709190612902565b6114a9565b6040516106829190613186565b60405180910390f35b34801561069757600080fd5b506106b260048036038101906106ad9190612ad2565b61153d565b6040516106bf919061347e565b60405180910390f35b60007f780e9d63000000000000000000000000000000000000000000000000000000007bffffffffffffffffffffffffffffffffffffffffffffffffffffffff1916827bffffffffffffffffffffffffffffffffffffffffffffffffffffffff1916148061073b575061073a82611555565b5b9050919050565b606060008054610751906137fd565b80601f016020809104026020016040519081016040528092919081815260200182805461077d906137fd565b80156107ca5780601f1061079f576101008083540402835291602001916107ca565b820191906000526020600020905b8154815290600101906020018083116107ad57829003601f168201915b5050505050905090565b6040518060c00160405280600f548152602001858152602001848152602001838152602001600081526020018273ffffffffffffffffffffffffffffffffffffffff16815250600b6000600f548152602001908152602001600020600082015181600001556020820151816001015560408201518160020155606082015181600301556080820151816004015560a08201518160050160006101000a81548173ffffffffffffffffffffffffffffffffffffffff021916908373ffffffffffffffffffffffffffffffffffffffff160217905550905050600f547f569ed9b46fb6769b3d28035ad5159a443d743d3e6d1b12cc75d3d2666164097a8484846040516108e193929190613499565b60405180910390a2600f60008154809291906108fc90613860565b919050555050505050565b600061091282611637565b610951576040517f08c379a000000000000000000000000000000000000000000000000000000000815260040161094890613383565b60405180910390fd5b6004600083815260200190815260200160002060009054906101000a900473ffffffffffffffffffffffffffffffffffffffff169050919050565b600061099782610e96565b90508073ffffffffffffffffffffffffffffffffffffffff168373ffffffffffffffffffffffffffffffffffffffff161415610a08576040517f08c379a00000000000000000000000000000000000000000000000000000000081526004016109ff906133c3565b60405180910390fd5b8073ffffffffffffffffffffffffffffffffffffffff16610a276116a3565b73ffffffffffffffffffffffffffffffffffffffff161480610a565750610a5581610a506116a3565b6114a9565b5b610a95576040517f08c379a0000000000000000000000000000000000000000000000000000000008152600401610a8c906132e3565b60405180910390fd5b610a9f83836116ab565b505050565b6000600d600083815260200190815260200160002054600b600084815260200190815260200160002060040154600b600085815260200190815260200160002060030154610af29190613671565b610afc91906136cb565b905080600d60008481526020019081526020016000206000828254610b2191906135ea565b92505081905550610b68600b600084815260200190815260200160002060050160009054906101000a900473ffffffffffffffffffffffffffffffffffffffff1682611764565b5050565b6000600880549050905090565b610b8a610b846116a3565b82611858565b610bc9576040517f08c379a0000000000000000000000000000000000000000000000000000000008152600401610bc0906133e3565b60405180910390fd5b610bd4838383611936565b505050565b6000610be483610f48565b8210610c25576040517f08c379a0000000000000000000000000000000000000000000000000000000008152600401610c1c906131c3565b60405180910390fd5b600660008473ffffffffffffffffffffffffffffffffffffffff1673ffffffffffffffffffffffffffffffffffffffff168152602001908152602001600020600083815260200190815260200160002054905092915050565b600b6020528060005260406000206000915090508060000154908060010154908060020154908060030154908060040154908060050160009054906101000a900473ffffffffffffffffffffffffffffffffffffffff16905086565b610ce26127a7565b610cea6127a7565b6000600190505b600f54811015610dd55783600b6000838152602001908152602001600020600101541415610dc257600b60008281526020019081526020016000206040518060c001604052908160008201548152602001600182015481526020016002820154815260200160038201548152602001600482015481526020016005820160009054906101000a900473ffffffffffffffffffffffffffffffffffffffff1673ffffffffffffffffffffffffffffffffffffffff1673ffffffffffffffffffffffffffffffffffffffff168152505091505b8080610dcd90613860565b915050610cf1565b5080915050919050565b610dfa838383604051806020016040528060008152506112b4565b505050565b6000610e09610b6c565b8210610e4a576040517f08c379a0000000000000000000000000000000000000000000000000000000008152600401610e4190613403565b60405180910390fd5b60088281548110610e84577f4e487b7100000000000000000000000000000000000000000000000000000000600052603260045260246000fd5b90600052602060002001549050919050565b6000806002600084815260200190815260200160002060009054906101000a900473ffffffffffffffffffffffffffffffffffffffff169050600073ffffffffffffffffffffffffffffffffffffffff168173ffffffffffffffffffffffffffffffffffffffff161415610f3f576040517f08c379a0000000000000000000000000000000000000000000000000000000008152600401610f3690613323565b60405180910390fd5b80915050919050565b60008073ffffffffffffffffffffffffffffffffffffffff168273ffffffffffffffffffffffffffffffffffffffff161415610fb9576040517f08c379a0000000000000000000000000000000000000000000000000000000008152600401610fb090613303565b60405180910390fd5b600360008373ffffffffffffffffffffffffffffffffffffffff1673ffffffffffffffffffffffffffffffffffffffff168152602001908152602001600020549050919050565b600d6020528060005260406000206000915090505481565b606060018054611027906137fd565b80601f0160208091040260200160405190810160405280929190818152602001828054611053906137fd565b80156110a05780601f10611075576101008083540402835291602001916110a0565b820191906000526020600020905b81548152906001019060200180831161108357829003601f168201915b5050505050905090565b6110bc6110b56116a3565b8383611b9d565b5050565b6000600b60008381526020019081526020016000206002015411611119576040517f08c379a0000000000000000000000000000000000000000000000000000000008152600401611110906132c3565b60405180910390fd5b600b600082815260200190815260200160002060020154600b60008381526020019081526020016000206004015410611187576040517f08c379a000000000000000000000000000000000000000000000000000000000815260040161117e90613443565b60405180910390fd5b600b60008281526020019081526020016000206003015434146111df576040517f08c379a00000000000000000000000000000000000000000000000000000000081526004016111d6906133a3565b60405180910390fd5b600b6000828152602001908152602001600020600401600081548092919061120690613860565b919050555061121733600e54611d0a565b80600c6000600e548152602001908152602001600020819055503373ffffffffffffffffffffffffffffffffffffffff16600e54827fdb2f75556f53ba14a6f9db51ed35b1da194da4a0d6f78e22c993c7357000a63d600b600086815260200190815260200160002060040154604051611291919061347e565b60405180910390a4600e60008154809291906112ac90613860565b919050555050565b6112c56112bf6116a3565b83611858565b611304576040517f08c379a00000000000000000000000000000000000000000000000000000000081526004016112fb906133e3565b60405180910390fd5b61131084848484611ee4565b50505050565b6000600b6000838152602001908152602001600020600201549050919050565b60606000600c6000848152602001908152602001600020541161138e576040517f08c379a000000000000000000000000000000000000000000000000000000000815260040161138590613363565b60405180910390fd5b600a6113ac600c600085815260200190815260200160002054611f40565b6113b584611f40565b6040516020016113c7939291906130ac565b6040516020818303038152906040529050919050565b6000806113e983610cda565b60000151905060005b600e548110156114745781600c600083815260200190815260200160002054148015611451575061142281610e96565b73ffffffffffffffffffffffffffffffffffffffff168573ffffffffffffffffffffffffffffffffffffffff16145b156114615760019250505061147b565b808061146c90613860565b9150506113f2565b5060009150505b92915050565b6060600a60405160200161149591906130e8565b604051602081830303815290604052905090565b6000600560008473ffffffffffffffffffffffffffffffffffffffff1673ffffffffffffffffffffffffffffffffffffffff16815260200190815260200160002060008373ffffffffffffffffffffffffffffffffffffffff1673ffffffffffffffffffffffffffffffffffffffff16815260200190815260200160002060009054906101000a900460ff16905092915050565b600c6020528060005260406000206000915090505481565b60007f80ac58cd000000000000000000000000000000000000000000000000000000007bffffffffffffffffffffffffffffffffffffffffffffffffffffffff1916827bffffffffffffffffffffffffffffffffffffffffffffffffffffffff1916148061162057507f5b5e139f000000000000000000000000000000000000000000000000000000007bffffffffffffffffffffffffffffffffffffffffffffffffffffffff1916827bffffffffffffffffffffffffffffffffffffffffffffffffffffffff1916145b80611630575061162f826120ed565b5b9050919050565b60008073ffffffffffffffffffffffffffffffffffffffff166002600084815260200190815260200160002060009054906101000a900473ffffffffffffffffffffffffffffffffffffffff1673ffffffffffffffffffffffffffffffffffffffff1614159050919050565b600033905090565b816004600083815260200190815260200160002060006101000a81548173ffffffffffffffffffffffffffffffffffffffff021916908373ffffffffffffffffffffffffffffffffffffffff160217905550808273ffffffffffffffffffffffffffffffffffffffff1661171e83610e96565b73ffffffffffffffffffffffffffffffffffffffff167f8c5be1e5ebec7d5bd14f71427d1e84f3dd0314c0f7b2291e5b200ac8c7c3b92560405160405180910390a45050565b804710156117a7576040517f08c379a000000000000000000000000000000000000000000000000000000000815260040161179e90613223565b60405180910390fd5b60008273ffffffffffffffffffffffffffffffffffffffff16826040516117cd9061310a565b60006040518083038185875af1925050503d806000811461180a576040519150601f19603f3d011682016040523d82523d6000602084013e61180f565b606091505b5050905080611853576040517f08c379a000000000000000000000000000000000000000000000000000000000815260040161184a90613423565b60405180910390fd5b505050565b600061186382611637565b6118a2576040517f08c379a0000000000000000000000000000000000000000000000000000000008152600401611899906132a3565b60405180910390fd5b60006118ad83610e96565b90508073ffffffffffffffffffffffffffffffffffffffff168473ffffffffffffffffffffffffffffffffffffffff1614806118ef57506118ee81856114a9565b5b8061192d57508373ffffffffffffffffffffffffffffffffffffffff1661191584610907565b73ffffffffffffffffffffffffffffffffffffffff16145b91505092915050565b8273ffffffffffffffffffffffffffffffffffffffff1661195682610e96565b73ffffffffffffffffffffffffffffffffffffffff16146119ac576040517f08c379a00000000000000000000000000000000000000000000000000000000081526004016119a390613203565b60405180910390fd5b600073ffffffffffffffffffffffffffffffffffffffff168273ffffffffffffffffffffffffffffffffffffffff161415611a1c576040517f08c379a0000000000000000000000000000000000000000000000000000000008152600401611a1390613263565b60405180910390fd5b611a27838383612157565b611a326000826116ab565b6001600360008573ffffffffffffffffffffffffffffffffffffffff1673ffffffffffffffffffffffffffffffffffffffff1681526020019081526020016000206000828254611a8291906136cb565b925050819055506001600360008473ffffffffffffffffffffffffffffffffffffffff1673ffffffffffffffffffffffffffffffffffffffff1681526020019081526020016000206000828254611ad991906135ea565b92505081905550816002600083815260200190815260200160002060006101000a81548173ffffffffffffffffffffffffffffffffffffffff021916908373ffffffffffffffffffffffffffffffffffffffff160217905550808273ffffffffffffffffffffffffffffffffffffffff168473ffffffffffffffffffffffffffffffffffffffff167fddf252ad1be2c89b69c2b068fc378daa952ba7f163c4a11628f55a4df523b3ef60405160405180910390a4611b9883838361226b565b505050565b8173ffffffffffffffffffffffffffffffffffffffff168373ffffffffffffffffffffffffffffffffffffffff161415611c0c576040517f08c379a0000000000000000000000000000000000000000000000000000000008152600401611c0390613283565b60405180910390fd5b80600560008573ffffffffffffffffffffffffffffffffffffffff1673ffffffffffffffffffffffffffffffffffffffff16815260200190815260200160002060008473ffffffffffffffffffffffffffffffffffffffff1673ffffffffffffffffffffffffffffffffffffffff16815260200190815260200160002060006101000a81548160ff0219169083151502179055508173ffffffffffffffffffffffffffffffffffffffff168373ffffffffffffffffffffffffffffffffffffffff167f17307eab39ab6107e8899845ad3d59bd9653f200f220920489ca2b5937696c3183604051611cfd9190613186565b60405180910390a3505050565b600073ffffffffffffffffffffffffffffffffffffffff168273ffffffffffffffffffffffffffffffffffffffff161415611d7a576040517f08c379a0000000000000000000000000000000000000000000000000000000008152600401611d7190613343565b60405180910390fd5b611d8381611637565b15611dc3576040517f08c379a0000000000000000000000000000000000000000000000000000000008152600401611dba90613243565b60405180910390fd5b611dcf60008383612157565b6001600360008473ffffffffffffffffffffffffffffffffffffffff1673ffffffffffffffffffffffffffffffffffffffff1681526020019081526020016000206000828254611e1f91906135ea565b92505081905550816002600083815260200190815260200160002060006101000a81548173ffffffffffffffffffffffffffffffffffffffff021916908373ffffffffffffffffffffffffffffffffffffffff160217905550808273ffffffffffffffffffffffffffffffffffffffff16600073ffffffffffffffffffffffffffffffffffffffff167fddf252ad1be2c89b69c2b068fc378daa952ba7f163c4a11628f55a4df523b3ef60405160405180910390a4611ee06000838361226b565b5050565b611eef848484611936565b611efb84848484612270565b611f3a576040517f08c379a0000000000000000000000000000000000000000000000000000000008152600401611f31906131e3565b60405180910390fd5b50505050565b60606000821415611f88576040518060400160405280600181526020017f300000000000000000000000000000000000000000000000000000000000000081525090506120e8565b600082905060005b60008214611fba578080611fa390613860565b915050600a82611fb39190613640565b9150611f90565b60008167ffffffffffffffff811115611ffc577f4e487b7100000000000000000000000000000000000000000000000000000000600052604160045260246000fd5b6040519080825280601f01601f19166020018201604052801561202e5781602001600182028036833780820191505090505b5090505b600085146120e15760018261204791906136cb565b9150600a8561205691906138a9565b603061206291906135ea565b60f81b81838151811061209e577f4e487b7100000000000000000000000000000000000000000000000000000000600052603260045260246000fd5b60200101907effffffffffffffffffffffffffffffffffffffffffffffffffffffffffffff1916908160001a905350600a856120da9190613640565b9450612032565b8093505050505b919050565b60007f01ffc9a7000000000000000000000000000000000000000000000000000000007bffffffffffffffffffffffffffffffffffffffffffffffffffffffff1916827bffffffffffffffffffffffffffffffffffffffffffffffffffffffff1916149050919050565b612162838383612407565b600073ffffffffffffffffffffffffffffffffffffffff168373ffffffffffffffffffffffffffffffffffffffff1614156121a5576121a08161240c565b6121e4565b8173ffffffffffffffffffffffffffffffffffffffff168373ffffffffffffffffffffffffffffffffffffffff16146121e3576121e28382612455565b5b5b600073ffffffffffffffffffffffffffffffffffffffff168273ffffffffffffffffffffffffffffffffffffffff16141561222757612222816125c2565b612266565b8273ffffffffffffffffffffffffffffffffffffffff168273ffffffffffffffffffffffffffffffffffffffff1614612265576122648282612705565b5b5b505050565b505050565b60006122918473ffffffffffffffffffffffffffffffffffffffff16612784565b156123fa578373ffffffffffffffffffffffffffffffffffffffff1663150b7a026122ba6116a3565b8786866040518563ffffffff1660e01b81526004016122dc949392919061313a565b602060405180830381600087803b1580156122f657600080fd5b505af192505050801561232757506040513d601f19601f820116820180604052508101906123249190612aa9565b60015b6123aa573d8060008114612357576040519150601f19603f3d011682016040523d82523d6000602084013e61235c565b606091505b506000815114156123a2576040517f08c379a0000000000000000000000000000000000000000000000000000000008152600401612399906131e3565b60405180910390fd5b805181602001fd5b63150b7a0260e01b7bffffffffffffffffffffffffffffffffffffffffffffffffffffffff1916817bffffffffffffffffffffffffffffffffffffffffffffffffffffffff1916149150506123ff565b600190505b949350505050565b505050565b6008805490506009600083815260200190815260200160002081905550600881908060018154018082558091505060019003906000526020600020016000909190919091505550565b6000600161246284610f48565b61246c91906136cb565b9050600060076000848152602001908152602001600020549050818114612551576000600660008673ffffffffffffffffffffffffffffffffffffffff1673ffffffffffffffffffffffffffffffffffffffff168152602001908152602001600020600084815260200190815260200160002054905080600660008773ffffffffffffffffffffffffffffffffffffffff1673ffffffffffffffffffffffffffffffffffffffff168152602001908152602001600020600084815260200190815260200160002081905550816007600083815260200190815260200160002081905550505b6007600084815260200190815260200160002060009055600660008573ffffffffffffffffffffffffffffffffffffffff1673ffffffffffffffffffffffffffffffffffffffff16815260200190815260200160002060008381526020019081526020016000206000905550505050565b600060016008805490506125d691906136cb565b905060006009600084815260200190815260200160002054905060006008838154811061262c577f4e487b7100000000000000000000000000000000000000000000000000000000600052603260045260246000fd5b906000526020600020015490508060088381548110612674577f4e487b7100000000000000000000000000000000000000000000000000000000600052603260045260246000fd5b9060005260206000200181905550816009600083815260200190815260200160002081905550600960008581526020019081526020016000206000905560088054806126e9577f4e487b7100000000000000000000000000000000000000000000000000000000600052603160045260246000fd5b6001900381819060005260206000200160009055905550505050565b600061271083610f48565b905081600660008573ffffffffffffffffffffffffffffffffffffffff1673ffffffffffffffffffffffffffffffffffffffff168152602001908152602001600020600083815260200190815260200160002081905550806007600084815260200190815260200160002081905550505050565b6000808273ffffffffffffffffffffffffffffffffffffffff163b119050919050565b6040518060c001604052806000815260200160008152602001600081526020016000815260200160008152602001600073ffffffffffffffffffffffffffffffffffffffff1681525090565b600061280661280184613556565b613531565b90508281526020810184848401111561281e57600080fd5b6128298482856137bb565b509392505050565b60008135905061284081613f93565b92915050565b60008135905061285581613faa565b92915050565b60008135905061286a81613fc1565b92915050565b60008135905061287f81613fd8565b92915050565b60008151905061289481613fd8565b92915050565b600082601f8301126128ab57600080fd5b81356128bb8482602086016127f3565b91505092915050565b6000813590506128d381613fef565b92915050565b6000602082840312156128eb57600080fd5b60006128f984828501612831565b91505092915050565b6000806040838503121561291557600080fd5b600061292385828601612831565b925050602061293485828601612831565b9150509250929050565b60008060006060848603121561295357600080fd5b600061296186828701612831565b935050602061297286828701612831565b9250506040612983868287016128c4565b9150509250925092565b600080600080608085870312156129a357600080fd5b60006129b187828801612831565b94505060206129c287828801612831565b93505060406129d3878288016128c4565b925050606085013567ffffffffffffffff8111156129f057600080fd5b6129fc8782880161289a565b91505092959194509250565b60008060408385031215612a1b57600080fd5b6000612a2985828601612831565b9250506020612a3a8582860161285b565b9150509250929050565b60008060408385031215612a5757600080fd5b6000612a6585828601612831565b9250506020612a76858286016128c4565b9150509250929050565b600060208284031215612a9257600080fd5b6000612aa084828501612870565b91505092915050565b600060208284031215612abb57600080fd5b6000612ac984828501612885565b91505092915050565b600060208284031215612ae457600080fd5b6000612af2848285016128c4565b91505092915050565b60008060008060808587031215612b1157600080fd5b6000612b1f878288016128c4565b9450506020612b30878288016128c4565b9350506040612b41878288016128c4565b9250506060612b5287828801612846565b91505092959194509250565b612b6781613785565b82525050565b612b7681613711565b82525050565b612b8581613711565b82525050565b612b94816136ff565b82525050565b612ba381613723565b82525050565b6000612bb48261359c565b612bbe81856135b2565b9350612bce8185602086016137ca565b612bd781613996565b840191505092915050565b6000612bed826135a7565b612bf781856135ce565b9350612c078185602086016137ca565b612c1081613996565b840191505092915050565b6000612c26826135a7565b612c3081856135df565b9350612c408185602086016137ca565b80840191505092915050565b60008154612c59816137fd565b612c6381866135df565b94506001821660008114612c7e5760018114612c8f57612cc2565b60ff19831686528186019350612cc2565b612c9885613587565b60005b83811015612cba57815481890152600182019150602081019050612c9b565b838801955050505b50505092915050565b6000612cd8602b836135ce565b9150612ce3826139a7565b604082019050919050565b6000612cfb6032836135ce565b9150612d06826139f6565b604082019050919050565b6000612d1e6025836135ce565b9150612d2982613a45565b604082019050919050565b6000612d41601d836135ce565b9150612d4c82613a94565b602082019050919050565b6000612d64601c836135ce565b9150612d6f82613abd565b602082019050919050565b6000612d876024836135ce565b9150612d9282613ae6565b604082019050919050565b6000612daa6019836135ce565b9150612db582613b35565b602082019050919050565b6000612dcd602c836135ce565b9150612dd882613b5e565b604082019050919050565b6000612df06019836135ce565b9150612dfb82613bad565b602082019050919050565b6000612e136038836135ce565b9150612e1e82613bd6565b604082019050919050565b6000612e36602a836135ce565b9150612e4182613c25565b604082019050919050565b6000612e596029836135ce565b9150612e6482613c74565b604082019050919050565b6000612e7c6008836135df565b9150612e8782613cc3565b600882019050919050565b6000612e9f6020836135ce565b9150612eaa82613cec565b602082019050919050565b6000612ec2601b836135ce565b9150612ecd82613d15565b602082019050919050565b6000612ee5602c836135ce565b9150612ef082613d3e565b604082019050919050565b6000612f08602c836135ce565b9150612f1382613d8d565b604082019050919050565b6000612f2b6021836135ce565b9150612f3682613ddc565b604082019050919050565b6000612f4e6000836135c3565b9150612f5982613e2b565b600082019050919050565b6000612f716031836135ce565b9150612f7c82613e2e565b604082019050919050565b6000612f94602c836135ce565b9150612f9f82613e7d565b604082019050919050565b6000612fb76031836135ce565b9150612fc282613ecc565b604082019050919050565b6000612fda6024836135ce565b9150612fe582613f1b565b604082019050919050565b6000612ffd6001836135df565b915061300882613f6a565b600182019050919050565b60c082016000820151613029600085018261308e565b50602082015161303c602085018261308e565b50604082015161304f604085018261308e565b506060820151613062606085018261308e565b506080820151613075608085018261308e565b5060a082015161308860a0850182612b6d565b50505050565b6130978161377b565b82525050565b6130a68161377b565b82525050565b60006130b88286612c4c565b91506130c48285612c1b565b91506130cf82612ff0565b91506130db8284612c1b565b9150819050949350505050565b60006130f48284612c4c565b91506130ff82612e6f565b915081905092915050565b600061311582612f41565b9150819050919050565b60006020820190506131346000830184612b8b565b92915050565b600060808201905061314f6000830187612b8b565b61315c6020830186612b8b565b613169604083018561309d565b818103606083015261317b8184612ba9565b905095945050505050565b600060208201905061319b6000830184612b9a565b92915050565b600060208201905081810360008301526131bb8184612be2565b905092915050565b600060208201905081810360008301526131dc81612ccb565b9050919050565b600060208201905081810360008301526131fc81612cee565b9050919050565b6000602082019050818103600083015261321c81612d11565b9050919050565b6000602082019050818103600083015261323c81612d34565b9050919050565b6000602082019050818103600083015261325c81612d57565b9050919050565b6000602082019050818103600083015261327c81612d7a565b9050919050565b6000602082019050818103600083015261329c81612d9d565b9050919050565b600060208201905081810360008301526132bc81612dc0565b9050919050565b600060208201905081810360008301526132dc81612de3565b9050919050565b600060208201905081810360008301526132fc81612e06565b9050919050565b6000602082019050818103600083015261331c81612e29565b9050919050565b6000602082019050818103600083015261333c81612e4c565b9050919050565b6000602082019050818103600083015261335c81612e92565b9050919050565b6000602082019050818103600083015261337c81612eb5565b9050919050565b6000602082019050818103600083015261339c81612ed8565b9050919050565b600060208201905081810360008301526133bc81612efb565b9050919050565b600060208201905081810360008301526133dc81612f1e565b9050919050565b600060208201905081810360008301526133fc81612f64565b9050919050565b6000602082019050818103600083015261341c81612f87565b9050919050565b6000602082019050818103600083015261343c81612faa565b9050919050565b6000602082019050818103600083015261345c81612fcd565b9050919050565b600060c0820190506134786000830184613013565b92915050565b6000602082019050613493600083018461309d565b92915050565b60006060820190506134ae600083018661309d565b6134bb602083018561309d565b6134c86040830184612b5e565b949350505050565b600060c0820190506134e5600083018961309d565b6134f2602083018861309d565b6134ff604083018761309d565b61350c606083018661309d565b613519608083018561309d565b61352660a0830184612b7c565b979650505050505050565b600061353b61354c565b9050613547828261382f565b919050565b6000604051905090565b600067ffffffffffffffff82111561357157613570613967565b5b61357a82613996565b9050602081019050919050565b60008190508160005260206000209050919050565b600081519050919050565b600081519050919050565b600082825260208201905092915050565b600081905092915050565b600082825260208201905092915050565b600081905092915050565b60006135f58261377b565b91506136008361377b565b9250827fffffffffffffffffffffffffffffffffffffffffffffffffffffffffffffffff03821115613635576136346138da565b5b828201905092915050565b600061364b8261377b565b91506136568361377b565b92508261366657613665613909565b5b828204905092915050565b600061367c8261377b565b91506136878361377b565b9250817fffffffffffffffffffffffffffffffffffffffffffffffffffffffffffffffff04831182151516156136c0576136bf6138da565b5b828202905092915050565b60006136d68261377b565b91506136e18361377b565b9250828210156136f4576136f36138da565b5b828203905092915050565b600061370a8261375b565b9050919050565b600061371c8261375b565b9050919050565b60008115159050919050565b60007fffffffff0000000000000000000000000000000000000000000000000000000082169050919050565b600073ffffffffffffffffffffffffffffffffffffffff82169050919050565b6000819050919050565b600061379082613797565b9050919050565b60006137a2826137a9565b9050919050565b60006137b48261375b565b9050919050565b82818337600083830152505050565b60005b838110156137e85780820151818401526020810190506137cd565b838111156137f7576000848401525b50505050565b6000600282049050600182168061381557607f821691505b6020821081141561382957613828613938565b5b50919050565b61383882613996565b810181811067ffffffffffffffff8211171561385757613856613967565b5b80604052505050565b600061386b8261377b565b91507fffffffffffffffffffffffffffffffffffffffffffffffffffffffffffffffff82141561389e5761389d6138da565b5b600182019050919050565b60006138b48261377b565b91506138bf8361377b565b9250826138cf576138ce613909565b5b828206905092915050565b7f4e487b7100000000000000000000000000000000000000000000000000000000600052601160045260246000fd5b7f4e487b7100000000000000000000000000000000000000000000000000000000600052601260045260246000fd5b7f4e487b7100000000000000000000000000000000000000000000000000000000600052602260045260246000fd5b7f4e487b7100000000000000000000000000000000000000000000000000000000600052604160045260246000fd5b6000601f19601f8301169050919050565b7f455243373231456e756d657261626c653a206f776e657220696e646578206f7560008201527f74206f6620626f756e6473000000000000000000000000000000000000000000602082015250565b7f4552433732313a207472616e7366657220746f206e6f6e20455243373231526560008201527f63656976657220696d706c656d656e7465720000000000000000000000000000602082015250565b7f4552433732313a207472616e736665722066726f6d20696e636f72726563742060008201527f6f776e6572000000000000000000000000000000000000000000000000000000602082015250565b7f496e73756666696369656e742062616c616e636520666f722073656e64000000600082015250565b7f4552433732313a20746f6b656e20616c7265616479206d696e74656400000000600082015250565b7f4552433732313a207472616e7366657220746f20746865207a65726f2061646460008201527f7265737300000000000000000000000000000000000000000000000000000000602082015250565b7f4552433732313a20617070726f766520746f2063616c6c657200000000000000600082015250565b7f4552433732313a206f70657261746f7220717565727920666f72206e6f6e657860008201527f697374656e7420746f6b656e0000000000000000000000000000000000000000602082015250565b7f4d656d6265727368697020646f6573206e6f7420657869737400000000000000600082015250565b7f4552433732313a20617070726f76652063616c6c6572206973206e6f74206f7760008201527f6e6572206e6f7220617070726f76656420666f7220616c6c0000000000000000602082015250565b7f4552433732313a2062616c616e636520717565727920666f7220746865207a6560008201527f726f206164647265737300000000000000000000000000000000000000000000602082015250565b7f4552433732313a206f776e657220717565727920666f72206e6f6e657869737460008201527f656e7420746f6b656e0000000000000000000000000000000000000000000000602082015250565b7f6d65746164617461000000000000000000000000000000000000000000000000600082015250565b7f4552433732313a206d696e7420746f20746865207a65726f2061646472657373600082015250565b7f546f6b656e20686173206e6f74206265656e20736f6c64207965740000000000600082015250565b7f4552433732313a20617070726f76656420717565727920666f72206e6f6e657860008201527f697374656e7420746f6b656e0000000000000000000000000000000000000000602082015250565b7f4d7573742073656e6420656e6f75676820746f2070757263686173652074686560008201527f206d656d626572736869702e0000000000000000000000000000000000000000602082015250565b7f4552433732313a20617070726f76616c20746f2063757272656e74206f776e6560008201527f7200000000000000000000000000000000000000000000000000000000000000602082015250565b50565b7f4552433732313a207472616e736665722063616c6c6572206973206e6f74206f60008201527f776e6572206e6f7220617070726f766564000000000000000000000000000000602082015250565b7f455243373231456e756d657261626c653a20676c6f62616c20696e646578206f60008201527f7574206f6620626f756e64730000000000000000000000000000000000000000602082015250565b7f556e61626c6520746f2073656e642076616c75653a20726563697069656e742060008201527f6d61792068617665207265766572746564000000000000000000000000000000602082015250565b7f54686973206d656d6265727368697020697320616c726561647920736f6c642060008201527f6f75742e00000000000000000000000000000000000000000000000000000000602082015250565b7f2f00000000000000000000000000000000000000000000000000000000000000600082015250565b613f9c816136ff565b8114613fa757600080fd5b50565b613fb381613711565b8114613fbe57600080fd5b50565b613fca81613723565b8114613fd557600080fd5b50565b613fe18161372f565b8114613fec57600080fd5b50565b613ff88161377b565b811461400357600080fd5b5056fea26469706673582212201cd1ddf9596483b0dd7a0422e866ceb76929eb2703762b3e3389f4f7ad7a785c64736f6c63430008040033",
  "linkReferences": {},
  "deployedLinkReferences": {}
}