{
  "_format": "hh-sol-artifact-1",
  "contractName": "AccessToken",
  "sourceName": "contracts/AccessToken.sol",
  "abi": [
    {
      "inputs": [
        {
          "internalType": "address",
          "name": "_copyrightContract",
          "type": "address"
        },
        {
          "internalType": "string",
          "name": "baseURI_",
          "type": "string"
        },
        {
          "internalType": "string",
          "name": "_name",
          "type": "string"
        },
        {
          "internalType": "string",
          "name": "_symbol",
          "type": "string"
        }
      ],
      "stateMutability": "nonpayable",
      "type": "constructor"
    },
    {
      "anonymous": false,
      "inputs": [
        {
          "indexed": true,
          "internalType": "address",
          "name": "owner",
          "type": "address"
        },
        {
          "indexed": true,
          "internalType": "address",
          "name": "approved",
          "type": "address"
        },
        {
          "indexed": true,
          "internalType": "uint256",
          "name": "tokenId",
          "type": "uint256"
        }
      ],
      "name": "Approval",
      "type": "event"
    },
    {
      "anonymous": false,
      "inputs": [
        {
          "indexed": true,
          "internalType": "address",
          "name": "owner",
          "type": "address"
        },
        {
          "indexed": true,
          "internalType": "address",
          "name": "operator",
          "type": "address"
        },
        {
          "indexed": false,
          "internalType": "bool",
          "name": "approved",
          "type": "bool"
        }
      ],
      "name": "ApprovalForAll",
      "type": "event"
    },
    {
      "anonymous": false,
      "inputs": [
        {
          "indexed": false,
          "internalType": "uint256",
          "name": "quantity",
          "type": "uint256"
        },
        {
          "indexed": false,
          "internalType": "uint256",
          "name": "price",
          "type": "uint256"
        },
        {
          "indexed": false,
          "internalType": "address",
          "name": "fundingRecipient",
          "type": "address"
        },
        {
          "indexed": true,
          "internalType": "uint256",
          "name": "MembershipId",
          "type": "uint256"
        }
      ],
      "name": "MembershipCreated",
      "type": "event"
    },
    {
      "anonymous": false,
      "inputs": [
        {
          "indexed": true,
          "internalType": "uint256",
          "name": "MembershipId",
          "type": "uint256"
        },
        {
          "indexed": true,
          "internalType": "uint256",
          "name": "tokenId",
          "type": "uint256"
        },
        {
          "indexed": false,
          "internalType": "uint256",
          "name": "numSold",
          "type": "uint256"
        },
        {
          "indexed": true,
          "internalType": "address",
          "name": "buyer",
          "type": "address"
        }
      ],
      "name": "MembershipPurchased",
      "type": "event"
    },
    {
      "anonymous": false,
      "inputs": [
        {
          "indexed": true,
          "internalType": "address",
          "name": "from",
          "type": "address"
        },
        {
          "indexed": true,
          "internalType": "address",
          "name": "to",
          "type": "address"
        },
        {
          "indexed": true,
          "internalType": "uint256",
          "name": "tokenId",
          "type": "uint256"
        }
      ],
      "name": "Transfer",
      "type": "event"
    },
    {
      "inputs": [
        {
          "internalType": "address",
          "name": "to",
          "type": "address"
        },
        {
          "internalType": "uint256",
          "name": "tokenId",
          "type": "uint256"
        }
      ],
      "name": "approve",
      "outputs": [],
      "stateMutability": "nonpayable",
      "type": "function"
    },
    {
      "inputs": [
        {
          "internalType": "address",
          "name": "owner",
          "type": "address"
        }
      ],
      "name": "balanceOf",
      "outputs": [
        {
          "internalType": "uint256",
          "name": "",
          "type": "uint256"
        }
      ],
      "stateMutability": "view",
      "type": "function"
    },
    {
      "inputs": [
        {
          "internalType": "uint256",
          "name": "membershipId",
          "type": "uint256"
        }
      ],
      "name": "buyMembership",
      "outputs": [],
      "stateMutability": "payable",
      "type": "function"
    },
    {
      "inputs": [
        {
          "internalType": "uint256",
          "name": "coverId",
          "type": "uint256"
        },
        {
          "internalType": "uint256",
          "name": "quantity",
          "type": "uint256"
        },
        {
          "internalType": "uint256",
          "name": "price",
          "type": "uint256"
        },
        {
          "internalType": "address payable",
          "name": "fundingRecipient",
          "type": "address"
        }
      ],
      "name": "createMemberships",
      "outputs": [],
      "stateMutability": "nonpayable",
      "type": "function"
    },
    {
      "inputs": [
        {
          "internalType": "uint256",
          "name": "_tokenId",
          "type": "uint256"
        }
      ],
      "name": "generateMembershipImage",
      "outputs": [
        {
          "internalType": "string",
          "name": "",
          "type": "string"
        }
      ],
      "stateMutability": "view",
      "type": "function"
    },
    {
      "inputs": [
        {
          "internalType": "uint256",
          "name": "tokenId",
          "type": "uint256"
        }
      ],
      "name": "getApproved",
      "outputs": [
        {
          "internalType": "address",
          "name": "",
          "type": "address"
        }
      ],
      "stateMutability": "view",
      "type": "function"
    },
    {
      "inputs": [
        {
          "internalType": "uint256",
          "name": "_coverId",
          "type": "uint256"
        }
      ],
      "name": "getMembership",
      "outputs": [
        {
          "components": [
            {
              "internalType": "uint256",
              "name": "id",
              "type": "uint256"
            },
            {
              "internalType": "uint256",
              "name": "coverId",
              "type": "uint256"
            },
            {
              "internalType": "uint256",
              "name": "quantity",
              "type": "uint256"
            },
            {
              "internalType": "uint256",
              "name": "price",
              "type": "uint256"
            },
            {
              "internalType": "uint256",
              "name": "numSold",
              "type": "uint256"
            },
            {
              "internalType": "address payable",
              "name": "fundingRecipient",
              "type": "address"
            }
          ],
          "internalType": "struct AccessToken.Membership",
          "name": "",
          "type": "tuple"
        }
      ],
      "stateMutability": "view",
      "type": "function"
    },
    {
      "inputs": [
        {
          "internalType": "uint256",
          "name": "tokenId",
          "type": "uint256"
        }
      ],
      "name": "getTokenURI",
      "outputs": [
        {
          "internalType": "string",
          "name": "",
          "type": "string"
        }
      ],
      "stateMutability": "view",
      "type": "function"
    },
    {
      "inputs": [
        {
          "internalType": "address",
          "name": "owner",
          "type": "address"
        },
        {
          "internalType": "address",
          "name": "operator",
          "type": "address"
        }
      ],
      "name": "isApprovedForAll",
      "outputs": [
        {
          "internalType": "bool",
          "name": "",
          "type": "bool"
        }
      ],
      "stateMutability": "view",
      "type": "function"
    },
    {
      "inputs": [
        {
          "internalType": "address",
          "name": "_owner",
          "type": "address"
        },
        {
          "internalType": "uint256",
          "name": "_coverId",
          "type": "uint256"
        }
      ],
      "name": "isOwner",
      "outputs": [
        {
          "internalType": "bool",
          "name": "",
          "type": "bool"
        }
      ],
      "stateMutability": "view",
      "type": "function"
    },
    {
      "inputs": [
        {
          "internalType": "uint256",
          "name": "",
          "type": "uint256"
        }
      ],
      "name": "memberships",
      "outputs": [
        {
          "internalType": "uint256",
          "name": "id",
          "type": "uint256"
        },
        {
          "internalType": "uint256",
          "name": "coverId",
          "type": "uint256"
        },
        {
          "internalType": "uint256",
          "name": "quantity",
          "type": "uint256"
        },
        {
          "internalType": "uint256",
          "name": "price",
          "type": "uint256"
        },
        {
          "internalType": "uint256",
          "name": "numSold",
          "type": "uint256"
        },
        {
          "internalType": "address payable",
          "name": "fundingRecipient",
          "type": "address"
        }
      ],
      "stateMutability": "view",
      "type": "function"
    },
    {
      "inputs": [],
      "name": "name",
      "outputs": [
        {
          "internalType": "string",
          "name": "",
          "type": "string"
        }
      ],
      "stateMutability": "view",
      "type": "function"
    },
    {
      "inputs": [
        {
          "internalType": "uint256",
          "name": "tokenId",
          "type": "uint256"
        }
      ],
      "name": "ownerOf",
      "outputs": [
        {
          "internalType": "address",
          "name": "",
          "type": "address"
        }
      ],
      "stateMutability": "view",
      "type": "function"
    },
    {
      "inputs": [
        {
          "internalType": "address",
          "name": "from",
          "type": "address"
        },
        {
          "internalType": "address",
          "name": "to",
          "type": "address"
        },
        {
          "internalType": "uint256",
          "name": "tokenId",
          "type": "uint256"
        }
      ],
      "name": "safeTransferFrom",
      "outputs": [],
      "stateMutability": "nonpayable",
      "type": "function"
    },
    {
      "inputs": [
        {
          "internalType": "address",
          "name": "from",
          "type": "address"
        },
        {
          "internalType": "address",
          "name": "to",
          "type": "address"
        },
        {
          "internalType": "uint256",
          "name": "tokenId",
          "type": "uint256"
        },
        {
          "internalType": "bytes",
          "name": "_data",
          "type": "bytes"
        }
      ],
      "name": "safeTransferFrom",
      "outputs": [],
      "stateMutability": "nonpayable",
      "type": "function"
    },
    {
      "inputs": [
        {
          "internalType": "address",
          "name": "operator",
          "type": "address"
        },
        {
          "internalType": "bool",
          "name": "approved",
          "type": "bool"
        }
      ],
      "name": "setApprovalForAll",
      "outputs": [],
      "stateMutability": "nonpayable",
      "type": "function"
    },
    {
      "inputs": [
        {
          "internalType": "bytes4",
          "name": "interfaceId",
          "type": "bytes4"
        }
      ],
      "name": "supportsInterface",
      "outputs": [
        {
          "internalType": "bool",
          "name": "",
          "type": "bool"
        }
      ],
      "stateMutability": "view",
      "type": "function"
    },
    {
      "inputs": [],
      "name": "symbol",
      "outputs": [
        {
          "internalType": "string",
          "name": "",
          "type": "string"
        }
      ],
      "stateMutability": "view",
      "type": "function"
    },
    {
      "inputs": [
        {
          "internalType": "uint256",
          "name": "index",
          "type": "uint256"
        }
      ],
      "name": "tokenByIndex",
      "outputs": [
        {
          "internalType": "uint256",
          "name": "",
          "type": "uint256"
        }
      ],
      "stateMutability": "view",
      "type": "function"
    },
    {
      "inputs": [
        {
          "internalType": "address",
          "name": "owner",
          "type": "address"
        },
        {
          "internalType": "uint256",
          "name": "index",
          "type": "uint256"
        }
      ],
      "name": "tokenOfOwnerByIndex",
      "outputs": [
        {
          "internalType": "uint256",
          "name": "",
          "type": "uint256"
        }
      ],
      "stateMutability": "view",
      "type": "function"
    },
    {
      "inputs": [
        {
          "internalType": "uint256",
          "name": "",
          "type": "uint256"
        }
      ],
      "name": "tokenToMembership",
      "outputs": [
        {
          "internalType": "uint256",
          "name": "",
          "type": "uint256"
        }
      ],
      "stateMutability": "view",
      "type": "function"
    },
    {
      "inputs": [
        {
          "internalType": "uint256",
          "name": "tokenId",
          "type": "uint256"
        }
      ],
      "name": "tokenURI",
      "outputs": [
        {
          "internalType": "string",
          "name": "",
          "type": "string"
        }
      ],
      "stateMutability": "view",
      "type": "function"
    },
    {
      "inputs": [],
      "name": "totalSupply",
      "outputs": [
        {
          "internalType": "uint256",
          "name": "",
          "type": "uint256"
        }
      ],
      "stateMutability": "view",
      "type": "function"
    },
    {
      "inputs": [
        {
          "internalType": "uint256",
          "name": "id",
          "type": "uint256"
        }
      ],
      "name": "totalSupply",
      "outputs": [
        {
          "internalType": "uint256",
          "name": "",
          "type": "uint256"
        }
      ],
      "stateMutability": "view",
      "type": "function"
    },
    {
      "inputs": [
        {
          "internalType": "address",
          "name": "from",
          "type": "address"
        },
        {
          "internalType": "address",
          "name": "to",
          "type": "address"
        },
        {
          "internalType": "uint256",
          "name": "tokenId",
          "type": "uint256"
        }
      ],
      "name": "transferFrom",
      "outputs": [],
      "stateMutability": "nonpayable",
      "type": "function"
    },
    {
      "inputs": [
        {
          "internalType": "uint256",
          "name": "membershipId",
          "type": "uint256"
        }
      ],
      "name": "withdrawFunds",
      "outputs": [],
      "stateMutability": "nonpayable",
      "type": "function"
    },
    {
      "inputs": [
        {
          "internalType": "uint256",
          "name": "",
          "type": "uint256"
        }
      ],
      "name": "withdrawnForMembership",
      "outputs": [
        {
          "internalType": "uint256",
          "name": "",
          "type": "uint256"
        }
      ],
      "stateMutability": "view",
      "type": "function"
    }
  ],
  "bytecode": "0x608060405260016012553480156200001657600080fd5b50604051620059723803806200597283398181016040528101906200003c91906200020f565b8181816000908051906020019062000056929190620000d6565b5080600190805190602001906200006f929190620000d6565b50505082600e90805190602001906200008a929190620000d6565b5083600c60006101000a81548173ffffffffffffffffffffffffffffffffffffffff021916908373ffffffffffffffffffffffffffffffffffffffff1602179055505050505062000484565b828054620000e4906200038f565b90600052602060002090601f01602090048101928262000108576000855562000154565b82601f106200012357805160ff191683800117855562000154565b8280016001018555821562000154579182015b828111156200015357825182559160200191906001019062000136565b5b50905062000163919062000167565b5090565b5b808211156200018257600081600090555060010162000168565b5090565b60006200019d6200019784620002ef565b620002c6565b905082815260208101848484011115620001b657600080fd5b620001c384828562000359565b509392505050565b600081519050620001dc816200046a565b92915050565b600082601f830112620001f457600080fd5b81516200020684826020860162000186565b91505092915050565b600080600080608085870312156200022657600080fd5b60006200023687828801620001cb565b945050602085015167ffffffffffffffff8111156200025457600080fd5b6200026287828801620001e2565b935050604085015167ffffffffffffffff8111156200028057600080fd5b6200028e87828801620001e2565b925050606085015167ffffffffffffffff811115620002ac57600080fd5b620002ba87828801620001e2565b91505092959194509250565b6000620002d2620002e5565b9050620002e08282620003c5565b919050565b6000604051905090565b600067ffffffffffffffff8211156200030d576200030c6200042a565b5b620003188262000459565b9050602081019050919050565b6000620003328262000339565b9050919050565b600073ffffffffffffffffffffffffffffffffffffffff82169050919050565b60005b83811015620003795780820151818401526020810190506200035c565b8381111562000389576000848401525b50505050565b60006002820490506001821680620003a857607f821691505b60208210811415620003bf57620003be620003fb565b5b50919050565b620003d08262000459565b810181811067ffffffffffffffff82111715620003f257620003f16200042a565b5b80604052505050565b7f4e487b7100000000000000000000000000000000000000000000000000000000600052602260045260246000fd5b7f4e487b7100000000000000000000000000000000000000000000000000000000600052604160045260246000fd5b6000601f19601f8301169050919050565b620004758162000325565b81146200048157600080fd5b50565b6154de80620004946000396000f3fe60806040526004361061019c5760003560e01c80634f6ccce7116100ec578063a43231281161008a578063c87b56dd11610064578063c87b56dd1461063e578063e327a6af1461067b578063e985e9c5146106b8578063f27c4b7f146106f55761019c565b8063a4323128146105bc578063b88d4fde146105d8578063bd85b039146106015761019c565b80637561565d116100c65780637561565d146104ee57806395d89b411461052b5780639eed8a0f14610556578063a22cb465146105935761019c565b80634f6ccce7146104375780636352211e1461047457806370a08231146104b15761019c565b806318160ddd11610159578063321621d711610133578063321621d71461035257806338fbf2c6146103945780633bb3a24d146103d157806342842e0e1461040e5761019c565b806318160ddd146102c157806323b872dd146102ec5780632f745c59146103155761019c565b806301ffc9a7146101a157806306fdde03146101de578063077b92ff14610209578063081812fc14610232578063095ea7b31461026f578063155dd5ee14610298575b600080fd5b3480156101ad57600080fd5b506101c860048036038101906101c3919061335e565b610732565b6040516101d59190613f1b565b60405180910390f35b3480156101ea57600080fd5b506101f3610744565b6040516102009190613f36565b60405180910390f35b34801561021557600080fd5b50610230600480360381019061022b919061341a565b6107d6565b005b34801561023e57600080fd5b50610259600480360381019061025491906133f1565b610a2f565b6040516102669190613eb4565b60405180910390f35b34801561027b57600080fd5b5061029660048036038101906102919190613322565b610ab4565b005b3480156102a457600080fd5b506102bf60048036038101906102ba91906133f1565b610bcc565b005b3480156102cd57600080fd5b506102d6610c94565b6040516102e39190614273565b60405180910390f35b3480156102f857600080fd5b50610313600480360381019061030e919061321c565b610ca1565b005b34801561032157600080fd5b5061033c60048036038101906103379190613322565b610d01565b6040516103499190614273565b60405180910390f35b34801561035e57600080fd5b50610379600480360381019061037491906133f1565b610da6565b60405161038b969594939291906142c5565b60405180910390f35b3480156103a057600080fd5b506103bb60048036038101906103b691906133f1565b610e02565b6040516103c89190614258565b60405180910390f35b3480156103dd57600080fd5b506103f860048036038101906103f391906133f1565b610f07565b6040516104059190613f36565b60405180910390f35b34801561041a57600080fd5b506104356004803603810190610430919061321c565b610fa6565b005b34801561044357600080fd5b5061045e600480360381019061045991906133f1565b610fc6565b60405161046b9190614273565b60405180910390f35b34801561048057600080fd5b5061049b600480360381019061049691906133f1565b61105d565b6040516104a89190613eb4565b60405180910390f35b3480156104bd57600080fd5b506104d860048036038101906104d3919061318e565b61110f565b6040516104e59190614273565b60405180910390f35b3480156104fa57600080fd5b50610515600480360381019061051091906133f1565b6111c7565b6040516105229190614273565b60405180910390f35b34801561053757600080fd5b506105406111df565b60405161054d9190613f36565b60405180910390f35b34801561056257600080fd5b5061057d600480360381019061057891906133f1565b611271565b60405161058a9190613f36565b60405180910390f35b34801561059f57600080fd5b506105ba60048036038101906105b591906132e6565b6112ca565b005b6105d660048036038101906105d191906133f1565b6112e0565b005b3480156105e457600080fd5b506105ff60048036038101906105fa919061326b565b6115c3565b005b34801561060d57600080fd5b50610628600480360381019061062391906133f1565b611625565b6040516106359190614273565b60405180910390f35b34801561064a57600080fd5b50610665600480360381019061066091906133f1565b611645565b6040516106729190613f36565b60405180910390f35b34801561068757600080fd5b506106a2600480360381019061069d9190613322565b611657565b6040516106af9190613f1b565b60405180910390f35b3480156106c457600080fd5b506106df60048036038101906106da91906131e0565b611709565b6040516106ec9190613f1b565b60405180910390f35b34801561070157600080fd5b5061071c600480360381019061071791906133f1565b61179d565b6040516107299190614273565b60405180910390f35b600061073d826117b5565b9050919050565b60606000805461075390614623565b80601f016020809104026020016040519081016040528092919081815260200182805461077f90614623565b80156107cc5780601f106107a1576101008083540402835291602001916107cc565b820191906000526020600020905b8154815290600101906020018083116107af57829003601f168201915b5050505050905090565b836000600c60009054906101000a900473ffffffffffffffffffffffffffffffffffffffff16905060008173ffffffffffffffffffffffffffffffffffffffff16639e2b8488846040518263ffffffff1660e01b81526004016108399190614273565b60206040518083038186803b15801561085157600080fd5b505afa158015610865573d6000803e3d6000fd5b505050506040513d601f19601f8201168201806040525081019061088991906131b7565b90503373ffffffffffffffffffffffffffffffffffffffff168173ffffffffffffffffffffffffffffffffffffffff16146108f9576040517f08c379a00000000000000000000000000000000000000000000000000000000081526004016108f090613f58565b60405180910390fd5b6040518060c001604052806012548152602001888152602001878152602001868152602001600081526020018573ffffffffffffffffffffffffffffffffffffffff16815250600f60006012548152602001908152602001600020600082015181600001556020820151816001015560408201518160020155606082015181600301556080820151816004015560a08201518160050160006101000a81548173ffffffffffffffffffffffffffffffffffffffff021916908373ffffffffffffffffffffffffffffffffffffffff1602179055509050506012547f569ed9b46fb6769b3d28035ad5159a443d743d3e6d1b12cc75d3d2666164097a878787604051610a069392919061428e565b60405180910390a260126000815480929190610a2190614686565b919050555050505050505050565b6000610a3a8261182f565b610a79576040517f08c379a0000000000000000000000000000000000000000000000000000000008152600401610a7090614158565b60405180910390fd5b6004600083815260200190815260200160002060009054906101000a900473ffffffffffffffffffffffffffffffffffffffff169050919050565b6000610abf8261105d565b90508073ffffffffffffffffffffffffffffffffffffffff168373ffffffffffffffffffffffffffffffffffffffff161415610b30576040517f08c379a0000000000000000000000000000000000000000000000000000000008152600401610b27906141b8565b60405180910390fd5b8073ffffffffffffffffffffffffffffffffffffffff16610b4f61189b565b73ffffffffffffffffffffffffffffffffffffffff161480610b7e5750610b7d81610b7861189b565b611709565b5b610bbd576040517f08c379a0000000000000000000000000000000000000000000000000000000008152600401610bb490614098565b60405180910390fd5b610bc783836118a3565b505050565b60006011600083815260200190815260200160002054600f600084815260200190815260200160002060040154600f600085815260200190815260200160002060030154610c1a9190614497565b610c2491906144f1565b905080601160008481526020019081526020016000206000828254610c499190614410565b92505081905550610c90600f600084815260200190815260200160002060050160009054906101000a900473ffffffffffffffffffffffffffffffffffffffff168261195c565b5050565b6000600980549050905090565b610cb2610cac61189b565b82611a50565b610cf1576040517f08c379a0000000000000000000000000000000000000000000000000000000008152600401610ce8906141d8565b60405180910390fd5b610cfc838383611b2e565b505050565b6000610d0c8361110f565b8210610d4d576040517f08c379a0000000000000000000000000000000000000000000000000000000008152600401610d4490613f78565b60405180910390fd5b600760008473ffffffffffffffffffffffffffffffffffffffff1673ffffffffffffffffffffffffffffffffffffffff168152602001908152602001600020600083815260200190815260200160002054905092915050565b600f6020528060005260406000206000915090508060000154908060010154908060020154908060030154908060040154908060050160009054906101000a900473ffffffffffffffffffffffffffffffffffffffff16905086565b610e0a612f3c565b610e12612f3c565b6000600190505b601254811015610efd5783600f6000838152602001908152602001600020600101541415610eea57600f60008281526020019081526020016000206040518060c001604052908160008201548152602001600182015481526020016002820154815260200160038201548152602001600482015481526020016005820160009054906101000a900473ffffffffffffffffffffffffffffffffffffffff1673ffffffffffffffffffffffffffffffffffffffff1673ffffffffffffffffffffffffffffffffffffffff168152505091505b8080610ef590614686565b915050610e19565b5080915050919050565b60606000600f6000601060008681526020019081526020016000205481526020019081526020016000206002015490506000600d610f4485611d95565b83600d610f5088611271565b604051602001610f64959493929190613d9e565b6040516020818303038152906040529050610f7e81611f42565b604051602001610f8e9190613e5b565b60405160208183030381529060405292505050919050565b610fc1838383604051806020016040528060008152506115c3565b505050565b6000610fd0610c94565b8210611011576040517f08c379a0000000000000000000000000000000000000000000000000000000008152600401611008906141f8565b60405180910390fd5b6009828154811061104b577f4e487b7100000000000000000000000000000000000000000000000000000000600052603260045260246000fd5b90600052602060002001549050919050565b6000806002600084815260200190815260200160002060009054906101000a900473ffffffffffffffffffffffffffffffffffffffff169050600073ffffffffffffffffffffffffffffffffffffffff168173ffffffffffffffffffffffffffffffffffffffff161415611106576040517f08c379a00000000000000000000000000000000000000000000000000000000081526004016110fd906140d8565b60405180910390fd5b80915050919050565b60008073ffffffffffffffffffffffffffffffffffffffff168273ffffffffffffffffffffffffffffffffffffffff161415611180576040517f08c379a0000000000000000000000000000000000000000000000000000000008152600401611177906140b8565b60405180910390fd5b600360008373ffffffffffffffffffffffffffffffffffffffff1673ffffffffffffffffffffffffffffffffffffffff168152602001908152602001600020549050919050565b60116020528060005260406000206000915090505481565b6060600180546111ee90614623565b80601f016020809104026020016040519081016040528092919081815260200182805461121a90614623565b80156112675780601f1061123c57610100808354040283529160200191611267565b820191906000526020600020905b81548152906001019060200180831161124a57829003601f168201915b5050505050905090565b60606000600d83604051602001611289929190613d08565b60405160208183030381529060405290506112a381611f42565b6040516020016112b39190613e92565b604051602081830303815290604052915050919050565b6112dc6112d561189b565b83836120cc565b5050565b6000600f60008381526020019081526020016000206002015411611339576040517f08c379a000000000000000000000000000000000000000000000000000000000815260040161133090614078565b60405180910390fd5b600f600082815260200190815260200160002060020154600f600083815260200190815260200160002060040154106113a7576040517f08c379a000000000000000000000000000000000000000000000000000000000815260040161139e90614238565b60405180910390fd5b600f60008281526020019081526020016000206003015434146113ff576040517f08c379a00000000000000000000000000000000000000000000000000000000081526004016113f690614198565b60405180910390fd5b6000600c60009054906101000a900473ffffffffffffffffffffffffffffffffffffffff1690508073ffffffffffffffffffffffffffffffffffffffff1663929a79b1600f6000858152602001908152602001600020600101546040518263ffffffff1660e01b81526004016114759190614273565b60006040518083038186803b15801561148d57600080fd5b505afa1580156114a1573d6000803e3d6000fd5b505050506040513d6000823e3d601f19601f820116820180604052508101906114ca91906133b0565b600d90805190602001906114df929190612f88565b5060006114ec600b612239565b90506114f8600b612247565b600f6000848152602001908152602001600020600401600081548092919061151f90614686565b919050555061152e338261225d565b8260106000838152602001908152602001600020819055506115588161155383610f07565b61227b565b3373ffffffffffffffffffffffffffffffffffffffff1681847fdb2f75556f53ba14a6f9db51ed35b1da194da4a0d6f78e22c993c7357000a63d600f6000888152602001908152602001600020600401546040516115b69190614273565b60405180910390a4505050565b6115d46115ce61189b565b83611a50565b611613576040517f08c379a000000000000000000000000000000000000000000000000000000000815260040161160a906141d8565b60405180910390fd5b61161f848484846122ef565b50505050565b6000600f6000838152602001908152602001600020600201549050919050565b60606116508261234b565b9050919050565b60008061166383610e02565b6000015190506000611675600b612239565b905060005b818110156116fb578260106000838152602001908152602001600020541480156116d757506116a88161105d565b73ffffffffffffffffffffffffffffffffffffffff168673ffffffffffffffffffffffffffffffffffffffff16145b156116e85760019350505050611703565b80806116f390614686565b91505061167a565b506000925050505b92915050565b6000600560008473ffffffffffffffffffffffffffffffffffffffff1673ffffffffffffffffffffffffffffffffffffffff16815260200190815260200160002060008373ffffffffffffffffffffffffffffffffffffffff1673ffffffffffffffffffffffffffffffffffffffff16815260200190815260200160002060009054906101000a900460ff16905092915050565b60106020528060005260406000206000915090505481565b60007f780e9d63000000000000000000000000000000000000000000000000000000007bffffffffffffffffffffffffffffffffffffffffffffffffffffffff1916827bffffffffffffffffffffffffffffffffffffffffffffffffffffffff1916148061182857506118278261249d565b5b9050919050565b60008073ffffffffffffffffffffffffffffffffffffffff166002600084815260200190815260200160002060009054906101000a900473ffffffffffffffffffffffffffffffffffffffff1673ffffffffffffffffffffffffffffffffffffffff1614159050919050565b600033905090565b816004600083815260200190815260200160002060006101000a81548173ffffffffffffffffffffffffffffffffffffffff021916908373ffffffffffffffffffffffffffffffffffffffff160217905550808273ffffffffffffffffffffffffffffffffffffffff166119168361105d565b73ffffffffffffffffffffffffffffffffffffffff167f8c5be1e5ebec7d5bd14f71427d1e84f3dd0314c0f7b2291e5b200ac8c7c3b92560405160405180910390a45050565b8047101561199f576040517f08c379a000000000000000000000000000000000000000000000000000000000815260040161199690613fd8565b60405180910390fd5b60008273ffffffffffffffffffffffffffffffffffffffff16826040516119c590613e7d565b60006040518083038185875af1925050503d8060008114611a02576040519150601f19603f3d011682016040523d82523d6000602084013e611a07565b606091505b5050905080611a4b576040517f08c379a0000000000000000000000000000000000000000000000000000000008152600401611a4290614218565b60405180910390fd5b505050565b6000611a5b8261182f565b611a9a576040517f08c379a0000000000000000000000000000000000000000000000000000000008152600401611a9190614058565b60405180910390fd5b6000611aa58361105d565b90508073ffffffffffffffffffffffffffffffffffffffff168473ffffffffffffffffffffffffffffffffffffffff161480611ae75750611ae68185611709565b5b80611b2557508373ffffffffffffffffffffffffffffffffffffffff16611b0d84610a2f565b73ffffffffffffffffffffffffffffffffffffffff16145b91505092915050565b8273ffffffffffffffffffffffffffffffffffffffff16611b4e8261105d565b73ffffffffffffffffffffffffffffffffffffffff1614611ba4576040517f08c379a0000000000000000000000000000000000000000000000000000000008152600401611b9b90613fb8565b60405180910390fd5b600073ffffffffffffffffffffffffffffffffffffffff168273ffffffffffffffffffffffffffffffffffffffff161415611c14576040517f08c379a0000000000000000000000000000000000000000000000000000000008152600401611c0b90614018565b60405180910390fd5b611c1f83838361257f565b611c2a6000826118a3565b6001600360008573ffffffffffffffffffffffffffffffffffffffff1673ffffffffffffffffffffffffffffffffffffffff1681526020019081526020016000206000828254611c7a91906144f1565b925050819055506001600360008473ffffffffffffffffffffffffffffffffffffffff1673ffffffffffffffffffffffffffffffffffffffff1681526020019081526020016000206000828254611cd19190614410565b92505081905550816002600083815260200190815260200160002060006101000a81548173ffffffffffffffffffffffffffffffffffffffff021916908373ffffffffffffffffffffffffffffffffffffffff160217905550808273ffffffffffffffffffffffffffffffffffffffff168473ffffffffffffffffffffffffffffffffffffffff167fddf252ad1be2c89b69c2b068fc378daa952ba7f163c4a11628f55a4df523b3ef60405160405180910390a4611d9083838361258f565b505050565b60606000821415611ddd576040518060400160405280600181526020017f30000000000000000000000000000000000000000000000000000000000000008152509050611f3d565b600082905060005b60008214611e0f578080611df890614686565b915050600a82611e089190614466565b9150611de5565b60008167ffffffffffffffff811115611e51577f4e487b7100000000000000000000000000000000000000000000000000000000600052604160045260246000fd5b6040519080825280601f01601f191660200182016040528015611e835781602001600182028036833780820191505090505b5090505b60008514611f3657600182611e9c91906144f1565b9150600a85611eab91906146d9565b6030611eb79190614410565b60f81b818381518110611ef3577f4e487b7100000000000000000000000000000000000000000000000000000000600052603260045260246000fd5b60200101907effffffffffffffffffffffffffffffffffffffffffffffffffffffffffffff1916908160001a905350600a85611f2f9190614466565b9450611e87565b8093505050505b919050565b6060600082511415611f65576040518060200160405280600081525090506120c7565b60006040518060600160405280604081526020016154696040913990506000600360028551611f949190614410565b611f9e9190614466565b6004611faa9190614497565b67ffffffffffffffff811115611fe9577f4e487b7100000000000000000000000000000000000000000000000000000000600052604160045260246000fd5b6040519080825280601f01601f19166020018201604052801561201b5781602001600182028036833780820191505090505b509050600182016020820185865187015b80821015612087576003820191508151603f8160121c168501518453600184019350603f81600c1c168501518453600184019350603f8160061c168501518453600184019350603f811685015184536001840193505061202c565b50506003865106600181146120a357600281146120b6576120be565b603d6001830353603d60028303536120be565b603d60018303535b50505080925050505b919050565b8173ffffffffffffffffffffffffffffffffffffffff168373ffffffffffffffffffffffffffffffffffffffff16141561213b576040517f08c379a000000000000000000000000000000000000000000000000000000000815260040161213290614038565b60405180910390fd5b80600560008573ffffffffffffffffffffffffffffffffffffffff1673ffffffffffffffffffffffffffffffffffffffff16815260200190815260200160002060008473ffffffffffffffffffffffffffffffffffffffff1673ffffffffffffffffffffffffffffffffffffffff16815260200190815260200160002060006101000a81548160ff0219169083151502179055508173ffffffffffffffffffffffffffffffffffffffff168373ffffffffffffffffffffffffffffffffffffffff167f17307eab39ab6107e8899845ad3d59bd9653f200f220920489ca2b5937696c318360405161222c9190613f1b565b60405180910390a3505050565b600081600001549050919050565b6001816000016000828254019250508190555050565b612277828260405180602001604052806000815250612594565b5050565b6122848261182f565b6122c3576040517f08c379a00000000000000000000000000000000000000000000000000000000081526004016122ba906140f8565b60405180910390fd5b806006600084815260200190815260200160002090805190602001906122ea929190612f88565b505050565b6122fa848484611b2e565b612306848484846125ef565b612345576040517f08c379a000000000000000000000000000000000000000000000000000000000815260040161233c90613f98565b60405180910390fd5b50505050565b60606123568261182f565b612395576040517f08c379a000000000000000000000000000000000000000000000000000000000815260040161238c90614138565b60405180910390fd5b60006006600084815260200190815260200160002080546123b590614623565b80601f01602080910402602001604051908101604052809291908181526020018280546123e190614623565b801561242e5780601f106124035761010080835404028352916020019161242e565b820191906000526020600020905b81548152906001019060200180831161241157829003601f168201915b50505050509050600061243f612786565b9050600081511415612455578192505050612498565b60008251111561248a578082604051602001612472929190613ce4565b60405160208183030381529060405292505050612498565b6124938461279d565b925050505b919050565b60007f80ac58cd000000000000000000000000000000000000000000000000000000007bffffffffffffffffffffffffffffffffffffffffffffffffffffffff1916827bffffffffffffffffffffffffffffffffffffffffffffffffffffffff1916148061256857507f5b5e139f000000000000000000000000000000000000000000000000000000007bffffffffffffffffffffffffffffffffffffffffffffffffffffffff1916827bffffffffffffffffffffffffffffffffffffffffffffffffffffffff1916145b80612578575061257782612844565b5b9050919050565b61258a8383836128ae565b505050565b505050565b61259e83836129c2565b6125ab60008484846125ef565b6125ea576040517f08c379a00000000000000000000000000000000000000000000000000000000081526004016125e190613f98565b60405180910390fd5b505050565b60006126108473ffffffffffffffffffffffffffffffffffffffff16612b9c565b15612779578373ffffffffffffffffffffffffffffffffffffffff1663150b7a0261263961189b565b8786866040518563ffffffff1660e01b815260040161265b9493929190613ecf565b602060405180830381600087803b15801561267557600080fd5b505af19250505080156126a657506040513d601f19601f820116820180604052508101906126a39190613387565b60015b612729573d80600081146126d6576040519150601f19603f3d011682016040523d82523d6000602084013e6126db565b606091505b50600081511415612721576040517f08c379a000000000000000000000000000000000000000000000000000000000815260040161271890613f98565b60405180910390fd5b805181602001fd5b63150b7a0260e01b7bffffffffffffffffffffffffffffffffffffffffffffffffffffffff1916817bffffffffffffffffffffffffffffffffffffffffffffffffffffffff19161491505061277e565b600190505b949350505050565b606060405180602001604052806000815250905090565b60606127a88261182f565b6127e7576040517f08c379a00000000000000000000000000000000000000000000000000000000081526004016127de90614178565b60405180910390fd5b60006127f1612786565b90506000815111612811576040518060200160405280600081525061283c565b8061281b84611d95565b60405160200161282c929190613ce4565b6040516020818303038152906040525b915050919050565b60007f01ffc9a7000000000000000000000000000000000000000000000000000000007bffffffffffffffffffffffffffffffffffffffffffffffffffffffff1916827bffffffffffffffffffffffffffffffffffffffffffffffffffffffff1916149050919050565b6128b9838383612bbf565b600073ffffffffffffffffffffffffffffffffffffffff168373ffffffffffffffffffffffffffffffffffffffff1614156128fc576128f781612bc4565b61293b565b8173ffffffffffffffffffffffffffffffffffffffff168373ffffffffffffffffffffffffffffffffffffffff161461293a576129398382612c0d565b5b5b600073ffffffffffffffffffffffffffffffffffffffff168273ffffffffffffffffffffffffffffffffffffffff16141561297e5761297981612d7a565b6129bd565b8273ffffffffffffffffffffffffffffffffffffffff168273ffffffffffffffffffffffffffffffffffffffff16146129bc576129bb8282612ebd565b5b5b505050565b600073ffffffffffffffffffffffffffffffffffffffff168273ffffffffffffffffffffffffffffffffffffffff161415612a32576040517f08c379a0000000000000000000000000000000000000000000000000000000008152600401612a2990614118565b60405180910390fd5b612a3b8161182f565b15612a7b576040517f08c379a0000000000000000000000000000000000000000000000000000000008152600401612a7290613ff8565b60405180910390fd5b612a876000838361257f565b6001600360008473ffffffffffffffffffffffffffffffffffffffff1673ffffffffffffffffffffffffffffffffffffffff1681526020019081526020016000206000828254612ad79190614410565b92505081905550816002600083815260200190815260200160002060006101000a81548173ffffffffffffffffffffffffffffffffffffffff021916908373ffffffffffffffffffffffffffffffffffffffff160217905550808273ffffffffffffffffffffffffffffffffffffffff16600073ffffffffffffffffffffffffffffffffffffffff167fddf252ad1be2c89b69c2b068fc378daa952ba7f163c4a11628f55a4df523b3ef60405160405180910390a4612b986000838361258f565b5050565b6000808273ffffffffffffffffffffffffffffffffffffffff163b119050919050565b505050565b600980549050600a600083815260200190815260200160002081905550600981908060018154018082558091505060019003906000526020600020016000909190919091505550565b60006001612c1a8461110f565b612c2491906144f1565b9050600060086000848152602001908152602001600020549050818114612d09576000600760008673ffffffffffffffffffffffffffffffffffffffff1673ffffffffffffffffffffffffffffffffffffffff168152602001908152602001600020600084815260200190815260200160002054905080600760008773ffffffffffffffffffffffffffffffffffffffff1673ffffffffffffffffffffffffffffffffffffffff168152602001908152602001600020600084815260200190815260200160002081905550816008600083815260200190815260200160002081905550505b6008600084815260200190815260200160002060009055600760008573ffffffffffffffffffffffffffffffffffffffff1673ffffffffffffffffffffffffffffffffffffffff16815260200190815260200160002060008381526020019081526020016000206000905550505050565b60006001600980549050612d8e91906144f1565b90506000600a6000848152602001908152602001600020549050600060098381548110612de4577f4e487b7100000000000000000000000000000000000000000000000000000000600052603260045260246000fd5b906000526020600020015490508060098381548110612e2c577f4e487b7100000000000000000000000000000000000000000000000000000000600052603260045260246000fd5b906000526020600020018190555081600a600083815260200190815260200160002081905550600a6000858152602001908152602001600020600090556009805480612ea1577f4e487b7100000000000000000000000000000000000000000000000000000000600052603160045260246000fd5b6001900381819060005260206000200160009055905550505050565b6000612ec88361110f565b905081600760008573ffffffffffffffffffffffffffffffffffffffff1673ffffffffffffffffffffffffffffffffffffffff168152602001908152602001600020600083815260200190815260200160002081905550806008600084815260200190815260200160002081905550505050565b6040518060c001604052806000815260200160008152602001600081526020016000815260200160008152602001600073ffffffffffffffffffffffffffffffffffffffff1681525090565b828054612f9490614623565b90600052602060002090601f016020900481019282612fb65760008555612ffd565b82601f10612fcf57805160ff1916838001178555612ffd565b82800160010185558215612ffd579182015b82811115612ffc578251825591602001919060010190612fe1565b5b50905061300a919061300e565b5090565b5b8082111561302757600081600090555060010161300f565b5090565b600061303e6130398461434b565b614326565b90508281526020810184848401111561305657600080fd5b6130618482856145e1565b509392505050565b600061307c6130778461437c565b614326565b90508281526020810184848401111561309457600080fd5b61309f8482856145f0565b509392505050565b6000813590506130b6816153f5565b92915050565b6000815190506130cb816153f5565b92915050565b6000813590506130e08161540c565b92915050565b6000813590506130f581615423565b92915050565b60008135905061310a8161543a565b92915050565b60008151905061311f8161543a565b92915050565b600082601f83011261313657600080fd5b813561314684826020860161302b565b91505092915050565b600082601f83011261316057600080fd5b8151613170848260208601613069565b91505092915050565b60008135905061318881615451565b92915050565b6000602082840312156131a057600080fd5b60006131ae848285016130a7565b91505092915050565b6000602082840312156131c957600080fd5b60006131d7848285016130bc565b91505092915050565b600080604083850312156131f357600080fd5b6000613201858286016130a7565b9250506020613212858286016130a7565b9150509250929050565b60008060006060848603121561323157600080fd5b600061323f868287016130a7565b9350506020613250868287016130a7565b925050604061326186828701613179565b9150509250925092565b6000806000806080858703121561328157600080fd5b600061328f878288016130a7565b94505060206132a0878288016130a7565b93505060406132b187828801613179565b925050606085013567ffffffffffffffff8111156132ce57600080fd5b6132da87828801613125565b91505092959194509250565b600080604083850312156132f957600080fd5b6000613307858286016130a7565b9250506020613318858286016130e6565b9150509250929050565b6000806040838503121561333557600080fd5b6000613343858286016130a7565b925050602061335485828601613179565b9150509250929050565b60006020828403121561337057600080fd5b600061337e848285016130fb565b91505092915050565b60006020828403121561339957600080fd5b60006133a784828501613110565b91505092915050565b6000602082840312156133c257600080fd5b600082015167ffffffffffffffff8111156133dc57600080fd5b6133e88482850161314f565b91505092915050565b60006020828403121561340357600080fd5b600061341184828501613179565b91505092915050565b6000806000806080858703121561343057600080fd5b600061343e87828801613179565b945050602061344f87828801613179565b935050604061346087828801613179565b9250506060613471878288016130d1565b91505092959194509250565b613486816145ab565b82525050565b61349581614537565b82525050565b6134a481614537565b82525050565b6134b381614525565b82525050565b6134c281614549565b82525050565b60006134d3826143c2565b6134dd81856143d8565b93506134ed8185602086016145f0565b6134f6816147c6565b840191505092915050565b600061350c826143cd565b61351681856143f4565b93506135268185602086016145f0565b61352f816147c6565b840191505092915050565b6000613545826143cd565b61354f8185614405565b935061355f8185602086016145f0565b80840191505092915050565b6000815461357881614623565b6135828186614405565b9450600182166000811461359d57600181146135ae576135e1565b60ff198316865281860193506135e1565b6135b7856143ad565b60005b838110156135d9578154818901526001820191506020810190506135ba565b838801955050505b50505092915050565b60006135f7600e83614405565b9150613602826147d7565b600e82019050919050565b600061361a6017836143f4565b915061362582614800565b602082019050919050565b600061363d602b836143f4565b915061364882614829565b604082019050919050565b60006136606032836143f4565b915061366b82614878565b604082019050919050565b6000613683600283614405565b915061368e826148c7565b600282019050919050565b60006136a6600283614405565b91506136b1826148f0565b600282019050919050565b60006136c96025836143f4565b91506136d482614919565b604082019050919050565b60006136ec601d836143f4565b91506136f782614968565b602082019050919050565b600061370f601c836143f4565b915061371a82614991565b602082019050919050565b6000613732608683614405565b915061373d826149ba565b608682019050919050565b6000613755603083614405565b915061376082614a7b565b603082019050919050565b6000613778606283614405565b915061378382614aca565b606282019050919050565b600061379b6024836143f4565b91506137a682614b65565b604082019050919050565b60006137be6019836143f4565b91506137c982614bb4565b602082019050919050565b60006137e1605383614405565b91506137ec82614bdd565b605382019050919050565b6000613804602883614405565b915061380f82614c52565b602882019050919050565b6000613827602c836143f4565b915061383282614ca1565b604082019050919050565b600061384a601483614405565b915061385582614cf0565b601482019050919050565b600061386d6019836143f4565b915061387882614d19565b602082019050919050565b60006138906038836143f4565b915061389b82614d42565b604082019050919050565b60006138b3600183614405565b91506138be82614d91565b600182019050919050565b60006138d6602a836143f4565b91506138e182614dba565b604082019050919050565b60006138f96029836143f4565b915061390482614e09565b604082019050919050565b600061391c602e836143f4565b915061392782614e58565b604082019050919050565b600061393f600783614405565b915061394a82614ea7565b600782019050919050565b60006139626020836143f4565b915061396d82614ed0565b602082019050919050565b6000613985600183614405565b915061399082614ef9565b600182019050919050565b60006139a86031836143f4565b91506139b382614f22565b604082019050919050565b60006139cb602c836143f4565b91506139d682614f71565b604082019050919050565b60006139ee602f836143f4565b91506139f982614fc0565b604082019050919050565b6000613a11600183614405565b9150613a1c8261500f565b600182019050919050565b6000613a34602c836143f4565b9150613a3f82615038565b604082019050919050565b6000613a576021836143f4565b9150613a6282615087565b604082019050919050565b6000613a7a604a83614405565b9150613a85826150d6565b604a82019050919050565b6000613a9d601d83614405565b9150613aa88261514b565b601d82019050919050565b6000613ac0605383614405565b9150613acb82615174565b605382019050919050565b6000613ae36000836143e9565b9150613aee826151e9565b600082019050919050565b6000613b066031836143f4565b9150613b11826151ec565b604082019050919050565b6000613b29601083614405565b9150613b348261523b565b601082019050919050565b6000613b4c602c836143f4565b9150613b5782615264565b604082019050919050565b6000613b6f6031836143f4565b9150613b7a826152b3565b604082019050919050565b6000613b92600a83614405565b9150613b9d82615302565b600a82019050919050565b6000613bb56024836143f4565b9150613bc08261532b565b604082019050919050565b6000613bd8600683614405565b9150613be38261537a565b600682019050919050565b6000613bfb601a83614405565b9150613c06826153a3565b601a82019050919050565b6000613c1e600783614405565b9150613c29826153cc565b600782019050919050565b60c082016000820151613c4a6000850182613caf565b506020820151613c5d6020850182613caf565b506040820151613c706040850182613caf565b506060820151613c836060850182613caf565b506080820151613c966080850182613caf565b5060a0820151613ca960a085018261348c565b50505050565b613cb8816145a1565b82525050565b613cc7816145a1565b82525050565b613cde613cd9826145a1565b6146cf565b82525050565b6000613cf0828561353a565b9150613cfc828461353a565b91508190509392505050565b6000613d138261376b565b9150613d1e82613a6d565b9150613d2982613748565b9150613d34826137d4565b9150613d3f82613c11565b9150613d4b828561356b565b9150613d5682613932565b9150613d6182613ab3565b9150613d6c82613b1c565b9150613d788284613ccd565b602082019150613d8782613932565b9150613d9282613bcb565b91508190509392505050565b6000613da982613a04565b9150613db48261383d565b9150613dc0828861356b565b9150613dcb82613676565b9150613dd7828761353a565b9150613de282613699565b9150613ded826137f7565b9150613df98286613ccd565b602082019150613e08826135ea565b9150613e14828561356b565b9150613e1f82613725565b9150613e2a82613b85565b9150613e36828461353a565b9150613e41826138a6565b9150613e4c82613978565b91508190509695505050505050565b6000613e6682613a90565b9150613e72828461353a565b915081905092915050565b6000613e8882613ad6565b9150819050919050565b6000613e9d82613bee565b9150613ea9828461353a565b915081905092915050565b6000602082019050613ec960008301846134aa565b92915050565b6000608082019050613ee460008301876134aa565b613ef160208301866134aa565b613efe6040830185613cbe565b8181036060830152613f1081846134c8565b905095945050505050565b6000602082019050613f3060008301846134b9565b92915050565b60006020820190508181036000830152613f508184613501565b905092915050565b60006020820190508181036000830152613f718161360d565b9050919050565b60006020820190508181036000830152613f9181613630565b9050919050565b60006020820190508181036000830152613fb181613653565b9050919050565b60006020820190508181036000830152613fd1816136bc565b9050919050565b60006020820190508181036000830152613ff1816136df565b9050919050565b6000602082019050818103600083015261401181613702565b9050919050565b600060208201905081810360008301526140318161378e565b9050919050565b60006020820190508181036000830152614051816137b1565b9050919050565b600060208201905081810360008301526140718161381a565b9050919050565b6000602082019050818103600083015261409181613860565b9050919050565b600060208201905081810360008301526140b181613883565b9050919050565b600060208201905081810360008301526140d1816138c9565b9050919050565b600060208201905081810360008301526140f1816138ec565b9050919050565b600060208201905081810360008301526141118161390f565b9050919050565b6000602082019050818103600083015261413181613955565b9050919050565b600060208201905081810360008301526141518161399b565b9050919050565b60006020820190508181036000830152614171816139be565b9050919050565b60006020820190508181036000830152614191816139e1565b9050919050565b600060208201905081810360008301526141b181613a27565b9050919050565b600060208201905081810360008301526141d181613a4a565b9050919050565b600060208201905081810360008301526141f181613af9565b9050919050565b6000602082019050818103600083015261421181613b3f565b9050919050565b6000602082019050818103600083015261423181613b62565b9050919050565b6000602082019050818103600083015261425181613ba8565b9050919050565b600060c08201905061426d6000830184613c34565b92915050565b60006020820190506142886000830184613cbe565b92915050565b60006060820190506142a36000830186613cbe565b6142b06020830185613cbe565b6142bd604083018461347d565b949350505050565b600060c0820190506142da6000830189613cbe565b6142e76020830188613cbe565b6142f46040830187613cbe565b6143016060830186613cbe565b61430e6080830185613cbe565b61431b60a083018461349b565b979650505050505050565b6000614330614341565b905061433c8282614655565b919050565b6000604051905090565b600067ffffffffffffffff82111561436657614365614797565b5b61436f826147c6565b9050602081019050919050565b600067ffffffffffffffff82111561439757614396614797565b5b6143a0826147c6565b9050602081019050919050565b60008190508160005260206000209050919050565b600081519050919050565b600081519050919050565b600082825260208201905092915050565b600081905092915050565b600082825260208201905092915050565b600081905092915050565b600061441b826145a1565b9150614426836145a1565b9250827fffffffffffffffffffffffffffffffffffffffffffffffffffffffffffffffff0382111561445b5761445a61470a565b5b828201905092915050565b6000614471826145a1565b915061447c836145a1565b92508261448c5761448b614739565b5b828204905092915050565b60006144a2826145a1565b91506144ad836145a1565b9250817fffffffffffffffffffffffffffffffffffffffffffffffffffffffffffffffff04831182151516156144e6576144e561470a565b5b828202905092915050565b60006144fc826145a1565b9150614507836145a1565b92508282101561451a5761451961470a565b5b828203905092915050565b600061453082614581565b9050919050565b600061454282614581565b9050919050565b60008115159050919050565b60007fffffffff0000000000000000000000000000000000000000000000000000000082169050919050565b600073ffffffffffffffffffffffffffffffffffffffff82169050919050565b6000819050919050565b60006145b6826145bd565b9050919050565b60006145c8826145cf565b9050919050565b60006145da82614581565b9050919050565b82818337600083830152505050565b60005b8381101561460e5780820151818401526020810190506145f3565b8381111561461d576000848401525b50505050565b6000600282049050600182168061463b57607f821691505b6020821081141561464f5761464e614768565b5b50919050565b61465e826147c6565b810181811067ffffffffffffffff8211171561467d5761467c614797565b5b80604052505050565b6000614691826145a1565b91507fffffffffffffffffffffffffffffffffffffffffffffffffffffffffffffffff8214156146c4576146c361470a565b5b600182019050919050565b6000819050919050565b60006146e4826145a1565b91506146ef836145a1565b9250826146ff576146fe614739565b5b828206905092915050565b7f4e487b7100000000000000000000000000000000000000000000000000000000600052601160045260246000fd5b7f4e487b7100000000000000000000000000000000000000000000000000000000600052601260045260246000fd5b7f4e487b7100000000000000000000000000000000000000000000000000000000600052602260045260246000fd5b7f4e487b7100000000000000000000000000000000000000000000000000000000600052604160045260246000fd5b6000601f19601f8301169050919050565b7f204e465420666f7220626f6f6b20000000000000000000000000000000000000600082015250565b7f43616c6c6572206973206e6f7420746865206f776e6572000000000000000000600082015250565b7f455243373231456e756d657261626c653a206f776e657220696e646578206f7560008201527f74206f6620626f756e6473000000000000000000000000000000000000000000602082015250565b7f4552433732313a207472616e7366657220746f206e6f6e20455243373231526560008201527f63656976657220696d706c656d656e7465720000000000000000000000000000602082015250565b7f2023000000000000000000000000000000000000000000000000000000000000600082015250565b7f222c000000000000000000000000000000000000000000000000000000000000600082015250565b7f4552433732313a207472616e736665722066726f6d20696e636f72726563742060008201527f6f776e6572000000000000000000000000000000000000000000000000000000602082015250565b7f496e73756666696369656e742062616c616e636520666f722073656e64000000600082015250565b7f4552433732313a20746f6b656e20616c7265616479206d696e74656400000000600082015250565b7f206d61696e6c7920746f20726570726573656e74206561726c7920636f6e747260008201527f696275746f727320616e64206561726c7920737570706f7274732e205769746860208201527f2074686520746f6b656e20796f752063616e20667265656c792061636365737360408201527f2074686520626f6f6b20616e64206f74686572206c6f79616c74792062656e6560608201527f66697473222c0000000000000000000000000000000000000000000000000000608082015250565b7f3c726563742077696474683d223130302522206865696768743d22313030252260008201527f2066696c6c3d22626c61636b22202f3e00000000000000000000000000000000602082015250565b7f3c73766720786d6c6e733d22687474703a2f2f7777772e77332e6f72672f323060008201527f30302f73766722207072657365727665417370656374526174696f3d22784d6960208201527f6e594d696e206d656574222076696577426f783d22302030203335302033353060408201527f223e000000000000000000000000000000000000000000000000000000000000606082015250565b7f4552433732313a207472616e7366657220746f20746865207a65726f2061646460008201527f7265737300000000000000000000000000000000000000000000000000000000602082015250565b7f4552433732313a20617070726f766520746f2063616c6c657200000000000000600082015250565b7f3c7465787420783d223530252220793d223430252220636c6173733d2262617360008201527f652220646f6d696e616e742d626173656c696e653d226d6964646c652220746560208201527f78742d616e63686f723d226d6964646c65223e00000000000000000000000000604082015250565b7f226465736372697074696f6e223a202254686973206973206120636f6c6c656360008201527f74696f6e206f6620000000000000000000000000000000000000000000000000602082015250565b7f4552433732313a206f70657261746f7220717565727920666f72206e6f6e657860008201527f697374656e7420746f6b656e0000000000000000000000000000000000000000602082015250565b7f226e616d65223a20224d656d6265727368697020000000000000000000000000600082015250565b7f4d656d6265727368697020646f6573206e6f7420657869737400000000000000600082015250565b7f4552433732313a20617070726f76652063616c6c6572206973206e6f74206f7760008201527f6e6572206e6f7220617070726f76656420666f7220616c6c0000000000000000602082015250565b7f2200000000000000000000000000000000000000000000000000000000000000600082015250565b7f4552433732313a2062616c616e636520717565727920666f7220746865207a6560008201527f726f206164647265737300000000000000000000000000000000000000000000602082015250565b7f4552433732313a206f776e657220717565727920666f72206e6f6e657869737460008201527f656e7420746f6b656e0000000000000000000000000000000000000000000000602082015250565b7f45524337323155524953746f726167653a2055524920736574206f66206e6f6e60008201527f6578697374656e7420746f6b656e000000000000000000000000000000000000602082015250565b7f3c2f746578743e00000000000000000000000000000000000000000000000000600082015250565b7f4552433732313a206d696e7420746f20746865207a65726f2061646472657373600082015250565b7f7d00000000000000000000000000000000000000000000000000000000000000600082015250565b7f45524337323155524953746f726167653a2055524920717565727920666f722060008201527f6e6f6e6578697374656e7420746f6b656e000000000000000000000000000000602082015250565b7f4552433732313a20617070726f76656420717565727920666f72206e6f6e657860008201527f697374656e7420746f6b656e0000000000000000000000000000000000000000602082015250565b7f4552433732314d657461646174613a2055524920717565727920666f72206e6f60008201527f6e6578697374656e7420746f6b656e0000000000000000000000000000000000602082015250565b7f7b00000000000000000000000000000000000000000000000000000000000000600082015250565b7f4d7573742073656e6420656e6f75676820746f2070757263686173652074686560008201527f206d656d626572736869702e0000000000000000000000000000000000000000602082015250565b7f4552433732313a20617070726f76616c20746f2063757272656e74206f776e6560008201527f7200000000000000000000000000000000000000000000000000000000000000602082015250565b7f3c7374796c653e2e62617365207b2066696c6c3a2077686974653b20666f6e7460008201527f2d66616d696c793a2073657269663b20666f6e742d73697a653a20313470783b60208201527f207d3c2f7374796c653e00000000000000000000000000000000000000000000604082015250565b7f646174613a6170706c69636174696f6e2f6a736f6e3b6261736536342c000000600082015250565b7f3c7465787420783d223530252220793d223530252220636c6173733d2262617360008201527f652220646f6d696e616e742d626173656c696e653d226d6964646c652220746560208201527f78742d616e63686f723d226d6964646c65223e00000000000000000000000000604082015250565b50565b7f4552433732313a207472616e736665722063616c6c6572206973206e6f74206f60008201527f776e6572206e6f7220617070726f766564000000000000000000000000000000602082015250565b7f4d656d626572736869702049443a202300000000000000000000000000000000600082015250565b7f455243373231456e756d657261626c653a20676c6f62616c20696e646578206f60008201527f7574206f6620626f756e64730000000000000000000000000000000000000000602082015250565b7f556e61626c6520746f2073656e642076616c75653a20726563697069656e742060008201527f6d61792068617665207265766572746564000000000000000000000000000000602082015250565b7f22696d616765223a202200000000000000000000000000000000000000000000600082015250565b7f54686973206d656d6265727368697020697320616c726561647920736f6c642060008201527f6f75742e00000000000000000000000000000000000000000000000000000000602082015250565b7f3c2f7376673e0000000000000000000000000000000000000000000000000000600082015250565b7f646174613a696d6167652f7376672b786d6c3b6261736536342c000000000000600082015250565b7f5469746c653a2000000000000000000000000000000000000000000000000000600082015250565b6153fe81614525565b811461540957600080fd5b50565b61541581614537565b811461542057600080fd5b50565b61542c81614549565b811461543757600080fd5b50565b61544381614555565b811461544e57600080fd5b50565b61545a816145a1565b811461546557600080fd5b5056fe4142434445464748494a4b4c4d4e4f505152535455565758595a6162636465666768696a6b6c6d6e6f707172737475767778797a303132333435363738392b2fa26469706673582212209af6045c90f66c842f7fdabcd158df7186557a6e97e9bffb8386b041acb9305d64736f6c63430008040033",
  "linkReferences": {},
  "deployedLinkReferences": {}
}