{
  "_format": "hh-sol-artifact-1",
  "contractName": "Copyright",
  "sourceName": "contracts/Copyright.sol",
  "abi": [
    {
      "inputs": [],
      "name": "copyright_id",
      "outputs": [
        {
          "internalType": "string",
          "name": "",
          "type": "string"
        }
      ],
      "stateMutability": "view",
      "type": "function"
    },
    {
      "inputs": [
        {
          "internalType": "string",
          "name": "_title",
          "type": "string"
        },
        {
          "internalType": "string",
          "name": "_description",
          "type": "string"
        }
      ],
      "name": "createCopyright",
      "outputs": [
        {
          "internalType": "uint256",
          "name": "",
          "type": "uint256"
        }
      ],
      "stateMutability": "nonpayable",
      "type": "function"
    },
    {
      "inputs": [],
      "name": "getAllcover",
      "outputs": [
        {
          "components": [
            {
              "internalType": "uint256",
              "name": "id",
              "type": "uint256"
            },
            {
              "internalType": "string",
              "name": "title",
              "type": "string"
            },
            {
              "internalType": "string",
              "name": "description",
              "type": "string"
            },
            {
              "internalType": "address",
              "name": "owner",
              "type": "address"
            }
          ],
          "internalType": "struct Copyright.Cover[]",
          "name": "",
          "type": "tuple[]"
        }
      ],
      "stateMutability": "view",
      "type": "function"
    },
    {
      "inputs": [
        {
          "internalType": "uint256",
          "name": "_id",
          "type": "uint256"
        }
      ],
      "name": "getCopyright",
      "outputs": [
        {
          "internalType": "string",
          "name": "",
          "type": "string"
        },
        {
          "internalType": "string",
          "name": "",
          "type": "string"
        },
        {
          "internalType": "address",
          "name": "",
          "type": "address"
        },
        {
          "internalType": "uint256",
          "name": "",
          "type": "uint256"
        },
        {
          "internalType": "address",
          "name": "",
          "type": "address"
        }
      ],
      "stateMutability": "view",
      "type": "function"
    },
    {
      "inputs": [],
      "name": "numCovers",
      "outputs": [
        {
          "internalType": "uint256",
          "name": "",
          "type": "uint256"
        }
      ],
      "stateMutability": "view",
      "type": "function"
    }
  ],
  "bytecode": "0x608060405234801561001057600080fd5b50610d7c806100206000396000f3fe608060405234801561001057600080fd5b50600436106100575760003560e01c806317b2d4661461005c5780636666f2c21461007a5780636ae03ed9146100aa5780636f4eaff1146100c85780637f647e91146100fc575b600080fd5b61006461011a565b60405161007191906109b7565b60405180910390f35b610094600480360381019061008f9190610781565b6102fd565b6040516100a19190610a5c565b60405180910390f35b6100b261041f565b6040516100bf91906109d9565b60405180910390f35b6100e260048036038101906100dd91906107ed565b6104ad565b6040516100f39594939291906109fb565b60405180910390f35b61010461065b565b6040516101119190610a5c565b60405180910390f35b60606001805480602002602001604051908101604052809291908181526020016000905b828210156102f457838290600052602060002090600402016040518060800160405290816000820154815260200160018201805461017b90610be5565b80601f01602080910402602001604051908101604052809291908181526020018280546101a790610be5565b80156101f45780601f106101c9576101008083540402835291602001916101f4565b820191906000526020600020905b8154815290600101906020018083116101d757829003601f168201915b5050505050815260200160028201805461020d90610be5565b80601f016020809104026020016040519081016040528092919081815260200182805461023990610be5565b80156102865780601f1061025b57610100808354040283529160200191610286565b820191906000526020600020905b81548152906001019060200180831161026957829003601f168201915b505050505081526020016003820160009054906101000a900473ffffffffffffffffffffffffffffffffffffffff1673ffffffffffffffffffffffffffffffffffffffff1673ffffffffffffffffffffffffffffffffffffffff16815250508152602001906001019061013e565b50505050905090565b60006001604051806080016040528060025481526020018581526020018481526020013373ffffffffffffffffffffffffffffffffffffffff168152509080600181540180825580915050600190039060005260206000209060040201600090919091909150600082015181600001556020820151816001019080519060200190610389929190610661565b5060408201518160020190805190602001906103a6929190610661565b5060608201518160030160006101000a81548173ffffffffffffffffffffffffffffffffffffffff021916908373ffffffffffffffffffffffffffffffffffffffff16021790555050506002600081548092919061040390610c48565b919050555060016002546104179190610b33565b905092915050565b6000805461042c90610be5565b80601f016020809104026020016040519081016040528092919081815260200182805461045890610be5565b80156104a55780601f1061047a576101008083540402835291602001916104a5565b820191906000526020600020905b81548152906001019060200180831161048857829003601f168201915b505050505081565b606080600080600080600187815481106104f0577f4e487b7100000000000000000000000000000000000000000000000000000000600052603260045260246000fd5b9060005260206000209060040201905080600101816002018260030160009054906101000a900473ffffffffffffffffffffffffffffffffffffffff16424184805461053b90610be5565b80601f016020809104026020016040519081016040528092919081815260200182805461056790610be5565b80156105b45780601f10610589576101008083540402835291602001916105b4565b820191906000526020600020905b81548152906001019060200180831161059757829003601f168201915b505050505094508380546105c790610be5565b80601f01602080910402602001604051908101604052809291908181526020018280546105f390610be5565b80156106405780601f1061061557610100808354040283529160200191610640565b820191906000526020600020905b81548152906001019060200180831161062357829003601f168201915b50505050509350955095509550955095505091939590929450565b60025481565b82805461066d90610be5565b90600052602060002090601f01602090048101928261068f57600085556106d6565b82601f106106a857805160ff19168380011785556106d6565b828001600101855582156106d6579182015b828111156106d55782518255916020019190600101906106ba565b5b5090506106e391906106e7565b5090565b5b808211156107005760008160009055506001016106e8565b5090565b600061071761071284610a9c565b610a77565b90508281526020810184848401111561072f57600080fd5b61073a848285610ba3565b509392505050565b600082601f83011261075357600080fd5b8135610763848260208601610704565b91505092915050565b60008135905061077b81610d2f565b92915050565b6000806040838503121561079457600080fd5b600083013567ffffffffffffffff8111156107ae57600080fd5b6107ba85828601610742565b925050602083013567ffffffffffffffff8111156107d757600080fd5b6107e385828601610742565b9150509250929050565b6000602082840312156107ff57600080fd5b600061080d8482850161076c565b91505092915050565b6000610822838361092f565b905092915050565b61083381610b67565b82525050565b61084281610b67565b82525050565b600061085382610add565b61085d8185610b00565b93508360208202850161086f85610acd565b8060005b858110156108ab578484038952815161088c8582610816565b945061089783610af3565b925060208a01995050600181019050610873565b50829750879550505050505092915050565b60006108c882610ae8565b6108d28185610b11565b93506108e2818560208601610bb2565b6108eb81610d1e565b840191505092915050565b600061090182610ae8565b61090b8185610b22565b935061091b818560208601610bb2565b61092481610d1e565b840191505092915050565b60006080830160008301516109476000860182610999565b506020830151848203602086015261095f82826108bd565b9150506040830151848203604086015261097982826108bd565b915050606083015161098e606086018261082a565b508091505092915050565b6109a281610b99565b82525050565b6109b181610b99565b82525050565b600060208201905081810360008301526109d18184610848565b905092915050565b600060208201905081810360008301526109f381846108f6565b905092915050565b600060a0820190508181036000830152610a1581886108f6565b90508181036020830152610a2981876108f6565b9050610a386040830186610839565b610a4560608301856109a8565b610a526080830184610839565b9695505050505050565b6000602082019050610a7160008301846109a8565b92915050565b6000610a81610a92565b9050610a8d8282610c17565b919050565b6000604051905090565b600067ffffffffffffffff821115610ab757610ab6610cef565b5b610ac082610d1e565b9050602081019050919050565b6000819050602082019050919050565b600081519050919050565b600081519050919050565b6000602082019050919050565b600082825260208201905092915050565b600082825260208201905092915050565b600082825260208201905092915050565b6000610b3e82610b99565b9150610b4983610b99565b925082821015610b5c57610b5b610c91565b5b828203905092915050565b6000610b7282610b79565b9050919050565b600073ffffffffffffffffffffffffffffffffffffffff82169050919050565b6000819050919050565b82818337600083830152505050565b60005b83811015610bd0578082015181840152602081019050610bb5565b83811115610bdf576000848401525b50505050565b60006002820490506001821680610bfd57607f821691505b60208210811415610c1157610c10610cc0565b5b50919050565b610c2082610d1e565b810181811067ffffffffffffffff82111715610c3f57610c3e610cef565b5b80604052505050565b6000610c5382610b99565b91507fffffffffffffffffffffffffffffffffffffffffffffffffffffffffffffffff821415610c8657610c85610c91565b5b600182019050919050565b7f4e487b7100000000000000000000000000000000000000000000000000000000600052601160045260246000fd5b7f4e487b7100000000000000000000000000000000000000000000000000000000600052602260045260246000fd5b7f4e487b7100000000000000000000000000000000000000000000000000000000600052604160045260246000fd5b6000601f19601f8301169050919050565b610d3881610b99565b8114610d4357600080fd5b5056fea2646970667358221220adfeb20c9d7e928f787716b176fe7f2e10ce157e28e1c0360ed6e6ea40bee33064736f6c63430008040033",
  "linkReferences": {},
  "deployedLinkReferences": {}
}