{
  "_format": "hh-sol-artifact-1",
  "contractName": "Copyright",
  "sourceName": "contracts/Copyright.sol",
  "abi": [
    {
      "inputs": [
        {
          "internalType": "uint256",
          "name": "",
          "type": "uint256"
        }
      ],
      "name": "chapters",
      "outputs": [
        {
          "internalType": "uint256",
          "name": "id",
          "type": "uint256"
        },
        {
          "internalType": "string",
          "name": "title",
          "type": "string"
        },
        {
          "internalType": "string",
          "name": "context",
          "type": "string"
        },
        {
          "internalType": "string",
          "name": "status",
          "type": "string"
        }
      ],
      "stateMutability": "view",
      "type": "function"
    },
    {
      "inputs": [],
      "name": "copyright_id",
      "outputs": [
        {
          "internalType": "string",
          "name": "",
          "type": "string"
        }
      ],
      "stateMutability": "view",
      "type": "function"
    },
    {
      "inputs": [
        {
          "internalType": "uint256",
          "name": "",
          "type": "uint256"
        }
      ],
      "name": "covers",
      "outputs": [
        {
          "internalType": "uint256",
          "name": "id",
          "type": "uint256"
        },
        {
          "internalType": "string",
          "name": "title",
          "type": "string"
        },
        {
          "internalType": "string",
          "name": "description",
          "type": "string"
        },
        {
          "internalType": "address",
          "name": "owner",
          "type": "address"
        },
        {
          "internalType": "string",
          "name": "status",
          "type": "string"
        }
      ],
      "stateMutability": "view",
      "type": "function"
    },
    {
      "inputs": [
        {
          "internalType": "uint256",
          "name": "_coverId",
          "type": "uint256"
        },
        {
          "internalType": "string",
          "name": "_title",
          "type": "string"
        },
        {
          "internalType": "string",
          "name": "_context",
          "type": "string"
        }
      ],
      "name": "createChapter",
      "outputs": [
        {
          "internalType": "uint256",
          "name": "",
          "type": "uint256"
        }
      ],
      "stateMutability": "nonpayable",
      "type": "function"
    },
    {
      "inputs": [
        {
          "internalType": "string",
          "name": "_title",
          "type": "string"
        },
        {
          "internalType": "string",
          "name": "_description",
          "type": "string"
        }
      ],
      "name": "createCopyright",
      "outputs": [
        {
          "internalType": "uint256",
          "name": "",
          "type": "uint256"
        }
      ],
      "stateMutability": "nonpayable",
      "type": "function"
    },
    {
      "inputs": [],
      "name": "getAllCoypright",
      "outputs": [
        {
          "components": [
            {
              "internalType": "uint256",
              "name": "id",
              "type": "uint256"
            },
            {
              "internalType": "string",
              "name": "title",
              "type": "string"
            },
            {
              "internalType": "string",
              "name": "description",
              "type": "string"
            },
            {
              "internalType": "address",
              "name": "owner",
              "type": "address"
            },
            {
              "internalType": "string",
              "name": "status",
              "type": "string"
            },
            {
              "components": [
                {
                  "internalType": "uint256",
                  "name": "id",
                  "type": "uint256"
                },
                {
                  "internalType": "string",
                  "name": "title",
                  "type": "string"
                },
                {
                  "internalType": "string",
                  "name": "context",
                  "type": "string"
                },
                {
                  "internalType": "string",
                  "name": "status",
                  "type": "string"
                }
              ],
              "internalType": "struct Copyright.Chapter[]",
              "name": "chapters",
              "type": "tuple[]"
            }
          ],
          "internalType": "struct Copyright.Cover[]",
          "name": "",
          "type": "tuple[]"
        }
      ],
      "stateMutability": "view",
      "type": "function"
    },
    {
      "inputs": [],
      "name": "getAuthorCover",
      "outputs": [
        {
          "components": [
            {
              "internalType": "uint256",
              "name": "id",
              "type": "uint256"
            },
            {
              "internalType": "string",
              "name": "title",
              "type": "string"
            },
            {
              "internalType": "string",
              "name": "description",
              "type": "string"
            },
            {
              "internalType": "address",
              "name": "owner",
              "type": "address"
            },
            {
              "internalType": "string",
              "name": "status",
              "type": "string"
            },
            {
              "components": [
                {
                  "internalType": "uint256",
                  "name": "id",
                  "type": "uint256"
                },
                {
                  "internalType": "string",
                  "name": "title",
                  "type": "string"
                },
                {
                  "internalType": "string",
                  "name": "context",
                  "type": "string"
                },
                {
                  "internalType": "string",
                  "name": "status",
                  "type": "string"
                }
              ],
              "internalType": "struct Copyright.Chapter[]",
              "name": "chapters",
              "type": "tuple[]"
            }
          ],
          "internalType": "struct Copyright.Cover[]",
          "name": "",
          "type": "tuple[]"
        }
      ],
      "stateMutability": "view",
      "type": "function"
    },
    {
      "inputs": [
        {
          "internalType": "uint256",
          "name": "_id",
          "type": "uint256"
        }
      ],
      "name": "getChapter",
      "outputs": [
        {
          "internalType": "string",
          "name": "",
          "type": "string"
        },
        {
          "internalType": "string",
          "name": "",
          "type": "string"
        },
        {
          "internalType": "uint256",
          "name": "",
          "type": "uint256"
        },
        {
          "internalType": "address",
          "name": "",
          "type": "address"
        }
      ],
      "stateMutability": "view",
      "type": "function"
    },
    {
      "inputs": [
        {
          "internalType": "uint256",
          "name": "_coverId",
          "type": "uint256"
        }
      ],
      "name": "getChapters",
      "outputs": [
        {
          "components": [
            {
              "internalType": "uint256",
              "name": "id",
              "type": "uint256"
            },
            {
              "internalType": "string",
              "name": "title",
              "type": "string"
            },
            {
              "internalType": "string",
              "name": "context",
              "type": "string"
            },
            {
              "internalType": "string",
              "name": "status",
              "type": "string"
            }
          ],
          "internalType": "struct Copyright.Chapter[]",
          "name": "",
          "type": "tuple[]"
        }
      ],
      "stateMutability": "view",
      "type": "function"
    },
    {
      "inputs": [
        {
          "internalType": "uint256",
          "name": "_id",
          "type": "uint256"
        }
      ],
      "name": "getCopyright",
      "outputs": [
        {
          "internalType": "string",
          "name": "",
          "type": "string"
        },
        {
          "internalType": "string",
          "name": "",
          "type": "string"
        },
        {
          "internalType": "address",
          "name": "",
          "type": "address"
        },
        {
          "internalType": "uint256",
          "name": "",
          "type": "uint256"
        },
        {
          "internalType": "address",
          "name": "",
          "type": "address"
        },
        {
          "internalType": "string",
          "name": "",
          "type": "string"
        },
        {
          "components": [
            {
              "internalType": "uint256",
              "name": "id",
              "type": "uint256"
            },
            {
              "internalType": "string",
              "name": "title",
              "type": "string"
            },
            {
              "internalType": "string",
              "name": "context",
              "type": "string"
            },
            {
              "internalType": "string",
              "name": "status",
              "type": "string"
            }
          ],
          "internalType": "struct Copyright.Chapter[]",
          "name": "",
          "type": "tuple[]"
        }
      ],
      "stateMutability": "view",
      "type": "function"
    },
    {
      "inputs": [],
      "name": "numChapters",
      "outputs": [
        {
          "internalType": "uint256",
          "name": "",
          "type": "uint256"
        }
      ],
      "stateMutability": "view",
      "type": "function"
    },
    {
      "inputs": [],
      "name": "numCovers",
      "outputs": [
        {
          "internalType": "uint256",
          "name": "",
          "type": "uint256"
        }
      ],
      "stateMutability": "view",
      "type": "function"
    },
    {
      "inputs": [
        {
          "internalType": "uint256",
          "name": "_id",
          "type": "uint256"
        },
        {
          "internalType": "string",
          "name": "_title",
          "type": "string"
        },
        {
          "internalType": "string",
          "name": "_context",
          "type": "string"
        }
      ],
      "name": "updateChapter",
      "outputs": [
        {
          "internalType": "uint256",
          "name": "",
          "type": "uint256"
        }
      ],
      "stateMutability": "nonpayable",
      "type": "function"
    },
    {
      "inputs": [
        {
          "internalType": "uint256",
          "name": "_id",
          "type": "uint256"
        },
        {
          "internalType": "string",
          "name": "_title",
          "type": "string"
        },
        {
          "internalType": "string",
          "name": "_description",
          "type": "string"
        }
      ],
      "name": "updateCover",
      "outputs": [
        {
          "internalType": "uint256",
          "name": "",
          "type": "uint256"
        }
      ],
      "stateMutability": "nonpayable",
      "type": "function"
    }
  ],
  "bytecode": "0x608060405234801561001057600080fd5b50612aaa806100206000396000f3fe608060405234801561001057600080fd5b50600436106100ea5760003560e01c80636f4eaff11161008c57806399f7b5671161006657806399f7b56714610291578063ac678a93146102c4578063bb14c6bd146102f4578063f40adb1214610312576100ea565b80636f4eaff11461021f5780637f647e91146102555780638150a0bc14610273576100ea565b8063626445b2116100c8578063626445b21461016d5780636299df6c1461019d5780636666f2c2146101d15780636ae03ed914610201576100ea565b806312e3440d146100ef57806336b41afc1461011f5780634461cd481461013d575b600080fd5b61010960048036038101906101049190612124565b610345565b60405161011691906121be565b60405180910390f35b610127610540565b6040516101349190612544565b60405180910390f35b61015760048036038101906101529190612124565b610b50565b60405161016491906121be565b60405180910390f35b61018760048036038101906101829190612124565b610c16565b60405161019491906121be565b60405180910390f35b6101b760048036038101906101b29190612566565b610cdc565b6040516101c89594939291906125ec565b60405180910390f35b6101eb60048036038101906101e69190612654565b610eca565b6040516101f891906121be565b60405180910390f35b610209610f94565b60405161021691906126cc565b60405180910390f35b61023960048036038101906102349190612566565b611022565b60405161024c9796959493929190612774565b60405180910390f35b61025d611452565b60405161026a91906121be565b60405180910390f35b61027b611458565b6040516102889190612544565b60405180910390f35b6102ab60048036038101906102a69190612566565b61194d565b6040516102bb94939291906127ff565b60405180910390f35b6102de60048036038101906102d99190612566565b611a9c565b6040516102eb9190612852565b60405180910390f35b6102fc611cd7565b60405161030991906121be565b60405180910390f35b61032c60048036038101906103279190612566565b611cdd565b60405161033c9493929190612874565b60405180910390f35b6000833373ffffffffffffffffffffffffffffffffffffffff166001600083815260200190815260200160002060030160009054906101000a900473ffffffffffffffffffffffffffffffffffffffff1673ffffffffffffffffffffffffffffffffffffffff16146103b657600080fd5b600060016000878152602001908152602001600020600001541461040f576040517f08c379a00000000000000000000000000000000000000000000000000000000081526004016104069061291a565b60405180910390fd5b6000604051806080016040528060045481526020018681526020018581526020016040518060400160405280600681526020017f61637469766500000000000000000000000000000000000000000000000000008152508152509050600160008781526020019081526020016000206005018190806001815401808255809150506001900390600052602060002090600402016000909190919091506000820151816000015560208201518160010190805190602001906104d1929190611ea5565b5060408201518160020190805190602001906104ee929190611ea5565b50606082015181600301908051906020019061050b929190611ea5565b5050506004600081548092919061052190612969565b9190505550600160045461053591906129b1565b925050509392505050565b6060600080600090505b6003548110156105df573373ffffffffffffffffffffffffffffffffffffffff166001600083815260200190815260200160002060030160009054906101000a900473ffffffffffffffffffffffffffffffffffffffff1673ffffffffffffffffffffffffffffffffffffffff16036105cc5781806105c890612969565b9250505b80806105d790612969565b91505061054a565b5060008167ffffffffffffffff8111156105fc576105fb611ff9565b5b60405190808252806020026020018201604052801561063557816020015b610622611f2b565b81526020019060019003908161061a5790505b509050600080600090505b600354811015610b46573373ffffffffffffffffffffffffffffffffffffffff166001600083815260200190815260200160002060030160009054906101000a900473ffffffffffffffffffffffffffffffffffffffff1673ffffffffffffffffffffffffffffffffffffffff1603610b3357600160008281526020019081526020016000206040518060c0016040529081600082015481526020016001820180546106eb90612a14565b80601f016020809104026020016040519081016040528092919081815260200182805461071790612a14565b80156107645780601f1061073957610100808354040283529160200191610764565b820191906000526020600020905b81548152906001019060200180831161074757829003601f168201915b5050505050815260200160028201805461077d90612a14565b80601f01602080910402602001604051908101604052809291908181526020018280546107a990612a14565b80156107f65780601f106107cb576101008083540402835291602001916107f6565b820191906000526020600020905b8154815290600101906020018083116107d957829003601f168201915b505050505081526020016003820160009054906101000a900473ffffffffffffffffffffffffffffffffffffffff1673ffffffffffffffffffffffffffffffffffffffff1673ffffffffffffffffffffffffffffffffffffffff16815260200160048201805461086590612a14565b80601f016020809104026020016040519081016040528092919081815260200182805461089190612a14565b80156108de5780601f106108b3576101008083540402835291602001916108de565b820191906000526020600020905b8154815290600101906020018083116108c157829003601f168201915b5050505050815260200160058201805480602002602001604051908101604052809291908181526020016000905b82821015610afe57838290600052602060002090600402016040518060800160405290816000820154815260200160018201805461094990612a14565b80601f016020809104026020016040519081016040528092919081815260200182805461097590612a14565b80156109c25780601f10610997576101008083540402835291602001916109c2565b820191906000526020600020905b8154815290600101906020018083116109a557829003601f168201915b505050505081526020016002820180546109db90612a14565b80601f0160208091040260200160405190810160405280929190818152602001828054610a0790612a14565b8015610a545780601f10610a2957610100808354040283529160200191610a54565b820191906000526020600020905b815481529060010190602001808311610a3757829003601f168201915b50505050508152602001600382018054610a6d90612a14565b80601f0160208091040260200160405190810160405280929190818152602001828054610a9990612a14565b8015610ae65780601f10610abb57610100808354040283529160200191610ae6565b820191906000526020600020905b815481529060010190602001808311610ac957829003601f168201915b5050505050815250508152602001906001019061090c565b5050505081525050838381518110610b1957610b18612a45565b5b60200260200101819052508180610b2f90612969565b9250505b8080610b3e90612969565b915050610640565b5081935050505090565b6000833373ffffffffffffffffffffffffffffffffffffffff166001600083815260200190815260200160002060030160009054906101000a900473ffffffffffffffffffffffffffffffffffffffff1673ffffffffffffffffffffffffffffffffffffffff1614610bc157600080fd5b600060016000878152602001908152602001600020905084816001019080519060200190610bf0929190611ea5565b5083816002019080519060200190610c09929190611ea5565b5085925050509392505050565b6000833373ffffffffffffffffffffffffffffffffffffffff166001600083815260200190815260200160002060030160009054906101000a900473ffffffffffffffffffffffffffffffffffffffff1673ffffffffffffffffffffffffffffffffffffffff1614610c8757600080fd5b600060026000878152602001908152602001600020905084816001019080519060200190610cb6929190611ea5565b5083816002019080519060200190610ccf929190611ea5565b5085925050509392505050565b6001602052806000526040600020600091509050806000015490806001018054610d0590612a14565b80601f0160208091040260200160405190810160405280929190818152602001828054610d3190612a14565b8015610d7e5780601f10610d5357610100808354040283529160200191610d7e565b820191906000526020600020905b815481529060010190602001808311610d6157829003601f168201915b505050505090806002018054610d9390612a14565b80601f0160208091040260200160405190810160405280929190818152602001828054610dbf90612a14565b8015610e0c5780601f10610de157610100808354040283529160200191610e0c565b820191906000526020600020905b815481529060010190602001808311610def57829003601f168201915b5050505050908060030160009054906101000a900473ffffffffffffffffffffffffffffffffffffffff1690806004018054610e4790612a14565b80601f0160208091040260200160405190810160405280929190818152602001828054610e7390612a14565b8015610ec05780601f10610e9557610100808354040283529160200191610ec0565b820191906000526020600020905b815481529060010190602001808311610ea357829003601f168201915b5050505050905085565b6000806001600060035481526020019081526020016000209050600354816000018190555083816001019080519060200190610f07929190611ea5565b5082816002019080519060200190610f20929190611ea5565b50338160030160006101000a81548173ffffffffffffffffffffffffffffffffffffffff021916908373ffffffffffffffffffffffffffffffffffffffff16021790555060036000815480929190610f7790612969565b91905055506001600354610f8b91906129b1565b91505092915050565b60008054610fa190612a14565b80601f0160208091040260200160405190810160405280929190818152602001828054610fcd90612a14565b801561101a5780601f10610fef5761010080835404028352916020019161101a565b820191906000526020600020905b815481529060010190602001808311610ffd57829003601f168201915b505050505081565b60608060008060006060806000600160008a8152602001908152602001600020905080600101816002018260030160009054906101000a900473ffffffffffffffffffffffffffffffffffffffff164241856004018660050186805461108790612a14565b80601f01602080910402602001604051908101604052809291908181526020018280546110b390612a14565b80156111005780601f106110d557610100808354040283529160200191611100565b820191906000526020600020905b8154815290600101906020018083116110e357829003601f168201915b5050505050965085805461111390612a14565b80601f016020809104026020016040519081016040528092919081815260200182805461113f90612a14565b801561118c5780601f106111615761010080835404028352916020019161118c565b820191906000526020600020905b81548152906001019060200180831161116f57829003601f168201915b5050505050955081805461119f90612a14565b80601f01602080910402602001604051908101604052809291908181526020018280546111cb90612a14565b80156112185780601f106111ed57610100808354040283529160200191611218565b820191906000526020600020905b8154815290600101906020018083116111fb57829003601f168201915b5050505050915080805480602002602001604051908101604052809291908181526020016000905b8282101561143257838290600052602060002090600402016040518060800160405290816000820154815260200160018201805461127d90612a14565b80601f01602080910402602001604051908101604052809291908181526020018280546112a990612a14565b80156112f65780601f106112cb576101008083540402835291602001916112f6565b820191906000526020600020905b8154815290600101906020018083116112d957829003601f168201915b5050505050815260200160028201805461130f90612a14565b80601f016020809104026020016040519081016040528092919081815260200182805461133b90612a14565b80156113885780601f1061135d57610100808354040283529160200191611388565b820191906000526020600020905b81548152906001019060200180831161136b57829003601f168201915b505050505081526020016003820180546113a190612a14565b80601f01602080910402602001604051908101604052809291908181526020018280546113cd90612a14565b801561141a5780601f106113ef5761010080835404028352916020019161141a565b820191906000526020600020905b8154815290600101906020018083116113fd57829003601f168201915b50505050508152505081526020019060010190611240565b505050509050975097509750975097509750975050919395979092949650565b60035481565b6060600060035467ffffffffffffffff81111561147857611477611ff9565b5b6040519080825280602002602001820160405280156114b157816020015b61149e611f2b565b8152602001906001900390816114965790505b50905060005b60035481101561194557600160008281526020019081526020016000206040518060c0016040529081600082015481526020016001820180546114f990612a14565b80601f016020809104026020016040519081016040528092919081815260200182805461152590612a14565b80156115725780601f1061154757610100808354040283529160200191611572565b820191906000526020600020905b81548152906001019060200180831161155557829003601f168201915b5050505050815260200160028201805461158b90612a14565b80601f01602080910402602001604051908101604052809291908181526020018280546115b790612a14565b80156116045780601f106115d957610100808354040283529160200191611604565b820191906000526020600020905b8154815290600101906020018083116115e757829003601f168201915b505050505081526020016003820160009054906101000a900473ffffffffffffffffffffffffffffffffffffffff1673ffffffffffffffffffffffffffffffffffffffff1673ffffffffffffffffffffffffffffffffffffffff16815260200160048201805461167390612a14565b80601f016020809104026020016040519081016040528092919081815260200182805461169f90612a14565b80156116ec5780601f106116c1576101008083540402835291602001916116ec565b820191906000526020600020905b8154815290600101906020018083116116cf57829003601f168201915b5050505050815260200160058201805480602002602001604051908101604052809291908181526020016000905b8282101561190c57838290600052602060002090600402016040518060800160405290816000820154815260200160018201805461175790612a14565b80601f016020809104026020016040519081016040528092919081815260200182805461178390612a14565b80156117d05780601f106117a5576101008083540402835291602001916117d0565b820191906000526020600020905b8154815290600101906020018083116117b357829003601f168201915b505050505081526020016002820180546117e990612a14565b80601f016020809104026020016040519081016040528092919081815260200182805461181590612a14565b80156118625780601f1061183757610100808354040283529160200191611862565b820191906000526020600020905b81548152906001019060200180831161184557829003601f168201915b5050505050815260200160038201805461187b90612a14565b80601f01602080910402602001604051908101604052809291908181526020018280546118a790612a14565b80156118f45780601f106118c9576101008083540402835291602001916118f4565b820191906000526020600020905b8154815290600101906020018083116118d757829003601f168201915b5050505050815250508152602001906001019061171a565b505050508152505082828151811061192757611926612a45565b5b6020026020010181905250808061193d90612969565b9150506114b7565b508091505090565b60608060008060006002600087815260200190815260200160002090508060010181600201424183805461198090612a14565b80601f01602080910402602001604051908101604052809291908181526020018280546119ac90612a14565b80156119f95780601f106119ce576101008083540402835291602001916119f9565b820191906000526020600020905b8154815290600101906020018083116119dc57829003601f168201915b50505050509350828054611a0c90612a14565b80601f0160208091040260200160405190810160405280929190818152602001828054611a3890612a14565b8015611a855780601f10611a5a57610100808354040283529160200191611a85565b820191906000526020600020905b815481529060010190602001808311611a6857829003601f168201915b505050505092509450945094509450509193509193565b6060600060016000848152602001908152602001600020905080600501805480602002602001604051908101604052809291908181526020016000905b82821015611ccb578382906000526020600020906004020160405180608001604052908160008201548152602001600182018054611b1690612a14565b80601f0160208091040260200160405190810160405280929190818152602001828054611b4290612a14565b8015611b8f5780601f10611b6457610100808354040283529160200191611b8f565b820191906000526020600020905b815481529060010190602001808311611b7257829003601f168201915b50505050508152602001600282018054611ba890612a14565b80601f0160208091040260200160405190810160405280929190818152602001828054611bd490612a14565b8015611c215780601f10611bf657610100808354040283529160200191611c21565b820191906000526020600020905b815481529060010190602001808311611c0457829003601f168201915b50505050508152602001600382018054611c3a90612a14565b80601f0160208091040260200160405190810160405280929190818152602001828054611c6690612a14565b8015611cb35780601f10611c8857610100808354040283529160200191611cb3565b820191906000526020600020905b815481529060010190602001808311611c9657829003601f168201915b50505050508152505081526020019060010190611ad9565b50505050915050919050565b60045481565b6002602052806000526040600020600091509050806000015490806001018054611d0690612a14565b80601f0160208091040260200160405190810160405280929190818152602001828054611d3290612a14565b8015611d7f5780601f10611d5457610100808354040283529160200191611d7f565b820191906000526020600020905b815481529060010190602001808311611d6257829003601f168201915b505050505090806002018054611d9490612a14565b80601f0160208091040260200160405190810160405280929190818152602001828054611dc090612a14565b8015611e0d5780601f10611de257610100808354040283529160200191611e0d565b820191906000526020600020905b815481529060010190602001808311611df057829003601f168201915b505050505090806003018054611e2290612a14565b80601f0160208091040260200160405190810160405280929190818152602001828054611e4e90612a14565b8015611e9b5780601f10611e7057610100808354040283529160200191611e9b565b820191906000526020600020905b815481529060010190602001808311611e7e57829003601f168201915b5050505050905084565b828054611eb190612a14565b90600052602060002090601f016020900481019282611ed35760008555611f1a565b82601f10611eec57805160ff1916838001178555611f1a565b82800160010185558215611f1a579182015b82811115611f19578251825591602001919060010190611efe565b5b509050611f279190611f77565b5090565b6040518060c00160405280600081526020016060815260200160608152602001600073ffffffffffffffffffffffffffffffffffffffff16815260200160608152602001606081525090565b5b80821115611f90576000816000905550600101611f78565b5090565b6000604051905090565b600080fd5b600080fd5b6000819050919050565b611fbb81611fa8565b8114611fc657600080fd5b50565b600081359050611fd881611fb2565b92915050565b600080fd5b600080fd5b6000601f19601f8301169050919050565b7f4e487b7100000000000000000000000000000000000000000000000000000000600052604160045260246000fd5b61203182611fe8565b810181811067ffffffffffffffff821117156120505761204f611ff9565b5b80604052505050565b6000612063611f94565b905061206f8282612028565b919050565b600067ffffffffffffffff82111561208f5761208e611ff9565b5b61209882611fe8565b9050602081019050919050565b82818337600083830152505050565b60006120c76120c284612074565b612059565b9050828152602081018484840111156120e3576120e2611fe3565b5b6120ee8482856120a5565b509392505050565b600082601f83011261210b5761210a611fde565b5b813561211b8482602086016120b4565b91505092915050565b60008060006060848603121561213d5761213c611f9e565b5b600061214b86828701611fc9565b935050602084013567ffffffffffffffff81111561216c5761216b611fa3565b5b612178868287016120f6565b925050604084013567ffffffffffffffff81111561219957612198611fa3565b5b6121a5868287016120f6565b9150509250925092565b6121b881611fa8565b82525050565b60006020820190506121d360008301846121af565b92915050565b600081519050919050565b600082825260208201905092915050565b6000819050602082019050919050565b61220e81611fa8565b82525050565b600081519050919050565b600082825260208201905092915050565b60005b8381101561224e578082015181840152602081019050612233565b8381111561225d576000848401525b50505050565b600061226e82612214565b612278818561221f565b9350612288818560208601612230565b61229181611fe8565b840191505092915050565b600073ffffffffffffffffffffffffffffffffffffffff82169050919050565b60006122c78261229c565b9050919050565b6122d7816122bc565b82525050565b600081519050919050565b600082825260208201905092915050565b6000819050602082019050919050565b60006080830160008301516123216000860182612205565b50602083015184820360208601526123398282612263565b915050604083015184820360408601526123538282612263565b9150506060830151848203606086015261236d8282612263565b9150508091505092915050565b60006123868383612309565b905092915050565b6000602082019050919050565b60006123a6826122dd565b6123b081856122e8565b9350836020820285016123c2856122f9565b8060005b858110156123fe57848403895281516123df858261237a565b94506123ea8361238e565b925060208a019950506001810190506123c6565b50829750879550505050505092915050565b600060c0830160008301516124286000860182612205565b50602083015184820360208601526124408282612263565b9150506040830151848203604086015261245a8282612263565b915050606083015161246f60608601826122ce565b50608083015184820360808601526124878282612263565b91505060a083015184820360a08601526124a1828261239b565b9150508091505092915050565b60006124ba8383612410565b905092915050565b6000602082019050919050565b60006124da826121d9565b6124e481856121e4565b9350836020820285016124f6856121f5565b8060005b85811015612532578484038952815161251385826124ae565b945061251e836124c2565b925060208a019950506001810190506124fa565b50829750879550505050505092915050565b6000602082019050818103600083015261255e81846124cf565b905092915050565b60006020828403121561257c5761257b611f9e565b5b600061258a84828501611fc9565b91505092915050565b600082825260208201905092915050565b60006125af82612214565b6125b98185612593565b93506125c9818560208601612230565b6125d281611fe8565b840191505092915050565b6125e6816122bc565b82525050565b600060a08201905061260160008301886121af565b818103602083015261261381876125a4565b9050818103604083015261262781866125a4565b905061263660608301856125dd565b818103608083015261264881846125a4565b90509695505050505050565b6000806040838503121561266b5761266a611f9e565b5b600083013567ffffffffffffffff81111561268957612688611fa3565b5b612695858286016120f6565b925050602083013567ffffffffffffffff8111156126b6576126b5611fa3565b5b6126c2858286016120f6565b9150509250929050565b600060208201905081810360008301526126e681846125a4565b905092915050565b600082825260208201905092915050565b600061270a826122dd565b61271481856126ee565b935083602082028501612726856122f9565b8060005b858110156127625784840389528151612743858261237a565b945061274e8361238e565b925060208a0199505060018101905061272a565b50829750879550505050505092915050565b600060e082019050818103600083015261278e818a6125a4565b905081810360208301526127a281896125a4565b90506127b160408301886125dd565b6127be60608301876121af565b6127cb60808301866125dd565b81810360a08301526127dd81856125a4565b905081810360c08301526127f181846126ff565b905098975050505050505050565b6000608082019050818103600083015261281981876125a4565b9050818103602083015261282d81866125a4565b905061283c60408301856121af565b61284960608301846125dd565b95945050505050565b6000602082019050818103600083015261286c81846126ff565b905092915050565b600060808201905061288960008301876121af565b818103602083015261289b81866125a4565b905081810360408301526128af81856125a4565b905081810360608301526128c381846125a4565b905095945050505050565b7f6572726f72000000000000000000000000000000000000000000000000000000600082015250565b6000612904600583612593565b915061290f826128ce565b602082019050919050565b60006020820190508181036000830152612933816128f7565b9050919050565b7f4e487b7100000000000000000000000000000000000000000000000000000000600052601160045260246000fd5b600061297482611fa8565b91507fffffffffffffffffffffffffffffffffffffffffffffffffffffffffffffffff82036129a6576129a561293a565b5b600182019050919050565b60006129bc82611fa8565b91506129c783611fa8565b9250828210156129da576129d961293a565b5b828203905092915050565b7f4e487b7100000000000000000000000000000000000000000000000000000000600052602260045260246000fd5b60006002820490506001821680612a2c57607f821691505b602082108103612a3f57612a3e6129e5565b5b50919050565b7f4e487b7100000000000000000000000000000000000000000000000000000000600052603260045260246000fdfea2646970667358221220b61d6957cae6c375c9d3c5ec68f7bb0c61a934f217d95ad7bc57e6540a279aec64736f6c634300080d0033",
  "linkReferences": {},
  "deployedLinkReferences": {}
}