{
  "_format": "hh-sol-artifact-1",
  "contractName": "Copyright",
  "sourceName": "contracts/Copyright.sol",
  "abi": [
    {
      "inputs": [
        {
          "internalType": "uint256",
          "name": "",
          "type": "uint256"
        }
      ],
      "name": "chapters",
      "outputs": [
        {
          "internalType": "uint256",
          "name": "id",
          "type": "uint256"
        },
        {
          "internalType": "string",
          "name": "title",
          "type": "string"
        },
        {
          "internalType": "string",
          "name": "context",
          "type": "string"
        },
        {
          "internalType": "string",
          "name": "status",
          "type": "string"
        }
      ],
      "stateMutability": "view",
      "type": "function"
    },
    {
      "inputs": [],
      "name": "copyright_id",
      "outputs": [
        {
          "internalType": "string",
          "name": "",
          "type": "string"
        }
      ],
      "stateMutability": "view",
      "type": "function"
    },
    {
      "inputs": [
        {
          "internalType": "uint256",
          "name": "",
          "type": "uint256"
        }
      ],
      "name": "covers",
      "outputs": [
        {
          "internalType": "uint256",
          "name": "id",
          "type": "uint256"
        },
        {
          "internalType": "string",
          "name": "title",
          "type": "string"
        },
        {
          "internalType": "string",
          "name": "description",
          "type": "string"
        },
        {
          "internalType": "address",
          "name": "owner",
          "type": "address"
        },
        {
          "internalType": "string",
          "name": "status",
          "type": "string"
        }
      ],
      "stateMutability": "view",
      "type": "function"
    },
    {
      "inputs": [
        {
          "internalType": "uint256",
          "name": "_coverId",
          "type": "uint256"
        },
        {
          "internalType": "string",
          "name": "_title",
          "type": "string"
        },
        {
          "internalType": "string",
          "name": "_context",
          "type": "string"
        }
      ],
      "name": "createChapter",
      "outputs": [
        {
          "internalType": "uint256",
          "name": "",
          "type": "uint256"
        }
      ],
      "stateMutability": "nonpayable",
      "type": "function"
    },
    {
      "inputs": [
        {
          "internalType": "string",
          "name": "_title",
          "type": "string"
        },
        {
          "internalType": "string",
          "name": "_description",
          "type": "string"
        }
      ],
      "name": "createCopyright",
      "outputs": [
        {
          "internalType": "uint256",
          "name": "",
          "type": "uint256"
        }
      ],
      "stateMutability": "nonpayable",
      "type": "function"
    },
    {
      "inputs": [],
      "name": "getAllCoypright",
      "outputs": [
        {
          "components": [
            {
              "internalType": "uint256",
              "name": "id",
              "type": "uint256"
            },
            {
              "internalType": "string",
              "name": "title",
              "type": "string"
            },
            {
              "internalType": "string",
              "name": "description",
              "type": "string"
            },
            {
              "internalType": "address",
              "name": "owner",
              "type": "address"
            },
            {
              "internalType": "string",
              "name": "status",
              "type": "string"
            },
            {
              "components": [
                {
                  "internalType": "uint256",
                  "name": "id",
                  "type": "uint256"
                },
                {
                  "internalType": "string",
                  "name": "title",
                  "type": "string"
                },
                {
                  "internalType": "string",
                  "name": "context",
                  "type": "string"
                },
                {
                  "internalType": "string",
                  "name": "status",
                  "type": "string"
                }
              ],
              "internalType": "struct Copyright.Chapter[]",
              "name": "chapters",
              "type": "tuple[]"
            }
          ],
          "internalType": "struct Copyright.Cover[]",
          "name": "",
          "type": "tuple[]"
        }
      ],
      "stateMutability": "view",
      "type": "function"
    },
    {
      "inputs": [],
      "name": "getAuthorCover",
      "outputs": [
        {
          "components": [
            {
              "internalType": "uint256",
              "name": "id",
              "type": "uint256"
            },
            {
              "internalType": "string",
              "name": "title",
              "type": "string"
            },
            {
              "internalType": "string",
              "name": "description",
              "type": "string"
            },
            {
              "internalType": "address",
              "name": "owner",
              "type": "address"
            },
            {
              "internalType": "string",
              "name": "status",
              "type": "string"
            },
            {
              "components": [
                {
                  "internalType": "uint256",
                  "name": "id",
                  "type": "uint256"
                },
                {
                  "internalType": "string",
                  "name": "title",
                  "type": "string"
                },
                {
                  "internalType": "string",
                  "name": "context",
                  "type": "string"
                },
                {
                  "internalType": "string",
                  "name": "status",
                  "type": "string"
                }
              ],
              "internalType": "struct Copyright.Chapter[]",
              "name": "chapters",
              "type": "tuple[]"
            }
          ],
          "internalType": "struct Copyright.Cover[]",
          "name": "",
          "type": "tuple[]"
        }
      ],
      "stateMutability": "view",
      "type": "function"
    },
    {
      "inputs": [
        {
          "internalType": "uint256",
          "name": "_id",
          "type": "uint256"
        }
      ],
      "name": "getChapter",
      "outputs": [
        {
          "internalType": "string",
          "name": "",
          "type": "string"
        },
        {
          "internalType": "string",
          "name": "",
          "type": "string"
        },
        {
          "internalType": "uint256",
          "name": "",
          "type": "uint256"
        },
        {
          "internalType": "address",
          "name": "",
          "type": "address"
        }
      ],
      "stateMutability": "view",
      "type": "function"
    },
    {
      "inputs": [
        {
          "internalType": "uint256",
          "name": "_coverId",
          "type": "uint256"
        }
      ],
      "name": "getChapters",
      "outputs": [
        {
          "components": [
            {
              "internalType": "uint256",
              "name": "id",
              "type": "uint256"
            },
            {
              "internalType": "string",
              "name": "title",
              "type": "string"
            },
            {
              "internalType": "string",
              "name": "context",
              "type": "string"
            },
            {
              "internalType": "string",
              "name": "status",
              "type": "string"
            }
          ],
          "internalType": "struct Copyright.Chapter[]",
          "name": "",
          "type": "tuple[]"
        }
      ],
      "stateMutability": "view",
      "type": "function"
    },
    {
      "inputs": [
        {
          "internalType": "uint256",
          "name": "_id",
          "type": "uint256"
        }
      ],
      "name": "getCopyright",
      "outputs": [
        {
          "internalType": "string",
          "name": "",
          "type": "string"
        },
        {
          "internalType": "string",
          "name": "",
          "type": "string"
        },
        {
          "internalType": "address",
          "name": "",
          "type": "address"
        },
        {
          "internalType": "uint256",
          "name": "",
          "type": "uint256"
        },
        {
          "internalType": "address",
          "name": "",
          "type": "address"
        },
        {
          "internalType": "string",
          "name": "",
          "type": "string"
        },
        {
          "components": [
            {
              "internalType": "uint256",
              "name": "id",
              "type": "uint256"
            },
            {
              "internalType": "string",
              "name": "title",
              "type": "string"
            },
            {
              "internalType": "string",
              "name": "context",
              "type": "string"
            },
            {
              "internalType": "string",
              "name": "status",
              "type": "string"
            }
          ],
          "internalType": "struct Copyright.Chapter[]",
          "name": "",
          "type": "tuple[]"
        }
      ],
      "stateMutability": "view",
      "type": "function"
    },
    {
      "inputs": [],
      "name": "numChapters",
      "outputs": [
        {
          "internalType": "uint256",
          "name": "",
          "type": "uint256"
        }
      ],
      "stateMutability": "view",
      "type": "function"
    },
    {
      "inputs": [],
      "name": "numCovers",
      "outputs": [
        {
          "internalType": "uint256",
          "name": "",
          "type": "uint256"
        }
      ],
      "stateMutability": "view",
      "type": "function"
    },
    {
      "inputs": [
        {
          "internalType": "uint256",
          "name": "_id",
          "type": "uint256"
        },
        {
          "internalType": "string",
          "name": "_title",
          "type": "string"
        },
        {
          "internalType": "string",
          "name": "_context",
          "type": "string"
        }
      ],
      "name": "updateChapter",
      "outputs": [
        {
          "internalType": "uint256",
          "name": "",
          "type": "uint256"
        }
      ],
      "stateMutability": "nonpayable",
      "type": "function"
    },
    {
      "inputs": [
        {
          "internalType": "uint256",
          "name": "_id",
          "type": "uint256"
        },
        {
          "internalType": "string",
          "name": "_title",
          "type": "string"
        },
        {
          "internalType": "string",
          "name": "_description",
          "type": "string"
        }
      ],
      "name": "updateCover",
      "outputs": [
        {
          "internalType": "uint256",
          "name": "",
          "type": "uint256"
        }
      ],
      "stateMutability": "nonpayable",
      "type": "function"
    }
  ],
  "bytecode": "0x608060405234801561001057600080fd5b50612af8806100206000396000f3fe608060405234801561001057600080fd5b50600436106100ea5760003560e01c80636f4eaff11161008c57806399f7b5671161006657806399f7b56714610291578063ac678a93146102c4578063bb14c6bd146102f4578063f40adb1214610312576100ea565b80636f4eaff11461021f5780637f647e91146102555780638150a0bc14610273576100ea565b8063626445b2116100c8578063626445b21461016d5780636299df6c1461019d5780636666f2c2146101d15780636ae03ed914610201576100ea565b806312e3440d146100ef57806336b41afc1461011f5780634461cd481461013d575b600080fd5b61010960048036038101906101049190612172565b610345565b604051610116919061220c565b60405180910390f35b610127610540565b6040516101349190612592565b60405180910390f35b61015760048036038101906101529190612172565b610b50565b604051610164919061220c565b60405180910390f35b61018760048036038101906101829190612172565b610c16565b604051610194919061220c565b60405180910390f35b6101b760048036038101906101b291906125b4565b610cdc565b6040516101c895949392919061263a565b60405180910390f35b6101eb60048036038101906101e691906126a2565b610eca565b6040516101f8919061220c565b60405180910390f35b610209610fe2565b604051610216919061271a565b60405180910390f35b610239600480360381019061023491906125b4565b611070565b60405161024c97969594939291906127c2565b60405180910390f35b61025d6114a0565b60405161026a919061220c565b60405180910390f35b61027b6114a6565b6040516102889190612592565b60405180910390f35b6102ab60048036038101906102a691906125b4565b61199b565b6040516102bb949392919061284d565b60405180910390f35b6102de60048036038101906102d991906125b4565b611aea565b6040516102eb91906128a0565b60405180910390f35b6102fc611d25565b604051610309919061220c565b60405180910390f35b61032c600480360381019061032791906125b4565b611d2b565b60405161033c94939291906128c2565b60405180910390f35b6000833373ffffffffffffffffffffffffffffffffffffffff166001600083815260200190815260200160002060030160009054906101000a900473ffffffffffffffffffffffffffffffffffffffff1673ffffffffffffffffffffffffffffffffffffffff16146103b657600080fd5b600060016000878152602001908152602001600020600001541461040f576040517f08c379a000000000000000000000000000000000000000000000000000000000815260040161040690612968565b60405180910390fd5b6000604051806080016040528060045481526020018681526020018581526020016040518060400160405280600681526020017f61637469766500000000000000000000000000000000000000000000000000008152508152509050600160008781526020019081526020016000206005018190806001815401808255809150506001900390600052602060002090600402016000909190919091506000820151816000015560208201518160010190805190602001906104d1929190611ef3565b5060408201518160020190805190602001906104ee929190611ef3565b50606082015181600301908051906020019061050b929190611ef3565b50505060046000815480929190610521906129b7565b9190505550600160045461053591906129ff565b925050509392505050565b6060600080600090505b6003548110156105df573373ffffffffffffffffffffffffffffffffffffffff166001600083815260200190815260200160002060030160009054906101000a900473ffffffffffffffffffffffffffffffffffffffff1673ffffffffffffffffffffffffffffffffffffffff16036105cc5781806105c8906129b7565b9250505b80806105d7906129b7565b91505061054a565b5060008167ffffffffffffffff8111156105fc576105fb612047565b5b60405190808252806020026020018201604052801561063557816020015b610622611f79565b81526020019060019003908161061a5790505b509050600080600090505b600354811015610b46573373ffffffffffffffffffffffffffffffffffffffff166001600083815260200190815260200160002060030160009054906101000a900473ffffffffffffffffffffffffffffffffffffffff1673ffffffffffffffffffffffffffffffffffffffff1603610b3357600160008281526020019081526020016000206040518060c0016040529081600082015481526020016001820180546106eb90612a62565b80601f016020809104026020016040519081016040528092919081815260200182805461071790612a62565b80156107645780601f1061073957610100808354040283529160200191610764565b820191906000526020600020905b81548152906001019060200180831161074757829003601f168201915b5050505050815260200160028201805461077d90612a62565b80601f01602080910402602001604051908101604052809291908181526020018280546107a990612a62565b80156107f65780601f106107cb576101008083540402835291602001916107f6565b820191906000526020600020905b8154815290600101906020018083116107d957829003601f168201915b505050505081526020016003820160009054906101000a900473ffffffffffffffffffffffffffffffffffffffff1673ffffffffffffffffffffffffffffffffffffffff1673ffffffffffffffffffffffffffffffffffffffff16815260200160048201805461086590612a62565b80601f016020809104026020016040519081016040528092919081815260200182805461089190612a62565b80156108de5780601f106108b3576101008083540402835291602001916108de565b820191906000526020600020905b8154815290600101906020018083116108c157829003601f168201915b5050505050815260200160058201805480602002602001604051908101604052809291908181526020016000905b82821015610afe57838290600052602060002090600402016040518060800160405290816000820154815260200160018201805461094990612a62565b80601f016020809104026020016040519081016040528092919081815260200182805461097590612a62565b80156109c25780601f10610997576101008083540402835291602001916109c2565b820191906000526020600020905b8154815290600101906020018083116109a557829003601f168201915b505050505081526020016002820180546109db90612a62565b80601f0160208091040260200160405190810160405280929190818152602001828054610a0790612a62565b8015610a545780601f10610a2957610100808354040283529160200191610a54565b820191906000526020600020905b815481529060010190602001808311610a3757829003601f168201915b50505050508152602001600382018054610a6d90612a62565b80601f0160208091040260200160405190810160405280929190818152602001828054610a9990612a62565b8015610ae65780601f10610abb57610100808354040283529160200191610ae6565b820191906000526020600020905b815481529060010190602001808311610ac957829003601f168201915b5050505050815250508152602001906001019061090c565b5050505081525050838381518110610b1957610b18612a93565b5b60200260200101819052508180610b2f906129b7565b9250505b8080610b3e906129b7565b915050610640565b5081935050505090565b6000833373ffffffffffffffffffffffffffffffffffffffff166001600083815260200190815260200160002060030160009054906101000a900473ffffffffffffffffffffffffffffffffffffffff1673ffffffffffffffffffffffffffffffffffffffff1614610bc157600080fd5b600060016000878152602001908152602001600020905084816001019080519060200190610bf0929190611ef3565b5083816002019080519060200190610c09929190611ef3565b5085925050509392505050565b6000833373ffffffffffffffffffffffffffffffffffffffff166001600083815260200190815260200160002060030160009054906101000a900473ffffffffffffffffffffffffffffffffffffffff1673ffffffffffffffffffffffffffffffffffffffff1614610c8757600080fd5b600060026000878152602001908152602001600020905084816001019080519060200190610cb6929190611ef3565b5083816002019080519060200190610ccf929190611ef3565b5085925050509392505050565b6001602052806000526040600020600091509050806000015490806001018054610d0590612a62565b80601f0160208091040260200160405190810160405280929190818152602001828054610d3190612a62565b8015610d7e5780601f10610d5357610100808354040283529160200191610d7e565b820191906000526020600020905b815481529060010190602001808311610d6157829003601f168201915b505050505090806002018054610d9390612a62565b80601f0160208091040260200160405190810160405280929190818152602001828054610dbf90612a62565b8015610e0c5780601f10610de157610100808354040283529160200191610e0c565b820191906000526020600020905b815481529060010190602001808311610def57829003601f168201915b5050505050908060030160009054906101000a900473ffffffffffffffffffffffffffffffffffffffff1690806004018054610e4790612a62565b80601f0160208091040260200160405190810160405280929190818152602001828054610e7390612a62565b8015610ec05780601f10610e9557610100808354040283529160200191610ec0565b820191906000526020600020905b815481529060010190602001808311610ea357829003601f168201915b5050505050905085565b6000806001600060035481526020019081526020016000209050600354816000018190555083816001019080519060200190610f07929190611ef3565b5082816002019080519060200190610f20929190611ef3565b50338160030160006101000a81548173ffffffffffffffffffffffffffffffffffffffff021916908373ffffffffffffffffffffffffffffffffffffffff1602179055506040518060400160405280600681526020017f4163746976650000000000000000000000000000000000000000000000000000815250816004019080519060200190610fb1929190611ef3565b5060036000815480929190610fc5906129b7565b91905055506001600354610fd991906129ff565b91505092915050565b60008054610fef90612a62565b80601f016020809104026020016040519081016040528092919081815260200182805461101b90612a62565b80156110685780601f1061103d57610100808354040283529160200191611068565b820191906000526020600020905b81548152906001019060200180831161104b57829003601f168201915b505050505081565b60608060008060006060806000600160008a8152602001908152602001600020905080600101816002018260030160009054906101000a900473ffffffffffffffffffffffffffffffffffffffff16424185600401866005018680546110d590612a62565b80601f016020809104026020016040519081016040528092919081815260200182805461110190612a62565b801561114e5780601f106111235761010080835404028352916020019161114e565b820191906000526020600020905b81548152906001019060200180831161113157829003601f168201915b5050505050965085805461116190612a62565b80601f016020809104026020016040519081016040528092919081815260200182805461118d90612a62565b80156111da5780601f106111af576101008083540402835291602001916111da565b820191906000526020600020905b8154815290600101906020018083116111bd57829003601f168201915b505050505095508180546111ed90612a62565b80601f016020809104026020016040519081016040528092919081815260200182805461121990612a62565b80156112665780601f1061123b57610100808354040283529160200191611266565b820191906000526020600020905b81548152906001019060200180831161124957829003601f168201915b5050505050915080805480602002602001604051908101604052809291908181526020016000905b828210156114805783829060005260206000209060040201604051806080016040529081600082015481526020016001820180546112cb90612a62565b80601f01602080910402602001604051908101604052809291908181526020018280546112f790612a62565b80156113445780601f1061131957610100808354040283529160200191611344565b820191906000526020600020905b81548152906001019060200180831161132757829003601f168201915b5050505050815260200160028201805461135d90612a62565b80601f016020809104026020016040519081016040528092919081815260200182805461138990612a62565b80156113d65780601f106113ab576101008083540402835291602001916113d6565b820191906000526020600020905b8154815290600101906020018083116113b957829003601f168201915b505050505081526020016003820180546113ef90612a62565b80601f016020809104026020016040519081016040528092919081815260200182805461141b90612a62565b80156114685780601f1061143d57610100808354040283529160200191611468565b820191906000526020600020905b81548152906001019060200180831161144b57829003601f168201915b5050505050815250508152602001906001019061128e565b505050509050975097509750975097509750975050919395979092949650565b60035481565b6060600060035467ffffffffffffffff8111156114c6576114c5612047565b5b6040519080825280602002602001820160405280156114ff57816020015b6114ec611f79565b8152602001906001900390816114e45790505b50905060005b60035481101561199357600160008281526020019081526020016000206040518060c00160405290816000820154815260200160018201805461154790612a62565b80601f016020809104026020016040519081016040528092919081815260200182805461157390612a62565b80156115c05780601f10611595576101008083540402835291602001916115c0565b820191906000526020600020905b8154815290600101906020018083116115a357829003601f168201915b505050505081526020016002820180546115d990612a62565b80601f016020809104026020016040519081016040528092919081815260200182805461160590612a62565b80156116525780601f1061162757610100808354040283529160200191611652565b820191906000526020600020905b81548152906001019060200180831161163557829003601f168201915b505050505081526020016003820160009054906101000a900473ffffffffffffffffffffffffffffffffffffffff1673ffffffffffffffffffffffffffffffffffffffff1673ffffffffffffffffffffffffffffffffffffffff1681526020016004820180546116c190612a62565b80601f01602080910402602001604051908101604052809291908181526020018280546116ed90612a62565b801561173a5780601f1061170f5761010080835404028352916020019161173a565b820191906000526020600020905b81548152906001019060200180831161171d57829003601f168201915b5050505050815260200160058201805480602002602001604051908101604052809291908181526020016000905b8282101561195a5783829060005260206000209060040201604051806080016040529081600082015481526020016001820180546117a590612a62565b80601f01602080910402602001604051908101604052809291908181526020018280546117d190612a62565b801561181e5780601f106117f35761010080835404028352916020019161181e565b820191906000526020600020905b81548152906001019060200180831161180157829003601f168201915b5050505050815260200160028201805461183790612a62565b80601f016020809104026020016040519081016040528092919081815260200182805461186390612a62565b80156118b05780601f10611885576101008083540402835291602001916118b0565b820191906000526020600020905b81548152906001019060200180831161189357829003601f168201915b505050505081526020016003820180546118c990612a62565b80601f01602080910402602001604051908101604052809291908181526020018280546118f590612a62565b80156119425780601f1061191757610100808354040283529160200191611942565b820191906000526020600020905b81548152906001019060200180831161192557829003601f168201915b50505050508152505081526020019060010190611768565b505050508152505082828151811061197557611974612a93565b5b6020026020010181905250808061198b906129b7565b915050611505565b508091505090565b6060806000806000600260008781526020019081526020016000209050806001018160020142418380546119ce90612a62565b80601f01602080910402602001604051908101604052809291908181526020018280546119fa90612a62565b8015611a475780601f10611a1c57610100808354040283529160200191611a47565b820191906000526020600020905b815481529060010190602001808311611a2a57829003601f168201915b50505050509350828054611a5a90612a62565b80601f0160208091040260200160405190810160405280929190818152602001828054611a8690612a62565b8015611ad35780601f10611aa857610100808354040283529160200191611ad3565b820191906000526020600020905b815481529060010190602001808311611ab657829003601f168201915b505050505092509450945094509450509193509193565b6060600060016000848152602001908152602001600020905080600501805480602002602001604051908101604052809291908181526020016000905b82821015611d19578382906000526020600020906004020160405180608001604052908160008201548152602001600182018054611b6490612a62565b80601f0160208091040260200160405190810160405280929190818152602001828054611b9090612a62565b8015611bdd5780601f10611bb257610100808354040283529160200191611bdd565b820191906000526020600020905b815481529060010190602001808311611bc057829003601f168201915b50505050508152602001600282018054611bf690612a62565b80601f0160208091040260200160405190810160405280929190818152602001828054611c2290612a62565b8015611c6f5780601f10611c4457610100808354040283529160200191611c6f565b820191906000526020600020905b815481529060010190602001808311611c5257829003601f168201915b50505050508152602001600382018054611c8890612a62565b80601f0160208091040260200160405190810160405280929190818152602001828054611cb490612a62565b8015611d015780601f10611cd657610100808354040283529160200191611d01565b820191906000526020600020905b815481529060010190602001808311611ce457829003601f168201915b50505050508152505081526020019060010190611b27565b50505050915050919050565b60045481565b6002602052806000526040600020600091509050806000015490806001018054611d5490612a62565b80601f0160208091040260200160405190810160405280929190818152602001828054611d8090612a62565b8015611dcd5780601f10611da257610100808354040283529160200191611dcd565b820191906000526020600020905b815481529060010190602001808311611db057829003601f168201915b505050505090806002018054611de290612a62565b80601f0160208091040260200160405190810160405280929190818152602001828054611e0e90612a62565b8015611e5b5780601f10611e3057610100808354040283529160200191611e5b565b820191906000526020600020905b815481529060010190602001808311611e3e57829003601f168201915b505050505090806003018054611e7090612a62565b80601f0160208091040260200160405190810160405280929190818152602001828054611e9c90612a62565b8015611ee95780601f10611ebe57610100808354040283529160200191611ee9565b820191906000526020600020905b815481529060010190602001808311611ecc57829003601f168201915b5050505050905084565b828054611eff90612a62565b90600052602060002090601f016020900481019282611f215760008555611f68565b82601f10611f3a57805160ff1916838001178555611f68565b82800160010185558215611f68579182015b82811115611f67578251825591602001919060010190611f4c565b5b509050611f759190611fc5565b5090565b6040518060c00160405280600081526020016060815260200160608152602001600073ffffffffffffffffffffffffffffffffffffffff16815260200160608152602001606081525090565b5b80821115611fde576000816000905550600101611fc6565b5090565b6000604051905090565b600080fd5b600080fd5b6000819050919050565b61200981611ff6565b811461201457600080fd5b50565b60008135905061202681612000565b92915050565b600080fd5b600080fd5b6000601f19601f8301169050919050565b7f4e487b7100000000000000000000000000000000000000000000000000000000600052604160045260246000fd5b61207f82612036565b810181811067ffffffffffffffff8211171561209e5761209d612047565b5b80604052505050565b60006120b1611fe2565b90506120bd8282612076565b919050565b600067ffffffffffffffff8211156120dd576120dc612047565b5b6120e682612036565b9050602081019050919050565b82818337600083830152505050565b6000612115612110846120c2565b6120a7565b90508281526020810184848401111561213157612130612031565b5b61213c8482856120f3565b509392505050565b600082601f8301126121595761215861202c565b5b8135612169848260208601612102565b91505092915050565b60008060006060848603121561218b5761218a611fec565b5b600061219986828701612017565b935050602084013567ffffffffffffffff8111156121ba576121b9611ff1565b5b6121c686828701612144565b925050604084013567ffffffffffffffff8111156121e7576121e6611ff1565b5b6121f386828701612144565b9150509250925092565b61220681611ff6565b82525050565b600060208201905061222160008301846121fd565b92915050565b600081519050919050565b600082825260208201905092915050565b6000819050602082019050919050565b61225c81611ff6565b82525050565b600081519050919050565b600082825260208201905092915050565b60005b8381101561229c578082015181840152602081019050612281565b838111156122ab576000848401525b50505050565b60006122bc82612262565b6122c6818561226d565b93506122d681856020860161227e565b6122df81612036565b840191505092915050565b600073ffffffffffffffffffffffffffffffffffffffff82169050919050565b6000612315826122ea565b9050919050565b6123258161230a565b82525050565b600081519050919050565b600082825260208201905092915050565b6000819050602082019050919050565b600060808301600083015161236f6000860182612253565b506020830151848203602086015261238782826122b1565b915050604083015184820360408601526123a182826122b1565b915050606083015184820360608601526123bb82826122b1565b9150508091505092915050565b60006123d48383612357565b905092915050565b6000602082019050919050565b60006123f48261232b565b6123fe8185612336565b93508360208202850161241085612347565b8060005b8581101561244c578484038952815161242d85826123c8565b9450612438836123dc565b925060208a01995050600181019050612414565b50829750879550505050505092915050565b600060c0830160008301516124766000860182612253565b506020830151848203602086015261248e82826122b1565b915050604083015184820360408601526124a882826122b1565b91505060608301516124bd606086018261231c565b50608083015184820360808601526124d582826122b1565b91505060a083015184820360a08601526124ef82826123e9565b9150508091505092915050565b6000612508838361245e565b905092915050565b6000602082019050919050565b600061252882612227565b6125328185612232565b93508360208202850161254485612243565b8060005b85811015612580578484038952815161256185826124fc565b945061256c83612510565b925060208a01995050600181019050612548565b50829750879550505050505092915050565b600060208201905081810360008301526125ac818461251d565b905092915050565b6000602082840312156125ca576125c9611fec565b5b60006125d884828501612017565b91505092915050565b600082825260208201905092915050565b60006125fd82612262565b61260781856125e1565b935061261781856020860161227e565b61262081612036565b840191505092915050565b6126348161230a565b82525050565b600060a08201905061264f60008301886121fd565b818103602083015261266181876125f2565b9050818103604083015261267581866125f2565b9050612684606083018561262b565b818103608083015261269681846125f2565b90509695505050505050565b600080604083850312156126b9576126b8611fec565b5b600083013567ffffffffffffffff8111156126d7576126d6611ff1565b5b6126e385828601612144565b925050602083013567ffffffffffffffff81111561270457612703611ff1565b5b61271085828601612144565b9150509250929050565b6000602082019050818103600083015261273481846125f2565b905092915050565b600082825260208201905092915050565b60006127588261232b565b612762818561273c565b93508360208202850161277485612347565b8060005b858110156127b0578484038952815161279185826123c8565b945061279c836123dc565b925060208a01995050600181019050612778565b50829750879550505050505092915050565b600060e08201905081810360008301526127dc818a6125f2565b905081810360208301526127f081896125f2565b90506127ff604083018861262b565b61280c60608301876121fd565b612819608083018661262b565b81810360a083015261282b81856125f2565b905081810360c083015261283f818461274d565b905098975050505050505050565b6000608082019050818103600083015261286781876125f2565b9050818103602083015261287b81866125f2565b905061288a60408301856121fd565b612897606083018461262b565b95945050505050565b600060208201905081810360008301526128ba818461274d565b905092915050565b60006080820190506128d760008301876121fd565b81810360208301526128e981866125f2565b905081810360408301526128fd81856125f2565b9050818103606083015261291181846125f2565b905095945050505050565b7f6572726f72000000000000000000000000000000000000000000000000000000600082015250565b60006129526005836125e1565b915061295d8261291c565b602082019050919050565b6000602082019050818103600083015261298181612945565b9050919050565b7f4e487b7100000000000000000000000000000000000000000000000000000000600052601160045260246000fd5b60006129c282611ff6565b91507fffffffffffffffffffffffffffffffffffffffffffffffffffffffffffffffff82036129f4576129f3612988565b5b600182019050919050565b6000612a0a82611ff6565b9150612a1583611ff6565b925082821015612a2857612a27612988565b5b828203905092915050565b7f4e487b7100000000000000000000000000000000000000000000000000000000600052602260045260246000fd5b60006002820490506001821680612a7a57607f821691505b602082108103612a8d57612a8c612a33565b5b50919050565b7f4e487b7100000000000000000000000000000000000000000000000000000000600052603260045260246000fdfea26469706673582212204af1257dbd725de84d889590779543b76826cd3e86ebffaf2510d46938864dca64736f6c634300080d0033",
  "linkReferences": {},
  "deployedLinkReferences": {}
}