{
  "_format": "hh-sol-artifact-1",
  "contractName": "Copyright",
  "sourceName": "contracts/Copyright.sol",
  "abi": [
    {
      "anonymous": false,
      "inputs": [
        {
          "indexed": false,
          "internalType": "string",
          "name": "title",
          "type": "string"
        },
        {
          "indexed": false,
          "internalType": "string",
          "name": "context",
          "type": "string"
        },
        {
          "indexed": false,
          "internalType": "string",
          "name": "status",
          "type": "string"
        },
        {
          "indexed": true,
          "internalType": "uint256",
          "name": "ChapterId",
          "type": "uint256"
        }
      ],
      "name": "ChapterCreation",
      "type": "event"
    },
    {
      "anonymous": false,
      "inputs": [
        {
          "indexed": true,
          "internalType": "uint256",
          "name": "ChapterId",
          "type": "uint256"
        },
        {
          "indexed": false,
          "internalType": "string",
          "name": "title",
          "type": "string"
        },
        {
          "indexed": false,
          "internalType": "string",
          "name": "context",
          "type": "string"
        },
        {
          "indexed": false,
          "internalType": "string",
          "name": "status",
          "type": "string"
        }
      ],
      "name": "ChapterUpdate",
      "type": "event"
    },
    {
      "anonymous": false,
      "inputs": [
        {
          "indexed": false,
          "internalType": "string",
          "name": "title",
          "type": "string"
        },
        {
          "indexed": false,
          "internalType": "string",
          "name": "description",
          "type": "string"
        },
        {
          "indexed": false,
          "internalType": "address",
          "name": "owner",
          "type": "address"
        },
        {
          "indexed": false,
          "internalType": "string",
          "name": "status",
          "type": "string"
        },
        {
          "indexed": true,
          "internalType": "uint256",
          "name": "CoverId",
          "type": "uint256"
        }
      ],
      "name": "CoverCreation",
      "type": "event"
    },
    {
      "anonymous": false,
      "inputs": [
        {
          "indexed": true,
          "internalType": "uint256",
          "name": "CoverId",
          "type": "uint256"
        },
        {
          "indexed": false,
          "internalType": "string",
          "name": "title",
          "type": "string"
        },
        {
          "indexed": false,
          "internalType": "string",
          "name": "description",
          "type": "string"
        },
        {
          "indexed": false,
          "internalType": "string",
          "name": "status",
          "type": "string"
        }
      ],
      "name": "CoverUpdate",
      "type": "event"
    },
    {
      "inputs": [
        {
          "internalType": "uint256",
          "name": "",
          "type": "uint256"
        }
      ],
      "name": "chapters",
      "outputs": [
        {
          "internalType": "uint256",
          "name": "id",
          "type": "uint256"
        },
        {
          "internalType": "string",
          "name": "title",
          "type": "string"
        },
        {
          "internalType": "string",
          "name": "context",
          "type": "string"
        },
        {
          "internalType": "string",
          "name": "status",
          "type": "string"
        }
      ],
      "stateMutability": "view",
      "type": "function"
    },
    {
      "inputs": [
        {
          "internalType": "uint256",
          "name": "",
          "type": "uint256"
        }
      ],
      "name": "covers",
      "outputs": [
        {
          "internalType": "address",
          "name": "owner",
          "type": "address"
        },
        {
          "internalType": "uint256",
          "name": "id",
          "type": "uint256"
        },
        {
          "internalType": "string",
          "name": "title",
          "type": "string"
        },
        {
          "internalType": "string",
          "name": "description",
          "type": "string"
        },
        {
          "internalType": "string",
          "name": "status",
          "type": "string"
        }
      ],
      "stateMutability": "view",
      "type": "function"
    },
    {
      "inputs": [
        {
          "internalType": "uint256",
          "name": "_coverId",
          "type": "uint256"
        },
        {
          "internalType": "string",
          "name": "_title",
          "type": "string"
        },
        {
          "internalType": "string",
          "name": "_context",
          "type": "string"
        }
      ],
      "name": "createChapter",
      "outputs": [],
      "stateMutability": "nonpayable",
      "type": "function"
    },
    {
      "inputs": [
        {
          "internalType": "string",
          "name": "_title",
          "type": "string"
        },
        {
          "internalType": "string",
          "name": "_description",
          "type": "string"
        }
      ],
      "name": "createCopyright",
      "outputs": [],
      "stateMutability": "nonpayable",
      "type": "function"
    },
    {
      "inputs": [],
      "name": "getAllCoypright",
      "outputs": [
        {
          "components": [
            {
              "internalType": "address",
              "name": "owner",
              "type": "address"
            },
            {
              "internalType": "uint256",
              "name": "id",
              "type": "uint256"
            },
            {
              "internalType": "string",
              "name": "title",
              "type": "string"
            },
            {
              "internalType": "string",
              "name": "description",
              "type": "string"
            },
            {
              "internalType": "string",
              "name": "status",
              "type": "string"
            },
            {
              "components": [
                {
                  "internalType": "uint256",
                  "name": "id",
                  "type": "uint256"
                },
                {
                  "internalType": "string",
                  "name": "title",
                  "type": "string"
                },
                {
                  "internalType": "string",
                  "name": "context",
                  "type": "string"
                },
                {
                  "internalType": "string",
                  "name": "status",
                  "type": "string"
                }
              ],
              "internalType": "struct Copyright.Chapter[]",
              "name": "chapter",
              "type": "tuple[]"
            }
          ],
          "internalType": "struct Copyright.Cover[]",
          "name": "",
          "type": "tuple[]"
        }
      ],
      "stateMutability": "view",
      "type": "function"
    },
    {
      "inputs": [],
      "name": "getAuthorCover",
      "outputs": [
        {
          "components": [
            {
              "internalType": "address",
              "name": "owner",
              "type": "address"
            },
            {
              "internalType": "uint256",
              "name": "id",
              "type": "uint256"
            },
            {
              "internalType": "string",
              "name": "title",
              "type": "string"
            },
            {
              "internalType": "string",
              "name": "description",
              "type": "string"
            },
            {
              "internalType": "string",
              "name": "status",
              "type": "string"
            },
            {
              "components": [
                {
                  "internalType": "uint256",
                  "name": "id",
                  "type": "uint256"
                },
                {
                  "internalType": "string",
                  "name": "title",
                  "type": "string"
                },
                {
                  "internalType": "string",
                  "name": "context",
                  "type": "string"
                },
                {
                  "internalType": "string",
                  "name": "status",
                  "type": "string"
                }
              ],
              "internalType": "struct Copyright.Chapter[]",
              "name": "chapter",
              "type": "tuple[]"
            }
          ],
          "internalType": "struct Copyright.Cover[]",
          "name": "",
          "type": "tuple[]"
        }
      ],
      "stateMutability": "view",
      "type": "function"
    },
    {
      "inputs": [
        {
          "internalType": "uint256",
          "name": "_id",
          "type": "uint256"
        }
      ],
      "name": "getChapter",
      "outputs": [
        {
          "internalType": "string",
          "name": "",
          "type": "string"
        },
        {
          "internalType": "string",
          "name": "",
          "type": "string"
        },
        {
          "internalType": "uint256",
          "name": "",
          "type": "uint256"
        },
        {
          "internalType": "address",
          "name": "",
          "type": "address"
        }
      ],
      "stateMutability": "view",
      "type": "function"
    },
    {
      "inputs": [
        {
          "internalType": "uint256",
          "name": "_coverId",
          "type": "uint256"
        }
      ],
      "name": "getChapters",
      "outputs": [
        {
          "components": [
            {
              "internalType": "uint256",
              "name": "id",
              "type": "uint256"
            },
            {
              "internalType": "string",
              "name": "title",
              "type": "string"
            },
            {
              "internalType": "string",
              "name": "context",
              "type": "string"
            },
            {
              "internalType": "string",
              "name": "status",
              "type": "string"
            }
          ],
          "internalType": "struct Copyright.Chapter[]",
          "name": "",
          "type": "tuple[]"
        }
      ],
      "stateMutability": "view",
      "type": "function"
    },
    {
      "inputs": [
        {
          "internalType": "uint256",
          "name": "_id",
          "type": "uint256"
        }
      ],
      "name": "getCopyright",
      "outputs": [
        {
          "internalType": "string",
          "name": "",
          "type": "string"
        },
        {
          "internalType": "string",
          "name": "",
          "type": "string"
        },
        {
          "internalType": "address",
          "name": "",
          "type": "address"
        },
        {
          "internalType": "uint256",
          "name": "",
          "type": "uint256"
        },
        {
          "internalType": "address",
          "name": "",
          "type": "address"
        },
        {
          "internalType": "string",
          "name": "",
          "type": "string"
        },
        {
          "components": [
            {
              "internalType": "uint256",
              "name": "id",
              "type": "uint256"
            },
            {
              "internalType": "string",
              "name": "title",
              "type": "string"
            },
            {
              "internalType": "string",
              "name": "context",
              "type": "string"
            },
            {
              "internalType": "string",
              "name": "status",
              "type": "string"
            }
          ],
          "internalType": "struct Copyright.Chapter[]",
          "name": "",
          "type": "tuple[]"
        }
      ],
      "stateMutability": "view",
      "type": "function"
    },
    {
      "inputs": [],
      "name": "numChapters",
      "outputs": [
        {
          "internalType": "uint256",
          "name": "",
          "type": "uint256"
        }
      ],
      "stateMutability": "view",
      "type": "function"
    },
    {
      "inputs": [],
      "name": "numCovers",
      "outputs": [
        {
          "internalType": "uint256",
          "name": "",
          "type": "uint256"
        }
      ],
      "stateMutability": "view",
      "type": "function"
    },
    {
      "inputs": [
        {
          "internalType": "uint256",
          "name": "_id",
          "type": "uint256"
        },
        {
          "internalType": "string",
          "name": "_title",
          "type": "string"
        },
        {
          "internalType": "string",
          "name": "_context",
          "type": "string"
        }
      ],
      "name": "updateChapter",
      "outputs": [
        {
          "internalType": "uint256",
          "name": "",
          "type": "uint256"
        }
      ],
      "stateMutability": "nonpayable",
      "type": "function"
    },
    {
      "inputs": [
        {
          "internalType": "uint256",
          "name": "_id",
          "type": "uint256"
        },
        {
          "internalType": "string",
          "name": "_title",
          "type": "string"
        },
        {
          "internalType": "string",
          "name": "_description",
          "type": "string"
        }
      ],
      "name": "updateCover",
      "outputs": [
        {
          "internalType": "uint256",
          "name": "",
          "type": "uint256"
        }
      ],
      "stateMutability": "nonpayable",
      "type": "function"
    }
  ],
  "bytecode": "0x608060405234801561001057600080fd5b50612d14806100206000396000f3fe608060405234801561001057600080fd5b50600436106100cf5760003560e01c80636f4eaff11161008c57806399f7b5671161006657806399f7b56714610230578063ac678a9314610263578063bb14c6bd14610293578063f40adb12146102b1576100cf565b80636f4eaff1146101be5780637f647e91146101f45780638150a0bc14610212576100cf565b806312e3440d146100d457806336b41afc146100f05780634461cd481461010e578063626445b21461013e5780636299df6c1461016e5780636666f2c2146101a2575b600080fd5b6100ee60048036038101906100e99190612271565b6102e4565b005b6100f86105b1565b6040516101059190612727565b60405180910390f35b61012860048036038101906101239190612271565b610c0c565b6040516101359190612909565b60405180910390f35b61015860048036038101906101539190612271565b610d40565b6040516101659190612909565b60405180910390f35b61018860048036038101906101839190612248565b610e75565b60405161019995949392919061269d565b60405180910390f35b6101bc60048036038101906101b791906121dc565b611063565b005b6101d860048036038101906101d39190612248565b6111a4565b6040516101eb97969594939291906127a1565b60405180910390f35b6101fc6115d3565b6040516102099190612909565b60405180910390f35b61021a6115d9565b6040516102279190612727565b60405180910390f35b61024a60048036038101906102459190612248565b611b19565b60405161025a9493929190612876565b60405180910390f35b61027d60048036038101906102789190612248565b611c68565b60405161028a9190612705565b60405180910390f35b61029b611ea2565b6040516102a89190612909565b60405180910390f35b6102cb60048036038101906102c69190612248565b611ea8565b6040516102db9493929190612924565b60405180910390f35b823373ffffffffffffffffffffffffffffffffffffffff1660008083815260200190815260200160002060000160009054906101000a900473ffffffffffffffffffffffffffffffffffffffff1673ffffffffffffffffffffffffffffffffffffffff1614610388576040517f08c379a000000000000000000000000000000000000000000000000000000000815260040161037f906128c9565b60405180910390fd5b600080600086815260200190815260200160002060010154146103e0576040517f08c379a00000000000000000000000000000000000000000000000000000000081526004016103d7906128e9565b60405180910390fd5b6000604051806080016040528060035481526020018581526020018481526020016040518060400160405280600681526020017f6163746976650000000000000000000000000000000000000000000000000000815250815250905080600160006003548152602001908152602001600020600082015181600001556020820151816001019080519060200190610478929190612070565b506040820151816002019080519060200190610495929190612070565b5060608201518160030190805190602001906104b2929190612070565b5090505060008086815260200190815260200160002060050181908060018154018082558091505060019003906000526020600020906004020160009091909190915060008201518160000155602082015181600101908051906020019061051b929190612070565b506040820151816002019080519060200190610538929190612070565b506060820151816003019080519060200190610555929190612070565b505050847f0306159a7edd82ee1659e8777cab2ff2db427c9a1e3353035af65c67c90515b1858560405161058a92919061282c565b60405180910390a2600360008154809291906105a590612b65565b91905055505050505050565b6060600080600090505b600254811015610650573373ffffffffffffffffffffffffffffffffffffffff1660008083815260200190815260200160002060000160009054906101000a900473ffffffffffffffffffffffffffffffffffffffff1673ffffffffffffffffffffffffffffffffffffffff16141561063d57818061063990612b65565b9250505b808061064890612b65565b9150506105bb565b5060008167ffffffffffffffff811115610693577f4e487b7100000000000000000000000000000000000000000000000000000000600052604160045260246000fd5b6040519080825280602002602001820160405280156106cc57816020015b6106b96120f6565b8152602001906001900390816106b15790505b509050600080600090505b600254811015610c02573373ffffffffffffffffffffffffffffffffffffffff1660008083815260200190815260200160002060000160009054906101000a900473ffffffffffffffffffffffffffffffffffffffff1673ffffffffffffffffffffffffffffffffffffffff161415610bef576000808281526020019081526020016000206040518060c00160405290816000820160009054906101000a900473ffffffffffffffffffffffffffffffffffffffff1673ffffffffffffffffffffffffffffffffffffffff1673ffffffffffffffffffffffffffffffffffffffff168152602001600182015481526020016002820180546107d790612b02565b80601f016020809104026020016040519081016040528092919081815260200182805461080390612b02565b80156108505780601f1061082557610100808354040283529160200191610850565b820191906000526020600020905b81548152906001019060200180831161083357829003601f168201915b5050505050815260200160038201805461086990612b02565b80601f016020809104026020016040519081016040528092919081815260200182805461089590612b02565b80156108e25780601f106108b7576101008083540402835291602001916108e2565b820191906000526020600020905b8154815290600101906020018083116108c557829003601f168201915b505050505081526020016004820180546108fb90612b02565b80601f016020809104026020016040519081016040528092919081815260200182805461092790612b02565b80156109745780601f1061094957610100808354040283529160200191610974565b820191906000526020600020905b81548152906001019060200180831161095757829003601f168201915b5050505050815260200160058201805480602002602001604051908101604052809291908181526020016000905b82821015610b945783829060005260206000209060040201604051806080016040529081600082015481526020016001820180546109df90612b02565b80601f0160208091040260200160405190810160405280929190818152602001828054610a0b90612b02565b8015610a585780601f10610a2d57610100808354040283529160200191610a58565b820191906000526020600020905b815481529060010190602001808311610a3b57829003601f168201915b50505050508152602001600282018054610a7190612b02565b80601f0160208091040260200160405190810160405280929190818152602001828054610a9d90612b02565b8015610aea5780601f10610abf57610100808354040283529160200191610aea565b820191906000526020600020905b815481529060010190602001808311610acd57829003601f168201915b50505050508152602001600382018054610b0390612b02565b80601f0160208091040260200160405190810160405280929190818152602001828054610b2f90612b02565b8015610b7c5780601f10610b5157610100808354040283529160200191610b7c565b820191906000526020600020905b815481529060010190602001808311610b5f57829003601f168201915b505050505081525050815260200190600101906109a2565b5050505081525050838381518110610bd5577f4e487b7100000000000000000000000000000000000000000000000000000000600052603260045260246000fd5b60200260200101819052508180610beb90612b65565b9250505b8080610bfa90612b65565b9150506106d7565b5081935050505090565b6000833373ffffffffffffffffffffffffffffffffffffffff1660008083815260200190815260200160002060000160009054906101000a900473ffffffffffffffffffffffffffffffffffffffff1673ffffffffffffffffffffffffffffffffffffffff1614610cb2576040517f08c379a0000000000000000000000000000000000000000000000000000000008152600401610ca9906128c9565b60405180910390fd5b6000806000878152602001908152602001600020905084816002019080519060200190610ce0929190612070565b5083816003019080519060200190610cf9929190612070565b50857f33f693e3864c85613c751c30c3359f13a47cabf2b193ceb2e5eaf21b97a6718e8686604051610d2c92919061282c565b60405180910390a285925050509392505050565b6000833373ffffffffffffffffffffffffffffffffffffffff1660008083815260200190815260200160002060000160009054906101000a900473ffffffffffffffffffffffffffffffffffffffff1673ffffffffffffffffffffffffffffffffffffffff1614610de6576040517f08c379a0000000000000000000000000000000000000000000000000000000008152600401610ddd906128c9565b60405180910390fd5b600060016000878152602001908152602001600020905084816001019080519060200190610e15929190612070565b5083816002019080519060200190610e2e929190612070565b50857f2360ad3d527c77590b173cf5173eee0da3083a56a1f34650aa489547b1cd59488686604051610e6192919061282c565b60405180910390a285925050509392505050565b60006020528060005260406000206000915090508060000160009054906101000a900473ffffffffffffffffffffffffffffffffffffffff1690806001015490806002018054610ec490612b02565b80601f0160208091040260200160405190810160405280929190818152602001828054610ef090612b02565b8015610f3d5780601f10610f1257610100808354040283529160200191610f3d565b820191906000526020600020905b815481529060010190602001808311610f2057829003601f168201915b505050505090806003018054610f5290612b02565b80601f0160208091040260200160405190810160405280929190818152602001828054610f7e90612b02565b8015610fcb5780601f10610fa057610100808354040283529160200191610fcb565b820191906000526020600020905b815481529060010190602001808311610fae57829003601f168201915b505050505090806004018054610fe090612b02565b80601f016020809104026020016040519081016040528092919081815260200182805461100c90612b02565b80156110595780601f1061102e57610100808354040283529160200191611059565b820191906000526020600020905b81548152906001019060200180831161103c57829003601f168201915b5050505050905085565b60008060006002548152602001908152602001600020905060025481600101819055508281600201908051906020019061109e929190612070565b50818160030190805190602001906110b7929190612070565b50338160000160006101000a81548173ffffffffffffffffffffffffffffffffffffffff021916908373ffffffffffffffffffffffffffffffffffffffff1602179055506040518060400160405280600681526020017f4163746976650000000000000000000000000000000000000000000000000000815250816004019080519060200190611148929190612070565b506002547fe9597330899c7cb1df48bd231b456a7182209be6a611db0261dd38b86fa6e63884843360405161117f93929190612749565b60405180910390a26002600081548092919061119a90612b65565b9190505550505050565b606080600080600060608060008060008a8152602001908152602001600020905080600201816003018260000160009054906101000a900473ffffffffffffffffffffffffffffffffffffffff164241856004018660050186805461120890612b02565b80601f016020809104026020016040519081016040528092919081815260200182805461123490612b02565b80156112815780601f1061125657610100808354040283529160200191611281565b820191906000526020600020905b81548152906001019060200180831161126457829003601f168201915b5050505050965085805461129490612b02565b80601f01602080910402602001604051908101604052809291908181526020018280546112c090612b02565b801561130d5780601f106112e25761010080835404028352916020019161130d565b820191906000526020600020905b8154815290600101906020018083116112f057829003601f168201915b5050505050955081805461132090612b02565b80601f016020809104026020016040519081016040528092919081815260200182805461134c90612b02565b80156113995780601f1061136e57610100808354040283529160200191611399565b820191906000526020600020905b81548152906001019060200180831161137c57829003601f168201915b5050505050915080805480602002602001604051908101604052809291908181526020016000905b828210156115b35783829060005260206000209060040201604051806080016040529081600082015481526020016001820180546113fe90612b02565b80601f016020809104026020016040519081016040528092919081815260200182805461142a90612b02565b80156114775780601f1061144c57610100808354040283529160200191611477565b820191906000526020600020905b81548152906001019060200180831161145a57829003601f168201915b5050505050815260200160028201805461149090612b02565b80601f01602080910402602001604051908101604052809291908181526020018280546114bc90612b02565b80156115095780601f106114de57610100808354040283529160200191611509565b820191906000526020600020905b8154815290600101906020018083116114ec57829003601f168201915b5050505050815260200160038201805461152290612b02565b80601f016020809104026020016040519081016040528092919081815260200182805461154e90612b02565b801561159b5780601f106115705761010080835404028352916020019161159b565b820191906000526020600020905b81548152906001019060200180831161157e57829003601f168201915b505050505081525050815260200190600101906113c1565b505050509050975097509750975097509750975050919395979092949650565b60025481565b6060600060025467ffffffffffffffff81111561161f577f4e487b7100000000000000000000000000000000000000000000000000000000600052604160045260246000fd5b60405190808252806020026020018201604052801561165857816020015b6116456120f6565b81526020019060019003908161163d5790505b50905060005b600254811015611b11576000808281526020019081526020016000206040518060c00160405290816000820160009054906101000a900473ffffffffffffffffffffffffffffffffffffffff1673ffffffffffffffffffffffffffffffffffffffff1673ffffffffffffffffffffffffffffffffffffffff168152602001600182015481526020016002820180546116f590612b02565b80601f016020809104026020016040519081016040528092919081815260200182805461172190612b02565b801561176e5780601f106117435761010080835404028352916020019161176e565b820191906000526020600020905b81548152906001019060200180831161175157829003601f168201915b5050505050815260200160038201805461178790612b02565b80601f01602080910402602001604051908101604052809291908181526020018280546117b390612b02565b80156118005780601f106117d557610100808354040283529160200191611800565b820191906000526020600020905b8154815290600101906020018083116117e357829003601f168201915b5050505050815260200160048201805461181990612b02565b80601f016020809104026020016040519081016040528092919081815260200182805461184590612b02565b80156118925780601f1061186757610100808354040283529160200191611892565b820191906000526020600020905b81548152906001019060200180831161187557829003601f168201915b5050505050815260200160058201805480602002602001604051908101604052809291908181526020016000905b82821015611ab25783829060005260206000209060040201604051806080016040529081600082015481526020016001820180546118fd90612b02565b80601f016020809104026020016040519081016040528092919081815260200182805461192990612b02565b80156119765780601f1061194b57610100808354040283529160200191611976565b820191906000526020600020905b81548152906001019060200180831161195957829003601f168201915b5050505050815260200160028201805461198f90612b02565b80601f01602080910402602001604051908101604052809291908181526020018280546119bb90612b02565b8015611a085780601f106119dd57610100808354040283529160200191611a08565b820191906000526020600020905b8154815290600101906020018083116119eb57829003601f168201915b50505050508152602001600382018054611a2190612b02565b80601f0160208091040260200160405190810160405280929190818152602001828054611a4d90612b02565b8015611a9a5780601f10611a6f57610100808354040283529160200191611a9a565b820191906000526020600020905b815481529060010190602001808311611a7d57829003601f168201915b505050505081525050815260200190600101906118c0565b5050505081525050828281518110611af3577f4e487b7100000000000000000000000000000000000000000000000000000000600052603260045260246000fd5b60200260200101819052508080611b0990612b65565b91505061165e565b508091505090565b606080600080600060016000878152602001908152602001600020905080600101816002014241838054611b4c90612b02565b80601f0160208091040260200160405190810160405280929190818152602001828054611b7890612b02565b8015611bc55780601f10611b9a57610100808354040283529160200191611bc5565b820191906000526020600020905b815481529060010190602001808311611ba857829003601f168201915b50505050509350828054611bd890612b02565b80601f0160208091040260200160405190810160405280929190818152602001828054611c0490612b02565b8015611c515780601f10611c2657610100808354040283529160200191611c51565b820191906000526020600020905b815481529060010190602001808311611c3457829003601f168201915b505050505092509450945094509450509193509193565b60606000806000848152602001908152602001600020905080600501805480602002602001604051908101604052809291908181526020016000905b82821015611e96578382906000526020600020906004020160405180608001604052908160008201548152602001600182018054611ce190612b02565b80601f0160208091040260200160405190810160405280929190818152602001828054611d0d90612b02565b8015611d5a5780601f10611d2f57610100808354040283529160200191611d5a565b820191906000526020600020905b815481529060010190602001808311611d3d57829003601f168201915b50505050508152602001600282018054611d7390612b02565b80601f0160208091040260200160405190810160405280929190818152602001828054611d9f90612b02565b8015611dec5780601f10611dc157610100808354040283529160200191611dec565b820191906000526020600020905b815481529060010190602001808311611dcf57829003601f168201915b50505050508152602001600382018054611e0590612b02565b80601f0160208091040260200160405190810160405280929190818152602001828054611e3190612b02565b8015611e7e5780601f10611e5357610100808354040283529160200191611e7e565b820191906000526020600020905b815481529060010190602001808311611e6157829003601f168201915b50505050508152505081526020019060010190611ca4565b50505050915050919050565b60035481565b6001602052806000526040600020600091509050806000015490806001018054611ed190612b02565b80601f0160208091040260200160405190810160405280929190818152602001828054611efd90612b02565b8015611f4a5780601f10611f1f57610100808354040283529160200191611f4a565b820191906000526020600020905b815481529060010190602001808311611f2d57829003601f168201915b505050505090806002018054611f5f90612b02565b80601f0160208091040260200160405190810160405280929190818152602001828054611f8b90612b02565b8015611fd85780601f10611fad57610100808354040283529160200191611fd8565b820191906000526020600020905b815481529060010190602001808311611fbb57829003601f168201915b505050505090806003018054611fed90612b02565b80601f016020809104026020016040519081016040528092919081815260200182805461201990612b02565b80156120665780601f1061203b57610100808354040283529160200191612066565b820191906000526020600020905b81548152906001019060200180831161204957829003601f168201915b5050505050905084565b82805461207c90612b02565b90600052602060002090601f01602090048101928261209e57600085556120e5565b82601f106120b757805160ff19168380011785556120e5565b828001600101855582156120e5579182015b828111156120e45782518255916020019190600101906120c9565b5b5090506120f29190612142565b5090565b6040518060c00160405280600073ffffffffffffffffffffffffffffffffffffffff16815260200160008152602001606081526020016060815260200160608152602001606081525090565b5b8082111561215b576000816000905550600101612143565b5090565b600061217261216d846129a3565b61297e565b90508281526020810184848401111561218a57600080fd5b612195848285612ac0565b509392505050565b600082601f8301126121ae57600080fd5b81356121be84826020860161215f565b91505092915050565b6000813590506121d681612cc7565b92915050565b600080604083850312156121ef57600080fd5b600083013567ffffffffffffffff81111561220957600080fd5b6122158582860161219d565b925050602083013567ffffffffffffffff81111561223257600080fd5b61223e8582860161219d565b9150509250929050565b60006020828403121561225a57600080fd5b6000612268848285016121c7565b91505092915050565b60008060006060848603121561228657600080fd5b6000612294868287016121c7565b935050602084013567ffffffffffffffff8111156122b157600080fd5b6122bd8682870161219d565b925050604084013567ffffffffffffffff8111156122da57600080fd5b6122e68682870161219d565b9150509250925092565b60006122fc8383612570565b905092915050565b600061231083836125e1565b905092915050565b61232181612a84565b82525050565b61233081612a84565b82525050565b6000612341826129f4565b61234b8185612a2f565b93508360208202850161235d856129d4565b8060005b85811015612399578484038952815161237a85826122f0565b945061238583612a15565b925060208a01995050600181019050612361565b50829750879550505050505092915050565b60006123b6826129f4565b6123c08185612a40565b9350836020820285016123d2856129d4565b8060005b8581101561240e57848403895281516123ef85826122f0565b94506123fa83612a15565b925060208a019950506001810190506123d6565b50829750879550505050505092915050565b600061242b826129ff565b6124358185612a51565b935083602082028501612447856129e4565b8060005b8581101561248357848403895281516124648582612304565b945061246f83612a22565b925060208a0199505060018101905061244b565b50829750879550505050505092915050565b60006124a082612a0a565b6124aa8185612a62565b93506124ba818560208601612acf565b6124c381612c3b565b840191505092915050565b60006124d982612a0a565b6124e38185612a73565b93506124f3818560208601612acf565b6124fc81612c3b565b840191505092915050565b6000612514601783612a73565b915061251f82612c4c565b602082019050919050565b6000612537600583612a73565b915061254282612c75565b602082019050919050565b600061255a600683612a73565b915061256582612c9e565b602082019050919050565b6000608083016000830151612588600086018261267f565b50602083015184820360208601526125a08282612495565b915050604083015184820360408601526125ba8282612495565b915050606083015184820360608601526125d48282612495565b9150508091505092915050565b600060c0830160008301516125f96000860182612318565b50602083015161260c602086018261267f565b50604083015184820360408601526126248282612495565b9150506060830151848203606086015261263e8282612495565b915050608083015184820360808601526126588282612495565b91505060a083015184820360a08601526126728282612336565b9150508091505092915050565b61268881612ab6565b82525050565b61269781612ab6565b82525050565b600060a0820190506126b26000830188612327565b6126bf602083018761268e565b81810360408301526126d181866124ce565b905081810360608301526126e581856124ce565b905081810360808301526126f981846124ce565b90509695505050505050565b6000602082019050818103600083015261271f81846123ab565b905092915050565b600060208201905081810360008301526127418184612420565b905092915050565b6000608082019050818103600083015261276381866124ce565b9050818103602083015261277781856124ce565b90506127866040830184612327565b81810360608301526127978161254d565b9050949350505050565b600060e08201905081810360008301526127bb818a6124ce565b905081810360208301526127cf81896124ce565b90506127de6040830188612327565b6127eb606083018761268e565b6127f86080830186612327565b81810360a083015261280a81856124ce565b905081810360c083015261281e81846123ab565b905098975050505050505050565b6000606082019050818103600083015261284681856124ce565b9050818103602083015261285a81846124ce565b9050818103604083015261286d8161254d565b90509392505050565b6000608082019050818103600083015261289081876124ce565b905081810360208301526128a481866124ce565b90506128b3604083018561268e565b6128c06060830184612327565b95945050505050565b600060208201905081810360008301526128e281612507565b9050919050565b600060208201905081810360008301526129028161252a565b9050919050565b600060208201905061291e600083018461268e565b92915050565b6000608082019050612939600083018761268e565b818103602083015261294b81866124ce565b9050818103604083015261295f81856124ce565b9050818103606083015261297381846124ce565b905095945050505050565b6000612988612999565b90506129948282612b34565b919050565b6000604051905090565b600067ffffffffffffffff8211156129be576129bd612c0c565b5b6129c782612c3b565b9050602081019050919050565b6000819050602082019050919050565b6000819050602082019050919050565b600081519050919050565b600081519050919050565b600081519050919050565b6000602082019050919050565b6000602082019050919050565b600082825260208201905092915050565b600082825260208201905092915050565b600082825260208201905092915050565b600082825260208201905092915050565b600082825260208201905092915050565b6000612a8f82612a96565b9050919050565b600073ffffffffffffffffffffffffffffffffffffffff82169050919050565b6000819050919050565b82818337600083830152505050565b60005b83811015612aed578082015181840152602081019050612ad2565b83811115612afc576000848401525b50505050565b60006002820490506001821680612b1a57607f821691505b60208210811415612b2e57612b2d612bdd565b5b50919050565b612b3d82612c3b565b810181811067ffffffffffffffff82111715612b5c57612b5b612c0c565b5b80604052505050565b6000612b7082612ab6565b91507fffffffffffffffffffffffffffffffffffffffffffffffffffffffffffffffff821415612ba357612ba2612bae565b5b600182019050919050565b7f4e487b7100000000000000000000000000000000000000000000000000000000600052601160045260246000fd5b7f4e487b7100000000000000000000000000000000000000000000000000000000600052602260045260246000fd5b7f4e487b7100000000000000000000000000000000000000000000000000000000600052604160045260246000fd5b6000601f19601f8301169050919050565b7f43616c6c6572206973206e6f7420746865206f776e6572000000000000000000600082015250565b7f6572726f72000000000000000000000000000000000000000000000000000000600082015250565b7f6163746976650000000000000000000000000000000000000000000000000000600082015250565b612cd081612ab6565b8114612cdb57600080fd5b5056fea2646970667358221220ee119e05008b66a8eceb351e798235c8a33fd8c89dbc5e7c9d651e7f2279f05c64736f6c63430008040033",
  "linkReferences": {},
  "deployedLinkReferences": {}
}