{
  "_format": "hh-sol-artifact-1",
  "contractName": "Copyright",
  "sourceName": "contracts/Copyright.sol",
  "abi": [
    {
      "anonymous": false,
      "inputs": [
        {
          "indexed": true,
          "internalType": "address",
          "name": "author",
          "type": "address"
        },
        {
          "indexed": false,
          "internalType": "string",
          "name": "title",
          "type": "string"
        },
        {
          "indexed": false,
          "internalType": "string",
          "name": "imageHash",
          "type": "string"
        },
        {
          "indexed": false,
          "internalType": "string",
          "name": "shortDescription",
          "type": "string"
        },
        {
          "indexed": false,
          "internalType": "string",
          "name": "longDescription",
          "type": "string"
        },
        {
          "indexed": false,
          "internalType": "uint256",
          "name": "timestamp",
          "type": "uint256"
        },
        {
          "indexed": false,
          "internalType": "uint256",
          "name": "viewCount",
          "type": "uint256"
        },
        {
          "indexed": false,
          "internalType": "uint256",
          "name": "likeCount",
          "type": "uint256"
        },
        {
          "indexed": false,
          "internalType": "uint256",
          "name": "commentCount",
          "type": "uint256"
        },
        {
          "indexed": false,
          "internalType": "uint256",
          "name": "rating",
          "type": "uint256"
        }
      ],
      "name": "novelCreated",
      "type": "event"
    },
    {
      "inputs": [
        {
          "internalType": "string",
          "name": "title",
          "type": "string"
        },
        {
          "internalType": "string",
          "name": "imageHash",
          "type": "string"
        },
        {
          "internalType": "string",
          "name": "shortDescription",
          "type": "string"
        },
        {
          "internalType": "string",
          "name": "longDescription",
          "type": "string"
        }
      ],
      "name": "createNovel",
      "outputs": [],
      "stateMutability": "nonpayable",
      "type": "function"
    },
    {
      "inputs": [],
      "name": "getAllNovel",
      "outputs": [
        {
          "components": [
            {
              "internalType": "address",
              "name": "author",
              "type": "address"
            },
            {
              "internalType": "string",
              "name": "title",
              "type": "string"
            },
            {
              "internalType": "string",
              "name": "imageHash",
              "type": "string"
            },
            {
              "internalType": "string",
              "name": "shortDescription",
              "type": "string"
            },
            {
              "internalType": "string",
              "name": "longDescription",
              "type": "string"
            },
            {
              "internalType": "uint256",
              "name": "timestamp",
              "type": "uint256"
            },
            {
              "internalType": "uint256",
              "name": "viewCount",
              "type": "uint256"
            },
            {
              "internalType": "uint256",
              "name": "likeCount",
              "type": "uint256"
            },
            {
              "internalType": "uint256",
              "name": "commentCount",
              "type": "uint256"
            },
            {
              "internalType": "uint256",
              "name": "rating",
              "type": "uint256"
            }
          ],
          "internalType": "struct Copyright.novel[]",
          "name": "",
          "type": "tuple[]"
        }
      ],
      "stateMutability": "view",
      "type": "function"
    },
    {
      "inputs": [],
      "name": "getAuthorNovels",
      "outputs": [
        {
          "components": [
            {
              "internalType": "address",
              "name": "author",
              "type": "address"
            },
            {
              "internalType": "string",
              "name": "title",
              "type": "string"
            },
            {
              "internalType": "string",
              "name": "imageHash",
              "type": "string"
            },
            {
              "internalType": "string",
              "name": "shortDescription",
              "type": "string"
            },
            {
              "internalType": "string",
              "name": "longDescription",
              "type": "string"
            },
            {
              "internalType": "uint256",
              "name": "timestamp",
              "type": "uint256"
            },
            {
              "internalType": "uint256",
              "name": "viewCount",
              "type": "uint256"
            },
            {
              "internalType": "uint256",
              "name": "likeCount",
              "type": "uint256"
            },
            {
              "internalType": "uint256",
              "name": "commentCount",
              "type": "uint256"
            },
            {
              "internalType": "uint256",
              "name": "rating",
              "type": "uint256"
            }
          ],
          "internalType": "struct Copyright.novel[]",
          "name": "",
          "type": "tuple[]"
        }
      ],
      "stateMutability": "view",
      "type": "function"
    },
    {
      "inputs": [],
      "name": "novelCount",
      "outputs": [
        {
          "internalType": "uint256",
          "name": "",
          "type": "uint256"
        }
      ],
      "stateMutability": "view",
      "type": "function"
    },
    {
      "inputs": [
        {
          "internalType": "uint256",
          "name": "",
          "type": "uint256"
        }
      ],
      "name": "novelList",
      "outputs": [
        {
          "internalType": "address",
          "name": "author",
          "type": "address"
        },
        {
          "internalType": "string",
          "name": "title",
          "type": "string"
        },
        {
          "internalType": "string",
          "name": "imageHash",
          "type": "string"
        },
        {
          "internalType": "string",
          "name": "shortDescription",
          "type": "string"
        },
        {
          "internalType": "string",
          "name": "longDescription",
          "type": "string"
        },
        {
          "internalType": "uint256",
          "name": "timestamp",
          "type": "uint256"
        },
        {
          "internalType": "uint256",
          "name": "viewCount",
          "type": "uint256"
        },
        {
          "internalType": "uint256",
          "name": "likeCount",
          "type": "uint256"
        },
        {
          "internalType": "uint256",
          "name": "commentCount",
          "type": "uint256"
        },
        {
          "internalType": "uint256",
          "name": "rating",
          "type": "uint256"
        }
      ],
      "stateMutability": "view",
      "type": "function"
    },
    {
      "inputs": [
        {
          "internalType": "uint256",
          "name": "",
          "type": "uint256"
        }
      ],
      "name": "novelMap",
      "outputs": [
        {
          "internalType": "address",
          "name": "author",
          "type": "address"
        },
        {
          "internalType": "string",
          "name": "title",
          "type": "string"
        },
        {
          "internalType": "string",
          "name": "imageHash",
          "type": "string"
        },
        {
          "internalType": "string",
          "name": "shortDescription",
          "type": "string"
        },
        {
          "internalType": "string",
          "name": "longDescription",
          "type": "string"
        },
        {
          "internalType": "uint256",
          "name": "timestamp",
          "type": "uint256"
        },
        {
          "internalType": "uint256",
          "name": "viewCount",
          "type": "uint256"
        },
        {
          "internalType": "uint256",
          "name": "likeCount",
          "type": "uint256"
        },
        {
          "internalType": "uint256",
          "name": "commentCount",
          "type": "uint256"
        },
        {
          "internalType": "uint256",
          "name": "rating",
          "type": "uint256"
        }
      ],
      "stateMutability": "view",
      "type": "function"
    },
    {
      "inputs": [
        {
          "internalType": "uint256",
          "name": "index",
          "type": "uint256"
        },
        {
          "internalType": "string",
          "name": "longDescription",
          "type": "string"
        }
      ],
      "name": "updateLongDescription",
      "outputs": [],
      "stateMutability": "nonpayable",
      "type": "function"
    },
    {
      "inputs": [
        {
          "internalType": "uint256",
          "name": "index",
          "type": "uint256"
        },
        {
          "internalType": "string",
          "name": "shortDescription",
          "type": "string"
        }
      ],
      "name": "updateShortDescription",
      "outputs": [],
      "stateMutability": "nonpayable",
      "type": "function"
    },
    {
      "inputs": [
        {
          "internalType": "uint256",
          "name": "index",
          "type": "uint256"
        },
        {
          "internalType": "string",
          "name": "title",
          "type": "string"
        }
      ],
      "name": "updateTitle",
      "outputs": [],
      "stateMutability": "nonpayable",
      "type": "function"
    }
  ],
  "bytecode": "0x608060405234801561001057600080fd5b50612041806100206000396000f3fe608060405234801561001057600080fd5b50600436106100935760003560e01c8063acd10db911610066578063acd10db914610127578063b346199414610160578063bfef9ad21461017e578063c4d002f31461019a578063ded77d2c146101b657610093565b80634a4280a71461009857806354d71f0c146100d15780635786ead2146100ef5780636c2c7da61461010b575b600080fd5b6100b260048036038101906100ad9190611550565b6101d4565b6040516100c89a99989796959493929190611666565b60405180910390f35b6100d9610468565b6040516100e69190611937565b60405180910390f35b610109600480360381019061010491906119be565b610798565b005b61012560048036038101906101209190611b4e565b610897565b005b610141600480360381019061013c9190611550565b610998565b6040516101579a99989796959493929190611666565b60405180910390f35b610168610c3c565b6040516101759190611baa565b60405180910390f35b61019860048036038101906101939190611b4e565b610c42565b005b6101b460048036038101906101af9190611bc5565b610d43565b005b6101be610f46565b6040516101cb9190611937565b60405180910390f35b60026020528060005260406000206000915090508060000160009054906101000a900473ffffffffffffffffffffffffffffffffffffffff169080600101805461021d90611ccb565b80601f016020809104026020016040519081016040528092919081815260200182805461024990611ccb565b80156102965780601f1061026b57610100808354040283529160200191610296565b820191906000526020600020905b81548152906001019060200180831161027957829003601f168201915b5050505050908060020180546102ab90611ccb565b80601f01602080910402602001604051908101604052809291908181526020018280546102d790611ccb565b80156103245780601f106102f957610100808354040283529160200191610324565b820191906000526020600020905b81548152906001019060200180831161030757829003601f168201915b50505050509080600301805461033990611ccb565b80601f016020809104026020016040519081016040528092919081815260200182805461036590611ccb565b80156103b25780601f10610387576101008083540402835291602001916103b2565b820191906000526020600020905b81548152906001019060200180831161039557829003601f168201915b5050505050908060040180546103c790611ccb565b80601f01602080910402602001604051908101604052809291908181526020018280546103f390611ccb565b80156104405780601f1061041557610100808354040283529160200191610440565b820191906000526020600020905b81548152906001019060200180831161042357829003601f168201915b505050505090806005015490806006015490806007015490806008015490806009015490508a565b60606000805480602002602001604051908101604052809291908181526020016000905b8282101561078f57838290600052602060002090600a0201604051806101400160405290816000820160009054906101000a900473ffffffffffffffffffffffffffffffffffffffff1673ffffffffffffffffffffffffffffffffffffffff1673ffffffffffffffffffffffffffffffffffffffff16815260200160018201805461051690611ccb565b80601f016020809104026020016040519081016040528092919081815260200182805461054290611ccb565b801561058f5780601f106105645761010080835404028352916020019161058f565b820191906000526020600020905b81548152906001019060200180831161057257829003601f168201915b505050505081526020016002820180546105a890611ccb565b80601f01602080910402602001604051908101604052809291908181526020018280546105d490611ccb565b80156106215780601f106105f657610100808354040283529160200191610621565b820191906000526020600020905b81548152906001019060200180831161060457829003601f168201915b5050505050815260200160038201805461063a90611ccb565b80601f016020809104026020016040519081016040528092919081815260200182805461066690611ccb565b80156106b35780601f10610688576101008083540402835291602001916106b3565b820191906000526020600020905b81548152906001019060200180831161069657829003601f168201915b505050505081526020016004820180546106cc90611ccb565b80601f01602080910402602001604051908101604052809291908181526020018280546106f890611ccb565b80156107455780601f1061071a57610100808354040283529160200191610745565b820191906000526020600020905b81548152906001019060200180831161072857829003601f168201915b50505050508152602001600582015481526020016006820154815260200160078201548152602001600882015481526020016009820154815250508152602001906001019061048c565b50505050905090565b82600081815481106107ad576107ac611cfc565b5b90600052602060002090600a020160000160009054906101000a900473ffffffffffffffffffffffffffffffffffffffff1673ffffffffffffffffffffffffffffffffffffffff163373ffffffffffffffffffffffffffffffffffffffff161461081657600080fd5b6000838390501161085c576040517f08c379a000000000000000000000000000000000000000000000000000000000815260040161085390611d77565b60405180910390fd5b82826000868154811061087257610871611cfc565b5b90600052602060002090600a02016001019190610890929190611374565b5050505050565b81600081815481106108ac576108ab611cfc565b5b90600052602060002090600a020160000160009054906101000a900473ffffffffffffffffffffffffffffffffffffffff1673ffffffffffffffffffffffffffffffffffffffff163373ffffffffffffffffffffffffffffffffffffffff161461091557600080fd5b6000825111610959576040517f08c379a000000000000000000000000000000000000000000000000000000000815260040161095090611de3565b60405180910390fd5b816000848154811061096e5761096d611cfc565b5b90600052602060002090600a020160040190805190602001906109929291906113fa565b50505050565b600081815481106109a857600080fd5b90600052602060002090600a02016000915090508060000160009054906101000a900473ffffffffffffffffffffffffffffffffffffffff16908060010180546109f190611ccb565b80601f0160208091040260200160405190810160405280929190818152602001828054610a1d90611ccb565b8015610a6a5780601f10610a3f57610100808354040283529160200191610a6a565b820191906000526020600020905b815481529060010190602001808311610a4d57829003601f168201915b505050505090806002018054610a7f90611ccb565b80601f0160208091040260200160405190810160405280929190818152602001828054610aab90611ccb565b8015610af85780601f10610acd57610100808354040283529160200191610af8565b820191906000526020600020905b815481529060010190602001808311610adb57829003601f168201915b505050505090806003018054610b0d90611ccb565b80601f0160208091040260200160405190810160405280929190818152602001828054610b3990611ccb565b8015610b865780601f10610b5b57610100808354040283529160200191610b86565b820191906000526020600020905b815481529060010190602001808311610b6957829003601f168201915b505050505090806004018054610b9b90611ccb565b80601f0160208091040260200160405190810160405280929190818152602001828054610bc790611ccb565b8015610c145780601f10610be957610100808354040283529160200191610c14565b820191906000526020600020905b815481529060010190602001808311610bf757829003601f168201915b505050505090806005015490806006015490806007015490806008015490806009015490508a565b60015481565b8160008181548110610c5757610c56611cfc565b5b90600052602060002090600a020160000160009054906101000a900473ffffffffffffffffffffffffffffffffffffffff1673ffffffffffffffffffffffffffffffffffffffff163373ffffffffffffffffffffffffffffffffffffffff1614610cc057600080fd5b6000825111610d04576040517f08c379a0000000000000000000000000000000000000000000000000000000008152600401610cfb90611e75565b60405180910390fd5b8160008481548110610d1957610d18611cfc565b5b90600052602060002090600a02016003019080519060200190610d3d9291906113fa565b50505050565b60008060008060006040518061014001604052803373ffffffffffffffffffffffffffffffffffffffff1681526020018a8152602001898152602001888152602001878152602001428152602001600081526020016000815260200160008152602001600081525090806001815401808255809150506001900390600052602060002090600a020160009091909190915060008201518160000160006101000a81548173ffffffffffffffffffffffffffffffffffffffff021916908373ffffffffffffffffffffffffffffffffffffffff1602179055506020820151816001019080519060200190610e379291906113fa565b506040820151816002019080519060200190610e549291906113fa565b506060820151816003019080519060200190610e719291906113fa565b506080820151816004019080519060200190610e8e9291906113fa565b5060a0820151816005015560c0820151816006015560e082015181600701556101008201518160080155610120820151816009015550506001806000828254610ed79190611ec4565b925050819055503373ffffffffffffffffffffffffffffffffffffffff167f4a18f485dbcae5bfe4562094b3a3c02558cc5b97453ad9c5e6cc9c3b2e69512a89898989428a8a8a8a604051610f3499989796959493929190611f1a565b60405180910390a25050505050505050565b6060600060015467ffffffffffffffff811115610f6657610f65611a23565b5b604051908082528060200260200182016040528015610f9f57816020015b610f8c611480565b815260200190600190039081610f845790505b509050600080600090505b60015481101561136b573373ffffffffffffffffffffffffffffffffffffffff1660008281548110610fdf57610fde611cfc565b5b90600052602060002090600a020160000160009054906101000a900473ffffffffffffffffffffffffffffffffffffffff1673ffffffffffffffffffffffffffffffffffffffff160361135857600081815481106110405761103f611cfc565b5b90600052602060002090600a0201604051806101400160405290816000820160009054906101000a900473ffffffffffffffffffffffffffffffffffffffff1673ffffffffffffffffffffffffffffffffffffffff1673ffffffffffffffffffffffffffffffffffffffff1681526020016001820180546110c090611ccb565b80601f01602080910402602001604051908101604052809291908181526020018280546110ec90611ccb565b80156111395780601f1061110e57610100808354040283529160200191611139565b820191906000526020600020905b81548152906001019060200180831161111c57829003601f168201915b5050505050815260200160028201805461115290611ccb565b80601f016020809104026020016040519081016040528092919081815260200182805461117e90611ccb565b80156111cb5780601f106111a0576101008083540402835291602001916111cb565b820191906000526020600020905b8154815290600101906020018083116111ae57829003601f168201915b505050505081526020016003820180546111e490611ccb565b80601f016020809104026020016040519081016040528092919081815260200182805461121090611ccb565b801561125d5780601f106112325761010080835404028352916020019161125d565b820191906000526020600020905b81548152906001019060200180831161124057829003601f168201915b5050505050815260200160048201805461127690611ccb565b80601f01602080910402602001604051908101604052809291908181526020018280546112a290611ccb565b80156112ef5780601f106112c4576101008083540402835291602001916112ef565b820191906000526020600020905b8154815290600101906020018083116112d257829003601f168201915b505050505081526020016005820154815260200160068201548152602001600782015481526020016008820154815260200160098201548152505083838151811061133d5761133c611cfc565b5b60200260200101819052506001826113559190611ec4565b91505b808061136390611fc3565b915050610faa565b50819250505090565b82805461138090611ccb565b90600052602060002090601f0160209004810192826113a257600085556113e9565b82601f106113bb57803560ff19168380011785556113e9565b828001600101855582156113e9579182015b828111156113e85782358255916020019190600101906113cd565b5b5090506113f691906114e9565b5090565b82805461140690611ccb565b90600052602060002090601f016020900481019282611428576000855561146f565b82601f1061144157805160ff191683800117855561146f565b8280016001018555821561146f579182015b8281111561146e578251825591602001919060010190611453565b5b50905061147c91906114e9565b5090565b604051806101400160405280600073ffffffffffffffffffffffffffffffffffffffff1681526020016060815260200160608152602001606081526020016060815260200160008152602001600081526020016000815260200160008152602001600081525090565b5b808211156115025760008160009055506001016114ea565b5090565b6000604051905090565b600080fd5b600080fd5b6000819050919050565b61152d8161151a565b811461153857600080fd5b50565b60008135905061154a81611524565b92915050565b60006020828403121561156657611565611510565b5b60006115748482850161153b565b91505092915050565b600073ffffffffffffffffffffffffffffffffffffffff82169050919050565b60006115a88261157d565b9050919050565b6115b88161159d565b82525050565b600081519050919050565b600082825260208201905092915050565b60005b838110156115f85780820151818401526020810190506115dd565b83811115611607576000848401525b50505050565b6000601f19601f8301169050919050565b6000611629826115be565b61163381856115c9565b93506116438185602086016115da565b61164c8161160d565b840191505092915050565b6116608161151a565b82525050565b60006101408201905061167c600083018d6115af565b818103602083015261168e818c61161e565b905081810360408301526116a2818b61161e565b905081810360608301526116b6818a61161e565b905081810360808301526116ca818961161e565b90506116d960a0830188611657565b6116e660c0830187611657565b6116f360e0830186611657565b611701610100830185611657565b61170f610120830184611657565b9b9a5050505050505050505050565b600081519050919050565b600082825260208201905092915050565b6000819050602082019050919050565b6117538161159d565b82525050565b600082825260208201905092915050565b6000611775826115be565b61177f8185611759565b935061178f8185602086016115da565b6117988161160d565b840191505092915050565b6117ac8161151a565b82525050565b6000610140830160008301516117cb600086018261174a565b50602083015184820360208601526117e3828261176a565b915050604083015184820360408601526117fd828261176a565b91505060608301518482036060860152611817828261176a565b91505060808301518482036080860152611831828261176a565b91505060a083015161184660a08601826117a3565b5060c083015161185960c08601826117a3565b5060e083015161186c60e08601826117a3565b506101008301516118816101008601826117a3565b506101208301516118966101208601826117a3565b508091505092915050565b60006118ad83836117b2565b905092915050565b6000602082019050919050565b60006118cd8261171e565b6118d78185611729565b9350836020820285016118e98561173a565b8060005b85811015611925578484038952815161190685826118a1565b9450611911836118b5565b925060208a019950506001810190506118ed565b50829750879550505050505092915050565b6000602082019050818103600083015261195181846118c2565b905092915050565b600080fd5b600080fd5b600080fd5b60008083601f84011261197e5761197d611959565b5b8235905067ffffffffffffffff81111561199b5761199a61195e565b5b6020830191508360018202830111156119b7576119b6611963565b5b9250929050565b6000806000604084860312156119d7576119d6611510565b5b60006119e58682870161153b565b935050602084013567ffffffffffffffff811115611a0657611a05611515565b5b611a1286828701611968565b92509250509250925092565b600080fd5b7f4e487b7100000000000000000000000000000000000000000000000000000000600052604160045260246000fd5b611a5b8261160d565b810181811067ffffffffffffffff82111715611a7a57611a79611a23565b5b80604052505050565b6000611a8d611506565b9050611a998282611a52565b919050565b600067ffffffffffffffff821115611ab957611ab8611a23565b5b611ac28261160d565b9050602081019050919050565b82818337600083830152505050565b6000611af1611aec84611a9e565b611a83565b905082815260208101848484011115611b0d57611b0c611a1e565b5b611b18848285611acf565b509392505050565b600082601f830112611b3557611b34611959565b5b8135611b45848260208601611ade565b91505092915050565b60008060408385031215611b6557611b64611510565b5b6000611b738582860161153b565b925050602083013567ffffffffffffffff811115611b9457611b93611515565b5b611ba085828601611b20565b9150509250929050565b6000602082019050611bbf6000830184611657565b92915050565b60008060008060808587031215611bdf57611bde611510565b5b600085013567ffffffffffffffff811115611bfd57611bfc611515565b5b611c0987828801611b20565b945050602085013567ffffffffffffffff811115611c2a57611c29611515565b5b611c3687828801611b20565b935050604085013567ffffffffffffffff811115611c5757611c56611515565b5b611c6387828801611b20565b925050606085013567ffffffffffffffff811115611c8457611c83611515565b5b611c9087828801611b20565b91505092959194509250565b7f4e487b7100000000000000000000000000000000000000000000000000000000600052602260045260246000fd5b60006002820490506001821680611ce357607f821691505b602082108103611cf657611cf5611c9c565b5b50919050565b7f4e487b7100000000000000000000000000000000000000000000000000000000600052603260045260246000fd5b7f5469746c652063616e6e6f7420626520656d7074790000000000000000000000600082015250565b6000611d616015836115c9565b9150611d6c82611d2b565b602082019050919050565b60006020820190508181036000830152611d9081611d54565b9050919050565b7f4c6f6e67206465736372697074696f6e2063616e6e6f7420626520656d707479600082015250565b6000611dcd6020836115c9565b9150611dd882611d97565b602082019050919050565b60006020820190508181036000830152611dfc81611dc0565b9050919050565b7f53686f7274206465736372697074696f6e2063616e6e6f7420626520656d707460008201527f7900000000000000000000000000000000000000000000000000000000000000602082015250565b6000611e5f6021836115c9565b9150611e6a82611e03565b604082019050919050565b60006020820190508181036000830152611e8e81611e52565b9050919050565b7f4e487b7100000000000000000000000000000000000000000000000000000000600052601160045260246000fd5b6000611ecf8261151a565b9150611eda8361151a565b9250827fffffffffffffffffffffffffffffffffffffffffffffffffffffffffffffffff03821115611f0f57611f0e611e95565b5b828201905092915050565b6000610120820190508181036000830152611f35818c61161e565b90508181036020830152611f49818b61161e565b90508181036040830152611f5d818a61161e565b90508181036060830152611f71818961161e565b9050611f806080830188611657565b611f8d60a0830187611657565b611f9a60c0830186611657565b611fa760e0830185611657565b611fb5610100830184611657565b9a9950505050505050505050565b6000611fce8261151a565b91507fffffffffffffffffffffffffffffffffffffffffffffffffffffffffffffffff820361200057611fff611e95565b5b60018201905091905056fea26469706673582212209305fca911fccb98b0d88dd4fddf76cee65447edf24fa6555ca14dd55321b8d064736f6c634300080d0033",
  "linkReferences": {},
  "deployedLinkReferences": {}
}