{
  "_format": "hh-sol-artifact-1",
  "contractName": "NewCopyright",
  "sourceName": "contracts/NewCopyright.sol",
  "abi": [
    {
      "inputs": [
        {
          "internalType": "string",
          "name": "baseURI_",
          "type": "string"
        },
        {
          "internalType": "string",
          "name": "_name",
          "type": "string"
        },
        {
          "internalType": "string",
          "name": "_symbol",
          "type": "string"
        }
      ],
      "stateMutability": "nonpayable",
      "type": "constructor"
    },
    {
      "anonymous": false,
      "inputs": [
        {
          "indexed": true,
          "internalType": "address",
          "name": "owner",
          "type": "address"
        },
        {
          "indexed": true,
          "internalType": "address",
          "name": "approved",
          "type": "address"
        },
        {
          "indexed": true,
          "internalType": "uint256",
          "name": "tokenId",
          "type": "uint256"
        }
      ],
      "name": "Approval",
      "type": "event"
    },
    {
      "anonymous": false,
      "inputs": [
        {
          "indexed": true,
          "internalType": "address",
          "name": "owner",
          "type": "address"
        },
        {
          "indexed": true,
          "internalType": "address",
          "name": "operator",
          "type": "address"
        },
        {
          "indexed": false,
          "internalType": "bool",
          "name": "approved",
          "type": "bool"
        }
      ],
      "name": "ApprovalForAll",
      "type": "event"
    },
    {
      "anonymous": false,
      "inputs": [
        {
          "indexed": false,
          "internalType": "string",
          "name": "title",
          "type": "string"
        },
        {
          "indexed": false,
          "internalType": "string",
          "name": "description",
          "type": "string"
        },
        {
          "indexed": false,
          "internalType": "address",
          "name": "owner",
          "type": "address"
        },
        {
          "indexed": false,
          "internalType": "string",
          "name": "status",
          "type": "string"
        },
        {
          "indexed": true,
          "internalType": "uint256",
          "name": "CoverId",
          "type": "uint256"
        }
      ],
      "name": "CoverCreation",
      "type": "event"
    },
    {
      "anonymous": false,
      "inputs": [
        {
          "indexed": true,
          "internalType": "uint256",
          "name": "CoverId",
          "type": "uint256"
        },
        {
          "indexed": true,
          "internalType": "uint256",
          "name": "tokenId",
          "type": "uint256"
        },
        {
          "indexed": true,
          "internalType": "address",
          "name": "author",
          "type": "address"
        }
      ],
      "name": "CoverMint",
      "type": "event"
    },
    {
      "anonymous": false,
      "inputs": [
        {
          "indexed": true,
          "internalType": "uint256",
          "name": "CoverId",
          "type": "uint256"
        },
        {
          "indexed": false,
          "internalType": "string",
          "name": "title",
          "type": "string"
        },
        {
          "indexed": false,
          "internalType": "string",
          "name": "description",
          "type": "string"
        },
        {
          "indexed": false,
          "internalType": "string",
          "name": "status",
          "type": "string"
        }
      ],
      "name": "CoverUpdate",
      "type": "event"
    },
    {
      "anonymous": false,
      "inputs": [
        {
          "indexed": true,
          "internalType": "address",
          "name": "from",
          "type": "address"
        },
        {
          "indexed": true,
          "internalType": "address",
          "name": "to",
          "type": "address"
        },
        {
          "indexed": true,
          "internalType": "uint256",
          "name": "tokenId",
          "type": "uint256"
        }
      ],
      "name": "Transfer",
      "type": "event"
    },
    {
      "inputs": [
        {
          "internalType": "address",
          "name": "to",
          "type": "address"
        },
        {
          "internalType": "uint256",
          "name": "tokenId",
          "type": "uint256"
        }
      ],
      "name": "approve",
      "outputs": [],
      "stateMutability": "nonpayable",
      "type": "function"
    },
    {
      "inputs": [
        {
          "internalType": "address",
          "name": "owner",
          "type": "address"
        }
      ],
      "name": "balanceOf",
      "outputs": [
        {
          "internalType": "uint256",
          "name": "",
          "type": "uint256"
        }
      ],
      "stateMutability": "view",
      "type": "function"
    },
    {
      "inputs": [],
      "name": "contractURI",
      "outputs": [
        {
          "internalType": "string",
          "name": "",
          "type": "string"
        }
      ],
      "stateMutability": "view",
      "type": "function"
    },
    {
      "inputs": [
        {
          "internalType": "uint256",
          "name": "",
          "type": "uint256"
        }
      ],
      "name": "covers",
      "outputs": [
        {
          "internalType": "string",
          "name": "title",
          "type": "string"
        },
        {
          "internalType": "string",
          "name": "description",
          "type": "string"
        },
        {
          "internalType": "address",
          "name": "owner",
          "type": "address"
        },
        {
          "internalType": "string",
          "name": "status",
          "type": "string"
        }
      ],
      "stateMutability": "view",
      "type": "function"
    },
    {
      "inputs": [
        {
          "internalType": "string",
          "name": "_title",
          "type": "string"
        },
        {
          "internalType": "string",
          "name": "_description",
          "type": "string"
        },
        {
          "internalType": "string",
          "name": "_status",
          "type": "string"
        }
      ],
      "name": "createCopyright",
      "outputs": [],
      "stateMutability": "nonpayable",
      "type": "function"
    },
    {
      "inputs": [],
      "name": "fetchUserNFT",
      "outputs": [
        {
          "internalType": "uint256[]",
          "name": "",
          "type": "uint256[]"
        }
      ],
      "stateMutability": "view",
      "type": "function"
    },
    {
      "inputs": [],
      "name": "getAllCoypright",
      "outputs": [
        {
          "components": [
            {
              "internalType": "string",
              "name": "title",
              "type": "string"
            },
            {
              "internalType": "string",
              "name": "description",
              "type": "string"
            },
            {
              "internalType": "address",
              "name": "owner",
              "type": "address"
            },
            {
              "internalType": "string",
              "name": "status",
              "type": "string"
            }
          ],
          "internalType": "struct NewCopyright.Cover[]",
          "name": "",
          "type": "tuple[]"
        }
      ],
      "stateMutability": "view",
      "type": "function"
    },
    {
      "inputs": [
        {
          "internalType": "uint256",
          "name": "tokenId",
          "type": "uint256"
        }
      ],
      "name": "getApproved",
      "outputs": [
        {
          "internalType": "address",
          "name": "",
          "type": "address"
        }
      ],
      "stateMutability": "view",
      "type": "function"
    },
    {
      "inputs": [],
      "name": "getAuthorCover",
      "outputs": [
        {
          "components": [
            {
              "internalType": "string",
              "name": "title",
              "type": "string"
            },
            {
              "internalType": "string",
              "name": "description",
              "type": "string"
            },
            {
              "internalType": "address",
              "name": "owner",
              "type": "address"
            },
            {
              "internalType": "string",
              "name": "status",
              "type": "string"
            }
          ],
          "internalType": "struct NewCopyright.Cover[]",
          "name": "",
          "type": "tuple[]"
        }
      ],
      "stateMutability": "view",
      "type": "function"
    },
    {
      "inputs": [
        {
          "internalType": "uint256",
          "name": "_id",
          "type": "uint256"
        }
      ],
      "name": "getCover",
      "outputs": [
        {
          "components": [
            {
              "internalType": "string",
              "name": "title",
              "type": "string"
            },
            {
              "internalType": "string",
              "name": "description",
              "type": "string"
            },
            {
              "internalType": "address",
              "name": "owner",
              "type": "address"
            },
            {
              "internalType": "string",
              "name": "status",
              "type": "string"
            }
          ],
          "internalType": "struct NewCopyright.Cover",
          "name": "",
          "type": "tuple"
        }
      ],
      "stateMutability": "view",
      "type": "function"
    },
    {
      "inputs": [
        {
          "internalType": "uint256",
          "name": "_tokenId",
          "type": "uint256"
        }
      ],
      "name": "getCoverByToken",
      "outputs": [
        {
          "components": [
            {
              "internalType": "string",
              "name": "title",
              "type": "string"
            },
            {
              "internalType": "string",
              "name": "description",
              "type": "string"
            },
            {
              "internalType": "address",
              "name": "owner",
              "type": "address"
            },
            {
              "internalType": "string",
              "name": "status",
              "type": "string"
            }
          ],
          "internalType": "struct NewCopyright.Cover",
          "name": "",
          "type": "tuple"
        }
      ],
      "stateMutability": "view",
      "type": "function"
    },
    {
      "inputs": [
        {
          "internalType": "address",
          "name": "owner",
          "type": "address"
        },
        {
          "internalType": "address",
          "name": "operator",
          "type": "address"
        }
      ],
      "name": "isApprovedForAll",
      "outputs": [
        {
          "internalType": "bool",
          "name": "",
          "type": "bool"
        }
      ],
      "stateMutability": "view",
      "type": "function"
    },
    {
      "inputs": [
        {
          "internalType": "uint256",
          "name": "coverId",
          "type": "uint256"
        }
      ],
      "name": "mintCopyright",
      "outputs": [
        {
          "internalType": "uint256",
          "name": "",
          "type": "uint256"
        }
      ],
      "stateMutability": "nonpayable",
      "type": "function"
    },
    {
      "inputs": [],
      "name": "name",
      "outputs": [
        {
          "internalType": "string",
          "name": "",
          "type": "string"
        }
      ],
      "stateMutability": "view",
      "type": "function"
    },
    {
      "inputs": [],
      "name": "nextCoverId",
      "outputs": [
        {
          "internalType": "uint256",
          "name": "",
          "type": "uint256"
        }
      ],
      "stateMutability": "view",
      "type": "function"
    },
    {
      "inputs": [
        {
          "internalType": "uint256",
          "name": "tokenId",
          "type": "uint256"
        }
      ],
      "name": "ownerOf",
      "outputs": [
        {
          "internalType": "address",
          "name": "",
          "type": "address"
        }
      ],
      "stateMutability": "view",
      "type": "function"
    },
    {
      "inputs": [
        {
          "internalType": "address",
          "name": "from",
          "type": "address"
        },
        {
          "internalType": "address",
          "name": "to",
          "type": "address"
        },
        {
          "internalType": "uint256",
          "name": "tokenId",
          "type": "uint256"
        }
      ],
      "name": "safeTransferFrom",
      "outputs": [],
      "stateMutability": "nonpayable",
      "type": "function"
    },
    {
      "inputs": [
        {
          "internalType": "address",
          "name": "from",
          "type": "address"
        },
        {
          "internalType": "address",
          "name": "to",
          "type": "address"
        },
        {
          "internalType": "uint256",
          "name": "tokenId",
          "type": "uint256"
        },
        {
          "internalType": "bytes",
          "name": "_data",
          "type": "bytes"
        }
      ],
      "name": "safeTransferFrom",
      "outputs": [],
      "stateMutability": "nonpayable",
      "type": "function"
    },
    {
      "inputs": [
        {
          "internalType": "address",
          "name": "operator",
          "type": "address"
        },
        {
          "internalType": "bool",
          "name": "approved",
          "type": "bool"
        }
      ],
      "name": "setApprovalForAll",
      "outputs": [],
      "stateMutability": "nonpayable",
      "type": "function"
    },
    {
      "inputs": [
        {
          "internalType": "bytes4",
          "name": "interfaceId",
          "type": "bytes4"
        }
      ],
      "name": "supportsInterface",
      "outputs": [
        {
          "internalType": "bool",
          "name": "",
          "type": "bool"
        }
      ],
      "stateMutability": "view",
      "type": "function"
    },
    {
      "inputs": [],
      "name": "symbol",
      "outputs": [
        {
          "internalType": "string",
          "name": "",
          "type": "string"
        }
      ],
      "stateMutability": "view",
      "type": "function"
    },
    {
      "inputs": [
        {
          "internalType": "uint256",
          "name": "",
          "type": "uint256"
        }
      ],
      "name": "tokenToCover",
      "outputs": [
        {
          "internalType": "uint256",
          "name": "",
          "type": "uint256"
        }
      ],
      "stateMutability": "view",
      "type": "function"
    },
    {
      "inputs": [
        {
          "internalType": "uint256",
          "name": "tokenId",
          "type": "uint256"
        }
      ],
      "name": "tokenURI",
      "outputs": [
        {
          "internalType": "string",
          "name": "",
          "type": "string"
        }
      ],
      "stateMutability": "view",
      "type": "function"
    },
    {
      "inputs": [
        {
          "internalType": "address",
          "name": "from",
          "type": "address"
        },
        {
          "internalType": "address",
          "name": "to",
          "type": "address"
        },
        {
          "internalType": "uint256",
          "name": "tokenId",
          "type": "uint256"
        }
      ],
      "name": "transferFrom",
      "outputs": [],
      "stateMutability": "nonpayable",
      "type": "function"
    },
    {
      "inputs": [
        {
          "internalType": "uint256",
          "name": "_id",
          "type": "uint256"
        },
        {
          "internalType": "string",
          "name": "_title",
          "type": "string"
        },
        {
          "internalType": "string",
          "name": "_description",
          "type": "string"
        }
      ],
      "name": "updateCover",
      "outputs": [
        {
          "internalType": "uint256",
          "name": "",
          "type": "uint256"
        }
      ],
      "stateMutability": "nonpayable",
      "type": "function"
    }
  ],
  "bytecode": "0x60806040526001600b553480156200001657600080fd5b5060405162004bb738038062004bb783398181016040528101906200003c9190620001b6565b818181600090805190602001906200005692919062000094565b5080600190805190602001906200006f92919062000094565b50505082600790805190602001906200008a92919062000094565b50505050620003c7565b828054620000a290620002ec565b90600052602060002090601f016020900481019282620000c6576000855562000112565b82601f10620000e157805160ff191683800117855562000112565b8280016001018555821562000112579182015b8281111562000111578251825591602001919060010190620000f4565b5b50905062000121919062000125565b5090565b5b808211156200014057600081600090555060010162000126565b5090565b60006200015b620001558462000280565b62000257565b9050828152602081018484840111156200017457600080fd5b62000181848285620002b6565b509392505050565b600082601f8301126200019b57600080fd5b8151620001ad84826020860162000144565b91505092915050565b600080600060608486031215620001cc57600080fd5b600084015167ffffffffffffffff811115620001e757600080fd5b620001f58682870162000189565b935050602084015167ffffffffffffffff8111156200021357600080fd5b620002218682870162000189565b925050604084015167ffffffffffffffff8111156200023f57600080fd5b6200024d8682870162000189565b9150509250925092565b60006200026362000276565b905062000271828262000322565b919050565b6000604051905090565b600067ffffffffffffffff8211156200029e576200029d62000387565b5b620002a982620003b6565b9050602081019050919050565b60005b83811015620002d6578082015181840152602081019050620002b9565b83811115620002e6576000848401525b50505050565b600060028204905060018216806200030557607f821691505b602082108114156200031c576200031b62000358565b5b50919050565b6200032d82620003b6565b810181811067ffffffffffffffff821117156200034f576200034e62000387565b5b80604052505050565b7f4e487b7100000000000000000000000000000000000000000000000000000000600052602260045260246000fd5b7f4e487b7100000000000000000000000000000000000000000000000000000000600052604160045260246000fd5b6000601f19601f8301169050919050565b6147e080620003d76000396000f3fe608060405234801561001057600080fd5b50600436106101735760003560e01c80636352211e116100de578063b88d4fde11610097578063e8a3d48511610071578063e8a3d48514610487578063e985e9c5146104a5578063f58c8e2d146104d5578063fd7b68a21461050557610173565b8063b88d4fde1461040b578063bd3c69f714610427578063c87b56dd1461045757610173565b80636352211e1461032357806364dee2601461035357806370a08231146103835780638150a0bc146103b357806395d89b41146103d1578063a22cb465146103ef57610173565b806342842e0e1161013057806342842e0e1461024c5780634461cd481461026857806353c2fda4146102985780635e58b949146102b657806362299a05146102d45780636299df6c146102f057610173565b806301ffc9a71461017857806306fdde03146101a8578063081812fc146101c6578063095ea7b3146101f657806323b872dd1461021257806336b41afc1461022e575b600080fd5b610192600480360381019061018d919061312e565b610535565b60405161019f9190613a51565b60405180910390f35b6101b0610617565b6040516101bd9190613a6c565b60405180910390f35b6101e060048036038101906101db9190613217565b6106a9565b6040516101ed91906139a6565b60405180910390f35b610210600480360381019061020b91906130f2565b61072e565b005b61022c60048036038101906102279190612fec565b610846565b005b6102366108a6565b6040516102439190613a0d565b60405180910390f35b61026660048036038101906102619190612fec565b610cdb565b005b610282600480360381019061027d9190613240565b610cfb565b60405161028f9190613db4565b60405180910390f35b6102a0610e31565b6040516102ad9190613a2f565b60405180910390f35b6102be611056565b6040516102cb9190613db4565b60405180910390f35b6102ee60048036038101906102e99190613180565b61105c565b005b61030a60048036038101906103059190613217565b61127d565b60405161031a9493929190613a8e565b60405180910390f35b61033d60048036038101906103389190613217565b611465565b60405161034a91906139a6565b60405180910390f35b61036d60048036038101906103689190613217565b611517565b60405161037a9190613d92565b60405180910390f35b61039d60048036038101906103989190612f87565b611763565b6040516103aa9190613db4565b60405180910390f35b6103bb61181b565b6040516103c89190613a0d565b60405180910390f35b6103d9611b33565b6040516103e69190613a6c565b60405180910390f35b610409600480360381019061040491906130b6565b611bc5565b005b6104256004803603810190610420919061303b565b611bdb565b005b610441600480360381019061043c9190613217565b611c3d565b60405161044e9190613db4565b60405180910390f35b610471600480360381019061046c9190613217565b611c55565b60405161047e9190613a6c565b60405180910390f35b61048f611cfc565b60405161049c9190613a6c565b60405180910390f35b6104bf60048036038101906104ba9190612fb0565b611d24565b6040516104cc9190613a51565b60405180910390f35b6104ef60048036038101906104ea9190613217565b611db8565b6040516104fc9190613db4565b60405180910390f35b61051f600480360381019061051a9190613217565b611f44565b60405161052c9190613d92565b60405180910390f35b60007f80ac58cd000000000000000000000000000000000000000000000000000000007bffffffffffffffffffffffffffffffffffffffffffffffffffffffff1916827bffffffffffffffffffffffffffffffffffffffffffffffffffffffff1916148061060057507f5b5e139f000000000000000000000000000000000000000000000000000000007bffffffffffffffffffffffffffffffffffffffffffffffffffffffff1916827bffffffffffffffffffffffffffffffffffffffffffffffffffffffff1916145b80610610575061060f8261217d565b5b9050919050565b606060008054610626906140a2565b80601f0160208091040260200160405190810160405280929190818152602001828054610652906140a2565b801561069f5780601f106106745761010080835404028352916020019161069f565b820191906000526020600020905b81548152906001019060200180831161068257829003601f168201915b5050505050905090565b60006106b4826121e7565b6106f3576040517f08c379a00000000000000000000000000000000000000000000000000000000081526004016106ea90613d12565b60405180910390fd5b6004600083815260200190815260200160002060009054906101000a900473ffffffffffffffffffffffffffffffffffffffff169050919050565b600061073982611465565b90508073ffffffffffffffffffffffffffffffffffffffff168373ffffffffffffffffffffffffffffffffffffffff1614156107aa576040517f08c379a00000000000000000000000000000000000000000000000000000000081526004016107a190613d32565b60405180910390fd5b8073ffffffffffffffffffffffffffffffffffffffff166107c9612253565b73ffffffffffffffffffffffffffffffffffffffff1614806107f857506107f7816107f2612253565b611d24565b5b610837576040517f08c379a000000000000000000000000000000000000000000000000000000000815260040161082e90613c72565b60405180910390fd5b610841838361225b565b505050565b610857610851612253565b82612314565b610896576040517f08c379a000000000000000000000000000000000000000000000000000000000815260040161088d90613d52565b60405180910390fd5b6108a18383836123f2565b505050565b6060600080600090505b600b54811015610946573373ffffffffffffffffffffffffffffffffffffffff166008600083815260200190815260200160002060020160009054906101000a900473ffffffffffffffffffffffffffffffffffffffff1673ffffffffffffffffffffffffffffffffffffffff16141561093357818061092f90614105565b9250505b808061093e90614105565b9150506108b0565b5060008167ffffffffffffffff811115610989577f4e487b7100000000000000000000000000000000000000000000000000000000600052604160045260246000fd5b6040519080825280602002602001820160405280156109c257816020015b6109af612d6d565b8152602001906001900390816109a75790505b509050600080600090505b600b54811015610cd1573373ffffffffffffffffffffffffffffffffffffffff166008600083815260200190815260200160002060020160009054906101000a900473ffffffffffffffffffffffffffffffffffffffff1673ffffffffffffffffffffffffffffffffffffffff161415610cbe5760086000828152602001908152602001600020604051806080016040529081600082018054610a6f906140a2565b80601f0160208091040260200160405190810160405280929190818152602001828054610a9b906140a2565b8015610ae85780601f10610abd57610100808354040283529160200191610ae8565b820191906000526020600020905b815481529060010190602001808311610acb57829003601f168201915b50505050508152602001600182018054610b01906140a2565b80601f0160208091040260200160405190810160405280929190818152602001828054610b2d906140a2565b8015610b7a5780601f10610b4f57610100808354040283529160200191610b7a565b820191906000526020600020905b815481529060010190602001808311610b5d57829003601f168201915b505050505081526020016002820160009054906101000a900473ffffffffffffffffffffffffffffffffffffffff1673ffffffffffffffffffffffffffffffffffffffff1673ffffffffffffffffffffffffffffffffffffffff168152602001600382018054610be9906140a2565b80601f0160208091040260200160405190810160405280929190818152602001828054610c15906140a2565b8015610c625780601f10610c3757610100808354040283529160200191610c62565b820191906000526020600020905b815481529060010190602001808311610c4557829003601f168201915b505050505081525050838381518110610ca4577f4e487b7100000000000000000000000000000000000000000000000000000000600052603260045260246000fd5b60200260200101819052508180610cba90614105565b9250505b8080610cc990614105565b9150506109cd565b5081935050505090565b610cf683838360405180602001604052806000815250611bdb565b505050565b6000833373ffffffffffffffffffffffffffffffffffffffff166008600083815260200190815260200160002060020160009054906101000a900473ffffffffffffffffffffffffffffffffffffffff1673ffffffffffffffffffffffffffffffffffffffff1614610da2576040517f08c379a0000000000000000000000000000000000000000000000000000000008152600401610d9990613b32565b60405180910390fd5b600060086000878152602001908152602001600020905084816000019080519060200190610dd1929190612dab565b5083816001019080519060200190610dea929190612dab565b50857f33f693e3864c85613c751c30c3359f13a47cabf2b193ceb2e5eaf21b97a6718e8686604051610e1d929190613ae8565b60405180910390a285925050509392505050565b60606000600a54905060008060005b83811015610ee7573373ffffffffffffffffffffffffffffffffffffffff16600860006009600085815260200190815260200160002054815260200190815260200160002060020160009054906101000a900473ffffffffffffffffffffffffffffffffffffffff1673ffffffffffffffffffffffffffffffffffffffff161415610ed4578280610ed090614105565b9350505b8080610edf90614105565b915050610e40565b5060008267ffffffffffffffff811115610f2a577f4e487b7100000000000000000000000000000000000000000000000000000000600052604160045260246000fd5b604051908082528060200260200182016040528015610f585781602001602082028036833780820191505090505b50905060005b8481101561104b573373ffffffffffffffffffffffffffffffffffffffff16600860006009600085815260200190815260200160002054815260200190815260200160002060020160009054906101000a900473ffffffffffffffffffffffffffffffffffffffff1673ffffffffffffffffffffffffffffffffffffffff161415611038578082848151811061101d577f4e487b7100000000000000000000000000000000000000000000000000000000600052603260045260246000fd5b602002602001018181525050828061103490614105565b9350505b808061104390614105565b915050610f5e565b508094505050505090565b600b5481565b60008351116110a0576040517f08c379a000000000000000000000000000000000000000000000000000000000815260040161109790613c12565b60405180910390fd5b60008251116110e4576040517f08c379a00000000000000000000000000000000000000000000000000000000081526004016110db90613bb2565b60405180910390fd5b6000815111611128576040517f08c379a000000000000000000000000000000000000000000000000000000000815260040161111f90613d72565b60405180910390fd5b6000600b54905060405180608001604052808581526020018481526020013373ffffffffffffffffffffffffffffffffffffffff16815260200183815250600860008381526020019081526020016000206000820151816000019080519060200190611195929190612dab565b5060208201518160010190805190602001906111b2929190612dab565b5060408201518160020160006101000a81548173ffffffffffffffffffffffffffffffffffffffff021916908373ffffffffffffffffffffffffffffffffffffffff1602179055506060820151816003019080519060200190611216929190612dab565b50905050807fe9597330899c7cb1df48bd231b456a7182209be6a611db0261dd38b86fa6e638858533866040516112509493929190613a8e565b60405180910390a261126181611db8565b50808061126d90614105565b91505080600b8190555050505050565b60086020528060005260406000206000915090508060000180546112a0906140a2565b80601f01602080910402602001604051908101604052809291908181526020018280546112cc906140a2565b80156113195780601f106112ee57610100808354040283529160200191611319565b820191906000526020600020905b8154815290600101906020018083116112fc57829003601f168201915b50505050509080600101805461132e906140a2565b80601f016020809104026020016040519081016040528092919081815260200182805461135a906140a2565b80156113a75780601f1061137c576101008083540402835291602001916113a7565b820191906000526020600020905b81548152906001019060200180831161138a57829003601f168201915b5050505050908060020160009054906101000a900473ffffffffffffffffffffffffffffffffffffffff16908060030180546113e2906140a2565b80601f016020809104026020016040519081016040528092919081815260200182805461140e906140a2565b801561145b5780601f106114305761010080835404028352916020019161145b565b820191906000526020600020905b81548152906001019060200180831161143e57829003601f168201915b5050505050905084565b6000806002600084815260200190815260200160002060009054906101000a900473ffffffffffffffffffffffffffffffffffffffff169050600073ffffffffffffffffffffffffffffffffffffffff168173ffffffffffffffffffffffffffffffffffffffff16141561150e576040517f08c379a000000000000000000000000000000000000000000000000000000000815260040161150590613cb2565b60405180910390fd5b80915050919050565b61151f612d6d565b6008600060096000858152602001908152602001600020548152602001908152602001600020604051806080016040529081600082018054611560906140a2565b80601f016020809104026020016040519081016040528092919081815260200182805461158c906140a2565b80156115d95780601f106115ae576101008083540402835291602001916115d9565b820191906000526020600020905b8154815290600101906020018083116115bc57829003601f168201915b505050505081526020016001820180546115f2906140a2565b80601f016020809104026020016040519081016040528092919081815260200182805461161e906140a2565b801561166b5780601f106116405761010080835404028352916020019161166b565b820191906000526020600020905b81548152906001019060200180831161164e57829003601f168201915b505050505081526020016002820160009054906101000a900473ffffffffffffffffffffffffffffffffffffffff1673ffffffffffffffffffffffffffffffffffffffff1673ffffffffffffffffffffffffffffffffffffffff1681526020016003820180546116da906140a2565b80601f0160208091040260200160405190810160405280929190818152602001828054611706906140a2565b80156117535780601f1061172857610100808354040283529160200191611753565b820191906000526020600020905b81548152906001019060200180831161173657829003601f168201915b5050505050815250509050919050565b60008073ffffffffffffffffffffffffffffffffffffffff168273ffffffffffffffffffffffffffffffffffffffff1614156117d4576040517f08c379a00000000000000000000000000000000000000000000000000000000081526004016117cb90613c92565b60405180910390fd5b600360008373ffffffffffffffffffffffffffffffffffffffff1673ffffffffffffffffffffffffffffffffffffffff168152602001908152602001600020549050919050565b60606000600b5467ffffffffffffffff811115611861577f4e487b7100000000000000000000000000000000000000000000000000000000600052604160045260246000fd5b60405190808252806020026020018201604052801561189a57816020015b611887612d6d565b81526020019060019003908161187f5790505b50905060005b600b54811015611b2b57600860008281526020019081526020016000206040518060800160405290816000820180546118d8906140a2565b80601f0160208091040260200160405190810160405280929190818152602001828054611904906140a2565b80156119515780601f1061192657610100808354040283529160200191611951565b820191906000526020600020905b81548152906001019060200180831161193457829003601f168201915b5050505050815260200160018201805461196a906140a2565b80601f0160208091040260200160405190810160405280929190818152602001828054611996906140a2565b80156119e35780601f106119b8576101008083540402835291602001916119e3565b820191906000526020600020905b8154815290600101906020018083116119c657829003601f168201915b505050505081526020016002820160009054906101000a900473ffffffffffffffffffffffffffffffffffffffff1673ffffffffffffffffffffffffffffffffffffffff1673ffffffffffffffffffffffffffffffffffffffff168152602001600382018054611a52906140a2565b80601f0160208091040260200160405190810160405280929190818152602001828054611a7e906140a2565b8015611acb5780601f10611aa057610100808354040283529160200191611acb565b820191906000526020600020905b815481529060010190602001808311611aae57829003601f168201915b505050505081525050828281518110611b0d577f4e487b7100000000000000000000000000000000000000000000000000000000600052603260045260246000fd5b60200260200101819052508080611b2390614105565b9150506118a0565b508091505090565b606060018054611b42906140a2565b80601f0160208091040260200160405190810160405280929190818152602001828054611b6e906140a2565b8015611bbb5780601f10611b9057610100808354040283529160200191611bbb565b820191906000526020600020905b815481529060010190602001808311611b9e57829003601f168201915b5050505050905090565b611bd7611bd0612253565b8383612659565b5050565b611bec611be6612253565b83612314565b611c2b576040517f08c379a0000000000000000000000000000000000000000000000000000000008152600401611c2290613d52565b60405180910390fd5b611c37848484846127c6565b50505050565b60096020528060005260406000206000915090505481565b60606000600960008481526020019081526020016000205411611cad576040517f08c379a0000000000000000000000000000000000000000000000000000000008152600401611ca490613cf2565b60405180910390fd5b6007611ccb6009600085815260200190815260200160002054612822565b611cd484612822565b604051602001611ce693929190613948565b6040516020818303038152906040529050919050565b60606007604051602001611d109190613984565b604051602081830303815290604052905090565b6000600560008473ffffffffffffffffffffffffffffffffffffffff1673ffffffffffffffffffffffffffffffffffffffff16815260200190815260200160002060008373ffffffffffffffffffffffffffffffffffffffff1673ffffffffffffffffffffffffffffffffffffffff16815260200190815260200160002060009054906101000a900460ff16905092915050565b60003373ffffffffffffffffffffffffffffffffffffffff166008600084815260200190815260200160002060020160009054906101000a900473ffffffffffffffffffffffffffffffffffffffff1673ffffffffffffffffffffffffffffffffffffffff1614611e5e576040517f08c379a0000000000000000000000000000000000000000000000000000000008152600401611e5590613b32565b60405180910390fd5b600060096000848152602001908152602001600020541415611eb5576040517f08c379a0000000000000000000000000000000000000000000000000000000008152600401611eac90613c52565b60405180910390fd5b611ec133600a546129cf565b8160096000600a548152602001908152602001600020819055503373ffffffffffffffffffffffffffffffffffffffff16600a54837f37b90363087f98a5212baa50346e189b80bdc088328e44b8517d2b0b394bf2d360405160405180910390a4600a6000815480929190611f3590614105565b9190505550600a549050919050565b611f4c612d6d565b60086000838152602001908152602001600020604051806080016040529081600082018054611f7a906140a2565b80601f0160208091040260200160405190810160405280929190818152602001828054611fa6906140a2565b8015611ff35780601f10611fc857610100808354040283529160200191611ff3565b820191906000526020600020905b815481529060010190602001808311611fd657829003601f168201915b5050505050815260200160018201805461200c906140a2565b80601f0160208091040260200160405190810160405280929190818152602001828054612038906140a2565b80156120855780601f1061205a57610100808354040283529160200191612085565b820191906000526020600020905b81548152906001019060200180831161206857829003601f168201915b505050505081526020016002820160009054906101000a900473ffffffffffffffffffffffffffffffffffffffff1673ffffffffffffffffffffffffffffffffffffffff1673ffffffffffffffffffffffffffffffffffffffff1681526020016003820180546120f4906140a2565b80601f0160208091040260200160405190810160405280929190818152602001828054612120906140a2565b801561216d5780601f106121425761010080835404028352916020019161216d565b820191906000526020600020905b81548152906001019060200180831161215057829003601f168201915b5050505050815250509050919050565b60007f01ffc9a7000000000000000000000000000000000000000000000000000000007bffffffffffffffffffffffffffffffffffffffffffffffffffffffff1916827bffffffffffffffffffffffffffffffffffffffffffffffffffffffff1916149050919050565b60008073ffffffffffffffffffffffffffffffffffffffff166002600084815260200190815260200160002060009054906101000a900473ffffffffffffffffffffffffffffffffffffffff1673ffffffffffffffffffffffffffffffffffffffff1614159050919050565b600033905090565b816004600083815260200190815260200160002060006101000a81548173ffffffffffffffffffffffffffffffffffffffff021916908373ffffffffffffffffffffffffffffffffffffffff160217905550808273ffffffffffffffffffffffffffffffffffffffff166122ce83611465565b73ffffffffffffffffffffffffffffffffffffffff167f8c5be1e5ebec7d5bd14f71427d1e84f3dd0314c0f7b2291e5b200ac8c7c3b92560405160405180910390a45050565b600061231f826121e7565b61235e576040517f08c379a000000000000000000000000000000000000000000000000000000000815260040161235590613c32565b60405180910390fd5b600061236983611465565b90508073ffffffffffffffffffffffffffffffffffffffff168473ffffffffffffffffffffffffffffffffffffffff1614806123ab57506123aa8185611d24565b5b806123e957508373ffffffffffffffffffffffffffffffffffffffff166123d1846106a9565b73ffffffffffffffffffffffffffffffffffffffff16145b91505092915050565b8273ffffffffffffffffffffffffffffffffffffffff1661241282611465565b73ffffffffffffffffffffffffffffffffffffffff1614612468576040517f08c379a000000000000000000000000000000000000000000000000000000000815260040161245f90613b72565b60405180910390fd5b600073ffffffffffffffffffffffffffffffffffffffff168273ffffffffffffffffffffffffffffffffffffffff1614156124d8576040517f08c379a00000000000000000000000000000000000000000000000000000000081526004016124cf90613bd2565b60405180910390fd5b6124e3838383612ba9565b6124ee60008261225b565b6001600360008573ffffffffffffffffffffffffffffffffffffffff1673ffffffffffffffffffffffffffffffffffffffff168152602001908152602001600020600082825461253e9190613fb8565b925050819055506001600360008473ffffffffffffffffffffffffffffffffffffffff1673ffffffffffffffffffffffffffffffffffffffff16815260200190815260200160002060008282546125959190613f31565b92505081905550816002600083815260200190815260200160002060006101000a81548173ffffffffffffffffffffffffffffffffffffffff021916908373ffffffffffffffffffffffffffffffffffffffff160217905550808273ffffffffffffffffffffffffffffffffffffffff168473ffffffffffffffffffffffffffffffffffffffff167fddf252ad1be2c89b69c2b068fc378daa952ba7f163c4a11628f55a4df523b3ef60405160405180910390a4612654838383612bae565b505050565b8173ffffffffffffffffffffffffffffffffffffffff168373ffffffffffffffffffffffffffffffffffffffff1614156126c8576040517f08c379a00000000000000000000000000000000000000000000000000000000081526004016126bf90613bf2565b60405180910390fd5b80600560008573ffffffffffffffffffffffffffffffffffffffff1673ffffffffffffffffffffffffffffffffffffffff16815260200190815260200160002060008473ffffffffffffffffffffffffffffffffffffffff1673ffffffffffffffffffffffffffffffffffffffff16815260200190815260200160002060006101000a81548160ff0219169083151502179055508173ffffffffffffffffffffffffffffffffffffffff168373ffffffffffffffffffffffffffffffffffffffff167f17307eab39ab6107e8899845ad3d59bd9653f200f220920489ca2b5937696c31836040516127b99190613a51565b60405180910390a3505050565b6127d18484846123f2565b6127dd84848484612bb3565b61281c576040517f08c379a000000000000000000000000000000000000000000000000000000000815260040161281390613b52565b60405180910390fd5b50505050565b6060600082141561286a576040518060400160405280600181526020017f300000000000000000000000000000000000000000000000000000000000000081525090506129ca565b600082905060005b6000821461289c57808061288590614105565b915050600a826128959190613f87565b9150612872565b60008167ffffffffffffffff8111156128de577f4e487b7100000000000000000000000000000000000000000000000000000000600052604160045260246000fd5b6040519080825280601f01601f1916602001820160405280156129105781602001600182028036833780820191505090505b5090505b600085146129c3576001826129299190613fb8565b9150600a85612938919061414e565b60306129449190613f31565b60f81b818381518110612980577f4e487b7100000000000000000000000000000000000000000000000000000000600052603260045260246000fd5b60200101907effffffffffffffffffffffffffffffffffffffffffffffffffffffffffffff1916908160001a905350600a856129bc9190613f87565b9450612914565b8093505050505b919050565b600073ffffffffffffffffffffffffffffffffffffffff168273ffffffffffffffffffffffffffffffffffffffff161415612a3f576040517f08c379a0000000000000000000000000000000000000000000000000000000008152600401612a3690613cd2565b60405180910390fd5b612a48816121e7565b15612a88576040517f08c379a0000000000000000000000000000000000000000000000000000000008152600401612a7f90613b92565b60405180910390fd5b612a9460008383612ba9565b6001600360008473ffffffffffffffffffffffffffffffffffffffff1673ffffffffffffffffffffffffffffffffffffffff1681526020019081526020016000206000828254612ae49190613f31565b92505081905550816002600083815260200190815260200160002060006101000a81548173ffffffffffffffffffffffffffffffffffffffff021916908373ffffffffffffffffffffffffffffffffffffffff160217905550808273ffffffffffffffffffffffffffffffffffffffff16600073ffffffffffffffffffffffffffffffffffffffff167fddf252ad1be2c89b69c2b068fc378daa952ba7f163c4a11628f55a4df523b3ef60405160405180910390a4612ba560008383612bae565b5050565b505050565b505050565b6000612bd48473ffffffffffffffffffffffffffffffffffffffff16612d4a565b15612d3d578373ffffffffffffffffffffffffffffffffffffffff1663150b7a02612bfd612253565b8786866040518563ffffffff1660e01b8152600401612c1f94939291906139c1565b602060405180830381600087803b158015612c3957600080fd5b505af1925050508015612c6a57506040513d601f19601f82011682018060405250810190612c679190613157565b60015b612ced573d8060008114612c9a576040519150601f19603f3d011682016040523d82523d6000602084013e612c9f565b606091505b50600081511415612ce5576040517f08c379a0000000000000000000000000000000000000000000000000000000008152600401612cdc90613b52565b60405180910390fd5b805181602001fd5b63150b7a0260e01b7bffffffffffffffffffffffffffffffffffffffffffffffffffffffff1916817bffffffffffffffffffffffffffffffffffffffffffffffffffffffff191614915050612d42565b600190505b949350505050565b6000808273ffffffffffffffffffffffffffffffffffffffff163b119050919050565b60405180608001604052806060815260200160608152602001600073ffffffffffffffffffffffffffffffffffffffff168152602001606081525090565b828054612db7906140a2565b90600052602060002090601f016020900481019282612dd95760008555612e20565b82601f10612df257805160ff1916838001178555612e20565b82800160010185558215612e20579182015b82811115612e1f578251825591602001919060010190612e04565b5b509050612e2d9190612e31565b5090565b5b80821115612e4a576000816000905550600101612e32565b5090565b6000612e61612e5c84613df4565b613dcf565b905082815260208101848484011115612e7957600080fd5b612e84848285614060565b509392505050565b6000612e9f612e9a84613e25565b613dcf565b905082815260208101848484011115612eb757600080fd5b612ec2848285614060565b509392505050565b600081359050612ed98161474e565b92915050565b600081359050612eee81614765565b92915050565b600081359050612f038161477c565b92915050565b600081519050612f188161477c565b92915050565b600082601f830112612f2f57600080fd5b8135612f3f848260208601612e4e565b91505092915050565b600082601f830112612f5957600080fd5b8135612f69848260208601612e8c565b91505092915050565b600081359050612f8181614793565b92915050565b600060208284031215612f9957600080fd5b6000612fa784828501612eca565b91505092915050565b60008060408385031215612fc357600080fd5b6000612fd185828601612eca565b9250506020612fe285828601612eca565b9150509250929050565b60008060006060848603121561300157600080fd5b600061300f86828701612eca565b935050602061302086828701612eca565b925050604061303186828701612f72565b9150509250925092565b6000806000806080858703121561305157600080fd5b600061305f87828801612eca565b945050602061307087828801612eca565b935050604061308187828801612f72565b925050606085013567ffffffffffffffff81111561309e57600080fd5b6130aa87828801612f1e565b91505092959194509250565b600080604083850312156130c957600080fd5b60006130d785828601612eca565b92505060206130e885828601612edf565b9150509250929050565b6000806040838503121561310557600080fd5b600061311385828601612eca565b925050602061312485828601612f72565b9150509250929050565b60006020828403121561314057600080fd5b600061314e84828501612ef4565b91505092915050565b60006020828403121561316957600080fd5b600061317784828501612f09565b91505092915050565b60008060006060848603121561319557600080fd5b600084013567ffffffffffffffff8111156131af57600080fd5b6131bb86828701612f48565b935050602084013567ffffffffffffffff8111156131d857600080fd5b6131e486828701612f48565b925050604084013567ffffffffffffffff81111561320157600080fd5b61320d86828701612f48565b9150509250925092565b60006020828403121561322957600080fd5b600061323784828501612f72565b91505092915050565b60008060006060848603121561325557600080fd5b600061326386828701612f72565b935050602084013567ffffffffffffffff81111561328057600080fd5b61328c86828701612f48565b925050604084013567ffffffffffffffff8111156132a957600080fd5b6132b586828701612f48565b9150509250925092565b60006132cb8383613848565b905092915050565b60006132df838361392a565b60208301905092915050565b6132f481613fec565b82525050565b61330381613fec565b82525050565b600061331482613e8b565b61331e8185613ed1565b93508360208202850161333085613e56565b8060005b8581101561336c578484038952815161334d85826132bf565b945061335883613eb7565b925060208a01995050600181019050613334565b50829750879550505050505092915050565b600061338982613e96565b6133938185613ee2565b935061339e83613e66565b8060005b838110156133cf5781516133b688826132d3565b97506133c183613ec4565b9250506001810190506133a2565b5085935050505092915050565b6133e581613ffe565b82525050565b60006133f682613ea1565b6134008185613ef3565b935061341081856020860161406f565b6134198161423b565b840191505092915050565b600061342f82613eac565b6134398185613f04565b935061344981856020860161406f565b6134528161423b565b840191505092915050565b600061346882613eac565b6134728185613f15565b935061348281856020860161406f565b61348b8161423b565b840191505092915050565b60006134a182613eac565b6134ab8185613f26565b93506134bb81856020860161406f565b80840191505092915050565b600081546134d4816140a2565b6134de8186613f26565b945060018216600081146134f9576001811461350a5761353d565b60ff1983168652818601935061353d565b61351385613e76565b60005b8381101561353557815481890152600182019150602081019050613516565b838801955050505b50505092915050565b6000613553601783613f15565b915061355e8261424c565b602082019050919050565b6000613576603283613f15565b915061358182614275565b604082019050919050565b6000613599602583613f15565b91506135a4826142c4565b604082019050919050565b60006135bc601c83613f15565b91506135c782614313565b602082019050919050565b60006135df601d83613f15565b91506135ea8261433c565b602082019050919050565b6000613602602483613f15565b915061360d82614365565b604082019050919050565b6000613625601983613f15565b9150613630826143b4565b602082019050919050565b6000613648601783613f15565b9150613653826143dd565b602082019050919050565b600061366b602c83613f15565b915061367682614406565b604082019050919050565b600061368e601983613f15565b915061369982614455565b602082019050919050565b60006136b1603883613f15565b91506136bc8261447e565b604082019050919050565b60006136d4602a83613f15565b91506136df826144cd565b604082019050919050565b60006136f7602983613f15565b91506137028261451c565b604082019050919050565b600061371a600883613f26565b91506137258261456b565b600882019050919050565b600061373d602083613f15565b915061374882614594565b602082019050919050565b6000613760601b83613f15565b915061376b826145bd565b602082019050919050565b6000613783602c83613f15565b915061378e826145e6565b604082019050919050565b60006137a6600683613f15565b91506137b182614635565b602082019050919050565b60006137c9602183613f15565b91506137d48261465e565b604082019050919050565b60006137ec603183613f15565b91506137f7826146ad565b604082019050919050565b600061380f601883613f15565b915061381a826146fc565b602082019050919050565b6000613832600183613f26565b915061383d82614725565b600182019050919050565b600060808301600083015184820360008601526138658282613424565b9150506020830151848203602086015261387f8282613424565b915050604083015161389460408601826132eb565b50606083015184820360608601526138ac8282613424565b9150508091505092915050565b600060808301600083015184820360008601526138d68282613424565b915050602083015184820360208601526138f08282613424565b915050604083015161390560408601826132eb565b506060830151848203606086015261391d8282613424565b9150508091505092915050565b61393381614056565b82525050565b61394281614056565b82525050565b600061395482866134c7565b91506139608285613496565b915061396b82613825565b91506139778284613496565b9150819050949350505050565b600061399082846134c7565b915061399b8261370d565b915081905092915050565b60006020820190506139bb60008301846132fa565b92915050565b60006080820190506139d660008301876132fa565b6139e360208301866132fa565b6139f06040830185613939565b8181036060830152613a0281846133eb565b905095945050505050565b60006020820190508181036000830152613a278184613309565b905092915050565b60006020820190508181036000830152613a49818461337e565b905092915050565b6000602082019050613a6660008301846133dc565b92915050565b60006020820190508181036000830152613a86818461345d565b905092915050565b60006080820190508181036000830152613aa8818761345d565b90508181036020830152613abc818661345d565b9050613acb60408301856132fa565b8181036060830152613add818461345d565b905095945050505050565b60006060820190508181036000830152613b02818561345d565b90508181036020830152613b16818461345d565b90508181036040830152613b2981613799565b90509392505050565b60006020820190508181036000830152613b4b81613546565b9050919050565b60006020820190508181036000830152613b6b81613569565b9050919050565b60006020820190508181036000830152613b8b8161358c565b9050919050565b60006020820190508181036000830152613bab816135af565b9050919050565b60006020820190508181036000830152613bcb816135d2565b9050919050565b60006020820190508181036000830152613beb816135f5565b9050919050565b60006020820190508181036000830152613c0b81613618565b9050919050565b60006020820190508181036000830152613c2b8161363b565b9050919050565b60006020820190508181036000830152613c4b8161365e565b9050919050565b60006020820190508181036000830152613c6b81613681565b9050919050565b60006020820190508181036000830152613c8b816136a4565b9050919050565b60006020820190508181036000830152613cab816136c7565b9050919050565b60006020820190508181036000830152613ccb816136ea565b9050919050565b60006020820190508181036000830152613ceb81613730565b9050919050565b60006020820190508181036000830152613d0b81613753565b9050919050565b60006020820190508181036000830152613d2b81613776565b9050919050565b60006020820190508181036000830152613d4b816137bc565b9050919050565b60006020820190508181036000830152613d6b816137df565b9050919050565b60006020820190508181036000830152613d8b81613802565b9050919050565b60006020820190508181036000830152613dac81846138b9565b905092915050565b6000602082019050613dc96000830184613939565b92915050565b6000613dd9613dea565b9050613de582826140d4565b919050565b6000604051905090565b600067ffffffffffffffff821115613e0f57613e0e61420c565b5b613e188261423b565b9050602081019050919050565b600067ffffffffffffffff821115613e4057613e3f61420c565b5b613e498261423b565b9050602081019050919050565b6000819050602082019050919050565b6000819050602082019050919050565b60008190508160005260206000209050919050565b600081519050919050565b600081519050919050565b600081519050919050565b600081519050919050565b6000602082019050919050565b6000602082019050919050565b600082825260208201905092915050565b600082825260208201905092915050565b600082825260208201905092915050565b600082825260208201905092915050565b600082825260208201905092915050565b600081905092915050565b6000613f3c82614056565b9150613f4783614056565b9250827fffffffffffffffffffffffffffffffffffffffffffffffffffffffffffffffff03821115613f7c57613f7b61417f565b5b828201905092915050565b6000613f9282614056565b9150613f9d83614056565b925082613fad57613fac6141ae565b5b828204905092915050565b6000613fc382614056565b9150613fce83614056565b925082821015613fe157613fe061417f565b5b828203905092915050565b6000613ff782614036565b9050919050565b60008115159050919050565b60007fffffffff0000000000000000000000000000000000000000000000000000000082169050919050565b600073ffffffffffffffffffffffffffffffffffffffff82169050919050565b6000819050919050565b82818337600083830152505050565b60005b8381101561408d578082015181840152602081019050614072565b8381111561409c576000848401525b50505050565b600060028204905060018216806140ba57607f821691505b602082108114156140ce576140cd6141dd565b5b50919050565b6140dd8261423b565b810181811067ffffffffffffffff821117156140fc576140fb61420c565b5b80604052505050565b600061411082614056565b91507fffffffffffffffffffffffffffffffffffffffffffffffffffffffffffffffff8214156141435761414261417f565b5b600182019050919050565b600061415982614056565b915061416483614056565b925082614174576141736141ae565b5b828206905092915050565b7f4e487b7100000000000000000000000000000000000000000000000000000000600052601160045260246000fd5b7f4e487b7100000000000000000000000000000000000000000000000000000000600052601260045260246000fd5b7f4e487b7100000000000000000000000000000000000000000000000000000000600052602260045260246000fd5b7f4e487b7100000000000000000000000000000000000000000000000000000000600052604160045260246000fd5b6000601f19601f8301169050919050565b7f43616c6c6572206973206e6f7420746865206f776e6572000000000000000000600082015250565b7f4552433732313a207472616e7366657220746f206e6f6e20455243373231526560008201527f63656976657220696d706c656d656e7465720000000000000000000000000000602082015250565b7f4552433732313a207472616e736665722066726f6d20696e636f72726563742060008201527f6f776e6572000000000000000000000000000000000000000000000000000000602082015250565b7f4552433732313a20746f6b656e20616c7265616479206d696e74656400000000600082015250565b7f4465736372697074696f6e206d757374206265206e6f6e2d656d707479000000600082015250565b7f4552433732313a207472616e7366657220746f20746865207a65726f2061646460008201527f7265737300000000000000000000000000000000000000000000000000000000602082015250565b7f4552433732313a20617070726f766520746f2063616c6c657200000000000000600082015250565b7f5469746c65206d757374206265206e6f6e2d656d707479000000000000000000600082015250565b7f4552433732313a206f70657261746f7220717565727920666f72206e6f6e657860008201527f697374656e7420746f6b656e0000000000000000000000000000000000000000602082015250565b7f436f76657220616c726561647920686173206120746f6b656e00000000000000600082015250565b7f4552433732313a20617070726f76652063616c6c6572206973206e6f74206f7760008201527f6e6572206e6f7220617070726f76656420666f7220616c6c0000000000000000602082015250565b7f4552433732313a2062616c616e636520717565727920666f7220746865207a6560008201527f726f206164647265737300000000000000000000000000000000000000000000602082015250565b7f4552433732313a206f776e657220717565727920666f72206e6f6e657869737460008201527f656e7420746f6b656e0000000000000000000000000000000000000000000000602082015250565b7f6d65746164617461000000000000000000000000000000000000000000000000600082015250565b7f4552433732313a206d696e7420746f20746865207a65726f2061646472657373600082015250565b7f546f6b656e20686173206e6f74206265656e20736f6c64207965740000000000600082015250565b7f4552433732313a20617070726f76656420717565727920666f72206e6f6e657860008201527f697374656e7420746f6b656e0000000000000000000000000000000000000000602082015250565b7f6163746976650000000000000000000000000000000000000000000000000000600082015250565b7f4552433732313a20617070726f76616c20746f2063757272656e74206f776e6560008201527f7200000000000000000000000000000000000000000000000000000000000000602082015250565b7f4552433732313a207472616e736665722063616c6c6572206973206e6f74206f60008201527f776e6572206e6f7220617070726f766564000000000000000000000000000000602082015250565b7f537461747573206d757374206265206e6f6e2d656d7074790000000000000000600082015250565b7f2f00000000000000000000000000000000000000000000000000000000000000600082015250565b61475781613fec565b811461476257600080fd5b50565b61476e81613ffe565b811461477957600080fd5b50565b6147858161400a565b811461479057600080fd5b50565b61479c81614056565b81146147a757600080fd5b5056fea26469706673582212204b260e17fce52567aecfa340a66c42d2071a9d233024c01ed5ff648957f23c7d64736f6c63430008040033",
  "linkReferences": {},
  "deployedLinkReferences": {}
}