{
  "_format": "hh-sol-artifact-1",
  "contractName": "NewCopyright",
  "sourceName": "contracts/NewCopyright.sol",
  "abi": [
    {
      "inputs": [
        {
          "internalType": "string",
          "name": "baseURI_",
          "type": "string"
        },
        {
          "internalType": "string",
          "name": "_name",
          "type": "string"
        },
        {
          "internalType": "string",
          "name": "_symbol",
          "type": "string"
        }
      ],
      "stateMutability": "nonpayable",
      "type": "constructor"
    },
    {
      "anonymous": false,
      "inputs": [
        {
          "indexed": true,
          "internalType": "address",
          "name": "owner",
          "type": "address"
        },
        {
          "indexed": true,
          "internalType": "address",
          "name": "approved",
          "type": "address"
        },
        {
          "indexed": true,
          "internalType": "uint256",
          "name": "tokenId",
          "type": "uint256"
        }
      ],
      "name": "Approval",
      "type": "event"
    },
    {
      "anonymous": false,
      "inputs": [
        {
          "indexed": true,
          "internalType": "address",
          "name": "owner",
          "type": "address"
        },
        {
          "indexed": true,
          "internalType": "address",
          "name": "operator",
          "type": "address"
        },
        {
          "indexed": false,
          "internalType": "bool",
          "name": "approved",
          "type": "bool"
        }
      ],
      "name": "ApprovalForAll",
      "type": "event"
    },
    {
      "anonymous": false,
      "inputs": [
        {
          "indexed": false,
          "internalType": "string",
          "name": "title",
          "type": "string"
        },
        {
          "indexed": false,
          "internalType": "string",
          "name": "description",
          "type": "string"
        },
        {
          "indexed": false,
          "internalType": "address",
          "name": "owner",
          "type": "address"
        },
        {
          "indexed": false,
          "internalType": "string",
          "name": "status",
          "type": "string"
        },
        {
          "indexed": true,
          "internalType": "uint256",
          "name": "CoverId",
          "type": "uint256"
        }
      ],
      "name": "CoverCreation",
      "type": "event"
    },
    {
      "anonymous": false,
      "inputs": [
        {
          "indexed": true,
          "internalType": "uint256",
          "name": "CoverId",
          "type": "uint256"
        },
        {
          "indexed": true,
          "internalType": "uint256",
          "name": "tokenId",
          "type": "uint256"
        },
        {
          "indexed": true,
          "internalType": "address",
          "name": "author",
          "type": "address"
        }
      ],
      "name": "CoverMint",
      "type": "event"
    },
    {
      "anonymous": false,
      "inputs": [
        {
          "indexed": true,
          "internalType": "uint256",
          "name": "CoverId",
          "type": "uint256"
        },
        {
          "indexed": false,
          "internalType": "string",
          "name": "title",
          "type": "string"
        },
        {
          "indexed": false,
          "internalType": "string",
          "name": "description",
          "type": "string"
        },
        {
          "indexed": false,
          "internalType": "string",
          "name": "status",
          "type": "string"
        }
      ],
      "name": "CoverUpdate",
      "type": "event"
    },
    {
      "anonymous": false,
      "inputs": [
        {
          "indexed": true,
          "internalType": "address",
          "name": "from",
          "type": "address"
        },
        {
          "indexed": true,
          "internalType": "address",
          "name": "to",
          "type": "address"
        },
        {
          "indexed": true,
          "internalType": "uint256",
          "name": "tokenId",
          "type": "uint256"
        }
      ],
      "name": "Transfer",
      "type": "event"
    },
    {
      "inputs": [
        {
          "internalType": "address",
          "name": "to",
          "type": "address"
        },
        {
          "internalType": "uint256",
          "name": "tokenId",
          "type": "uint256"
        }
      ],
      "name": "approve",
      "outputs": [],
      "stateMutability": "nonpayable",
      "type": "function"
    },
    {
      "inputs": [
        {
          "internalType": "address",
          "name": "owner",
          "type": "address"
        }
      ],
      "name": "balanceOf",
      "outputs": [
        {
          "internalType": "uint256",
          "name": "",
          "type": "uint256"
        }
      ],
      "stateMutability": "view",
      "type": "function"
    },
    {
      "inputs": [],
      "name": "contractURI",
      "outputs": [
        {
          "internalType": "string",
          "name": "",
          "type": "string"
        }
      ],
      "stateMutability": "view",
      "type": "function"
    },
    {
      "inputs": [
        {
          "internalType": "uint256",
          "name": "",
          "type": "uint256"
        }
      ],
      "name": "covers",
      "outputs": [
        {
          "internalType": "string",
          "name": "title",
          "type": "string"
        },
        {
          "internalType": "string",
          "name": "description",
          "type": "string"
        },
        {
          "internalType": "address",
          "name": "owner",
          "type": "address"
        },
        {
          "internalType": "string",
          "name": "status",
          "type": "string"
        }
      ],
      "stateMutability": "view",
      "type": "function"
    },
    {
      "inputs": [
        {
          "internalType": "string",
          "name": "_title",
          "type": "string"
        },
        {
          "internalType": "string",
          "name": "_description",
          "type": "string"
        },
        {
          "internalType": "string",
          "name": "_status",
          "type": "string"
        }
      ],
      "name": "createCopyright",
      "outputs": [],
      "stateMutability": "nonpayable",
      "type": "function"
    },
    {
      "inputs": [
        {
          "internalType": "uint256",
          "name": "tokenId",
          "type": "uint256"
        }
      ],
      "name": "getApproved",
      "outputs": [
        {
          "internalType": "address",
          "name": "",
          "type": "address"
        }
      ],
      "stateMutability": "view",
      "type": "function"
    },
    {
      "inputs": [
        {
          "internalType": "address",
          "name": "owner",
          "type": "address"
        },
        {
          "internalType": "address",
          "name": "operator",
          "type": "address"
        }
      ],
      "name": "isApprovedForAll",
      "outputs": [
        {
          "internalType": "bool",
          "name": "",
          "type": "bool"
        }
      ],
      "stateMutability": "view",
      "type": "function"
    },
    {
      "inputs": [
        {
          "internalType": "uint256",
          "name": "coverId",
          "type": "uint256"
        }
      ],
      "name": "mintCopyright",
      "outputs": [
        {
          "internalType": "uint256",
          "name": "",
          "type": "uint256"
        }
      ],
      "stateMutability": "nonpayable",
      "type": "function"
    },
    {
      "inputs": [],
      "name": "name",
      "outputs": [
        {
          "internalType": "string",
          "name": "",
          "type": "string"
        }
      ],
      "stateMutability": "view",
      "type": "function"
    },
    {
      "inputs": [
        {
          "internalType": "uint256",
          "name": "tokenId",
          "type": "uint256"
        }
      ],
      "name": "ownerOf",
      "outputs": [
        {
          "internalType": "address",
          "name": "",
          "type": "address"
        }
      ],
      "stateMutability": "view",
      "type": "function"
    },
    {
      "inputs": [
        {
          "internalType": "address",
          "name": "from",
          "type": "address"
        },
        {
          "internalType": "address",
          "name": "to",
          "type": "address"
        },
        {
          "internalType": "uint256",
          "name": "tokenId",
          "type": "uint256"
        }
      ],
      "name": "safeTransferFrom",
      "outputs": [],
      "stateMutability": "nonpayable",
      "type": "function"
    },
    {
      "inputs": [
        {
          "internalType": "address",
          "name": "from",
          "type": "address"
        },
        {
          "internalType": "address",
          "name": "to",
          "type": "address"
        },
        {
          "internalType": "uint256",
          "name": "tokenId",
          "type": "uint256"
        },
        {
          "internalType": "bytes",
          "name": "_data",
          "type": "bytes"
        }
      ],
      "name": "safeTransferFrom",
      "outputs": [],
      "stateMutability": "nonpayable",
      "type": "function"
    },
    {
      "inputs": [
        {
          "internalType": "address",
          "name": "operator",
          "type": "address"
        },
        {
          "internalType": "bool",
          "name": "approved",
          "type": "bool"
        }
      ],
      "name": "setApprovalForAll",
      "outputs": [],
      "stateMutability": "nonpayable",
      "type": "function"
    },
    {
      "inputs": [
        {
          "internalType": "bytes4",
          "name": "interfaceId",
          "type": "bytes4"
        }
      ],
      "name": "supportsInterface",
      "outputs": [
        {
          "internalType": "bool",
          "name": "",
          "type": "bool"
        }
      ],
      "stateMutability": "view",
      "type": "function"
    },
    {
      "inputs": [],
      "name": "symbol",
      "outputs": [
        {
          "internalType": "string",
          "name": "",
          "type": "string"
        }
      ],
      "stateMutability": "view",
      "type": "function"
    },
    {
      "inputs": [
        {
          "internalType": "uint256",
          "name": "",
          "type": "uint256"
        }
      ],
      "name": "tokenToCover",
      "outputs": [
        {
          "internalType": "uint256",
          "name": "",
          "type": "uint256"
        }
      ],
      "stateMutability": "view",
      "type": "function"
    },
    {
      "inputs": [
        {
          "internalType": "uint256",
          "name": "tokenId",
          "type": "uint256"
        }
      ],
      "name": "tokenURI",
      "outputs": [
        {
          "internalType": "string",
          "name": "",
          "type": "string"
        }
      ],
      "stateMutability": "view",
      "type": "function"
    },
    {
      "inputs": [
        {
          "internalType": "address",
          "name": "from",
          "type": "address"
        },
        {
          "internalType": "address",
          "name": "to",
          "type": "address"
        },
        {
          "internalType": "uint256",
          "name": "tokenId",
          "type": "uint256"
        }
      ],
      "name": "transferFrom",
      "outputs": [],
      "stateMutability": "nonpayable",
      "type": "function"
    },
    {
      "inputs": [
        {
          "internalType": "uint256",
          "name": "_id",
          "type": "uint256"
        },
        {
          "internalType": "string",
          "name": "_title",
          "type": "string"
        },
        {
          "internalType": "string",
          "name": "_description",
          "type": "string"
        }
      ],
      "name": "updateCover",
      "outputs": [
        {
          "internalType": "uint256",
          "name": "",
          "type": "uint256"
        }
      ],
      "stateMutability": "nonpayable",
      "type": "function"
    }
  ],
  "bytecode": "0x60806040526001600a553480156200001657600080fd5b50604051620036883803806200368883398181016040528101906200003c9190620001b6565b818181600090805190602001906200005692919062000094565b5080600190805190602001906200006f92919062000094565b50505082600690805190602001906200008a92919062000094565b50505050620003c7565b828054620000a290620002ec565b90600052602060002090601f016020900481019282620000c6576000855562000112565b82601f10620000e157805160ff191683800117855562000112565b8280016001018555821562000112579182015b8281111562000111578251825591602001919060010190620000f4565b5b50905062000121919062000125565b5090565b5b808211156200014057600081600090555060010162000126565b5090565b60006200015b620001558462000280565b62000257565b9050828152602081018484840111156200017457600080fd5b62000181848285620002b6565b509392505050565b600082601f8301126200019b57600080fd5b8151620001ad84826020860162000144565b91505092915050565b600080600060608486031215620001cc57600080fd5b600084015167ffffffffffffffff811115620001e757600080fd5b620001f58682870162000189565b935050602084015167ffffffffffffffff8111156200021357600080fd5b620002218682870162000189565b925050604084015167ffffffffffffffff8111156200023f57600080fd5b6200024d8682870162000189565b9150509250925092565b60006200026362000276565b905062000271828262000322565b919050565b6000604051905090565b600067ffffffffffffffff8211156200029e576200029d62000387565b5b620002a982620003b6565b9050602081019050919050565b60005b83811015620002d6578082015181840152602081019050620002b9565b83811115620002e6576000848401525b50505050565b600060028204905060018216806200030557607f821691505b602082108114156200031c576200031b62000358565b5b50919050565b6200032d82620003b6565b810181811067ffffffffffffffff821117156200034f576200034e62000387565b5b80604052505050565b7f4e487b7100000000000000000000000000000000000000000000000000000000600052602260045260246000fd5b7f4e487b7100000000000000000000000000000000000000000000000000000000600052604160045260246000fd5b6000601f19601f8301169050919050565b6132b180620003d76000396000f3fe608060405234801561001057600080fd5b50600436106101215760003560e01c80636352211e116100ad578063bd3c69f711610071578063bd3c69f71461032d578063c87b56dd1461035d578063e8a3d4851461038d578063e985e9c5146103ab578063f58c8e2d146103db57610121565b80636352211e1461027757806370a08231146102a757806395d89b41146102d7578063a22cb465146102f5578063b88d4fde1461031157610121565b806323b872dd116100f457806323b872dd146101c057806342842e0e146101dc5780634461cd48146101f857806362299a05146102285780636299df6c1461024457610121565b806301ffc9a71461012657806306fdde0314610156578063081812fc14610174578063095ea7b3146101a4575b600080fd5b610140600480360381019061013b9190612064565b61040b565b60405161014d91906126a2565b60405180910390f35b61015e6104ed565b60405161016b91906126bd565b60405180910390f35b61018e6004803603810190610189919061214d565b61057f565b60405161019b919061263b565b60405180910390f35b6101be60048036038101906101b99190612028565b610604565b005b6101da60048036038101906101d59190611f22565b61071c565b005b6101f660048036038101906101f19190611f22565b61077c565b005b610212600480360381019061020d9190612176565b61079c565b60405161021f9190612983565b60405180910390f35b610242600480360381019061023d91906120b6565b6108d2565b005b61025e6004803603810190610259919061214d565b610a25565b60405161026e94939291906126df565b60405180910390f35b610291600480360381019061028c919061214d565b610c0d565b60405161029e919061263b565b60405180910390f35b6102c160048036038101906102bc9190611ebd565b610cbf565b6040516102ce9190612983565b60405180910390f35b6102df610d77565b6040516102ec91906126bd565b60405180910390f35b61030f600480360381019061030a9190611fec565b610e09565b005b61032b60048036038101906103269190611f71565b610e1f565b005b6103476004803603810190610342919061214d565b610e81565b6040516103549190612983565b60405180910390f35b6103776004803603810190610372919061214d565b610e99565b60405161038491906126bd565b60405180910390f35b610395610f40565b6040516103a291906126bd565b60405180910390f35b6103c560048036038101906103c09190611ee6565b610f68565b6040516103d291906126a2565b60405180910390f35b6103f560048036038101906103f0919061214d565b610ffc565b6040516104029190612983565b60405180910390f35b60007f80ac58cd000000000000000000000000000000000000000000000000000000007bffffffffffffffffffffffffffffffffffffffffffffffffffffffff1916827bffffffffffffffffffffffffffffffffffffffffffffffffffffffff191614806104d657507f5b5e139f000000000000000000000000000000000000000000000000000000007bffffffffffffffffffffffffffffffffffffffffffffffffffffffff1916827bffffffffffffffffffffffffffffffffffffffffffffffffffffffff1916145b806104e657506104e5826110f1565b5b9050919050565b6060600080546104fc90612bee565b80601f016020809104026020016040519081016040528092919081815260200182805461052890612bee565b80156105755780601f1061054a57610100808354040283529160200191610575565b820191906000526020600020905b81548152906001019060200180831161055857829003601f168201915b5050505050905090565b600061058a8261115b565b6105c9576040517f08c379a00000000000000000000000000000000000000000000000000000000081526004016105c090612903565b60405180910390fd5b6004600083815260200190815260200160002060009054906101000a900473ffffffffffffffffffffffffffffffffffffffff169050919050565b600061060f82610c0d565b90508073ffffffffffffffffffffffffffffffffffffffff168373ffffffffffffffffffffffffffffffffffffffff161415610680576040517f08c379a000000000000000000000000000000000000000000000000000000000815260040161067790612923565b60405180910390fd5b8073ffffffffffffffffffffffffffffffffffffffff1661069f6111c7565b73ffffffffffffffffffffffffffffffffffffffff1614806106ce57506106cd816106c86111c7565b610f68565b5b61070d576040517f08c379a000000000000000000000000000000000000000000000000000000000815260040161070490612863565b60405180910390fd5b61071783836111cf565b505050565b61072d6107276111c7565b82611288565b61076c576040517f08c379a000000000000000000000000000000000000000000000000000000000815260040161076390612943565b60405180910390fd5b610777838383611366565b505050565b61079783838360405180602001604052806000815250610e1f565b505050565b6000833373ffffffffffffffffffffffffffffffffffffffff166007600083815260200190815260200160002060020160009054906101000a900473ffffffffffffffffffffffffffffffffffffffff1673ffffffffffffffffffffffffffffffffffffffff1614610843576040517f08c379a000000000000000000000000000000000000000000000000000000000815260040161083a90612783565b60405180910390fd5b600060076000878152602001908152602001600020905084816000019080519060200190610872929190611ce1565b508381600101908051906020019061088b929190611ce1565b50857f33f693e3864c85613c751c30c3359f13a47cabf2b193ceb2e5eaf21b97a6718e86866040516108be929190612739565b60405180910390a285925050509392505050565b6000600a54905060405180608001604052808581526020018481526020013373ffffffffffffffffffffffffffffffffffffffff1681526020018381525060076000838152602001908152602001600020600082015181600001908051906020019061093f929190611ce1565b50602082015181600101908051906020019061095c929190611ce1565b5060408201518160020160006101000a81548173ffffffffffffffffffffffffffffffffffffffff021916908373ffffffffffffffffffffffffffffffffffffffff16021790555060608201518160030190805190602001906109c0929190611ce1565b50905050807fe9597330899c7cb1df48bd231b456a7182209be6a611db0261dd38b86fa6e638858533866040516109fa94939291906126df565b60405180910390a2610a178180610a1090612c51565b9250610ffc565b5080600a8190555050505050565b6007602052806000526040600020600091509050806000018054610a4890612bee565b80601f0160208091040260200160405190810160405280929190818152602001828054610a7490612bee565b8015610ac15780601f10610a9657610100808354040283529160200191610ac1565b820191906000526020600020905b815481529060010190602001808311610aa457829003601f168201915b505050505090806001018054610ad690612bee565b80601f0160208091040260200160405190810160405280929190818152602001828054610b0290612bee565b8015610b4f5780601f10610b2457610100808354040283529160200191610b4f565b820191906000526020600020905b815481529060010190602001808311610b3257829003601f168201915b5050505050908060020160009054906101000a900473ffffffffffffffffffffffffffffffffffffffff1690806003018054610b8a90612bee565b80601f0160208091040260200160405190810160405280929190818152602001828054610bb690612bee565b8015610c035780601f10610bd857610100808354040283529160200191610c03565b820191906000526020600020905b815481529060010190602001808311610be657829003601f168201915b5050505050905084565b6000806002600084815260200190815260200160002060009054906101000a900473ffffffffffffffffffffffffffffffffffffffff169050600073ffffffffffffffffffffffffffffffffffffffff168173ffffffffffffffffffffffffffffffffffffffff161415610cb6576040517f08c379a0000000000000000000000000000000000000000000000000000000008152600401610cad906128a3565b60405180910390fd5b80915050919050565b60008073ffffffffffffffffffffffffffffffffffffffff168273ffffffffffffffffffffffffffffffffffffffff161415610d30576040517f08c379a0000000000000000000000000000000000000000000000000000000008152600401610d2790612883565b60405180910390fd5b600360008373ffffffffffffffffffffffffffffffffffffffff1673ffffffffffffffffffffffffffffffffffffffff168152602001908152602001600020549050919050565b606060018054610d8690612bee565b80601f0160208091040260200160405190810160405280929190818152602001828054610db290612bee565b8015610dff5780601f10610dd457610100808354040283529160200191610dff565b820191906000526020600020905b815481529060010190602001808311610de257829003601f168201915b5050505050905090565b610e1b610e146111c7565b83836115cd565b5050565b610e30610e2a6111c7565b83611288565b610e6f576040517f08c379a0000000000000000000000000000000000000000000000000000000008152600401610e6690612943565b60405180910390fd5b610e7b8484848461173a565b50505050565b60086020528060005260406000206000915090505481565b60606000600860008481526020019081526020016000205411610ef1576040517f08c379a0000000000000000000000000000000000000000000000000000000008152600401610ee8906128e3565b60405180910390fd5b6006610f0f6008600085815260200190815260200160002054611796565b610f1884611796565b604051602001610f2a939291906125dd565b6040516020818303038152906040529050919050565b60606006604051602001610f549190612619565b604051602081830303815290604052905090565b6000600560008473ffffffffffffffffffffffffffffffffffffffff1673ffffffffffffffffffffffffffffffffffffffff16815260200190815260200160002060008373ffffffffffffffffffffffffffffffffffffffff1673ffffffffffffffffffffffffffffffffffffffff16815260200190815260200160002060009054906101000a900460ff16905092915050565b60008060076000848152602001908152602001600020600001805461102090612bee565b905011611062576040517f08c379a000000000000000000000000000000000000000000000000000000000815260040161105990612963565b60405180910390fd5b61106e33600954611943565b81600860006009548152602001908152602001600020819055503373ffffffffffffffffffffffffffffffffffffffff16600954837f37b90363087f98a5212baa50346e189b80bdc088328e44b8517d2b0b394bf2d360405160405180910390a4600960008154809291906110e290612c51565b91905055506009549050919050565b60007f01ffc9a7000000000000000000000000000000000000000000000000000000007bffffffffffffffffffffffffffffffffffffffffffffffffffffffff1916827bffffffffffffffffffffffffffffffffffffffffffffffffffffffff1916149050919050565b60008073ffffffffffffffffffffffffffffffffffffffff166002600084815260200190815260200160002060009054906101000a900473ffffffffffffffffffffffffffffffffffffffff1673ffffffffffffffffffffffffffffffffffffffff1614159050919050565b600033905090565b816004600083815260200190815260200160002060006101000a81548173ffffffffffffffffffffffffffffffffffffffff021916908373ffffffffffffffffffffffffffffffffffffffff160217905550808273ffffffffffffffffffffffffffffffffffffffff1661124283610c0d565b73ffffffffffffffffffffffffffffffffffffffff167f8c5be1e5ebec7d5bd14f71427d1e84f3dd0314c0f7b2291e5b200ac8c7c3b92560405160405180910390a45050565b60006112938261115b565b6112d2576040517f08c379a00000000000000000000000000000000000000000000000000000000081526004016112c990612843565b60405180910390fd5b60006112dd83610c0d565b90508073ffffffffffffffffffffffffffffffffffffffff168473ffffffffffffffffffffffffffffffffffffffff16148061131f575061131e8185610f68565b5b8061135d57508373ffffffffffffffffffffffffffffffffffffffff166113458461057f565b73ffffffffffffffffffffffffffffffffffffffff16145b91505092915050565b8273ffffffffffffffffffffffffffffffffffffffff1661138682610c0d565b73ffffffffffffffffffffffffffffffffffffffff16146113dc576040517f08c379a00000000000000000000000000000000000000000000000000000000081526004016113d3906127c3565b60405180910390fd5b600073ffffffffffffffffffffffffffffffffffffffff168273ffffffffffffffffffffffffffffffffffffffff16141561144c576040517f08c379a000000000000000000000000000000000000000000000000000000000815260040161144390612803565b60405180910390fd5b611457838383611b1d565b6114626000826111cf565b6001600360008573ffffffffffffffffffffffffffffffffffffffff1673ffffffffffffffffffffffffffffffffffffffff16815260200190815260200160002060008282546114b29190612b04565b925050819055506001600360008473ffffffffffffffffffffffffffffffffffffffff1673ffffffffffffffffffffffffffffffffffffffff16815260200190815260200160002060008282546115099190612a7d565b92505081905550816002600083815260200190815260200160002060006101000a81548173ffffffffffffffffffffffffffffffffffffffff021916908373ffffffffffffffffffffffffffffffffffffffff160217905550808273ffffffffffffffffffffffffffffffffffffffff168473ffffffffffffffffffffffffffffffffffffffff167fddf252ad1be2c89b69c2b068fc378daa952ba7f163c4a11628f55a4df523b3ef60405160405180910390a46115c8838383611b22565b505050565b8173ffffffffffffffffffffffffffffffffffffffff168373ffffffffffffffffffffffffffffffffffffffff16141561163c576040517f08c379a000000000000000000000000000000000000000000000000000000000815260040161163390612823565b60405180910390fd5b80600560008573ffffffffffffffffffffffffffffffffffffffff1673ffffffffffffffffffffffffffffffffffffffff16815260200190815260200160002060008473ffffffffffffffffffffffffffffffffffffffff1673ffffffffffffffffffffffffffffffffffffffff16815260200190815260200160002060006101000a81548160ff0219169083151502179055508173ffffffffffffffffffffffffffffffffffffffff168373ffffffffffffffffffffffffffffffffffffffff167f17307eab39ab6107e8899845ad3d59bd9653f200f220920489ca2b5937696c318360405161172d91906126a2565b60405180910390a3505050565b611745848484611366565b61175184848484611b27565b611790576040517f08c379a0000000000000000000000000000000000000000000000000000000008152600401611787906127a3565b60405180910390fd5b50505050565b606060008214156117de576040518060400160405280600181526020017f3000000000000000000000000000000000000000000000000000000000000000815250905061193e565b600082905060005b600082146118105780806117f990612c51565b915050600a826118099190612ad3565b91506117e6565b60008167ffffffffffffffff811115611852577f4e487b7100000000000000000000000000000000000000000000000000000000600052604160045260246000fd5b6040519080825280601f01601f1916602001820160405280156118845781602001600182028036833780820191505090505b5090505b600085146119375760018261189d9190612b04565b9150600a856118ac9190612c9a565b60306118b89190612a7d565b60f81b8183815181106118f4577f4e487b7100000000000000000000000000000000000000000000000000000000600052603260045260246000fd5b60200101907effffffffffffffffffffffffffffffffffffffffffffffffffffffffffffff1916908160001a905350600a856119309190612ad3565b9450611888565b8093505050505b919050565b600073ffffffffffffffffffffffffffffffffffffffff168273ffffffffffffffffffffffffffffffffffffffff1614156119b3576040517f08c379a00000000000000000000000000000000000000000000000000000000081526004016119aa906128c3565b60405180910390fd5b6119bc8161115b565b156119fc576040517f08c379a00000000000000000000000000000000000000000000000000000000081526004016119f3906127e3565b60405180910390fd5b611a0860008383611b1d565b6001600360008473ffffffffffffffffffffffffffffffffffffffff1673ffffffffffffffffffffffffffffffffffffffff1681526020019081526020016000206000828254611a589190612a7d565b92505081905550816002600083815260200190815260200160002060006101000a81548173ffffffffffffffffffffffffffffffffffffffff021916908373ffffffffffffffffffffffffffffffffffffffff160217905550808273ffffffffffffffffffffffffffffffffffffffff16600073ffffffffffffffffffffffffffffffffffffffff167fddf252ad1be2c89b69c2b068fc378daa952ba7f163c4a11628f55a4df523b3ef60405160405180910390a4611b1960008383611b22565b5050565b505050565b505050565b6000611b488473ffffffffffffffffffffffffffffffffffffffff16611cbe565b15611cb1578373ffffffffffffffffffffffffffffffffffffffff1663150b7a02611b716111c7565b8786866040518563ffffffff1660e01b8152600401611b939493929190612656565b602060405180830381600087803b158015611bad57600080fd5b505af1925050508015611bde57506040513d601f19601f82011682018060405250810190611bdb919061208d565b60015b611c61573d8060008114611c0e576040519150601f19603f3d011682016040523d82523d6000602084013e611c13565b606091505b50600081511415611c59576040517f08c379a0000000000000000000000000000000000000000000000000000000008152600401611c50906127a3565b60405180910390fd5b805181602001fd5b63150b7a0260e01b7bffffffffffffffffffffffffffffffffffffffffffffffffffffffff1916817bffffffffffffffffffffffffffffffffffffffffffffffffffffffff191614915050611cb6565b600190505b949350505050565b6000808273ffffffffffffffffffffffffffffffffffffffff163b119050919050565b828054611ced90612bee565b90600052602060002090601f016020900481019282611d0f5760008555611d56565b82601f10611d2857805160ff1916838001178555611d56565b82800160010185558215611d56579182015b82811115611d55578251825591602001919060010190611d3a565b5b509050611d639190611d67565b5090565b5b80821115611d80576000816000905550600101611d68565b5090565b6000611d97611d92846129c3565b61299e565b905082815260208101848484011115611daf57600080fd5b611dba848285612bac565b509392505050565b6000611dd5611dd0846129f4565b61299e565b905082815260208101848484011115611ded57600080fd5b611df8848285612bac565b509392505050565b600081359050611e0f8161321f565b92915050565b600081359050611e2481613236565b92915050565b600081359050611e398161324d565b92915050565b600081519050611e4e8161324d565b92915050565b600082601f830112611e6557600080fd5b8135611e75848260208601611d84565b91505092915050565b600082601f830112611e8f57600080fd5b8135611e9f848260208601611dc2565b91505092915050565b600081359050611eb781613264565b92915050565b600060208284031215611ecf57600080fd5b6000611edd84828501611e00565b91505092915050565b60008060408385031215611ef957600080fd5b6000611f0785828601611e00565b9250506020611f1885828601611e00565b9150509250929050565b600080600060608486031215611f3757600080fd5b6000611f4586828701611e00565b9350506020611f5686828701611e00565b9250506040611f6786828701611ea8565b9150509250925092565b60008060008060808587031215611f8757600080fd5b6000611f9587828801611e00565b9450506020611fa687828801611e00565b9350506040611fb787828801611ea8565b925050606085013567ffffffffffffffff811115611fd457600080fd5b611fe087828801611e54565b91505092959194509250565b60008060408385031215611fff57600080fd5b600061200d85828601611e00565b925050602061201e85828601611e15565b9150509250929050565b6000806040838503121561203b57600080fd5b600061204985828601611e00565b925050602061205a85828601611ea8565b9150509250929050565b60006020828403121561207657600080fd5b600061208484828501611e2a565b91505092915050565b60006020828403121561209f57600080fd5b60006120ad84828501611e3f565b91505092915050565b6000806000606084860312156120cb57600080fd5b600084013567ffffffffffffffff8111156120e557600080fd5b6120f186828701611e7e565b935050602084013567ffffffffffffffff81111561210e57600080fd5b61211a86828701611e7e565b925050604084013567ffffffffffffffff81111561213757600080fd5b61214386828701611e7e565b9150509250925092565b60006020828403121561215f57600080fd5b600061216d84828501611ea8565b91505092915050565b60008060006060848603121561218b57600080fd5b600061219986828701611ea8565b935050602084013567ffffffffffffffff8111156121b657600080fd5b6121c286828701611e7e565b925050604084013567ffffffffffffffff8111156121df57600080fd5b6121eb86828701611e7e565b9150509250925092565b6121fe81612b38565b82525050565b61220d81612b4a565b82525050565b600061221e82612a3a565b6122288185612a50565b9350612238818560208601612bbb565b61224181612d87565b840191505092915050565b600061225782612a45565b6122618185612a61565b9350612271818560208601612bbb565b61227a81612d87565b840191505092915050565b600061229082612a45565b61229a8185612a72565b93506122aa818560208601612bbb565b80840191505092915050565b600081546122c381612bee565b6122cd8186612a72565b945060018216600081146122e857600181146122f95761232c565b60ff1983168652818601935061232c565b61230285612a25565b60005b8381101561232457815481890152600182019150602081019050612305565b838801955050505b50505092915050565b6000612342601783612a61565b915061234d82612d98565b602082019050919050565b6000612365603283612a61565b915061237082612dc1565b604082019050919050565b6000612388602583612a61565b915061239382612e10565b604082019050919050565b60006123ab601c83612a61565b91506123b682612e5f565b602082019050919050565b60006123ce602483612a61565b91506123d982612e88565b604082019050919050565b60006123f1601983612a61565b91506123fc82612ed7565b602082019050919050565b6000612414602c83612a61565b915061241f82612f00565b604082019050919050565b6000612437603883612a61565b915061244282612f4f565b604082019050919050565b600061245a602a83612a61565b915061246582612f9e565b604082019050919050565b600061247d602983612a61565b915061248882612fed565b604082019050919050565b60006124a0600883612a72565b91506124ab8261303c565b600882019050919050565b60006124c3602083612a61565b91506124ce82613065565b602082019050919050565b60006124e6601b83612a61565b91506124f18261308e565b602082019050919050565b6000612509602c83612a61565b9150612514826130b7565b604082019050919050565b600061252c600683612a61565b915061253782613106565b602082019050919050565b600061254f602183612a61565b915061255a8261312f565b604082019050919050565b6000612572603183612a61565b915061257d8261317e565b604082019050919050565b6000612595601483612a61565b91506125a0826131cd565b602082019050919050565b60006125b8600183612a72565b91506125c3826131f6565b600182019050919050565b6125d781612ba2565b82525050565b60006125e982866122b6565b91506125f58285612285565b9150612600826125ab565b915061260c8284612285565b9150819050949350505050565b600061262582846122b6565b915061263082612493565b915081905092915050565b600060208201905061265060008301846121f5565b92915050565b600060808201905061266b60008301876121f5565b61267860208301866121f5565b61268560408301856125ce565b81810360608301526126978184612213565b905095945050505050565b60006020820190506126b76000830184612204565b92915050565b600060208201905081810360008301526126d7818461224c565b905092915050565b600060808201905081810360008301526126f9818761224c565b9050818103602083015261270d818661224c565b905061271c60408301856121f5565b818103606083015261272e818461224c565b905095945050505050565b60006060820190508181036000830152612753818561224c565b90508181036020830152612767818461224c565b9050818103604083015261277a8161251f565b90509392505050565b6000602082019050818103600083015261279c81612335565b9050919050565b600060208201905081810360008301526127bc81612358565b9050919050565b600060208201905081810360008301526127dc8161237b565b9050919050565b600060208201905081810360008301526127fc8161239e565b9050919050565b6000602082019050818103600083015261281c816123c1565b9050919050565b6000602082019050818103600083015261283c816123e4565b9050919050565b6000602082019050818103600083015261285c81612407565b9050919050565b6000602082019050818103600083015261287c8161242a565b9050919050565b6000602082019050818103600083015261289c8161244d565b9050919050565b600060208201905081810360008301526128bc81612470565b9050919050565b600060208201905081810360008301526128dc816124b6565b9050919050565b600060208201905081810360008301526128fc816124d9565b9050919050565b6000602082019050818103600083015261291c816124fc565b9050919050565b6000602082019050818103600083015261293c81612542565b9050919050565b6000602082019050818103600083015261295c81612565565b9050919050565b6000602082019050818103600083015261297c81612588565b9050919050565b600060208201905061299860008301846125ce565b92915050565b60006129a86129b9565b90506129b48282612c20565b919050565b6000604051905090565b600067ffffffffffffffff8211156129de576129dd612d58565b5b6129e782612d87565b9050602081019050919050565b600067ffffffffffffffff821115612a0f57612a0e612d58565b5b612a1882612d87565b9050602081019050919050565b60008190508160005260206000209050919050565b600081519050919050565b600081519050919050565b600082825260208201905092915050565b600082825260208201905092915050565b600081905092915050565b6000612a8882612ba2565b9150612a9383612ba2565b9250827fffffffffffffffffffffffffffffffffffffffffffffffffffffffffffffffff03821115612ac857612ac7612ccb565b5b828201905092915050565b6000612ade82612ba2565b9150612ae983612ba2565b925082612af957612af8612cfa565b5b828204905092915050565b6000612b0f82612ba2565b9150612b1a83612ba2565b925082821015612b2d57612b2c612ccb565b5b828203905092915050565b6000612b4382612b82565b9050919050565b60008115159050919050565b60007fffffffff0000000000000000000000000000000000000000000000000000000082169050919050565b600073ffffffffffffffffffffffffffffffffffffffff82169050919050565b6000819050919050565b82818337600083830152505050565b60005b83811015612bd9578082015181840152602081019050612bbe565b83811115612be8576000848401525b50505050565b60006002820490506001821680612c0657607f821691505b60208210811415612c1a57612c19612d29565b5b50919050565b612c2982612d87565b810181811067ffffffffffffffff82111715612c4857612c47612d58565b5b80604052505050565b6000612c5c82612ba2565b91507fffffffffffffffffffffffffffffffffffffffffffffffffffffffffffffffff821415612c8f57612c8e612ccb565b5b600182019050919050565b6000612ca582612ba2565b9150612cb083612ba2565b925082612cc057612cbf612cfa565b5b828206905092915050565b7f4e487b7100000000000000000000000000000000000000000000000000000000600052601160045260246000fd5b7f4e487b7100000000000000000000000000000000000000000000000000000000600052601260045260246000fd5b7f4e487b7100000000000000000000000000000000000000000000000000000000600052602260045260246000fd5b7f4e487b7100000000000000000000000000000000000000000000000000000000600052604160045260246000fd5b6000601f19601f8301169050919050565b7f43616c6c6572206973206e6f7420746865206f776e6572000000000000000000600082015250565b7f4552433732313a207472616e7366657220746f206e6f6e20455243373231526560008201527f63656976657220696d706c656d656e7465720000000000000000000000000000602082015250565b7f4552433732313a207472616e736665722066726f6d20696e636f72726563742060008201527f6f776e6572000000000000000000000000000000000000000000000000000000602082015250565b7f4552433732313a20746f6b656e20616c7265616479206d696e74656400000000600082015250565b7f4552433732313a207472616e7366657220746f20746865207a65726f2061646460008201527f7265737300000000000000000000000000000000000000000000000000000000602082015250565b7f4552433732313a20617070726f766520746f2063616c6c657200000000000000600082015250565b7f4552433732313a206f70657261746f7220717565727920666f72206e6f6e657860008201527f697374656e7420746f6b656e0000000000000000000000000000000000000000602082015250565b7f4552433732313a20617070726f76652063616c6c6572206973206e6f74206f7760008201527f6e6572206e6f7220617070726f76656420666f7220616c6c0000000000000000602082015250565b7f4552433732313a2062616c616e636520717565727920666f7220746865207a6560008201527f726f206164647265737300000000000000000000000000000000000000000000602082015250565b7f4552433732313a206f776e657220717565727920666f72206e6f6e657869737460008201527f656e7420746f6b656e0000000000000000000000000000000000000000000000602082015250565b7f6d65746164617461000000000000000000000000000000000000000000000000600082015250565b7f4552433732313a206d696e7420746f20746865207a65726f2061646472657373600082015250565b7f546f6b656e20686173206e6f74206265656e20736f6c64207965740000000000600082015250565b7f4552433732313a20617070726f76656420717565727920666f72206e6f6e657860008201527f697374656e7420746f6b656e0000000000000000000000000000000000000000602082015250565b7f6163746976650000000000000000000000000000000000000000000000000000600082015250565b7f4552433732313a20617070726f76616c20746f2063757272656e74206f776e6560008201527f7200000000000000000000000000000000000000000000000000000000000000602082015250565b7f4552433732313a207472616e736665722063616c6c6572206973206e6f74206f60008201527f776e6572206e6f7220617070726f766564000000000000000000000000000000602082015250565b7f436f76657220646f6573206e6f74206578697374000000000000000000000000600082015250565b7f2f00000000000000000000000000000000000000000000000000000000000000600082015250565b61322881612b38565b811461323357600080fd5b50565b61323f81612b4a565b811461324a57600080fd5b50565b61325681612b56565b811461326157600080fd5b50565b61326d81612ba2565b811461327857600080fd5b5056fea26469706673582212208074033e167fc06cefa5406fd6f949b4603cf12124cbf212be0cbbf76a0eb1b964736f6c63430008040033",
  "linkReferences": {},
  "deployedLinkReferences": {}
}