{
  "_format": "hh-sol-artifact-1",
  "contractName": "NewCopyright",
  "sourceName": "contracts/NewCopyright.sol",
  "abi": [
    {
      "inputs": [
        {
          "internalType": "string",
          "name": "baseURI_",
          "type": "string"
        },
        {
          "internalType": "string",
          "name": "_name",
          "type": "string"
        },
        {
          "internalType": "string",
          "name": "_symbol",
          "type": "string"
        }
      ],
      "stateMutability": "nonpayable",
      "type": "constructor"
    },
    {
      "anonymous": false,
      "inputs": [
        {
          "indexed": true,
          "internalType": "address",
          "name": "owner",
          "type": "address"
        },
        {
          "indexed": true,
          "internalType": "address",
          "name": "approved",
          "type": "address"
        },
        {
          "indexed": true,
          "internalType": "uint256",
          "name": "tokenId",
          "type": "uint256"
        }
      ],
      "name": "Approval",
      "type": "event"
    },
    {
      "anonymous": false,
      "inputs": [
        {
          "indexed": true,
          "internalType": "address",
          "name": "owner",
          "type": "address"
        },
        {
          "indexed": true,
          "internalType": "address",
          "name": "operator",
          "type": "address"
        },
        {
          "indexed": false,
          "internalType": "bool",
          "name": "approved",
          "type": "bool"
        }
      ],
      "name": "ApprovalForAll",
      "type": "event"
    },
    {
      "anonymous": false,
      "inputs": [
        {
          "indexed": false,
          "internalType": "string",
          "name": "title",
          "type": "string"
        },
        {
          "indexed": false,
          "internalType": "string",
          "name": "description",
          "type": "string"
        },
        {
          "indexed": false,
          "internalType": "address",
          "name": "owner",
          "type": "address"
        },
        {
          "indexed": false,
          "internalType": "string",
          "name": "status",
          "type": "string"
        },
        {
          "indexed": true,
          "internalType": "uint256",
          "name": "CoverId",
          "type": "uint256"
        }
      ],
      "name": "CoverCreation",
      "type": "event"
    },
    {
      "anonymous": false,
      "inputs": [
        {
          "indexed": true,
          "internalType": "uint256",
          "name": "CoverId",
          "type": "uint256"
        },
        {
          "indexed": true,
          "internalType": "uint256",
          "name": "tokenId",
          "type": "uint256"
        },
        {
          "indexed": true,
          "internalType": "address",
          "name": "author",
          "type": "address"
        }
      ],
      "name": "CoverMint",
      "type": "event"
    },
    {
      "anonymous": false,
      "inputs": [
        {
          "indexed": true,
          "internalType": "uint256",
          "name": "CoverId",
          "type": "uint256"
        },
        {
          "indexed": false,
          "internalType": "string",
          "name": "title",
          "type": "string"
        },
        {
          "indexed": false,
          "internalType": "string",
          "name": "description",
          "type": "string"
        },
        {
          "indexed": false,
          "internalType": "string",
          "name": "status",
          "type": "string"
        }
      ],
      "name": "CoverUpdate",
      "type": "event"
    },
    {
      "anonymous": false,
      "inputs": [
        {
          "indexed": true,
          "internalType": "address",
          "name": "from",
          "type": "address"
        },
        {
          "indexed": true,
          "internalType": "address",
          "name": "to",
          "type": "address"
        },
        {
          "indexed": true,
          "internalType": "uint256",
          "name": "tokenId",
          "type": "uint256"
        }
      ],
      "name": "Transfer",
      "type": "event"
    },
    {
      "inputs": [],
      "name": "_coverIds",
      "outputs": [
        {
          "internalType": "uint256",
          "name": "_value",
          "type": "uint256"
        }
      ],
      "stateMutability": "view",
      "type": "function"
    },
    {
      "inputs": [
        {
          "internalType": "address",
          "name": "to",
          "type": "address"
        },
        {
          "internalType": "uint256",
          "name": "tokenId",
          "type": "uint256"
        }
      ],
      "name": "approve",
      "outputs": [],
      "stateMutability": "nonpayable",
      "type": "function"
    },
    {
      "inputs": [
        {
          "internalType": "address",
          "name": "owner",
          "type": "address"
        }
      ],
      "name": "balanceOf",
      "outputs": [
        {
          "internalType": "uint256",
          "name": "",
          "type": "uint256"
        }
      ],
      "stateMutability": "view",
      "type": "function"
    },
    {
      "inputs": [
        {
          "internalType": "uint256",
          "name": "",
          "type": "uint256"
        }
      ],
      "name": "covers",
      "outputs": [
        {
          "internalType": "uint256",
          "name": "id",
          "type": "uint256"
        },
        {
          "internalType": "string",
          "name": "title",
          "type": "string"
        },
        {
          "internalType": "string",
          "name": "description",
          "type": "string"
        },
        {
          "internalType": "string",
          "name": "status",
          "type": "string"
        },
        {
          "internalType": "address",
          "name": "owner",
          "type": "address"
        }
      ],
      "stateMutability": "view",
      "type": "function"
    },
    {
      "inputs": [
        {
          "internalType": "string",
          "name": "_title",
          "type": "string"
        },
        {
          "internalType": "string",
          "name": "_description",
          "type": "string"
        },
        {
          "internalType": "string",
          "name": "_status",
          "type": "string"
        }
      ],
      "name": "createCopyright",
      "outputs": [],
      "stateMutability": "nonpayable",
      "type": "function"
    },
    {
      "inputs": [
        {
          "internalType": "uint256",
          "name": "tokenId",
          "type": "uint256"
        }
      ],
      "name": "generateCoverImage",
      "outputs": [
        {
          "internalType": "string",
          "name": "",
          "type": "string"
        }
      ],
      "stateMutability": "view",
      "type": "function"
    },
    {
      "inputs": [],
      "name": "getAllCoypright",
      "outputs": [
        {
          "components": [
            {
              "internalType": "uint256",
              "name": "id",
              "type": "uint256"
            },
            {
              "internalType": "string",
              "name": "title",
              "type": "string"
            },
            {
              "internalType": "string",
              "name": "description",
              "type": "string"
            },
            {
              "internalType": "string",
              "name": "status",
              "type": "string"
            },
            {
              "internalType": "address",
              "name": "owner",
              "type": "address"
            }
          ],
          "internalType": "struct NewCopyright.Cover[]",
          "name": "",
          "type": "tuple[]"
        }
      ],
      "stateMutability": "view",
      "type": "function"
    },
    {
      "inputs": [
        {
          "internalType": "uint256",
          "name": "tokenId",
          "type": "uint256"
        }
      ],
      "name": "getApproved",
      "outputs": [
        {
          "internalType": "address",
          "name": "",
          "type": "address"
        }
      ],
      "stateMutability": "view",
      "type": "function"
    },
    {
      "inputs": [
        {
          "internalType": "uint256",
          "name": "_id",
          "type": "uint256"
        }
      ],
      "name": "getAuthor",
      "outputs": [
        {
          "internalType": "address",
          "name": "",
          "type": "address"
        }
      ],
      "stateMutability": "view",
      "type": "function"
    },
    {
      "inputs": [],
      "name": "getAuthorCover",
      "outputs": [
        {
          "components": [
            {
              "internalType": "uint256",
              "name": "id",
              "type": "uint256"
            },
            {
              "internalType": "string",
              "name": "title",
              "type": "string"
            },
            {
              "internalType": "string",
              "name": "description",
              "type": "string"
            },
            {
              "internalType": "string",
              "name": "status",
              "type": "string"
            },
            {
              "internalType": "address",
              "name": "owner",
              "type": "address"
            }
          ],
          "internalType": "struct NewCopyright.Cover[]",
          "name": "",
          "type": "tuple[]"
        }
      ],
      "stateMutability": "view",
      "type": "function"
    },
    {
      "inputs": [],
      "name": "getAuthorString",
      "outputs": [
        {
          "internalType": "string",
          "name": "",
          "type": "string"
        }
      ],
      "stateMutability": "view",
      "type": "function"
    },
    {
      "inputs": [
        {
          "internalType": "uint256",
          "name": "_id",
          "type": "uint256"
        }
      ],
      "name": "getCover",
      "outputs": [
        {
          "components": [
            {
              "internalType": "uint256",
              "name": "id",
              "type": "uint256"
            },
            {
              "internalType": "string",
              "name": "title",
              "type": "string"
            },
            {
              "internalType": "string",
              "name": "description",
              "type": "string"
            },
            {
              "internalType": "string",
              "name": "status",
              "type": "string"
            },
            {
              "internalType": "address",
              "name": "owner",
              "type": "address"
            }
          ],
          "internalType": "struct NewCopyright.Cover",
          "name": "",
          "type": "tuple"
        }
      ],
      "stateMutability": "view",
      "type": "function"
    },
    {
      "inputs": [
        {
          "internalType": "uint256",
          "name": "tokenId",
          "type": "uint256"
        }
      ],
      "name": "getCoverByToken",
      "outputs": [
        {
          "components": [
            {
              "internalType": "uint256",
              "name": "id",
              "type": "uint256"
            },
            {
              "internalType": "string",
              "name": "title",
              "type": "string"
            },
            {
              "internalType": "string",
              "name": "description",
              "type": "string"
            },
            {
              "internalType": "string",
              "name": "status",
              "type": "string"
            },
            {
              "internalType": "address",
              "name": "owner",
              "type": "address"
            }
          ],
          "internalType": "struct NewCopyright.Cover",
          "name": "",
          "type": "tuple"
        }
      ],
      "stateMutability": "view",
      "type": "function"
    },
    {
      "inputs": [
        {
          "internalType": "uint256",
          "name": "_id",
          "type": "uint256"
        }
      ],
      "name": "getTitle",
      "outputs": [
        {
          "internalType": "string",
          "name": "",
          "type": "string"
        }
      ],
      "stateMutability": "view",
      "type": "function"
    },
    {
      "inputs": [
        {
          "internalType": "uint256",
          "name": "tokenId",
          "type": "uint256"
        }
      ],
      "name": "getTitleByToken",
      "outputs": [
        {
          "internalType": "string",
          "name": "",
          "type": "string"
        }
      ],
      "stateMutability": "view",
      "type": "function"
    },
    {
      "inputs": [
        {
          "internalType": "uint256",
          "name": "tokenId",
          "type": "uint256"
        }
      ],
      "name": "getTokenURI",
      "outputs": [
        {
          "internalType": "string",
          "name": "",
          "type": "string"
        }
      ],
      "stateMutability": "view",
      "type": "function"
    },
    {
      "inputs": [
        {
          "internalType": "address",
          "name": "owner",
          "type": "address"
        },
        {
          "internalType": "address",
          "name": "operator",
          "type": "address"
        }
      ],
      "name": "isApprovedForAll",
      "outputs": [
        {
          "internalType": "bool",
          "name": "",
          "type": "bool"
        }
      ],
      "stateMutability": "view",
      "type": "function"
    },
    {
      "inputs": [
        {
          "internalType": "uint256",
          "name": "coverId",
          "type": "uint256"
        }
      ],
      "name": "mintCopyright",
      "outputs": [],
      "stateMutability": "nonpayable",
      "type": "function"
    },
    {
      "inputs": [],
      "name": "name",
      "outputs": [
        {
          "internalType": "string",
          "name": "",
          "type": "string"
        }
      ],
      "stateMutability": "view",
      "type": "function"
    },
    {
      "inputs": [
        {
          "internalType": "uint256",
          "name": "tokenId",
          "type": "uint256"
        }
      ],
      "name": "ownerOf",
      "outputs": [
        {
          "internalType": "address",
          "name": "",
          "type": "address"
        }
      ],
      "stateMutability": "view",
      "type": "function"
    },
    {
      "inputs": [
        {
          "internalType": "address",
          "name": "from",
          "type": "address"
        },
        {
          "internalType": "address",
          "name": "to",
          "type": "address"
        },
        {
          "internalType": "uint256",
          "name": "tokenId",
          "type": "uint256"
        }
      ],
      "name": "safeTransferFrom",
      "outputs": [],
      "stateMutability": "nonpayable",
      "type": "function"
    },
    {
      "inputs": [
        {
          "internalType": "address",
          "name": "from",
          "type": "address"
        },
        {
          "internalType": "address",
          "name": "to",
          "type": "address"
        },
        {
          "internalType": "uint256",
          "name": "tokenId",
          "type": "uint256"
        },
        {
          "internalType": "bytes",
          "name": "_data",
          "type": "bytes"
        }
      ],
      "name": "safeTransferFrom",
      "outputs": [],
      "stateMutability": "nonpayable",
      "type": "function"
    },
    {
      "inputs": [
        {
          "internalType": "address",
          "name": "operator",
          "type": "address"
        },
        {
          "internalType": "bool",
          "name": "approved",
          "type": "bool"
        }
      ],
      "name": "setApprovalForAll",
      "outputs": [],
      "stateMutability": "nonpayable",
      "type": "function"
    },
    {
      "inputs": [
        {
          "internalType": "bytes4",
          "name": "interfaceId",
          "type": "bytes4"
        }
      ],
      "name": "supportsInterface",
      "outputs": [
        {
          "internalType": "bool",
          "name": "",
          "type": "bool"
        }
      ],
      "stateMutability": "view",
      "type": "function"
    },
    {
      "inputs": [],
      "name": "symbol",
      "outputs": [
        {
          "internalType": "string",
          "name": "",
          "type": "string"
        }
      ],
      "stateMutability": "view",
      "type": "function"
    },
    {
      "inputs": [
        {
          "internalType": "uint256",
          "name": "",
          "type": "uint256"
        }
      ],
      "name": "tokenToCover",
      "outputs": [
        {
          "internalType": "uint256",
          "name": "",
          "type": "uint256"
        }
      ],
      "stateMutability": "view",
      "type": "function"
    },
    {
      "inputs": [
        {
          "internalType": "uint256",
          "name": "tokenId",
          "type": "uint256"
        }
      ],
      "name": "tokenURI",
      "outputs": [
        {
          "internalType": "string",
          "name": "",
          "type": "string"
        }
      ],
      "stateMutability": "view",
      "type": "function"
    },
    {
      "inputs": [
        {
          "internalType": "address",
          "name": "from",
          "type": "address"
        },
        {
          "internalType": "address",
          "name": "to",
          "type": "address"
        },
        {
          "internalType": "uint256",
          "name": "tokenId",
          "type": "uint256"
        }
      ],
      "name": "transferFrom",
      "outputs": [],
      "stateMutability": "nonpayable",
      "type": "function"
    },
    {
      "inputs": [
        {
          "internalType": "uint256",
          "name": "_id",
          "type": "uint256"
        },
        {
          "internalType": "string",
          "name": "_title",
          "type": "string"
        },
        {
          "internalType": "string",
          "name": "_description",
          "type": "string"
        }
      ],
      "name": "updateCover",
      "outputs": [
        {
          "internalType": "uint256",
          "name": "",
          "type": "uint256"
        }
      ],
      "stateMutability": "nonpayable",
      "type": "function"
    }
  ],
  "bytecode": "0x60806040523480156200001157600080fd5b506040516200612d3803806200612d8339818101604052810190620000379190620001b1565b81818160009080519060200190620000519291906200008f565b5080600190805190602001906200006a9291906200008f565b5050508260099080519060200190620000859291906200008f565b50505050620003c2565b8280546200009d90620002e7565b90600052602060002090601f016020900481019282620000c157600085556200010d565b82601f10620000dc57805160ff19168380011785556200010d565b828001600101855582156200010d579182015b828111156200010c578251825591602001919060010190620000ef565b5b5090506200011c919062000120565b5090565b5b808211156200013b57600081600090555060010162000121565b5090565b60006200015662000150846200027b565b62000252565b9050828152602081018484840111156200016f57600080fd5b6200017c848285620002b1565b509392505050565b600082601f8301126200019657600080fd5b8151620001a88482602086016200013f565b91505092915050565b600080600060608486031215620001c757600080fd5b600084015167ffffffffffffffff811115620001e257600080fd5b620001f08682870162000184565b935050602084015167ffffffffffffffff8111156200020e57600080fd5b6200021c8682870162000184565b925050604084015167ffffffffffffffff8111156200023a57600080fd5b620002488682870162000184565b9150509250925092565b60006200025e62000271565b90506200026c82826200031d565b919050565b6000604051905090565b600067ffffffffffffffff82111562000299576200029862000382565b5b620002a482620003b1565b9050602081019050919050565b60005b83811015620002d1578082015181840152602081019050620002b4565b83811115620002e1576000848401525b50505050565b600060028204905060018216806200030057607f821691505b6020821081141562000317576200031662000353565b5b50919050565b6200032882620003b1565b810181811067ffffffffffffffff821117156200034a576200034962000382565b5b80604052505050565b7f4e487b7100000000000000000000000000000000000000000000000000000000600052602260045260246000fd5b7f4e487b7100000000000000000000000000000000000000000000000000000000600052604160045260246000fd5b6000601f19601f8301169050919050565b615d5b80620003d26000396000f3fe608060405234801561001057600080fd5b50600436106101cf5760003560e01c80637205282811610104578063b093ce66116100a2578063e985e9c511610071578063e985e9c5146105a4578063ed65939c146105d4578063f58c8e2d14610604578063fd7b68a214610620576101cf565b8063b093ce66146104f8578063b88d4fde14610528578063bd3c69f714610544578063c87b56dd14610574576101cf565b806395d89b41116100de57806395d89b41146104705780639e2b84881461048e5780639e8dd669146104be578063a22cb465146104dc576101cf565b806372052828146104045780638150a0bc14610422578063929a79b114610440576101cf565b806342842e0e116101715780636299df6c1161014b5780636299df6c146103405780636352211e1461037457806364dee260146103a457806370a08231146103d4576101cf565b806342842e0e146102d85780634461cd48146102f457806362299a0514610324576101cf565b8063095ea7b3116101ad578063095ea7b31461025257806323b872dd1461026e57806336b41afc1461028a5780633bb3a24d146102a8576101cf565b806301ffc9a7146101d457806306fdde0314610204578063081812fc14610222575b600080fd5b6101ee60048036038101906101e99190613c09565b610650565b6040516101fb919061483f565b60405180910390f35b61020c610732565b604051610219919061485a565b60405180910390f35b61023c60048036038101906102379190613cf2565b6107c4565b60405161024991906147b6565b60405180910390f35b61026c60048036038101906102679190613bcd565b610849565b005b61028860048036038101906102839190613ac7565b610961565b005b6102926109c1565b60405161029f919061481d565b60405180910390f35b6102c260048036038101906102bd9190613cf2565b610e64565b6040516102cf919061485a565b60405180910390f35b6102f260048036038101906102ed9190613ac7565b610ed6565b005b61030e60048036038101906103099190613d1b565b610ef6565b60405161031b9190614c22565b60405180910390f35b61033e60048036038101906103399190613c5b565b61102c565b005b61035a60048036038101906103559190613cf2565b611258565b60405161036b959493929190614c3d565b60405180910390f35b61038e60048036038101906103899190613cf2565b611446565b60405161039b91906147b6565b60405180910390f35b6103be60048036038101906103b99190613cf2565b6114f8565b6040516103cb9190614c00565b60405180910390f35b6103ee60048036038101906103e99190613a62565b61174e565b6040516103fb9190614c22565b60405180910390f35b61040c611806565b6040516104199190614c22565b60405180910390f35b61042a611812565b604051610437919061481d565b60405180910390f35b61045a60048036038101906104559190613cf2565b611b3f565b604051610467919061485a565b60405180910390f35b610478611be7565b604051610485919061485a565b60405180910390f35b6104a860048036038101906104a39190613cf2565b611c79565b6040516104b591906147b6565b60405180910390f35b6104c6611cb9565b6040516104d3919061485a565b60405180910390f35b6104f660048036038101906104f19190613b91565b611ce1565b005b610512600480360381019061050d9190613cf2565b611cf7565b60405161051f919061485a565b60405180910390f35b610542600480360381019061053d9190613b16565b611d5e565b005b61055e60048036038101906105599190613cf2565b611dc0565b60405161056b9190614c22565b60405180910390f35b61058e60048036038101906105899190613cf2565b611dd8565b60405161059b919061485a565b60405180910390f35b6105be60048036038101906105b99190613a8b565b611f2a565b6040516105cb919061483f565b60405180910390f35b6105ee60048036038101906105e99190613cf2565b611fbe565b6040516105fb919061485a565b60405180910390f35b61061e60048036038101906106199190613cf2565b612079565b005b61063a60048036038101906106359190613cf2565b612260565b6040516106479190614c00565b60405180910390f35b60007f80ac58cd000000000000000000000000000000000000000000000000000000007bffffffffffffffffffffffffffffffffffffffffffffffffffffffff1916827bffffffffffffffffffffffffffffffffffffffffffffffffffffffff1916148061071b57507f5b5e139f000000000000000000000000000000000000000000000000000000007bffffffffffffffffffffffffffffffffffffffffffffffffffffffff1916827bffffffffffffffffffffffffffffffffffffffffffffffffffffffff1916145b8061072b575061072a826124a3565b5b9050919050565b60606000805461074190614fae565b80601f016020809104026020016040519081016040528092919081815260200182805461076d90614fae565b80156107ba5780601f1061078f576101008083540402835291602001916107ba565b820191906000526020600020905b81548152906001019060200180831161079d57829003601f168201915b5050505050905090565b60006107cf8261250d565b61080e576040517f08c379a000000000000000000000000000000000000000000000000000000000815260040161080590614b40565b60405180910390fd5b6004600083815260200190815260200160002060009054906101000a900473ffffffffffffffffffffffffffffffffffffffff169050919050565b600061085482611446565b90508073ffffffffffffffffffffffffffffffffffffffff168373ffffffffffffffffffffffffffffffffffffffff1614156108c5576040517f08c379a00000000000000000000000000000000000000000000000000000000081526004016108bc90614b80565b60405180910390fd5b8073ffffffffffffffffffffffffffffffffffffffff166108e4612579565b73ffffffffffffffffffffffffffffffffffffffff16148061091357506109128161090d612579565b611f2a565b5b610952576040517f08c379a000000000000000000000000000000000000000000000000000000000815260040161094990614a80565b60405180910390fd5b61095c8383612581565b505050565b61097261096c612579565b8261263a565b6109b1576040517f08c379a00000000000000000000000000000000000000000000000000000000081526004016109a890614ba0565b60405180910390fd5b6109bc838383612718565b505050565b6060600080600090505b6109d5600861297f565b811015610a68573373ffffffffffffffffffffffffffffffffffffffff16600a600083815260200190815260200160002060040160009054906101000a900473ffffffffffffffffffffffffffffffffffffffff1673ffffffffffffffffffffffffffffffffffffffff161415610a55578180610a5190615011565b9250505b8080610a6090615011565b9150506109cb565b50610a728161298d565b60008167ffffffffffffffff811115610ab4577f4e487b7100000000000000000000000000000000000000000000000000000000600052604160045260246000fd5b604051908082528060200260200182016040528015610aed57816020015b610ada613841565b815260200190600190039081610ad25790505b509050600080600090505b610b02600861297f565b811015610e5a573373ffffffffffffffffffffffffffffffffffffffff16600a600083815260200190815260200160002060040160009054906101000a900473ffffffffffffffffffffffffffffffffffffffff1673ffffffffffffffffffffffffffffffffffffffff161415610e4757600a60008281526020019081526020016000206040518060a001604052908160008201548152602001600182018054610bab90614fae565b80601f0160208091040260200160405190810160405280929190818152602001828054610bd790614fae565b8015610c245780601f10610bf957610100808354040283529160200191610c24565b820191906000526020600020905b815481529060010190602001808311610c0757829003601f168201915b50505050508152602001600282018054610c3d90614fae565b80601f0160208091040260200160405190810160405280929190818152602001828054610c6990614fae565b8015610cb65780601f10610c8b57610100808354040283529160200191610cb6565b820191906000526020600020905b815481529060010190602001808311610c9957829003601f168201915b50505050508152602001600382018054610ccf90614fae565b80601f0160208091040260200160405190810160405280929190818152602001828054610cfb90614fae565b8015610d485780601f10610d1d57610100808354040283529160200191610d48565b820191906000526020600020905b815481529060010190602001808311610d2b57829003601f168201915b505050505081526020016004820160009054906101000a900473ffffffffffffffffffffffffffffffffffffffff1673ffffffffffffffffffffffffffffffffffffffff1673ffffffffffffffffffffffffffffffffffffffff1681525050838381518110610de0577f4e487b7100000000000000000000000000000000000000000000000000000000600052603260045260246000fd5b6020026020010181905250610e38838381518110610e27577f4e487b7100000000000000000000000000000000000000000000000000000000600052603260045260246000fd5b602002602001015160200151612a26565b8180610e4390615011565b9250505b8080610e5290615011565b915050610af8565b5081935050505090565b60606000610e7183611fbe565b610e7a84612abf565b610e8385611cf7565b604051602001610e95939291906146e9565b6040516020818303038152906040529050610eaf81612c6c565b604051602001610ebf9190614772565b604051602081830303815290604052915050919050565b610ef183838360405180602001604052806000815250611d5e565b505050565b6000833373ffffffffffffffffffffffffffffffffffffffff16600a600083815260200190815260200160002060040160009054906101000a900473ffffffffffffffffffffffffffffffffffffffff1673ffffffffffffffffffffffffffffffffffffffff1614610f9d576040517f08c379a0000000000000000000000000000000000000000000000000000000008152600401610f9490614940565b60405180910390fd5b6000600a6000878152602001908152602001600020905084816001019080519060200190610fcc929190613886565b5083816002019080519060200190610fe5929190613886565b50857f33f693e3864c85613c751c30c3359f13a47cabf2b193ceb2e5eaf21b97a6718e86866040516110189291906148d6565b60405180910390a285925050509392505050565b6000835111611070576040517f08c379a000000000000000000000000000000000000000000000000000000000815260040161106790614a40565b60405180910390fd5b60008251116110b4576040517f08c379a00000000000000000000000000000000000000000000000000000000081526004016110ab906149e0565b60405180910390fd5b60008151116110f8576040517f08c379a00000000000000000000000000000000000000000000000000000000081526004016110ef90614be0565b60405180910390fd5b6000611104600861297f565b90506111106008612df6565b6040518060a001604052808281526020018581526020018481526020018381526020013373ffffffffffffffffffffffffffffffffffffffff16815250600a6000838152602001908152602001600020600082015181600001556020820151816001019080519060200190611186929190613886565b5060408201518160020190805190602001906111a3929190613886565b5060608201518160030190805190602001906111c0929190613886565b5060808201518160040160006101000a81548173ffffffffffffffffffffffffffffffffffffffff021916908373ffffffffffffffffffffffffffffffffffffffff160217905550905050807fe9597330899c7cb1df48bd231b456a7182209be6a611db0261dd38b86fa6e63885853386604051611241949392919061487c565b60405180910390a261125281612079565b50505050565b600a60205280600052604060002060009150905080600001549080600101805461128190614fae565b80601f01602080910402602001604051908101604052809291908181526020018280546112ad90614fae565b80156112fa5780601f106112cf576101008083540402835291602001916112fa565b820191906000526020600020905b8154815290600101906020018083116112dd57829003601f168201915b50505050509080600201805461130f90614fae565b80601f016020809104026020016040519081016040528092919081815260200182805461133b90614fae565b80156113885780601f1061135d57610100808354040283529160200191611388565b820191906000526020600020905b81548152906001019060200180831161136b57829003601f168201915b50505050509080600301805461139d90614fae565b80601f01602080910402602001604051908101604052809291908181526020018280546113c990614fae565b80156114165780601f106113eb57610100808354040283529160200191611416565b820191906000526020600020905b8154815290600101906020018083116113f957829003601f168201915b5050505050908060040160009054906101000a900473ffffffffffffffffffffffffffffffffffffffff16905085565b6000806002600084815260200190815260200160002060009054906101000a900473ffffffffffffffffffffffffffffffffffffffff169050600073ffffffffffffffffffffffffffffffffffffffff168173ffffffffffffffffffffffffffffffffffffffff1614156114ef576040517f08c379a00000000000000000000000000000000000000000000000000000000081526004016114e690614ac0565b60405180910390fd5b80915050919050565b611500613841565b600a6000600b60008581526020019081526020016000205481526020019081526020016000206040518060a00160405290816000820154815260200160018201805461154b90614fae565b80601f016020809104026020016040519081016040528092919081815260200182805461157790614fae565b80156115c45780601f10611599576101008083540402835291602001916115c4565b820191906000526020600020905b8154815290600101906020018083116115a757829003601f168201915b505050505081526020016002820180546115dd90614fae565b80601f016020809104026020016040519081016040528092919081815260200182805461160990614fae565b80156116565780601f1061162b57610100808354040283529160200191611656565b820191906000526020600020905b81548152906001019060200180831161163957829003601f168201915b5050505050815260200160038201805461166f90614fae565b80601f016020809104026020016040519081016040528092919081815260200182805461169b90614fae565b80156116e85780601f106116bd576101008083540402835291602001916116e8565b820191906000526020600020905b8154815290600101906020018083116116cb57829003601f168201915b505050505081526020016004820160009054906101000a900473ffffffffffffffffffffffffffffffffffffffff1673ffffffffffffffffffffffffffffffffffffffff1673ffffffffffffffffffffffffffffffffffffffff16815250509050919050565b60008073ffffffffffffffffffffffffffffffffffffffff168273ffffffffffffffffffffffffffffffffffffffff1614156117bf576040517f08c379a00000000000000000000000000000000000000000000000000000000081526004016117b690614aa0565b60405180910390fd5b600360008373ffffffffffffffffffffffffffffffffffffffff1673ffffffffffffffffffffffffffffffffffffffff168152602001908152602001600020549050919050565b60088060000154905081565b60606000611820600861297f565b905060008167ffffffffffffffff811115611864577f4e487b7100000000000000000000000000000000000000000000000000000000600052604160045260246000fd5b60405190808252806020026020018201604052801561189d57816020015b61188a613841565b8152602001906001900390816118825790505b50905060005b82811015611b3657600a60008281526020019081526020016000206040518060a0016040529081600082015481526020016001820180546118e390614fae565b80601f016020809104026020016040519081016040528092919081815260200182805461190f90614fae565b801561195c5780601f106119315761010080835404028352916020019161195c565b820191906000526020600020905b81548152906001019060200180831161193f57829003601f168201915b5050505050815260200160028201805461197590614fae565b80601f01602080910402602001604051908101604052809291908181526020018280546119a190614fae565b80156119ee5780601f106119c3576101008083540402835291602001916119ee565b820191906000526020600020905b8154815290600101906020018083116119d157829003601f168201915b50505050508152602001600382018054611a0790614fae565b80601f0160208091040260200160405190810160405280929190818152602001828054611a3390614fae565b8015611a805780601f10611a5557610100808354040283529160200191611a80565b820191906000526020600020905b815481529060010190602001808311611a6357829003601f168201915b505050505081526020016004820160009054906101000a900473ffffffffffffffffffffffffffffffffffffffff1673ffffffffffffffffffffffffffffffffffffffff1673ffffffffffffffffffffffffffffffffffffffff1681525050828281518110611b18577f4e487b7100000000000000000000000000000000000000000000000000000000600052603260045260246000fd5b60200260200101819052508080611b2e90615011565b9150506118a3565b50809250505090565b6060600a60008381526020019081526020016000206001018054611b6290614fae565b80601f0160208091040260200160405190810160405280929190818152602001828054611b8e90614fae565b8015611bdb5780601f10611bb057610100808354040283529160200191611bdb565b820191906000526020600020905b815481529060010190602001808311611bbe57829003601f168201915b50505050509050919050565b606060018054611bf690614fae565b80601f0160208091040260200160405190810160405280929190818152602001828054611c2290614fae565b8015611c6f5780601f10611c4457610100808354040283529160200191611c6f565b820191906000526020600020905b815481529060010190602001808311611c5257829003601f168201915b5050505050905090565b6000600a600083815260200190815260200160002060040160009054906101000a900473ffffffffffffffffffffffffffffffffffffffff169050919050565b6060611cdc3373ffffffffffffffffffffffffffffffffffffffff166014612e0c565b905090565b611cf3611cec612579565b8383613106565b5050565b60606000611d0483611fbe565b611d0c611cb9565b604051602001611d1d929190614657565b6040516020818303038152906040529050611d3781612c6c565b604051602001611d479190614794565b604051602081830303815290604052915050919050565b611d6f611d69612579565b8361263a565b611dae576040517f08c379a0000000000000000000000000000000000000000000000000000000008152600401611da590614ba0565b60405180910390fd5b611dba84848484613273565b50505050565b600b6020528060005260406000206000915090505481565b6060611de38261250d565b611e22576040517f08c379a0000000000000000000000000000000000000000000000000000000008152600401611e1990614b20565b60405180910390fd5b6000600660008481526020019081526020016000208054611e4290614fae565b80601f0160208091040260200160405190810160405280929190818152602001828054611e6e90614fae565b8015611ebb5780601f10611e9057610100808354040283529160200191611ebb565b820191906000526020600020905b815481529060010190602001808311611e9e57829003601f168201915b505050505090506000611ecc6132cf565b9050600081511415611ee2578192505050611f25565b600082511115611f17578082604051602001611eff929190614633565b60405160208183030381529060405292505050611f25565b611f20846132e6565b925050505b919050565b6000600560008473ffffffffffffffffffffffffffffffffffffffff1673ffffffffffffffffffffffffffffffffffffffff16815260200190815260200160002060008373ffffffffffffffffffffffffffffffffffffffff1673ffffffffffffffffffffffffffffffffffffffff16815260200190815260200160002060009054906101000a900460ff16905092915050565b6060600a6000600b60008581526020019081526020016000205481526020019081526020016000206001018054611ff490614fae565b80601f016020809104026020016040519081016040528092919081815260200182805461202090614fae565b801561206d5780601f106120425761010080835404028352916020019161206d565b820191906000526020600020905b81548152906001019060200180831161205057829003601f168201915b50505050509050919050565b6000600a6000838152602001908152602001600020600101805461209c90614fae565b9050116120de576040517f08c379a00000000000000000000000000000000000000000000000000000000081526004016120d590614bc0565b60405180910390fd5b3373ffffffffffffffffffffffffffffffffffffffff16600a600083815260200190815260200160002060040160009054906101000a900473ffffffffffffffffffffffffffffffffffffffff1673ffffffffffffffffffffffffffffffffffffffff1614612182576040517f08c379a000000000000000000000000000000000000000000000000000000000815260040161217990614940565b60405180910390fd5b61218b8161250d565b156121cb576040517f08c379a00000000000000000000000000000000000000000000000000000000081526004016121c2906149c0565b60405180910390fd5b60006121d7600761297f565b90506121e36007612df6565b6121ed338261338d565b81600b6000838152602001908152602001600020819055503373ffffffffffffffffffffffffffffffffffffffff1681837f37b90363087f98a5212baa50346e189b80bdc088328e44b8517d2b0b394bf2d360405160405180910390a461225c8161225783610e64565b6133ab565b5050565b612268613841565b600a60008381526020019081526020016000206040518060a0016040529081600082015481526020016001820180546122a090614fae565b80601f01602080910402602001604051908101604052809291908181526020018280546122cc90614fae565b80156123195780601f106122ee57610100808354040283529160200191612319565b820191906000526020600020905b8154815290600101906020018083116122fc57829003601f168201915b5050505050815260200160028201805461233290614fae565b80601f016020809104026020016040519081016040528092919081815260200182805461235e90614fae565b80156123ab5780601f10612380576101008083540402835291602001916123ab565b820191906000526020600020905b81548152906001019060200180831161238e57829003601f168201915b505050505081526020016003820180546123c490614fae565b80601f01602080910402602001604051908101604052809291908181526020018280546123f090614fae565b801561243d5780601f106124125761010080835404028352916020019161243d565b820191906000526020600020905b81548152906001019060200180831161242057829003601f168201915b505050505081526020016004820160009054906101000a900473ffffffffffffffffffffffffffffffffffffffff1673ffffffffffffffffffffffffffffffffffffffff1673ffffffffffffffffffffffffffffffffffffffff16815250509050919050565b60007f01ffc9a7000000000000000000000000000000000000000000000000000000007bffffffffffffffffffffffffffffffffffffffffffffffffffffffff1916827bffffffffffffffffffffffffffffffffffffffffffffffffffffffff1916149050919050565b60008073ffffffffffffffffffffffffffffffffffffffff166002600084815260200190815260200160002060009054906101000a900473ffffffffffffffffffffffffffffffffffffffff1673ffffffffffffffffffffffffffffffffffffffff1614159050919050565b600033905090565b816004600083815260200190815260200160002060006101000a81548173ffffffffffffffffffffffffffffffffffffffff021916908373ffffffffffffffffffffffffffffffffffffffff160217905550808273ffffffffffffffffffffffffffffffffffffffff166125f483611446565b73ffffffffffffffffffffffffffffffffffffffff167f8c5be1e5ebec7d5bd14f71427d1e84f3dd0314c0f7b2291e5b200ac8c7c3b92560405160405180910390a45050565b60006126458261250d565b612684576040517f08c379a000000000000000000000000000000000000000000000000000000000815260040161267b90614a60565b60405180910390fd5b600061268f83611446565b90508073ffffffffffffffffffffffffffffffffffffffff168473ffffffffffffffffffffffffffffffffffffffff1614806126d157506126d08185611f2a565b5b8061270f57508373ffffffffffffffffffffffffffffffffffffffff166126f7846107c4565b73ffffffffffffffffffffffffffffffffffffffff16145b91505092915050565b8273ffffffffffffffffffffffffffffffffffffffff1661273882611446565b73ffffffffffffffffffffffffffffffffffffffff161461278e576040517f08c379a000000000000000000000000000000000000000000000000000000000815260040161278590614980565b60405180910390fd5b600073ffffffffffffffffffffffffffffffffffffffff168273ffffffffffffffffffffffffffffffffffffffff1614156127fe576040517f08c379a00000000000000000000000000000000000000000000000000000000081526004016127f590614a00565b60405180910390fd5b61280983838361341f565b612814600082612581565b6001600360008573ffffffffffffffffffffffffffffffffffffffff1673ffffffffffffffffffffffffffffffffffffffff16815260200190815260200160002060008282546128649190614e9a565b925050819055506001600360008473ffffffffffffffffffffffffffffffffffffffff1673ffffffffffffffffffffffffffffffffffffffff16815260200190815260200160002060008282546128bb9190614db9565b92505081905550816002600083815260200190815260200160002060006101000a81548173ffffffffffffffffffffffffffffffffffffffff021916908373ffffffffffffffffffffffffffffffffffffffff160217905550808273ffffffffffffffffffffffffffffffffffffffff168473ffffffffffffffffffffffffffffffffffffffff167fddf252ad1be2c89b69c2b068fc378daa952ba7f163c4a11628f55a4df523b3ef60405160405180910390a461297a838383613424565b505050565b600081600001549050919050565b612a23816040516024016129a19190614c22565b6040516020818303038152906040527ff82c50f1000000000000000000000000000000000000000000000000000000007bffffffffffffffffffffffffffffffffffffffffffffffffffffffff19166020820180517bffffffffffffffffffffffffffffffffffffffffffffffffffffffff8381831617835250505050613429565b50565b612abc81604051602401612a3a919061485a565b6040516020818303038152906040527f41304fac000000000000000000000000000000000000000000000000000000007bffffffffffffffffffffffffffffffffffffffffffffffffffffffff19166020820180517bffffffffffffffffffffffffffffffffffffffffffffffffffffffff8381831617835250505050613429565b50565b60606000821415612b07576040518060400160405280600181526020017f30000000000000000000000000000000000000000000000000000000000000008152509050612c67565b600082905060005b60008214612b39578080612b2290615011565b915050600a82612b329190614e0f565b9150612b0f565b60008167ffffffffffffffff811115612b7b577f4e487b7100000000000000000000000000000000000000000000000000000000600052604160045260246000fd5b6040519080825280601f01601f191660200182016040528015612bad5781602001600182028036833780820191505090505b5090505b60008514612c6057600182612bc69190614e9a565b9150600a85612bd5919061505a565b6030612be19190614db9565b60f81b818381518110612c1d577f4e487b7100000000000000000000000000000000000000000000000000000000600052603260045260246000fd5b60200101907effffffffffffffffffffffffffffffffffffffffffffffffffffffffffffff1916908160001a905350600a85612c599190614e0f565b9450612bb1565b8093505050505b919050565b6060600082511415612c8f57604051806020016040528060008152509050612df1565b6000604051806060016040528060408152602001615ce66040913990506000600360028551612cbe9190614db9565b612cc89190614e0f565b6004612cd49190614e40565b67ffffffffffffffff811115612d13577f4e487b7100000000000000000000000000000000000000000000000000000000600052604160045260246000fd5b6040519080825280601f01601f191660200182016040528015612d455781602001600182028036833780820191505090505b509050600182016020820185865187015b80821015612db1576003820191508151603f8160121c168501518453600184019350603f81600c1c168501518453600184019350603f8160061c168501518453600184019350603f8116850151845360018401935050612d56565b5050600386510660018114612dcd5760028114612de057612de8565b603d6001830353603d6002830353612de8565b603d60018303535b50505080925050505b919050565b6001816000016000828254019250508190555050565b606060006002836002612e1f9190614e40565b612e299190614db9565b67ffffffffffffffff811115612e68577f4e487b7100000000000000000000000000000000000000000000000000000000600052604160045260246000fd5b6040519080825280601f01601f191660200182016040528015612e9a5781602001600182028036833780820191505090505b5090507f300000000000000000000000000000000000000000000000000000000000000081600081518110612ef8577f4e487b7100000000000000000000000000000000000000000000000000000000600052603260045260246000fd5b60200101907effffffffffffffffffffffffffffffffffffffffffffffffffffffffffffff1916908160001a9053507f780000000000000000000000000000000000000000000000000000000000000081600181518110612f82577f4e487b7100000000000000000000000000000000000000000000000000000000600052603260045260246000fd5b60200101907effffffffffffffffffffffffffffffffffffffffffffffffffffffffffffff1916908160001a90535060006001846002612fc29190614e40565b612fcc9190614db9565b90505b60018111156130b8577f3031323334353637383961626364656600000000000000000000000000000000600f861660108110613034577f4e487b7100000000000000000000000000000000000000000000000000000000600052603260045260246000fd5b1a60f81b828281518110613071577f4e487b7100000000000000000000000000000000000000000000000000000000600052603260045260246000fd5b60200101907effffffffffffffffffffffffffffffffffffffffffffffffffffffffffffff1916908160001a905350600485901c9450806130b190614f84565b9050612fcf565b50600084146130fc576040517f08c379a00000000000000000000000000000000000000000000000000000000081526004016130f390614920565b60405180910390fd5b8091505092915050565b8173ffffffffffffffffffffffffffffffffffffffff168373ffffffffffffffffffffffffffffffffffffffff161415613175576040517f08c379a000000000000000000000000000000000000000000000000000000000815260040161316c90614a20565b60405180910390fd5b80600560008573ffffffffffffffffffffffffffffffffffffffff1673ffffffffffffffffffffffffffffffffffffffff16815260200190815260200160002060008473ffffffffffffffffffffffffffffffffffffffff1673ffffffffffffffffffffffffffffffffffffffff16815260200190815260200160002060006101000a81548160ff0219169083151502179055508173ffffffffffffffffffffffffffffffffffffffff168373ffffffffffffffffffffffffffffffffffffffff167f17307eab39ab6107e8899845ad3d59bd9653f200f220920489ca2b5937696c3183604051613266919061483f565b60405180910390a3505050565b61327e848484612718565b61328a84848484613452565b6132c9576040517f08c379a00000000000000000000000000000000000000000000000000000000081526004016132c090614960565b60405180910390fd5b50505050565b606060405180602001604052806000815250905090565b60606132f18261250d565b613330576040517f08c379a000000000000000000000000000000000000000000000000000000000815260040161332790614b60565b60405180910390fd5b600061333a6132cf565b9050600081511161335a5760405180602001604052806000815250613385565b8061336484612abf565b604051602001613375929190614633565b6040516020818303038152906040525b915050919050565b6133a78282604051806020016040528060008152506135e9565b5050565b6133b48261250d565b6133f3576040517f08c379a00000000000000000000000000000000000000000000000000000000081526004016133ea90614ae0565b60405180910390fd5b8060066000848152602001908152602001600020908051906020019061341a929190613886565b505050565b505050565b505050565b60008151905060006a636f6e736f6c652e6c6f679050602083016000808483855afa5050505050565b60006134738473ffffffffffffffffffffffffffffffffffffffff16613644565b156135dc578373ffffffffffffffffffffffffffffffffffffffff1663150b7a0261349c612579565b8786866040518563ffffffff1660e01b81526004016134be94939291906147d1565b602060405180830381600087803b1580156134d857600080fd5b505af192505050801561350957506040513d601f19601f820116820180604052508101906135069190613c32565b60015b61358c573d8060008114613539576040519150601f19603f3d011682016040523d82523d6000602084013e61353e565b606091505b50600081511415613584576040517f08c379a000000000000000000000000000000000000000000000000000000000815260040161357b90614960565b60405180910390fd5b805181602001fd5b63150b7a0260e01b7bffffffffffffffffffffffffffffffffffffffffffffffffffffffff1916817bffffffffffffffffffffffffffffffffffffffffffffffffffffffff1916149150506135e1565b600190505b949350505050565b6135f38383613667565b6136006000848484613452565b61363f576040517f08c379a000000000000000000000000000000000000000000000000000000000815260040161363690614960565b60405180910390fd5b505050565b6000808273ffffffffffffffffffffffffffffffffffffffff163b119050919050565b600073ffffffffffffffffffffffffffffffffffffffff168273ffffffffffffffffffffffffffffffffffffffff1614156136d7576040517f08c379a00000000000000000000000000000000000000000000000000000000081526004016136ce90614b00565b60405180910390fd5b6136e08161250d565b15613720576040517f08c379a0000000000000000000000000000000000000000000000000000000008152600401613717906149a0565b60405180910390fd5b61372c6000838361341f565b6001600360008473ffffffffffffffffffffffffffffffffffffffff1673ffffffffffffffffffffffffffffffffffffffff168152602001908152602001600020600082825461377c9190614db9565b92505081905550816002600083815260200190815260200160002060006101000a81548173ffffffffffffffffffffffffffffffffffffffff021916908373ffffffffffffffffffffffffffffffffffffffff160217905550808273ffffffffffffffffffffffffffffffffffffffff16600073ffffffffffffffffffffffffffffffffffffffff167fddf252ad1be2c89b69c2b068fc378daa952ba7f163c4a11628f55a4df523b3ef60405160405180910390a461383d60008383613424565b5050565b6040518060a0016040528060008152602001606081526020016060815260200160608152602001600073ffffffffffffffffffffffffffffffffffffffff1681525090565b82805461389290614fae565b90600052602060002090601f0160209004810192826138b457600085556138fb565b82601f106138cd57805160ff19168380011785556138fb565b828001600101855582156138fb579182015b828111156138fa5782518255916020019190600101906138df565b5b509050613908919061390c565b5090565b5b8082111561392557600081600090555060010161390d565b5090565b600061393c61393784614cca565b614ca5565b90508281526020810184848401111561395457600080fd5b61395f848285614f42565b509392505050565b600061397a61397584614cfb565b614ca5565b90508281526020810184848401111561399257600080fd5b61399d848285614f42565b509392505050565b6000813590506139b481615c89565b92915050565b6000813590506139c981615ca0565b92915050565b6000813590506139de81615cb7565b92915050565b6000815190506139f381615cb7565b92915050565b600082601f830112613a0a57600080fd5b8135613a1a848260208601613929565b91505092915050565b600082601f830112613a3457600080fd5b8135613a44848260208601613967565b91505092915050565b600081359050613a5c81615cce565b92915050565b600060208284031215613a7457600080fd5b6000613a82848285016139a5565b91505092915050565b60008060408385031215613a9e57600080fd5b6000613aac858286016139a5565b9250506020613abd858286016139a5565b9150509250929050565b600080600060608486031215613adc57600080fd5b6000613aea868287016139a5565b9350506020613afb868287016139a5565b9250506040613b0c86828701613a4d565b9150509250925092565b60008060008060808587031215613b2c57600080fd5b6000613b3a878288016139a5565b9450506020613b4b878288016139a5565b9350506040613b5c87828801613a4d565b925050606085013567ffffffffffffffff811115613b7957600080fd5b613b85878288016139f9565b91505092959194509250565b60008060408385031215613ba457600080fd5b6000613bb2858286016139a5565b9250506020613bc3858286016139ba565b9150509250929050565b60008060408385031215613be057600080fd5b6000613bee858286016139a5565b9250506020613bff85828601613a4d565b9150509250929050565b600060208284031215613c1b57600080fd5b6000613c29848285016139cf565b91505092915050565b600060208284031215613c4457600080fd5b6000613c52848285016139e4565b91505092915050565b600080600060608486031215613c7057600080fd5b600084013567ffffffffffffffff811115613c8a57600080fd5b613c9686828701613a23565b935050602084013567ffffffffffffffff811115613cb357600080fd5b613cbf86828701613a23565b925050604084013567ffffffffffffffff811115613cdc57600080fd5b613ce886828701613a23565b9150509250925092565b600060208284031215613d0457600080fd5b6000613d1284828501613a4d565b91505092915050565b600080600060608486031215613d3057600080fd5b6000613d3e86828701613a4d565b935050602084013567ffffffffffffffff811115613d5b57600080fd5b613d6786828701613a23565b925050604084013567ffffffffffffffff811115613d8457600080fd5b613d9086828701613a23565b9150509250925092565b6000613da6838361450d565b905092915050565b613db781614ece565b82525050565b613dc681614ece565b82525050565b6000613dd782614d3c565b613de18185614d6a565b935083602082028501613df385614d2c565b8060005b85811015613e2f5784840389528151613e108582613d9a565b9450613e1b83614d5d565b925060208a01995050600181019050613df7565b50829750879550505050505092915050565b613e4a81614ee0565b82525050565b6000613e5b82614d47565b613e658185614d7b565b9350613e75818560208601614f51565b613e7e81615147565b840191505092915050565b6000613e9482614d52565b613e9e8185614d8c565b9350613eae818560208601614f51565b613eb781615147565b840191505092915050565b6000613ecd82614d52565b613ed78185614d9d565b9350613ee7818560208601614f51565b613ef081615147565b840191505092915050565b6000613f0682614d52565b613f108185614dae565b9350613f20818560208601614f51565b80840191505092915050565b6000613f39602083614d9d565b9150613f4482615158565b602082019050919050565b6000613f5c601783614d9d565b9150613f6782615181565b602082019050919050565b6000613f7f603283614d9d565b9150613f8a826151aa565b604082019050919050565b6000613fa2600283614dae565b9150613fad826151f9565b600282019050919050565b6000613fc5600283614dae565b9150613fd082615222565b600282019050919050565b6000613fe8602583614d9d565b9150613ff38261524b565b604082019050919050565b600061400b600883614dae565b91506140168261529a565b600882019050919050565b600061402e601c83614d9d565b9150614039826152c3565b602082019050919050565b6000614051603083614dae565b915061405c826152ec565b603082019050919050565b6000614074601083614d9d565b915061407f8261533b565b602082019050919050565b6000614097606283614dae565b91506140a282615364565b606282019050919050565b60006140ba601d83614d9d565b91506140c5826153ff565b602082019050919050565b60006140dd602483614d9d565b91506140e882615428565b604082019050919050565b6000614100601983614d9d565b915061410b82615477565b602082019050919050565b6000614123605383614dae565b915061412e826154a0565b605382019050919050565b6000614146601783614d9d565b915061415182615515565b602082019050919050565b6000614169602c83614d9d565b91506141748261553e565b604082019050919050565b600061418c603883614d9d565b91506141978261558d565b604082019050919050565b60006141af600183614dae565b91506141ba826155dc565b600182019050919050565b60006141d2602a83614d9d565b91506141dd82615605565b604082019050919050565b60006141f560cf83614dae565b915061420082615654565b60cf82019050919050565b6000614218602983614d9d565b915061422382615761565b604082019050919050565b600061423b602e83614d9d565b9150614246826157b0565b604082019050919050565b600061425e600783614dae565b9150614269826157ff565b600782019050919050565b6000614281602083614d9d565b915061428c82615828565b602082019050919050565b60006142a4600183614dae565b91506142af82615851565b600182019050919050565b60006142c7603183614d9d565b91506142d28261587a565b604082019050919050565b60006142ea602c83614d9d565b91506142f5826158c9565b604082019050919050565b600061430d601e83614dae565b915061431882615918565b601e82019050919050565b6000614330600683614d9d565b915061433b82615941565b602082019050919050565b6000614353602f83614d9d565b915061435e8261596a565b604082019050919050565b6000614376600183614dae565b9150614381826159b9565b600182019050919050565b6000614399602183614d9d565b91506143a4826159e2565b604082019050919050565b60006143bc604a83614dae565b91506143c782615a31565b604a82019050919050565b60006143df601d83614dae565b91506143ea82615aa6565b601d82019050919050565b6000614402605383614dae565b915061440d82615acf565b605382019050919050565b6000614425603183614d9d565b915061443082615b44565b604082019050919050565b6000614448601483614d9d565b915061445382615b93565b602082019050919050565b600061446b600a83614dae565b915061447682615bbc565b600a82019050919050565b600061448e601883614d9d565b915061449982615be5565b602082019050919050565b60006144b1600683614dae565b91506144bc82615c0e565b600682019050919050565b60006144d4601a83614dae565b91506144df82615c37565b601a82019050919050565b60006144f7600783614dae565b915061450282615c60565b600782019050919050565b600060a0830160008301516145256000860182614615565b506020830151848203602086015261453d8282613e89565b915050604083015184820360408601526145578282613e89565b915050606083015184820360608601526145718282613e89565b91505060808301516145866080860182613dae565b508091505092915050565b600060a0830160008301516145a96000860182614615565b50602083015184820360208601526145c18282613e89565b915050604083015184820360408601526145db8282613e89565b915050606083015184820360608601526145f58282613e89565b915050608083015161460a6080860182613dae565b508091505092915050565b61461e81614f38565b82525050565b61462d81614f38565b82525050565b600061463f8285613efb565b915061464b8284613efb565b91508190509392505050565b60006146628261408a565b915061466d826143af565b915061467882614044565b915061468382614116565b915061468e826144ea565b915061469a8285613efb565b91506146a582614251565b91506146b0826143f5565b91506146bb82613ffe565b91506146c78284613efb565b91506146d282614251565b91506146dd826144a4565b91508190509392505050565b60006146f482614369565b91506146ff82614300565b915061470b8286613efb565b915061471682613f95565b91506147228285613efb565b915061472d82613fb8565b9150614738826141e8565b91506147438261445e565b915061474f8284613efb565b915061475a826141a2565b915061476582614297565b9150819050949350505050565b600061477d826143d2565b91506147898284613efb565b915081905092915050565b600061479f826144c7565b91506147ab8284613efb565b915081905092915050565b60006020820190506147cb6000830184613dbd565b92915050565b60006080820190506147e66000830187613dbd565b6147f36020830186613dbd565b6148006040830185614624565b81810360608301526148128184613e50565b905095945050505050565b600060208201905081810360008301526148378184613dcc565b905092915050565b60006020820190506148546000830184613e41565b92915050565b600060208201905081810360008301526148748184613ec2565b905092915050565b600060808201905081810360008301526148968187613ec2565b905081810360208301526148aa8186613ec2565b90506148b96040830185613dbd565b81810360608301526148cb8184613ec2565b905095945050505050565b600060608201905081810360008301526148f08185613ec2565b905081810360208301526149048184613ec2565b9050818103604083015261491781614323565b90509392505050565b6000602082019050818103600083015261493981613f2c565b9050919050565b6000602082019050818103600083015261495981613f4f565b9050919050565b6000602082019050818103600083015261497981613f72565b9050919050565b6000602082019050818103600083015261499981613fdb565b9050919050565b600060208201905081810360008301526149b981614021565b9050919050565b600060208201905081810360008301526149d981614067565b9050919050565b600060208201905081810360008301526149f9816140ad565b9050919050565b60006020820190508181036000830152614a19816140d0565b9050919050565b60006020820190508181036000830152614a39816140f3565b9050919050565b60006020820190508181036000830152614a5981614139565b9050919050565b60006020820190508181036000830152614a798161415c565b9050919050565b60006020820190508181036000830152614a998161417f565b9050919050565b60006020820190508181036000830152614ab9816141c5565b9050919050565b60006020820190508181036000830152614ad98161420b565b9050919050565b60006020820190508181036000830152614af98161422e565b9050919050565b60006020820190508181036000830152614b1981614274565b9050919050565b60006020820190508181036000830152614b39816142ba565b9050919050565b60006020820190508181036000830152614b59816142dd565b9050919050565b60006020820190508181036000830152614b7981614346565b9050919050565b60006020820190508181036000830152614b998161438c565b9050919050565b60006020820190508181036000830152614bb981614418565b9050919050565b60006020820190508181036000830152614bd98161443b565b9050919050565b60006020820190508181036000830152614bf981614481565b9050919050565b60006020820190508181036000830152614c1a8184614591565b905092915050565b6000602082019050614c376000830184614624565b92915050565b600060a082019050614c526000830188614624565b8181036020830152614c648187613ec2565b90508181036040830152614c788186613ec2565b90508181036060830152614c8c8185613ec2565b9050614c9b6080830184613dbd565b9695505050505050565b6000614caf614cc0565b9050614cbb8282614fe0565b919050565b6000604051905090565b600067ffffffffffffffff821115614ce557614ce4615118565b5b614cee82615147565b9050602081019050919050565b600067ffffffffffffffff821115614d1657614d15615118565b5b614d1f82615147565b9050602081019050919050565b6000819050602082019050919050565b600081519050919050565b600081519050919050565b600081519050919050565b6000602082019050919050565b600082825260208201905092915050565b600082825260208201905092915050565b600082825260208201905092915050565b600082825260208201905092915050565b600081905092915050565b6000614dc482614f38565b9150614dcf83614f38565b9250827fffffffffffffffffffffffffffffffffffffffffffffffffffffffffffffffff03821115614e0457614e0361508b565b5b828201905092915050565b6000614e1a82614f38565b9150614e2583614f38565b925082614e3557614e346150ba565b5b828204905092915050565b6000614e4b82614f38565b9150614e5683614f38565b9250817fffffffffffffffffffffffffffffffffffffffffffffffffffffffffffffffff0483118215151615614e8f57614e8e61508b565b5b828202905092915050565b6000614ea582614f38565b9150614eb083614f38565b925082821015614ec357614ec261508b565b5b828203905092915050565b6000614ed982614f18565b9050919050565b60008115159050919050565b60007fffffffff0000000000000000000000000000000000000000000000000000000082169050919050565b600073ffffffffffffffffffffffffffffffffffffffff82169050919050565b6000819050919050565b82818337600083830152505050565b60005b83811015614f6f578082015181840152602081019050614f54565b83811115614f7e576000848401525b50505050565b6000614f8f82614f38565b91506000821415614fa357614fa261508b565b5b600182039050919050565b60006002820490506001821680614fc657607f821691505b60208210811415614fda57614fd96150e9565b5b50919050565b614fe982615147565b810181811067ffffffffffffffff8211171561500857615007615118565b5b80604052505050565b600061501c82614f38565b91507fffffffffffffffffffffffffffffffffffffffffffffffffffffffffffffffff82141561504f5761504e61508b565b5b600182019050919050565b600061506582614f38565b915061507083614f38565b9250826150805761507f6150ba565b5b828206905092915050565b7f4e487b7100000000000000000000000000000000000000000000000000000000600052601160045260246000fd5b7f4e487b7100000000000000000000000000000000000000000000000000000000600052601260045260246000fd5b7f4e487b7100000000000000000000000000000000000000000000000000000000600052602260045260246000fd5b7f4e487b7100000000000000000000000000000000000000000000000000000000600052604160045260246000fd5b6000601f19601f8301169050919050565b7f537472696e67733a20686578206c656e67746820696e73756666696369656e74600082015250565b7f43616c6c6572206973206e6f7420746865206f776e6572000000000000000000600082015250565b7f4552433732313a207472616e7366657220746f206e6f6e20455243373231526560008201527f63656976657220696d706c656d656e7465720000000000000000000000000000602082015250565b7f2023000000000000000000000000000000000000000000000000000000000000600082015250565b7f222c000000000000000000000000000000000000000000000000000000000000600082015250565b7f4552433732313a207472616e736665722066726f6d20696e636f72726563742060008201527f6f776e6572000000000000000000000000000000000000000000000000000000602082015250565b7f417574686f723a20000000000000000000000000000000000000000000000000600082015250565b7f4552433732313a20746f6b656e20616c7265616479206d696e74656400000000600082015250565b7f3c726563742077696474683d223130302522206865696768743d22313030252260008201527f2066696c6c3d22626c61636b22202f3e00000000000000000000000000000000602082015250565b7f546f6b656e20646f657320657869737400000000000000000000000000000000600082015250565b7f3c73766720786d6c6e733d22687474703a2f2f7777772e77332e6f72672f323060008201527f30302f73766722207072657365727665417370656374526174696f3d22784d6960208201527f6e594d696e206d656574222076696577426f783d22302030203335302033353060408201527f223e000000000000000000000000000000000000000000000000000000000000606082015250565b7f4465736372697074696f6e206d757374206265206e6f6e2d656d707479000000600082015250565b7f4552433732313a207472616e7366657220746f20746865207a65726f2061646460008201527f7265737300000000000000000000000000000000000000000000000000000000602082015250565b7f4552433732313a20617070726f766520746f2063616c6c657200000000000000600082015250565b7f3c7465787420783d223530252220793d223430252220636c6173733d2262617360008201527f652220646f6d696e616e742d626173656c696e653d226d6964646c652220746560208201527f78742d616e63686f723d226d6964646c65223e00000000000000000000000000604082015250565b7f5469746c65206d757374206265206e6f6e2d656d707479000000000000000000600082015250565b7f4552433732313a206f70657261746f7220717565727920666f72206e6f6e657860008201527f697374656e7420746f6b656e0000000000000000000000000000000000000000602082015250565b7f4552433732313a20617070726f76652063616c6c6572206973206e6f74206f7760008201527f6e6572206e6f7220617070726f76656420666f7220616c6c0000000000000000602082015250565b7f2200000000000000000000000000000000000000000000000000000000000000600082015250565b7f4552433732313a2062616c616e636520717565727920666f7220746865207a6560008201527f726f206164647265737300000000000000000000000000000000000000000000602082015250565b7f226465736372697074696f6e223a20224372656164657220436f70797269676860008201527f74206973206120556e69717565204e4654206275696c74206261736564206f6e60208201527f2074686520455243373231207374616e6461726420746f20726570726573656e60408201527f7420746865206f776e657273686970206f662074686520626f6f6b2e2057652060608201527f77616e7420746f20757365207468697320746f6b656e20746f2068656c70207060808201527f757368696e672074686520757365206f66204e465420696e20636f707972696760a08201527f687420616e64204950206c6177222c000000000000000000000000000000000060c082015250565b7f4552433732313a206f776e657220717565727920666f72206e6f6e657869737460008201527f656e7420746f6b656e0000000000000000000000000000000000000000000000602082015250565b7f45524337323155524953746f726167653a2055524920736574206f66206e6f6e60008201527f6578697374656e7420746f6b656e000000000000000000000000000000000000602082015250565b7f3c2f746578743e00000000000000000000000000000000000000000000000000600082015250565b7f4552433732313a206d696e7420746f20746865207a65726f2061646472657373600082015250565b7f7d00000000000000000000000000000000000000000000000000000000000000600082015250565b7f45524337323155524953746f726167653a2055524920717565727920666f722060008201527f6e6f6e6578697374656e7420746f6b656e000000000000000000000000000000602082015250565b7f4552433732313a20617070726f76656420717565727920666f72206e6f6e657860008201527f697374656e7420746f6b656e0000000000000000000000000000000000000000602082015250565b7f226e616d65223a20224372656164657244414f20436f70797269676874200000600082015250565b7f6163746976650000000000000000000000000000000000000000000000000000600082015250565b7f4552433732314d657461646174613a2055524920717565727920666f72206e6f60008201527f6e6578697374656e7420746f6b656e0000000000000000000000000000000000602082015250565b7f7b00000000000000000000000000000000000000000000000000000000000000600082015250565b7f4552433732313a20617070726f76616c20746f2063757272656e74206f776e6560008201527f7200000000000000000000000000000000000000000000000000000000000000602082015250565b7f3c7374796c653e2e62617365207b2066696c6c3a2077686974653b20666f6e7460008201527f2d66616d696c793a2073657269663b20666f6e742d73697a653a20313470783b60208201527f207d3c2f7374796c653e00000000000000000000000000000000000000000000604082015250565b7f646174613a6170706c69636174696f6e2f6a736f6e3b6261736536342c000000600082015250565b7f3c7465787420783d223530252220793d223530252220636c6173733d2262617360008201527f652220646f6d696e616e742d626173656c696e653d226d6964646c652220746560208201527f78742d616e63686f723d226d6964646c65223e00000000000000000000000000604082015250565b7f4552433732313a207472616e736665722063616c6c6572206973206e6f74206f60008201527f776e6572206e6f7220617070726f766564000000000000000000000000000000602082015250565b7f436f76657220646f6573206e6f74206578697374000000000000000000000000600082015250565b7f22696d616765223a202200000000000000000000000000000000000000000000600082015250565b7f537461747573206d757374206265206e6f6e2d656d7074790000000000000000600082015250565b7f3c2f7376673e0000000000000000000000000000000000000000000000000000600082015250565b7f646174613a696d6167652f7376672b786d6c3b6261736536342c000000000000600082015250565b7f5469746c653a2000000000000000000000000000000000000000000000000000600082015250565b615c9281614ece565b8114615c9d57600080fd5b50565b615ca981614ee0565b8114615cb457600080fd5b50565b615cc081614eec565b8114615ccb57600080fd5b50565b615cd781614f38565b8114615ce257600080fd5b5056fe4142434445464748494a4b4c4d4e4f505152535455565758595a6162636465666768696a6b6c6d6e6f707172737475767778797a303132333435363738392b2fa264697066735822122010db7c958f342621498ca4d74d8c4bf037c03b9c4427e41c8872632b02f0cb7e64736f6c63430008040033",
  "linkReferences": {},
  "deployedLinkReferences": {}
}